{
  "_format": "hh-sol-artifact-1",
  "contractName": "SimpleAMM",
  "sourceName": "contracts/SimpleAMM.sol",
  "abi": [
    {
      "inputs": [
        {
          "internalType": "address",
          "name": "_tokenA",
          "type": "address"
        },
        {
          "internalType": "address",
          "name": "_tokenB",
          "type": "address"
        }
      ],
      "stateMutability": "nonpayable",
      "type": "constructor"
    },
    {
      "anonymous": false,
      "inputs": [
        {
          "indexed": true,
          "internalType": "address",
          "name": "owner",
          "type": "address"
        },
        {
          "indexed": true,
          "internalType": "address",
          "name": "spender",
          "type": "address"
        },
        {
          "indexed": false,
          "internalType": "uint256",
          "name": "value",
          "type": "uint256"
        }
      ],
      "name": "Approval",
      "type": "event"
    },
    {
      "anonymous": false,
      "inputs": [
        {
          "indexed": true,
          "internalType": "address",
          "name": "provider",
          "type": "address"
        },
        {
          "indexed": false,
          "internalType": "uint256",
          "name": "amountA",
          "type": "uint256"
        },
        {
          "indexed": false,
          "internalType": "uint256",
          "name": "amountB",
          "type": "uint256"
        },
        {
          "indexed": false,
          "internalType": "uint256",
          "name": "liquidity",
          "type": "uint256"
        }
      ],
      "name": "Deposit",
      "type": "event"
    },
    {
      "anonymous": false,
      "inputs": [
        {
          "indexed": true,
          "internalType": "address",
          "name": "provider",
          "type": "address"
        },
        {
          "indexed": false,
          "internalType": "uint256",
          "name": "amountA",
          "type": "uint256"
        },
        {
          "indexed": false,
          "internalType": "uint256",
          "name": "amountB",
          "type": "uint256"
        },
        {
          "indexed": false,
          "internalType": "uint256",
          "name": "liquidity",
          "type": "uint256"
        }
      ],
      "name": "Redeem",
      "type": "event"
    },
    {
      "anonymous": false,
      "inputs": [
        {
          "indexed": true,
          "internalType": "address",
          "name": "user",
          "type": "address"
        },
        {
          "indexed": true,
          "internalType": "address",
          "name": "tokenIn",
          "type": "address"
        },
        {
          "indexed": false,
          "internalType": "uint256",
          "name": "amountIn",
          "type": "uint256"
        },
        {
          "indexed": false,
          "internalType": "uint256",
          "name": "amountOut",
          "type": "uint256"
        }
      ],
      "name": "Swap",
      "type": "event"
    },
    {
      "anonymous": false,
      "inputs": [
        {
          "indexed": false,
          "internalType": "uint256",
          "name": "reserveA",
          "type": "uint256"
        },
        {
          "indexed": false,
          "internalType": "uint256",
          "name": "reserveB",
          "type": "uint256"
        }
      ],
      "name": "Sync",
      "type": "event"
    },
    {
      "anonymous": false,
      "inputs": [
        {
          "indexed": true,
          "internalType": "address",
          "name": "from",
          "type": "address"
        },
        {
          "indexed": true,
          "internalType": "address",
          "name": "to",
          "type": "address"
        },
        {
          "indexed": false,
          "internalType": "uint256",
          "name": "value",
          "type": "uint256"
        }
      ],
      "name": "Transfer",
      "type": "event"
    },
    {
      "inputs": [
        {
          "internalType": "address",
          "name": "owner",
          "type": "address"
        },
        {
          "internalType": "address",
          "name": "spender",
          "type": "address"
        }
      ],
      "name": "allowance",
      "outputs": [
        {
          "internalType": "uint256",
          "name": "",
          "type": "uint256"
        }
      ],
      "stateMutability": "view",
      "type": "function"
    },
    {
      "inputs": [
        {
          "internalType": "address",
          "name": "spender",
          "type": "address"
        },
        {
          "internalType": "uint256",
          "name": "amount",
          "type": "uint256"
        }
      ],
      "name": "approve",
      "outputs": [
        {
          "internalType": "bool",
          "name": "",
          "type": "bool"
        }
      ],
      "stateMutability": "nonpayable",
      "type": "function"
    },
    {
      "inputs": [
        {
          "internalType": "address",
          "name": "account",
          "type": "address"
        }
      ],
      "name": "balanceOf",
      "outputs": [
        {
          "internalType": "uint256",
          "name": "",
          "type": "uint256"
        }
      ],
      "stateMutability": "view",
      "type": "function"
    },
    {
      "inputs": [],
      "name": "decimals",
      "outputs": [
        {
          "internalType": "uint8",
          "name": "",
          "type": "uint8"
        }
      ],
      "stateMutability": "view",
      "type": "function"
    },
    {
      "inputs": [
        {
          "internalType": "address",
          "name": "spender",
          "type": "address"
        },
        {
          "internalType": "uint256",
          "name": "subtractedValue",
          "type": "uint256"
        }
      ],
      "name": "decreaseAllowance",
      "outputs": [
        {
          "internalType": "bool",
          "name": "",
          "type": "bool"
        }
      ],
      "stateMutability": "nonpayable",
      "type": "function"
    },
    {
      "inputs": [
        {
          "internalType": "uint256",
          "name": "amountA",
          "type": "uint256"
        },
        {
          "internalType": "uint256",
          "name": "amountB",
          "type": "uint256"
        }
      ],
      "name": "deposit",
      "outputs": [
        {
          "internalType": "uint256",
          "name": "liquidity",
          "type": "uint256"
        }
      ],
      "stateMutability": "nonpayable",
      "type": "function"
    },
    {
      "inputs": [
        {
          "internalType": "uint256",
          "name": "amountOut",
          "type": "uint256"
        },
        {
          "internalType": "uint256",
          "name": "reserveIn",
          "type": "uint256"
        },
        {
          "internalType": "uint256",
          "name": "reserveOut",
          "type": "uint256"
        }
      ],
      "name": "getAmountIn",
      "outputs": [
        {
          "internalType": "uint256",
          "name": "amountIn",
          "type": "uint256"
        }
      ],
      "stateMutability": "pure",
      "type": "function"
    },
    {
      "inputs": [
        {
          "internalType": "uint256",
          "name": "amountIn",
          "type": "uint256"
        },
        {
          "internalType": "uint256",
          "name": "reserveIn",
          "type": "uint256"
        },
        {
          "internalType": "uint256",
          "name": "reserveOut",
          "type": "uint256"
        }
      ],
      "name": "getAmountOut",
      "outputs": [
        {
          "internalType": "uint256",
          "name": "amountOut",
          "type": "uint256"
        }
      ],
      "stateMutability": "pure",
      "type": "function"
    },
    {
      "inputs": [],
      "name": "getReserves",
      "outputs": [
        {
          "internalType": "uint256",
          "name": "_reserveA",
          "type": "uint256"
        },
        {
          "internalType": "uint256",
          "name": "_reserveB",
          "type": "uint256"
        }
      ],
      "stateMutability": "view",
      "type": "function"
    },
    {
      "inputs": [
        {
          "internalType": "address",
          "name": "spender",
          "type": "address"
        },
        {
          "internalType": "uint256",
          "name": "addedValue",
          "type": "uint256"
        }
      ],
      "name": "increaseAllowance",
      "outputs": [
        {
          "internalType": "bool",
          "name": "",
          "type": "bool"
        }
      ],
      "stateMutability": "nonpayable",
      "type": "function"
    },
    {
      "inputs": [],
      "name": "name",
      "outputs": [
        {
          "internalType": "string",
          "name": "",
          "type": "string"
        }
      ],
      "stateMutability": "view",
      "type": "function"
    },
    {
      "inputs": [
        {
          "internalType": "uint256",
          "name": "liquidity",
          "type": "uint256"
        }
      ],
      "name": "redeem",
      "outputs": [
        {
          "internalType": "uint256",
          "name": "amountA",
          "type": "uint256"
        },
        {
          "internalType": "uint256",
          "name": "amountB",
          "type": "uint256"
        }
      ],
      "stateMutability": "nonpayable",
      "type": "function"
    },
    {
      "inputs": [],
      "name": "reserveA",
      "outputs": [
        {
          "internalType": "uint256",
          "name": "",
          "type": "uint256"
        }
      ],
      "stateMutability": "view",
      "type": "function"
    },
    {
      "inputs": [],
      "name": "reserveB",
      "outputs": [
        {
          "internalType": "uint256",
          "name": "",
          "type": "uint256"
        }
      ],
      "stateMutability": "view",
      "type": "function"
    },
    {
      "inputs": [
        {
          "internalType": "address",
          "name": "tokenIn",
          "type": "address"
        },
        {
          "internalType": "uint256",
          "name": "amountIn",
          "type": "uint256"
        },
        {
          "internalType": "uint256",
          "name": "minAmountOut",
          "type": "uint256"
        }
      ],
      "name": "swap",
      "outputs": [
        {
          "internalType": "uint256",
          "name": "amountOut",
          "type": "uint256"
        }
      ],
      "stateMutability": "nonpayable",
      "type": "function"
    },
    {
      "inputs": [],
      "name": "symbol",
      "outputs": [
        {
          "internalType": "string",
          "name": "",
          "type": "string"
        }
      ],
      "stateMutability": "view",
      "type": "function"
    },
    {
      "inputs": [],
      "name": "tokenA",
      "outputs": [
        {
          "internalType": "contract IERC20",
          "name": "",
          "type": "address"
        }
      ],
      "stateMutability": "view",
      "type": "function"
    },
    {
      "inputs": [],
      "name": "tokenB",
      "outputs": [
        {
          "internalType": "contract IERC20",
          "name": "",
          "type": "address"
        }
      ],
      "stateMutability": "view",
      "type": "function"
    },
    {
      "inputs": [],
      "name": "totalSupply",
      "outputs": [
        {
          "internalType": "uint256",
          "name": "",
          "type": "uint256"
        }
      ],
      "stateMutability": "view",
      "type": "function"
    },
    {
      "inputs": [
        {
          "internalType": "address",
          "name": "to",
          "type": "address"
        },
        {
          "internalType": "uint256",
          "name": "amount",
          "type": "uint256"
        }
      ],
      "name": "transfer",
      "outputs": [
        {
          "internalType": "bool",
          "name": "",
          "type": "bool"
        }
      ],
      "stateMutability": "nonpayable",
      "type": "function"
    },
    {
      "inputs": [
        {
          "internalType": "address",
          "name": "from",
          "type": "address"
        },
        {
          "internalType": "address",
          "name": "to",
          "type": "address"
        },
        {
          "internalType": "uint256",
          "name": "amount",
          "type": "uint256"
        }
      ],
      "name": "transferFrom",
      "outputs": [
        {
          "internalType": "bool",
          "name": "",
          "type": "bool"
        }
      ],
      "stateMutability": "nonpayable",
      "type": "function"
    }
  ],
  "bytecode": "0x60c06040523480156200001157600080fd5b5060405162004844380380620048448339818101604052810190620000379190620004a7565b6040518060400160405280601281526020017f53696d706c65414d4d204c5020546f6b656e00000000000000000000000000008152506040518060400160405280600781526020017f53414d4d2d4c50000000000000000000000000000000000000000000000000008152508160039081620000b4919062000768565b508060049081620000c6919062000768565b5050506001600581905550620000ed6715cab6cf9ecd2a0b60c01b6200043a60201b60201c565b6200010967dbc06ebd16964a8360c01b6200043a60201b60201c565b6200012567946b39b4afbcc50860c01b6200043a60201b60201c565b6200014167b826fcff8ebb591c60c01b6200043a60201b60201c565b600073ffffffffffffffffffffffffffffffffffffffff168273ffffffffffffffffffffffffffffffffffffffff1603620001b3576040517f08c379a0000000000000000000000000000000000000000000000000000000008152600401620001aa90620008b0565b60405180910390fd5b620001cf6796d5073eaa592f5c60c01b6200043a60201b60201c565b620001eb6715a11c673ad53fcf60c01b6200043a60201b60201c565b620002076762bcb96409d69a4b60c01b6200043a60201b60201c565b620002236783c5202b83dfc8f860c01b6200043a60201b60201c565b600073ffffffffffffffffffffffffffffffffffffffff168173ffffffffffffffffffffffffffffffffffffffff160362000295576040517f08c379a00000000000000000000000000000000000000000000000000000000081526004016200028c9062000922565b60405180910390fd5b620002b16775aec4473c25e2e360c01b6200043a60201b60201c565b620002cd67144dc58d9443261060c01b6200043a60201b60201c565b620002e96761ea3cb1049cb58d60c01b6200043a60201b60201c565b620003056701c0df4e4759d46d60c01b6200043a60201b60201c565b8073ffffffffffffffffffffffffffffffffffffffff168273ffffffffffffffffffffffffffffffffffffffff160362000376576040517f08c379a00000000000000000000000000000000000000000000000000000000081526004016200036d9062000994565b60405180910390fd5b62000392677d292d469145d83060c01b6200043a60201b60201c565b620003ae67d83540ceef8ed6e960c01b6200043a60201b60201c565b8173ffffffffffffffffffffffffffffffffffffffff1660808173ffffffffffffffffffffffffffffffffffffffff1681525050620003fe67abe80f8d449ab55560c01b6200043a60201b60201c565b8073ffffffffffffffffffffffffffffffffffffffff1660a08173ffffffffffffffffffffffffffffffffffffffff16815250505050620009b6565b50565b600080fd5b600073ffffffffffffffffffffffffffffffffffffffff82169050919050565b60006200046f8262000442565b9050919050565b620004818162000462565b81146200048d57600080fd5b50565b600081519050620004a18162000476565b92915050565b60008060408385031215620004c157620004c06200043d565b5b6000620004d18582860162000490565b9250506020620004e48582860162000490565b9150509250929050565b600081519050919050565b7f4e487b7100000000000000000000000000000000000000000000000000000000600052604160045260246000fd5b7f4e487b7100000000000000000000000000000000000000000000000000000000600052602260045260246000fd5b600060028204905060018216806200057057607f821691505b60208210810362000586576200058562000528565b5b50919050565b60008190508160005260206000209050919050565b60006020601f8301049050919050565b600082821b905092915050565b600060088302620005f07fffffffffffffffffffffffffffffffffffffffffffffffffffffffffffffffff82620005b1565b620005fc8683620005b1565b95508019841693508086168417925050509392505050565b6000819050919050565b6000819050919050565b600062000649620006436200063d8462000614565b6200061e565b62000614565b9050919050565b6000819050919050565b620006658362000628565b6200067d620006748262000650565b848454620005be565b825550505050565b600090565b6200069462000685565b620006a18184846200065a565b505050565b5b81811015620006c957620006bd6000826200068a565b600181019050620006a7565b5050565b601f8211156200071857620006e2816200058c565b620006ed84620005a1565b81016020851015620006fd578190505b620007156200070c85620005a1565b830182620006a6565b50505b505050565b600082821c905092915050565b60006200073d600019846008026200071d565b1980831691505092915050565b60006200075883836200072a565b9150826002028217905092915050565b6200077382620004ee565b67ffffffffffffffff8111156200078f576200078e620004f9565b5b6200079b825462000557565b620007a8828285620006cd565b600060209050601f831160018114620007e05760008415620007cb578287015190505b620007d785826200074a565b86555062000847565b601f198416620007f0866200058c565b60005b828110156200081a57848901518255600182019150602085019450602081019050620007f3565b868310156200083a578489015162000836601f8916826200072a565b8355505b6001600288020188555050505b505050505050565b600082825260208201905092915050565b7f496e76616c696420746f6b656e20412061646472657373000000000000000000600082015250565b6000620008986017836200084f565b9150620008a58262000860565b602082019050919050565b60006020820190508181036000830152620008cb8162000889565b9050919050565b7f496e76616c696420746f6b656e20422061646472657373000000000000000000600082015250565b60006200090a6017836200084f565b91506200091782620008d2565b602082019050919050565b600060208201905081810360008301526200093d81620008fb565b9050919050565b7f4964656e746963616c2061646472657373657300000000000000000000000000600082015250565b60006200097c6013836200084f565b9150620009898262000944565b602082019050919050565b60006020820190508181036000830152620009af816200096d565b9050919050565b60805160a051613e1b62000a296000396000818161085e01528181610d7c015281816111ea0152818161189d01528181611c5701526126f50152600081816107bb01528181610d0b01528181610e65015281816112ca015281816117d601528181611b8e01526126410152613e1b6000f3fe608060405234801561001057600080fd5b50600436106101375760003560e01c80635f64b55b116100b8578063a457c2d71161007c578063a457c2d71461037d578063a9059cbb146103ad578063db006a75146103dd578063dc5fa6c51461040e578063dd62ed3e1461042c578063e2bbb1581461045c57610137565b80635f64b55b146102b157806370a08231146102cf57806385f8c259146102ff57806395d89b411461032f5780639f1d0f591461034d57610137565b806318160ddd116100ff57806318160ddd146101f757806319e36f3b1461021557806323b872dd14610233578063313ce56714610263578063395093511461028157610137565b8063054d50d41461013c57806306fdde031461016c5780630902f1ac1461018a578063095ea7b3146101a95780630fc63d10146101d9575b600080fd5b61015660048036038101906101519190612d5f565b61048c565b6040516101639190612dc1565b60405180910390f35b6101746106b7565b6040516101819190612e6c565b60405180910390f35b610192610749565b6040516101a0929190612e8e565b60405180910390f35b6101c360048036038101906101be9190612f15565b610796565b6040516101d09190612f70565b60405180910390f35b6101e16107b9565b6040516101ee9190612fea565b60405180910390f35b6101ff6107dd565b60405161020c9190612dc1565b60405180910390f35b61021d6107e7565b60405161022a9190612dc1565b60405180910390f35b61024d60048036038101906102489190613005565b6107ed565b60405161025a9190612f70565b60405180910390f35b61026b61081c565b6040516102789190613074565b60405180910390f35b61029b60048036038101906102969190612f15565b610825565b6040516102a89190612f70565b60405180910390f35b6102b961085c565b6040516102c69190612fea565b60405180910390f35b6102e960048036038101906102e4919061308f565b610880565b6040516102f69190612dc1565b60405180910390f35b61031960048036038101906103149190612d5f565b6108c8565b6040516103269190612dc1565b60405180910390f35b610337610b63565b6040516103449190612e6c565b60405180910390f35b610367600480360381019061036291906130bc565b610bf5565b6040516103749190612dc1565b60405180910390f35b61039760048036038101906103929190612f15565b61143a565b6040516103a49190612f70565b60405180910390f35b6103c760048036038101906103c29190612f15565b6114b1565b6040516103d49190612f70565b60405180910390f35b6103f760048036038101906103f2919061310f565b6114d4565b604051610405929190612e8e565b60405180910390f35b6104166119f2565b6040516104239190612dc1565b60405180910390f35b6104466004803603810190610441919061313c565b6119f8565b6040516104539190612dc1565b60405180910390f35b6104766004803603810190610471919061317c565b611a7f565b6040516104839190612dc1565b60405180910390f35b60006104a267969366b48275dfbc60c01b6120e0565b6104b66794c707b9e8f2523f60c01b6120e0565b6104ca677afec39f045fcb7960c01b6120e0565b6104de6770d324de3282987e60c01b6120e0565b60008411610521576040517f08c379a000000000000000000000000000000000000000000000000000000000815260040161051890613208565b60405180910390fd5b610535673fd1ec74ea770d6b60c01b6120e0565b6105496795b30a8db5844ba860c01b6120e0565b61055d67d1ea6dc3b42166ec60c01b6120e0565b61057167e193066bc402007c60c01b6120e0565b6000831180156105815750600082115b6105c0576040517f08c379a00000000000000000000000000000000000000000000000000000000081526004016105b790613274565b60405180910390fd5b6105d46771bd8da18663a08660c01b6120e0565b6105e867b96ccea7e2e2feab60c01b6120e0565b6105fc678a57f8f9b7064c5960c01b6120e0565b60006103e58561060c91906132c3565b905061062267bc0bf9a1a09a013b60c01b6120e0565b61063667991e0c9777c3190c60c01b6120e0565b6000838261064491906132c3565b905061065a677469a91a3ac5491a60c01b6120e0565b61066e67291f449cd4abab2860c01b6120e0565b6000826103e88761067f91906132c3565b6106899190613305565b905061069f67f3edf7acc9b462ee60c01b6120e0565b80826106ab9190613368565b93505050509392505050565b6060600380546106c6906133c8565b80601f01602080910402602001604051908101604052809291908181526020018280546106f2906133c8565b801561073f5780601f106107145761010080835404028352916020019161073f565b820191906000526020600020905b81548152906001019060200180831161072257829003601f168201915b5050505050905090565b600080610760671cb77d6baf2dc96860c01b6120e0565b61077467ee7c5a190b0a5d7660c01b6120e0565b600654915061078d67c3d8b02f515c43e460c01b6120e0565b60075490509091565b6000806107a16120e3565b90506107ae8185856120eb565b600191505092915050565b7f000000000000000000000000000000000000000000000000000000000000000081565b6000600254905090565b60075481565b6000806107f86120e3565b90506108058582856122b4565b610810858585612340565b60019150509392505050565b60006012905090565b6000806108306120e3565b905061085181858561084285896119f8565b61084c9190613305565b6120eb565b600191505092915050565b7f000000000000000000000000000000000000000000000000000000000000000081565b60008060008373ffffffffffffffffffffffffffffffffffffffff1673ffffffffffffffffffffffffffffffffffffffff168152602001908152602001600020549050919050565b60006108de676bd4006f66c45a9a60c01b6120e0565b6108f267b011c24cea0ebc9d60c01b6120e0565b61090667324877a4778f0b8460c01b6120e0565b61091a6735108e0511e16a3060c01b6120e0565b6000841161095d576040517f08c379a000000000000000000000000000000000000000000000000000000000815260040161095490613445565b60405180910390fd5b61097167ce13f15fed5a4cea60c01b6120e0565b610985674bbc78c4160a2a8d60c01b6120e0565b6109996723619aa40676d50060c01b6120e0565b6109ad6716eb87a2c7ef1c3760c01b6120e0565b6000831180156109bd5750600082115b6109fc576040517f08c379a00000000000000000000000000000000000000000000000000000000081526004016109f390613274565b60405180910390fd5b610a106716c81fa862b09b7b60c01b6120e0565b610a24678549b218904d0cea60c01b6120e0565b610a3867961588937628421660c01b6120e0565b610a4c676f9740f7ead7066b60c01b6120e0565b818410610a8e576040517f08c379a0000000000000000000000000000000000000000000000000000000008152600401610a8590613274565b60405180910390fd5b610aa267f56b40ba43c339c660c01b6120e0565b610ab6677d14b8fe30b767f760c01b6120e0565b610aca673163876a20b427a760c01b6120e0565b60006103e88585610adb91906132c3565b610ae591906132c3565b9050610afb67279778b3073fe85560c01b6120e0565b610b0f67ba7601c8ff3bff1d60c01b6120e0565b60006103e58685610b209190613465565b610b2a91906132c3565b9050610b4067882bc68dafe2447160c01b6120e0565b60018183610b4e9190613368565b610b589190613305565b925050509392505050565b606060048054610b72906133c8565b80601f0160208091040260200160405190810160405280929190818152602001828054610b9e906133c8565b8015610beb5780601f10610bc057610100808354040283529160200191610beb565b820191906000526020600020905b815481529060010190602001808311610bce57829003601f168201915b5050505050905090565b6000610c0b676e3f5486df4a6f5660c01b6120e0565b610c136125b6565b610c2767d81342384811315c60c01b6120e0565b610c3b67b0700509ea1c3f7c60c01b6120e0565b610c4f678911b16b73ec0cab60c01b6120e0565b610c6367b38d4b23d988a0e060c01b6120e0565b610c7767f030b15b90e3271d60c01b6120e0565b60008311610cba576040517f08c379a0000000000000000000000000000000000000000000000000000000008152600401610cb190613208565b60405180910390fd5b610cce67b7fccc3c751e176760c01b6120e0565b610ce267c7140082d8ff690760c01b6120e0565b610cf56694c5f865208ec660c01b6120e0565b610d0967e79f71262600e09460c01b6120e0565b7f000000000000000000000000000000000000000000000000000000000000000073ffffffffffffffffffffffffffffffffffffffff168473ffffffffffffffffffffffffffffffffffffffff16148015610d745750610d73675375d89352c4d94f60c01b612605565b5b80610de657507f000000000000000000000000000000000000000000000000000000000000000073ffffffffffffffffffffffffffffffffffffffff168473ffffffffffffffffffffffffffffffffffffffff16148015610de55750610de467951b7743c2bf58e060c01b612605565b5b5b610e25576040517f08c379a0000000000000000000000000000000000000000000000000000000008152600401610e1c906134e5565b60405180910390fd5b610e39679ef3c96ee7047c3d60c01b6120e0565b610e4d67ba2ddd289765220760c01b6120e0565b610e6167448febfbff4eb43960c01b6120e0565b60007f000000000000000000000000000000000000000000000000000000000000000073ffffffffffffffffffffffffffffffffffffffff168573ffffffffffffffffffffffffffffffffffffffff16149050610ec867484316b5c3d97e3360c01b6120e0565b610edc676c8bafcfce406e4a60c01b6120e0565b6000808280610efb5750610efa6769284e1e5aa9de9260c01b612610565b5b8015610f175750610f16676f8464b3c065cbae60c01b612605565b5b610f2657600754600654610f2d565b6006546007545b91509150610f456782d3bc91772452cb60c01b6120e0565b610f5967f380ec063097c68560c01b6120e0565b8673ffffffffffffffffffffffffffffffffffffffff166323b872dd3330896040518463ffffffff1660e01b8152600401610f9693929190613514565b6020604051808303816000875af1158015610fb5573d6000803e3d6000fd5b505050506040513d601f19601f82011682018060405250810190610fd99190613577565b50610fee671a1e1f1cd5a8be3160c01b6120e0565b61100267aace455d81e6ebf360c01b6120e0565b60006103e58761101291906132c3565b905061102867be43a052d8914b3160c01b6120e0565b806103e88461103791906132c3565b6110419190613305565b828261104d91906132c3565b6110579190613368565b945061106d67e3cc7400ba077ec660c01b6120e0565b611081672fcf5836087d04ed60c01b6120e0565b611095670305d58952145acb60c01b6120e0565b858510156110d8576040517f08c379a00000000000000000000000000000000000000000000000000000000081526004016110cf90613445565b60405180910390fd5b6110ec67bfb045821298fafa60c01b6120e0565b61110067e162ddaf80c2292a60c01b6120e0565b61111467a7b0e6996be6d24d60c01b6120e0565b61112867805d2c4d119c69e060c01b6120e0565b6000851161116b576040517f08c379a000000000000000000000000000000000000000000000000000000000815260040161116290613274565b60405180910390fd5b61117f675912e8bc9284ffa960c01b6120e0565b61119266d88c9fe5b1483360c01b6120e0565b6111a667e629ae5f117b52ef60c01b6120e0565b831561128c576111c0672ad2c90888a582ba60c01b6120e0565b6111d46735363a6f293a0d5360c01b6120e0565b6111e867c2e5fd677d44386a60c01b6120e0565b7f000000000000000000000000000000000000000000000000000000000000000073ffffffffffffffffffffffffffffffffffffffff1663a9059cbb33876040518363ffffffff1660e01b81526004016112439291906135a4565b6020604051808303816000875af1158015611262573d6000803e3d6000fd5b505050506040513d601f19601f820116820180604052508101906112869190613577565b50611368565b6112a0670567a4b8c0e7472960c01b6120e0565b6112b46708d250891f2b873b60c01b6120e0565b6112c867ea3309b9bacb87f460c01b6120e0565b7f000000000000000000000000000000000000000000000000000000000000000073ffffffffffffffffffffffffffffffffffffffff1663a9059cbb33876040518363ffffffff1660e01b81526004016113239291906135a4565b6020604051808303816000875af1158015611342573d6000803e3d6000fd5b505050506040513d601f19601f820116820180604052508101906113669190613577565b505b61137c67727b914563d7e05e60c01b6120e0565b611390678067afa8a679ca2d60c01b6120e0565b611398612617565b6113ac67b262fc16280b50be60c01b6120e0565b6113c067d99dbb51e2aa3cb660c01b6120e0565b8773ffffffffffffffffffffffffffffffffffffffff163373ffffffffffffffffffffffffffffffffffffffff167ffa2dda1cc1b86e41239702756b13effbc1a092b5c57e3ad320fbe4f3b13fe235898860405161141f929190612e8e565b60405180910390a3505050506114336127fa565b9392505050565b6000806114456120e3565b9050600061145382866119f8565b905083811015611498576040517f08c379a000000000000000000000000000000000000000000000000000000000815260040161148f9061363f565b60405180910390fd5b6114a582868684036120eb565b60019250505092915050565b6000806114bc6120e3565b90506114c9818585612340565b600191505092915050565b6000806114eb67ac7463a5cff2896760c01b6120e0565b6114f36125b6565b61150767e644c72a2568053360c01b6120e0565b61151b676e89575359e9f13160c01b6120e0565b61152f6767c0bef6cb00b6ab60c01b6120e0565b611543673a74d13d0e33704c60c01b6120e0565b61155767aa6bdef7c989b7f760c01b6120e0565b6000831161159a576040517f08c379a0000000000000000000000000000000000000000000000000000000008152600401611591906136ab565b60405180910390fd5b6115ae675ecd6b78d2fe69a460c01b6120e0565b6115c267d25149ecd364b29660c01b6120e0565b6115d667a8f509fcb43b8ea960c01b6120e0565b6115ea67d2e11363b6ae34e660c01b6120e0565b826115f433610880565b1015611635576040517f08c379a000000000000000000000000000000000000000000000000000000000815260040161162c90613717565b60405180910390fd5b61164967f5e0fd0e40aba88960c01b6120e0565b61165d67e271aeb2443981e360c01b6120e0565b61167167ceb4a91c1f227a3e60c01b6120e0565b600061167b6107dd565b905061169167a1c8214e9008dee660c01b6120e0565b80600654856116a091906132c3565b6116aa9190613368565b92506116c067230a4bf4d41ccf2860c01b6120e0565b80600754856116cf91906132c3565b6116d99190613368565b91506116ef67b3c2fff631f8c08c60c01b6120e0565b6117036715930456fe188d1b60c01b6120e0565b6117176787208d77a3d3e80c60c01b6120e0565b6000831180156117275750600082115b611766576040517f08c379a000000000000000000000000000000000000000000000000000000000815260040161175d906136ab565b60405180910390fd5b61177a67346c16b5748f9ef560c01b6120e0565b61178e67100295fec969f60660c01b6120e0565b6117a2675dc11c2539624c7260c01b6120e0565b6117ac3385612804565b6117c067fec424fda93527ac60c01b6120e0565b6117d467fbc5a9762424ca7960c01b6120e0565b7f000000000000000000000000000000000000000000000000000000000000000073ffffffffffffffffffffffffffffffffffffffff1663a9059cbb33856040518363ffffffff1660e01b815260040161182f9291906135a4565b6020604051808303816000875af115801561184e573d6000803e3d6000fd5b505050506040513d601f19601f820116820180604052508101906118729190613577565b50611887679b58d95c5269a96960c01b6120e0565b61189b672313b9361a15db0d60c01b6120e0565b7f000000000000000000000000000000000000000000000000000000000000000073ffffffffffffffffffffffffffffffffffffffff1663a9059cbb33846040518363ffffffff1660e01b81526004016118f69291906135a4565b6020604051808303816000875af1158015611915573d6000803e3d6000fd5b505050506040513d601f19601f820116820180604052508101906119399190613577565b5061194e67d409c01c2b84e02760c01b6120e0565b6119626768b24ee940b0264b60c01b6120e0565b61196a612617565b61197e67ed4e3241147067e860c01b6120e0565b61199267fe53b99e6958a34760c01b6120e0565b3373ffffffffffffffffffffffffffffffffffffffff167fbd5034ffbd47e4e72a94baa2cdb74c6fad73cb3bcdc13036b72ec8306f5a76468484876040516119dc93929190613737565b60405180910390a2506119ed6127fa565b915091565b60065481565b6000600160008473ffffffffffffffffffffffffffffffffffffffff1673ffffffffffffffffffffffffffffffffffffffff16815260200190815260200160002060008373ffffffffffffffffffffffffffffffffffffffff1673ffffffffffffffffffffffffffffffffffffffff16815260200190815260200160002054905092915050565b6000611a956781f0ed6ea50def2b60c01b6120e0565b611a9d6125b6565b611ab16779f2e1dc62885e4260c01b6120e0565b611ac567915773609d1541de60c01b6120e0565b611ad967183c7d5f7fb6f65060c01b6120e0565b611aed67213daf20bf6ee41f60c01b6120e0565b611b01677e02464b0f0c35ed60c01b6120e0565b600083118015611b115750600082115b611b50576040517f08c379a0000000000000000000000000000000000000000000000000000000008152600401611b47906137ba565b60405180910390fd5b611b646786c323c1f6ef2b6660c01b6120e0565b611b78674b4202ab4816b10460c01b6120e0565b611b8c677f196028cd4bd7c360c01b6120e0565b7f000000000000000000000000000000000000000000000000000000000000000073ffffffffffffffffffffffffffffffffffffffff166323b872dd3330866040518463ffffffff1660e01b8152600401611be993929190613514565b6020604051808303816000875af1158015611c08573d6000803e3d6000fd5b505050506040513d601f19601f82011682018060405250810190611c2c9190613577565b50611c416782964b5f2ebba54460c01b6120e0565b611c55677ca4a5a1eff92c8360c01b6120e0565b7f000000000000000000000000000000000000000000000000000000000000000073ffffffffffffffffffffffffffffffffffffffff166323b872dd3330856040518463ffffffff1660e01b8152600401611cb293929190613514565b6020604051808303816000875af1158015611cd1573d6000803e3d6000fd5b505050506040513d601f19601f82011682018060405250810190611cf59190613577565b50611d0a6748ec4b79ea61075860c01b6120e0565b611d1e67f8a12903decb450e60c01b6120e0565b6000611d286107dd565b9050611d3e674a2fff5f9422254060c01b6120e0565b611d5267c7fcdfb456b47c5f60c01b6120e0565b60008103611ea157611d6e67fdd1f9b19c5a4e2960c01b6120e0565b611d82677e5e13432ad3061d60c01b6120e0565b611d966770f6864364ffe40560c01b6120e0565b6000611dac8486611da791906132c3565b6129d1565b9050611dc267f4c394cddb971f9160c01b6120e0565b611dd66730c95db0dfd26e0660c01b6120e0565b611dea67c7f3e623c12d522d60c01b6120e0565b6103e88111611e2e576040517f08c379a0000000000000000000000000000000000000000000000000000000008152600401611e2590613826565b60405180910390fd5b611e426790ed278674cf30ba60c01b6120e0565b611e56675d4aeb9bbf2aa72a60c01b6120e0565b6103e881611e649190613465565b9250611e7a670e92ca1b9a87044160c01b6120e0565b611e8e676c216496b8ec884460c01b6120e0565b611e9b60016103e8612aca565b50611ff5565b611eb56731e68b9c7d27db9360c01b6120e0565b611ec9677655f911840a27c160c01b6120e0565b611edd67aee2d0a54659fd5660c01b6120e0565b60006006548286611eee91906132c3565b611ef89190613368565b9050611f0e672704b6fccc77c4b360c01b6120e0565b611f2267e7c12f5ef946c1e960c01b6120e0565b60006007548386611f3391906132c3565b611f3d9190613368565b9050611f5367574f039b17836c0860c01b6120e0565b611f5d8282612c20565b9350611f73672ee972ec1d5af7d760c01b6120e0565b611f876704ae998ffeb4336160c01b6120e0565b611f9b67eabaeed1325ed41760c01b6120e0565b60008411611fde576040517f08c379a0000000000000000000000000000000000000000000000000000000008152600401611fd590613826565b60405180910390fd5b611ff2674c873b762dbec4fb60c01b6120e0565b50505b61200967fdb5735b2126fbd560c01b6120e0565b61201d672ce92dbbaa11225b60c01b6120e0565b6120273383612aca565b61203b67856536bf02c184ca60c01b6120e0565b61204f6787b53ebca99db1dc60c01b6120e0565b612057612617565b61206b676cdaffbeb239616e60c01b6120e0565b61207f67b867976df439d48560c01b6120e0565b3373ffffffffffffffffffffffffffffffffffffffff167f36af321ec8d3c75236829c5317affd40ddb308863a1236d2d277a4025cccee1e8585856040516120c993929190613737565b60405180910390a2506120da6127fa565b92915050565b50565b600033905090565b600073ffffffffffffffffffffffffffffffffffffffff168373ffffffffffffffffffffffffffffffffffffffff160361215a576040517f08c379a0000000000000000000000000000000000000000000000000000000008152600401612151906138b8565b60405180910390fd5b600073ffffffffffffffffffffffffffffffffffffffff168273ffffffffffffffffffffffffffffffffffffffff16036121c9576040517f08c379a00000000000000000000000000000000000000000000000000000000081526004016121c09061394a565b60405180910390fd5b80600160008573ffffffffffffffffffffffffffffffffffffffff1673ffffffffffffffffffffffffffffffffffffffff16815260200190815260200160002060008473ffffffffffffffffffffffffffffffffffffffff1673ffffffffffffffffffffffffffffffffffffffff168152602001908152602001600020819055508173ffffffffffffffffffffffffffffffffffffffff168373ffffffffffffffffffffffffffffffffffffffff167f8c5be1e5ebec7d5bd14f71427d1e84f3dd0314c0f7b2291e5b200ac8c7c3b925836040516122a79190612dc1565b60405180910390a3505050565b60006122c084846119f8565b90507fffffffffffffffffffffffffffffffffffffffffffffffffffffffffffffffff811461233a578181101561232c576040517f08c379a0000000000000000000000000000000000000000000000000000000008152600401612323906139b6565b60405180910390fd5b61233984848484036120eb565b5b50505050565b600073ffffffffffffffffffffffffffffffffffffffff168373ffffffffffffffffffffffffffffffffffffffff16036123af576040517f08c379a00000000000000000000000000000000000000000000000000000000081526004016123a690613a48565b60405180910390fd5b600073ffffffffffffffffffffffffffffffffffffffff168273ffffffffffffffffffffffffffffffffffffffff160361241e576040517f08c379a000000000000000000000000000000000000000000000000000000000815260040161241590613ada565b60405180910390fd5b612429838383612c39565b60008060008573ffffffffffffffffffffffffffffffffffffffff1673ffffffffffffffffffffffffffffffffffffffff168152602001908152602001600020549050818110156124af576040517f08c379a00000000000000000000000000000000000000000000000000000000081526004016124a690613b6c565b60405180910390fd5b8181036000808673ffffffffffffffffffffffffffffffffffffffff1673ffffffffffffffffffffffffffffffffffffffff16815260200190815260200160002081905550816000808573ffffffffffffffffffffffffffffffffffffffff1673ffffffffffffffffffffffffffffffffffffffff168152602001908152602001600020600082825401925050819055508273ffffffffffffffffffffffffffffffffffffffff168473ffffffffffffffffffffffffffffffffffffffff167fddf252ad1be2c89b69c2b068fc378daa952ba7f163c4a11628f55a4df523b3ef8460405161259d9190612dc1565b60405180910390a36125b0848484612c3e565b50505050565b6002600554036125fb576040517f08c379a00000000000000000000000000000000000000000000000000000000081526004016125f290613bd8565b60405180910390fd5b6002600581905550565b600060019050919050565b6000919050565b61262b67eaf9c3f544ab129f60c01b6120e0565b61263f6778f07e231b96072a60c01b6120e0565b7f000000000000000000000000000000000000000000000000000000000000000073ffffffffffffffffffffffffffffffffffffffff166370a08231306040518263ffffffff1660e01b81526004016126989190613bf8565b602060405180830381865afa1580156126b5573d6000803e3d6000fd5b505050506040513d601f19601f820116820180604052508101906126d99190613c28565b6006819055506126f367b23ee8e8617b051460c01b6120e0565b7f000000000000000000000000000000000000000000000000000000000000000073ffffffffffffffffffffffffffffffffffffffff166370a08231306040518263ffffffff1660e01b815260040161274c9190613bf8565b602060405180830381865afa158015612769573d6000803e3d6000fd5b505050506040513d601f19601f8201168201806040525081019061278d9190613c28565b6007819055506127a767f5933985a6b0909a60c01b6120e0565b6127bb675d86c44d66a640cd60c01b6120e0565b7fcf2aa50876cdfbb541206f89af0ee78d44a2abf8d328e37fa4917f982149848a6006546007546040516127f0929190612e8e565b60405180910390a1565b6001600581905550565b600073ffffffffffffffffffffffffffffffffffffffff168273ffffffffffffffffffffffffffffffffffffffff1603612873576040517f08c379a000000000000000000000000000000000000000000000000000000000815260040161286a90613cc7565b60405180910390fd5b61287f82600083612c39565b60008060008473ffffffffffffffffffffffffffffffffffffffff1673ffffffffffffffffffffffffffffffffffffffff16815260200190815260200160002054905081811015612905576040517f08c379a00000000000000000000000000000000000000000000000000000000081526004016128fc90613d59565b60405180910390fd5b8181036000808573ffffffffffffffffffffffffffffffffffffffff1673ffffffffffffffffffffffffffffffffffffffff1681526020019081526020016000208190555081600260008282540392505081905550600073ffffffffffffffffffffffffffffffffffffffff168373ffffffffffffffffffffffffffffffffffffffff167fddf252ad1be2c89b69c2b068fc378daa952ba7f163c4a11628f55a4df523b3ef846040516129b89190612dc1565b60405180910390a36129cc83600084612c3e565b505050565b60008082036129e35760009050612ac5565b600060016129f084612c43565b901c6001901b90506001818481612a0a57612a09613339565b5b048201901c90506001818481612a2357612a22613339565b5b048201901c90506001818481612a3c57612a3b613339565b5b048201901c90506001818481612a5557612a54613339565b5b048201901c90506001818481612a6e57612a6d613339565b5b048201901c90506001818481612a8757612a86613339565b5b048201901c90506001818481612aa057612a9f613339565b5b048201901c9050612ac181828581612abb57612aba613339565b5b04612c20565b9150505b919050565b600073ffffffffffffffffffffffffffffffffffffffff168273ffffffffffffffffffffffffffffffffffffffff1603612b39576040517f08c379a0000000000000000000000000000000000000000000000000000000008152600401612b3090613dc5565b60405180910390fd5b612b4560008383612c39565b8060026000828254612b579190613305565b92505081905550806000808473ffffffffffffffffffffffffffffffffffffffff1673ffffffffffffffffffffffffffffffffffffffff168152602001908152602001600020600082825401925050819055508173ffffffffffffffffffffffffffffffffffffffff16600073ffffffffffffffffffffffffffffffffffffffff167fddf252ad1be2c89b69c2b068fc378daa952ba7f163c4a11628f55a4df523b3ef83604051612c089190612dc1565b60405180910390a3612c1c60008383612c3e565b5050565b6000818310612c2f5781612c31565b825b905092915050565b505050565b505050565b600080600090506000608084901c1115612c6557608083901c92506080810190505b6000604084901c1115612c8057604083901c92506040810190505b6000602084901c1115612c9b57602083901c92506020810190505b6000601084901c1115612cb657601083901c92506010810190505b6000600884901c1115612cd157600883901c92506008810190505b6000600484901c1115612cec57600483901c92506004810190505b6000600284901c1115612d0757600283901c92506002810190505b6000600184901c1115612d1b576001810190505b80915050919050565b600080fd5b6000819050919050565b612d3c81612d29565b8114612d4757600080fd5b50565b600081359050612d5981612d33565b92915050565b600080600060608486031215612d7857612d77612d24565b5b6000612d8686828701612d4a565b9350506020612d9786828701612d4a565b9250506040612da886828701612d4a565b9150509250925092565b612dbb81612d29565b82525050565b6000602082019050612dd66000830184612db2565b92915050565b600081519050919050565b600082825260208201905092915050565b60005b83811015612e16578082015181840152602081019050612dfb565b60008484015250505050565b6000601f19601f8301169050919050565b6000612e3e82612ddc565b612e488185612de7565b9350612e58818560208601612df8565b612e6181612e22565b840191505092915050565b60006020820190508181036000830152612e868184612e33565b905092915050565b6000604082019050612ea36000830185612db2565b612eb06020830184612db2565b9392505050565b600073ffffffffffffffffffffffffffffffffffffffff82169050919050565b6000612ee282612eb7565b9050919050565b612ef281612ed7565b8114612efd57600080fd5b50565b600081359050612f0f81612ee9565b92915050565b60008060408385031215612f2c57612f2b612d24565b5b6000612f3a85828601612f00565b9250506020612f4b85828601612d4a565b9150509250929050565b60008115159050919050565b612f6a81612f55565b82525050565b6000602082019050612f856000830184612f61565b92915050565b6000819050919050565b6000612fb0612fab612fa684612eb7565b612f8b565b612eb7565b9050919050565b6000612fc282612f95565b9050919050565b6000612fd482612fb7565b9050919050565b612fe481612fc9565b82525050565b6000602082019050612fff6000830184612fdb565b92915050565b60008060006060848603121561301e5761301d612d24565b5b600061302c86828701612f00565b935050602061303d86828701612f00565b925050604061304e86828701612d4a565b9150509250925092565b600060ff82169050919050565b61306e81613058565b82525050565b60006020820190506130896000830184613065565b92915050565b6000602082840312156130a5576130a4612d24565b5b60006130b384828501612f00565b91505092915050565b6000806000606084860312156130d5576130d4612d24565b5b60006130e386828701612f00565b93505060206130f486828701612d4a565b925050604061310586828701612d4a565b9150509250925092565b60006020828403121561312557613124612d24565b5b600061313384828501612d4a565b91505092915050565b6000806040838503121561315357613152612d24565b5b600061316185828601612f00565b925050602061317285828601612f00565b9150509250929050565b6000806040838503121561319357613192612d24565b5b60006131a185828601612d4a565b92505060206131b285828601612d4a565b9150509250929050565b7f496e73756666696369656e7420696e70757420616d6f756e7400000000000000600082015250565b60006131f2601983612de7565b91506131fd826131bc565b602082019050919050565b60006020820190508181036000830152613221816131e5565b9050919050565b7f496e73756666696369656e74206c697175696469747900000000000000000000600082015250565b600061325e601683612de7565b915061326982613228565b602082019050919050565b6000602082019050818103600083015261328d81613251565b9050919050565b7f4e487b7100000000000000000000000000000000000000000000000000000000600052601160045260246000fd5b60006132ce82612d29565b91506132d983612d29565b92508282026132e781612d29565b915082820484148315176132fe576132fd613294565b5b5092915050565b600061331082612d29565b915061331b83612d29565b925082820190508082111561333357613332613294565b5b92915050565b7f4e487b7100000000000000000000000000000000000000000000000000000000600052601260045260246000fd5b600061337382612d29565b915061337e83612d29565b92508261338e5761338d613339565b5b828204905092915050565b7f4e487b7100000000000000000000000000000000000000000000000000000000600052602260045260246000fd5b600060028204905060018216806133e057607f821691505b6020821081036133f3576133f2613399565b5b50919050565b7f496e73756666696369656e74206f757470757420616d6f756e74000000000000600082015250565b600061342f601a83612de7565b915061343a826133f9565b602082019050919050565b6000602082019050818103600083015261345e81613422565b9050919050565b600061347082612d29565b915061347b83612d29565b925082820390508181111561349357613492613294565b5b92915050565b7f496e76616c696420746f6b656e00000000000000000000000000000000000000600082015250565b60006134cf600d83612de7565b91506134da82613499565b602082019050919050565b600060208201905081810360008301526134fe816134c2565b9050919050565b61350e81612ed7565b82525050565b60006060820190506135296000830186613505565b6135366020830185613505565b6135436040830184612db2565b949350505050565b61355481612f55565b811461355f57600080fd5b50565b6000815190506135718161354b565b92915050565b60006020828403121561358d5761358c612d24565b5b600061359b84828501613562565b91505092915050565b60006040820190506135b96000830185613505565b6135c66020830184612db2565b9392505050565b7f45524332303a2064656372656173656420616c6c6f77616e63652062656c6f7760008201527f207a65726f000000000000000000000000000000000000000000000000000000602082015250565b6000613629602583612de7565b9150613634826135cd565b604082019050919050565b600060208201905081810360008301526136588161361c565b9050919050565b7f496e73756666696369656e74206c6971756964697479206275726e6564000000600082015250565b6000613695601d83612de7565b91506136a08261365f565b602082019050919050565b600060208201905081810360008301526136c481613688565b9050919050565b7f496e73756666696369656e742062616c616e6365000000000000000000000000600082015250565b6000613701601483612de7565b915061370c826136cb565b602082019050919050565b60006020820190508181036000830152613730816136f4565b9050919050565b600060608201905061374c6000830186612db2565b6137596020830185612db2565b6137666040830184612db2565b949350505050565b7f496e73756666696369656e7420696e70757420616d6f756e7473000000000000600082015250565b60006137a4601a83612de7565b91506137af8261376e565b602082019050919050565b600060208201905081810360008301526137d381613797565b9050919050565b7f496e73756666696369656e74206c6971756964697479206d696e746564000000600082015250565b6000613810601d83612de7565b915061381b826137da565b602082019050919050565b6000602082019050818103600083015261383f81613803565b9050919050565b7f45524332303a20617070726f76652066726f6d20746865207a65726f2061646460008201527f7265737300000000000000000000000000000000000000000000000000000000602082015250565b60006138a2602483612de7565b91506138ad82613846565b604082019050919050565b600060208201905081810360008301526138d181613895565b9050919050565b7f45524332303a20617070726f766520746f20746865207a65726f20616464726560008201527f7373000000000000000000000000000000000000000000000000000000000000602082015250565b6000613934602283612de7565b915061393f826138d8565b604082019050919050565b6000602082019050818103600083015261396381613927565b9050919050565b7f45524332303a20696e73756666696369656e7420616c6c6f77616e6365000000600082015250565b60006139a0601d83612de7565b91506139ab8261396a565b602082019050919050565b600060208201905081810360008301526139cf81613993565b9050919050565b7f45524332303a207472616e736665722066726f6d20746865207a65726f20616460008201527f6472657373000000000000000000000000000000000000000000000000000000602082015250565b6000613a32602583612de7565b9150613a3d826139d6565b604082019050919050565b60006020820190508181036000830152613a6181613a25565b9050919050565b7f45524332303a207472616e7366657220746f20746865207a65726f206164647260008201527f6573730000000000000000000000000000000000000000000000000000000000602082015250565b6000613ac4602383612de7565b9150613acf82613a68565b604082019050919050565b60006020820190508181036000830152613af381613ab7565b9050919050565b7f45524332303a207472616e7366657220616d6f756e742065786365656473206260008201527f616c616e63650000000000000000000000000000000000000000000000000000602082015250565b6000613b56602683612de7565b9150613b6182613afa565b604082019050919050565b60006020820190508181036000830152613b8581613b49565b9050919050565b7f5265656e7472616e637947756172643a207265656e7472616e742063616c6c00600082015250565b6000613bc2601f83612de7565b9150613bcd82613b8c565b602082019050919050565b60006020820190508181036000830152613bf181613bb5565b9050919050565b6000602082019050613c0d6000830184613505565b92915050565b600081519050613c2281612d33565b92915050565b600060208284031215613c3e57613c3d612d24565b5b6000613c4c84828501613c13565b91505092915050565b7f45524332303a206275726e2066726f6d20746865207a65726f2061646472657360008201527f7300000000000000000000000000000000000000000000000000000000000000602082015250565b6000613cb1602183612de7565b9150613cbc82613c55565b604082019050919050565b60006020820190508181036000830152613ce081613ca4565b9050919050565b7f45524332303a206275726e20616d6f756e7420657863656564732062616c616e60008201527f6365000000000000000000000000000000000000000000000000000000000000602082015250565b6000613d43602283612de7565b9150613d4e82613ce7565b604082019050919050565b60006020820190508181036000830152613d7281613d36565b9050919050565b7f45524332303a206d696e7420746f20746865207a65726f206164647265737300600082015250565b6000613daf601f83612de7565b9150613dba82613d79565b602082019050919050565b60006020820190508181036000830152613dde81613da2565b905091905056fea26469706673582212204b1e5db938361f866bbdd886ca231315dd0138590709bd2fff39fcbbd931177364736f6c63430008140033",
  "linkReferences": {},
  "deployedLinkReferences": {}
}