{"contracts/MaliciousReentrant.sol":{"MaliciousReentrant":{"abi":[{"inputs":[{"internalType":"address","name":"_amm","type":"address"}],"stateMutability":"nonpayable","type":"constructor"},{"anonymous":false,"inputs":[{"indexed":true,"internalType":"address","name":"owner","type":"address"},{"indexed":true,"internalType":"address","name":"spender","type":"address"},{"indexed":false,"internalType":"uint256","name":"value","type":"uint256"}],"name":"Approval","type":"event"},{"anonymous":false,"inputs":[{"indexed":true,"internalType":"address","name":"from","type":"address"},{"indexed":true,"internalType":"address","name":"to","type":"address"},{"indexed":false,"internalType":"uint256","name":"value","type":"uint256"}],"name":"Transfer","type":"event"},{"inputs":[{"internalType":"address","name":"","type":"address"},{"internalType":"address","name":"","type":"address"}],"name":"allowance","outputs":[{"internalType":"uint256","name":"","type":"uint256"}],"stateMutability":"view","type":"function"},{"inputs":[],"name":"amm","outputs":[{"internalType":"contract ISimpleAMM","name":"","type":"address"}],"stateMutability":"view","type":"function"},{"inputs":[{"internalType":"address","name":"spender","type":"address"},{"internalType":"uint256","name":"amount","type":"uint256"}],"name":"approve","outputs":[{"internalType":"bool","name":"","type":"bool"}],"stateMutability":"nonpayable","type":"function"},{"inputs":[{"internalType":"address","name":"_tokenA","type":"address"},{"internalType":"address","name":"_tokenB","type":"address"}],"name":"attackDeposit","outputs":[],"stateMutability":"nonpayable","type":"function"},{"inputs":[],"name":"attackRedeem","outputs":[],"stateMutability":"nonpayable","type":"function"},{"inputs":[{"internalType":"address","name":"tokenIn","type":"address"},{"internalType":"uint256","name":"amountIn","type":"uint256"}],"name":"attackSwap","outputs":[],"stateMutability":"nonpayable","type":"function"},{"inputs":[],"name":"attacking","outputs":[{"internalType":"bool","name":"","type":"bool"}],"stateMutability":"view","type":"function"},{"inputs":[{"internalType":"address","name":"","type":"address"}],"name":"balanceOf","outputs":[{"internalType":"uint256","name":"","type":"uint256"}],"stateMutability":"view","type":"function"},{"inputs":[],"name":"decimals","outputs":[{"internalType":"uint8","name":"","type":"uint8"}],"stateMutability":"view","type":"function"},{"inputs":[{"internalType":"address","name":"tokenA","type":"address"},{"internalType":"address","name":"tokenB","type":"address"},{"internalType":"uint256","name":"amountA","type":"uint256"},{"internalType":"uint256","name":"amountB","type":"uint256"}],"name":"deposit","outputs":[],"stateMutability":"nonpayable","type":"function"},{"inputs":[{"internalType":"uint256","name":"amount","type":"uint256"}],"name":"mint","outputs":[],"stateMutability":"nonpayable","type":"function"},{"inputs":[],"name":"name","outputs":[{"internalType":"string","name":"","type":"string"}],"stateMutability":"view","type":"function"},{"inputs":[],"name":"symbol","outputs":[{"internalType":"string","name":"","type":"string"}],"stateMutability":"view","type":"function"},{"inputs":[],"name":"tokenA","outputs":[{"internalType":"address","name":"","type":"address"}],"stateMutability":"view","type":"function"},{"inputs":[],"name":"tokenB","outputs":[{"internalType":"address","name":"","type":"address"}],"stateMutability":"view","type":"function"},{"inputs":[],"name":"totalSupply","outputs":[{"internalType":"uint256","name":"","type":"uint256"}],"stateMutability":"view","type":"function"},{"inputs":[{"internalType":"address","name":"to","type":"address"},{"internalType":"uint256","name":"amount","type":"uint256"}],"name":"transfer","outputs":[{"internalType":"bool","name":"","type":"bool"}],"stateMutability":"nonpayable","type":"function"},{"inputs":[{"internalType":"address","name":"from","type":"address"},{"internalType":"address","name":"to","type":"address"},{"internalType":"uint256","name":"amount","type":"uint256"}],"name":"transferFrom","outputs":[{"internalType":"bool","name":"","type":"bool"}],"stateMutability":"nonpayable","type":"function"}],"evm":{"bytecode":{"linkReferences":{},"object":"60806040526012600660006101000a81548160ff021916908360ff1602179055506040518060400160405280600981526020017f4d616c6963696f7573000000000000000000000000000000000000000000000081525060079081620000669190620003dd565b506040518060400160405280600381526020017f4d414c000000000000000000000000000000000000000000000000000000000081525060089081620000ad9190620003dd565b50348015620000bb57600080fd5b5060405162002d5238038062002d528339818101604052810190620000e191906200052e565b620000fd6754638996bdcc92ef60c01b6200016060201b60201c565b62000119671a17706a2cae9e1760c01b6200016060201b60201c565b806000806101000a81548173ffffffffffffffffffffffffffffffffffffffff021916908373ffffffffffffffffffffffffffffffffffffffff1602179055505062000560565b50565b600081519050919050565b7f4e487b7100000000000000000000000000000000000000000000000000000000600052604160045260246000fd5b7f4e487b7100000000000000000000000000000000000000000000000000000000600052602260045260246000fd5b60006002820490506001821680620001e557607f821691505b602082108103620001fb57620001fa6200019d565b5b50919050565b60008190508160005260206000209050919050565b60006020601f8301049050919050565b600082821b905092915050565b600060088302620002657fffffffffffffffffffffffffffffffffffffffffffffffffffffffffffffffff8262000226565b62000271868362000226565b95508019841693508086168417925050509392505050565b6000819050919050565b6000819050919050565b6000620002be620002b8620002b28462000289565b62000293565b62000289565b9050919050565b6000819050919050565b620002da836200029d565b620002f2620002e982620002c5565b84845462000233565b825550505050565b600090565b62000309620002fa565b62000316818484620002cf565b505050565b5b818110156200033e5762000332600082620002ff565b6001810190506200031c565b5050565b601f8211156200038d57620003578162000201565b620003628462000216565b8101602085101562000372578190505b6200038a620003818562000216565b8301826200031b565b50505b505050565b600082821c905092915050565b6000620003b26000198460080262000392565b1980831691505092915050565b6000620003cd83836200039f565b9150826002028217905092915050565b620003e88262000163565b67ffffffffffffffff8111156200040457620004036200016e565b5b620004108254620001cc565b6200041d82828562000342565b600060209050601f83116001811462000455576000841562000440578287015190505b6200044c8582620003bf565b865550620004bc565b601f198416620004658662000201565b60005b828110156200048f5784890151825560018201915060208501945060208101905062000468565b86831015620004af5784890151620004ab601f8916826200039f565b8355505b6001600288020188555050505b505050505050565b600080fd5b600073ffffffffffffffffffffffffffffffffffffffff82169050919050565b6000620004f682620004c9565b9050919050565b6200050881620004e9565b81146200051457600080fd5b50565b6000815190506200052881620004fd565b92915050565b600060208284031215620005475762000546620004c4565b5b6000620005578482850162000517565b91505092915050565b6127e280620005706000396000f3fe608060405234801561001057600080fd5b50600436106101165760003560e01c80633e0848ec116100a25780637c267f00116100715780637c267f00146102bf57806395d89b41146102db578063a0712d68146102f9578063a9059cbb14610315578063dd62ed3e1461034557610116565b80633e0848ec1461024b5780635f64b55b1461026757806370a0823114610285578063713c0b60146102b557610116565b806320e8c565116100e957806320e8c565146101a557806323b872dd146101c15780632a943945146101f1578063313ce5671461020f5780633c0bbcd91461022d57610116565b806306fdde031461011b578063095ea7b3146101395780630fc63d101461016957806318160ddd14610187575b600080fd5b610123610375565b6040516101309190611ee9565b60405180910390f35b610153600480360381019061014e9190611fa4565b610403565b6040516101609190611fff565b60405180910390f35b61017161056d565b60405161017e9190612029565b60405180910390f35b61018f610593565b60405161019c9190612053565b60405180910390f35b6101bf60048036038101906101ba919061206e565b610599565b005b6101db60048036038101906101d691906120d5565b610848565b6040516101e89190611fff565b60405180910390f35b6101f9610ff8565b6040516102069190612187565b60405180910390f35b61021761101c565b60405161022491906121be565b60405180910390f35b61023561102f565b6040516102429190611fff565b60405180910390f35b610265600480360381019061026091906121d9565b611042565b005b61026f61141e565b60405161027c9190612029565b60405180910390f35b61029f600480360381019061029a9190612219565b611444565b6040516102ac9190612053565b60405180910390f35b6102bd61145c565b005b6102d960048036038101906102d49190611fa4565b61162e565b005b6102e3611826565b6040516102f09190611ee9565b60405180910390f35b610313600480360381019061030e9190612246565b6118b4565b005b61032f600480360381019061032a9190611fa4565b6119f0565b60405161033c9190611fff565b60405180910390f35b61035f600480360381019061035a91906121d9565b611e31565b60405161036c9190612053565b60405180910390f35b60078054610382906122a2565b80601f01602080910402602001604051908101604052809291908181526020018280546103ae906122a2565b80156103fb5780601f106103d0576101008083540402835291602001916103fb565b820191906000526020600020905b8154815290600101906020018083116103de57829003601f168201915b505050505081565b6000610419676768458aa6b5309c60c01b611e56565b61042d67d14ffe7748659ddd60c01b611e56565b81600460003373ffffffffffffffffffffffffffffffffffffffff1673ffffffffffffffffffffffffffffffffffffffff16815260200190815260200160002060008573ffffffffffffffffffffffffffffffffffffffff1673ffffffffffffffffffffffffffffffffffffffff168152602001908152602001600020819055506104c26797a177b44fccdcef60c01b611e56565b6104d6670f4fe248e3bb798160c01b611e56565b8273ffffffffffffffffffffffffffffffffffffffff163373ffffffffffffffffffffffffffffffffffffffff167f8c5be1e5ebec7d5bd14f71427d1e84f3dd0314c0f7b2291e5b200ac8c7c3b925846040516105339190612053565b60405180910390a361054f67b7ba350bbf1aae0160c01b611e56565b6105636780837c27b1f10cda60c01b611e56565b6001905092915050565b600160009054906101000a900473ffffffffffffffffffffffffffffffffffffffff1681565b60055481565b6105ad67cc1eca747374691460c01b611e56565b6105c16793947b2ba96efa8060c01b611e56565b6105d5673a9a1600dccff2d760c01b611e56565b8373ffffffffffffffffffffffffffffffffffffffff1663095ea7b360008054906101000a900473ffffffffffffffffffffffffffffffffffffffff167fffffffffffffffffffffffffffffffffffffffffffffffffffffffffffffffff6040518363ffffffff1660e01b81526004016106509291906122d3565b6020604051808303816000875af115801561066f573d6000803e3d6000fd5b505050506040513d601f19601f820116820180604052508101906106939190612328565b506106a8679fcb2a35fef56afb60c01b611e56565b6106bc6739f20b62c517e0d960c01b611e56565b8273ffffffffffffffffffffffffffffffffffffffff1663095ea7b360008054906101000a900473ffffffffffffffffffffffffffffffffffffffff167fffffffffffffffffffffffffffffffffffffffffffffffffffffffffffffffff6040518363ffffffff1660e01b81526004016107379291906122d3565b6020604051808303816000875af1158015610756573d6000803e3d6000fd5b505050506040513d601f19601f8201168201806040525081019061077a9190612328565b5061078f6748521dec8abf876b60c01b611e56565b6107a367032cb99ed28e807760c01b611e56565b60008054906101000a900473ffffffffffffffffffffffffffffffffffffffff1673ffffffffffffffffffffffffffffffffffffffff1663e2bbb15883836040518363ffffffff1660e01b81526004016107fe929190612355565b6020604051808303816000875af115801561081d573d6000803e3d6000fd5b505050506040513d601f19601f820116820180604052508101906108419190612393565b5050505050565b600061085e67f092713b27c0491260c01b611e56565b61087267c04f046196d7504660c01b611e56565b610886679bd8adbab5bb934460c01b611e56565b600060149054906101000a900460ff1680156108ed575060008054906101000a900473ffffffffffffffffffffffffffffffffffffffff1673ffffffffffffffffffffffffffffffffffffffff168373ffffffffffffffffffffffffffffffffffffffff16145b15610bc75761090667f0a4e0dabf09c35060c01b611e56565b61091a67dd8c649eb16ed5fc60c01b611e56565b60008060146101000a81548160ff02191690831515021790555061094867c210282164d150ee60c01b611e56565b61095c67702da36bd9fe242d60c01b611e56565b60008054906101000a900473ffffffffffffffffffffffffffffffffffffffff1673ffffffffffffffffffffffffffffffffffffffff1663e2bbb158670de0b6b3a7640000671bc16d674ec800006040518363ffffffff1660e01b81526004016109c7929190612436565b6020604051808303816000875af1925050508015610a0357506040513d601f19601f82011682018060405250810190610a009190612393565b60015b15610a0a57505b610a1e6788b08ff0bf9f8fad60c01b611e56565b610a3267a6cbd393b594a39960c01b611e56565b60008054906101000a900473ffffffffffffffffffffffffffffffffffffffff1673ffffffffffffffffffffffffffffffffffffffff1663db006a7560016040518263ffffffff1660e01b8152600401610a8c919061249a565b60408051808303816000875af1925050508015610ac757506040513d601f19601f82011682018060405250810190610ac491906124b5565b60015b15610acf5750505b610ae3678061aa401ed01ec460c01b611e56565b610af76704f826a254563af960c01b611e56565b60008054906101000a900473ffffffffffffffffffffffffffffffffffffffff1673ffffffffffffffffffffffffffffffffffffffff16639f1d0f59600160009054906101000a900473ffffffffffffffffffffffffffffffffffffffff16670de0b6b3a764000060006040518463ffffffff1660e01b8152600401610b7f93929190612530565b6020604051808303816000875af1925050508015610bbb57506040513d601f19601f82011682018060405250810190610bb89190612393565b60015b15610bc257505b610bdc565b610bdb679a612dc99866ef9360c01b611e56565b5b610bf06742bf8ba288b3355a60c01b611e56565b610c0467881325157e2ff62b60c01b611e56565b610c1867516e2a48a6f5a79960c01b611e56565b81600460008673ffffffffffffffffffffffffffffffffffffffff1673ffffffffffffffffffffffffffffffffffffffff16815260200190815260200160002060003373ffffffffffffffffffffffffffffffffffffffff1673ffffffffffffffffffffffffffffffffffffffff168152602001908152602001600020541015610cd7576040517f08c379a0000000000000000000000000000000000000000000000000000000008152600401610cce906125b3565b60405180910390fd5b610ceb67c9ee187975eef58860c01b611e56565b610cff67df2edb35943fbe2b60c01b611e56565b610d136728ad77aad8e8fcf660c01b611e56565b610d2767abb8341b5ec6f5cf60c01b611e56565b81600360008673ffffffffffffffffffffffffffffffffffffffff1673ffffffffffffffffffffffffffffffffffffffff168152602001908152602001600020541015610da9576040517f08c379a0000000000000000000000000000000000000000000000000000000008152600401610da09061261f565b60405180910390fd5b610dbd675ee62374dbccb71e60c01b611e56565b610dd167b21107d525c2522260c01b611e56565b81600460008673ffffffffffffffffffffffffffffffffffffffff1673ffffffffffffffffffffffffffffffffffffffff16815260200190815260200160002060003373ffffffffffffffffffffffffffffffffffffffff1673ffffffffffffffffffffffffffffffffffffffff1681526020019081526020016000206000828254610e5d919061266e565b92505081905550610e7867479060c2dfe1d2dc60c01b611e56565b81600360008673ffffffffffffffffffffffffffffffffffffffff1673ffffffffffffffffffffffffffffffffffffffff1681526020019081526020016000206000828254610ec7919061266e565b92505081905550610ee2674dea8c2328d4843d60c01b611e56565b81600360008573ffffffffffffffffffffffffffffffffffffffff1673ffffffffffffffffffffffffffffffffffffffff1681526020019081526020016000206000828254610f3191906126a2565b92505081905550610f4c672d9ce4cad66ee27960c01b611e56565b610f6067e3838ad3ac1ecab460c01b611e56565b8273ffffffffffffffffffffffffffffffffffffffff168473ffffffffffffffffffffffffffffffffffffffff167fddf252ad1be2c89b69c2b068fc378daa952ba7f163c4a11628f55a4df523b3ef84604051610fbd9190612053565b60405180910390a3610fd967ecc20cf03f4b05e960c01b611e56565b610fed6775bbef6ad3fafcf960c01b611e56565b600190509392505050565b60008054906101000a900473ffffffffffffffffffffffffffffffffffffffff1681565b600660009054906101000a900460ff1681565b600060149054906101000a900460ff1681565b61105667108df62ce5d4410d60c01b611e56565b61106a675b7856d39204f6c160c01b611e56565b81600160006101000a81548173ffffffffffffffffffffffffffffffffffffffff021916908373ffffffffffffffffffffffffffffffffffffffff1602179055506110bf672d8a3911f3d1eea760c01b611e56565b80600260006101000a81548173ffffffffffffffffffffffffffffffffffffffff021916908373ffffffffffffffffffffffffffffffffffffffff16021790555061111467cfbc7f3d08b9e45660c01b611e56565b6111286785e88cafd23095a560c01b611e56565b600160009054906101000a900473ffffffffffffffffffffffffffffffffffffffff1673ffffffffffffffffffffffffffffffffffffffff1663095ea7b360008054906101000a900473ffffffffffffffffffffffffffffffffffffffff167fffffffffffffffffffffffffffffffffffffffffffffffffffffffffffffffff6040518363ffffffff1660e01b81526004016111c59291906122d3565b6020604051808303816000875af11580156111e4573d6000803e3d6000fd5b505050506040513d601f19601f820116820180604052508101906112089190612328565b5061121d67fe9a158efa7b13d960c01b611e56565b61123167466273666822330d60c01b611e56565b600260009054906101000a900473ffffffffffffffffffffffffffffffffffffffff1673ffffffffffffffffffffffffffffffffffffffff1663095ea7b360008054906101000a900473ffffffffffffffffffffffffffffffffffffffff167fffffffffffffffffffffffffffffffffffffffffffffffffffffffffffffffff6040518363ffffffff1660e01b81526004016112ce9291906122d3565b6020604051808303816000875af11580156112ed573d6000803e3d6000fd5b505050506040513d601f19601f820116820180604052508101906113119190612328565b506113266731c07f9e26f2b41960c01b611e56565b6001600060146101000a81548160ff0219169083151502179055506113556738c02c361ac6e9c160c01b611e56565b611369673dbfdc8016e3bd1a60c01b611e56565b60008054906101000a900473ffffffffffffffffffffffffffffffffffffffff1673ffffffffffffffffffffffffffffffffffffffff1663e2bbb15868056bc75e2d63100000680ad78ebc5ac62000006040518363ffffffff1660e01b81526004016113d692919061274c565b6020604051808303816000875af11580156113f5573d6000803e3d6000fd5b505050506040513d601f19601f820116820180604052508101906114199190612393565b505050565b600260009054906101000a900473ffffffffffffffffffffffffffffffffffffffff1681565b60036020528060005260406000206000915090505481565b611470679600f744f811cab260c01b611e56565b611484679702cd8829ef631860c01b611e56565b6001600060146101000a81548160ff0219169083151502179055506114b3674921479318a5142160c01b611e56565b6114c767400183ec4fa4250760c01b611e56565b60008060009054906101000a900473ffffffffffffffffffffffffffffffffffffffff1673ffffffffffffffffffffffffffffffffffffffff166370a08231306040518263ffffffff1660e01b81526004016115239190612029565b602060405180830381865afa158015611540573d6000803e3d6000fd5b505050506040513d601f19601f820116820180604052508101906115649190612393565b905061157a67bb598d0cef529ccb60c01b611e56565b61158e6720471603c6d2e9bb60c01b611e56565b60008054906101000a900473ffffffffffffffffffffffffffffffffffffffff1673ffffffffffffffffffffffffffffffffffffffff1663db006a75826040518263ffffffff1660e01b81526004016115e79190612053565b60408051808303816000875af1158015611605573d6000803e3d6000fd5b505050506040513d601f19601f8201168201806040525081019061162991906124b5565b505050565b611642676a1c99a2d56030c560c01b611e56565b611656671796f271e8e9e6be60c01b611e56565b61166a67fede9d49af8bbd5760c01b611e56565b8173ffffffffffffffffffffffffffffffffffffffff1663095ea7b360008054906101000a900473ffffffffffffffffffffffffffffffffffffffff167fffffffffffffffffffffffffffffffffffffffffffffffffffffffffffffffff6040518363ffffffff1660e01b81526004016116e59291906122d3565b6020604051808303816000875af1158015611704573d6000803e3d6000fd5b505050506040513d601f19601f820116820180604052508101906117289190612328565b5061173d6792e2046191c8d66960c01b611e56565b6001600060146101000a81548160ff02191690831515021790555061176c678c568d12fbe3e7ac60c01b611e56565b6117806764c1165e068820c060c01b611e56565b60008054906101000a900473ffffffffffffffffffffffffffffffffffffffff1673ffffffffffffffffffffffffffffffffffffffff16639f1d0f59838360006040518463ffffffff1660e01b81526004016117de93929190612775565b6020604051808303816000875af11580156117fd573d6000803e3d6000fd5b505050506040513d601f19601f820116820180604052508101906118219190612393565b505050565b60088054611833906122a2565b80601f016020809104026020016040519081016040528092919081815260200182805461185f906122a2565b80156118ac5780601f10611881576101008083540402835291602001916118ac565b820191906000526020600020905b81548152906001019060200180831161188f57829003601f168201915b505050505081565b6118c8671418a95e80c756f960c01b611e56565b6118dc677ea6c14721fd6dbe60c01b611e56565b80600360003073ffffffffffffffffffffffffffffffffffffffff1673ffffffffffffffffffffffffffffffffffffffff168152602001908152602001600020600082825461192b91906126a2565b9250508190555061194667582ae086b087e02960c01b611e56565b806005600082825461195891906126a2565b9250508190555061197367959cf7a98d0435d660c01b611e56565b61198767e1ea1ca16490113f60c01b611e56565b3073ffffffffffffffffffffffffffffffffffffffff16600073ffffffffffffffffffffffffffffffffffffffff167fddf252ad1be2c89b69c2b068fc378daa952ba7f163c4a11628f55a4df523b3ef836040516119e59190612053565b60405180910390a350565b6000611a0667735dd18cf743690160c01b611e56565b611a1a67a73e0b0960074c8f60c01b611e56565b611a2e67fe4462bd4612f15360c01b611e56565b600060149054906101000a900460ff168015611a95575060008054906101000a900473ffffffffffffffffffffffffffffffffffffffff1673ffffffffffffffffffffffffffffffffffffffff168373ffffffffffffffffffffffffffffffffffffffff16145b15611bb757611aae675da0b413bed7b91860c01b611e56565b611ac2671bbeae45e5ca13e460c01b611e56565b60008060146101000a81548160ff021916908315150217905550611af067128aab9fc43a81fe60c01b611e56565b611b0467dfc0514a282d678160c01b611e56565b60008054906101000a900473ffffffffffffffffffffffffffffffffffffffff1673ffffffffffffffffffffffffffffffffffffffff1663e2bbb158670de0b6b3a7640000671bc16d674ec800006040518363ffffffff1660e01b8152600401611b6f929190612436565b6020604051808303816000875af1925050508015611bab57506040513d601f19601f82011682018060405250810190611ba89190612393565b60015b15611bb257505b611bcc565b611bcb6739299ebec24cf66c60c01b611e56565b5b611be067fb5496db29209ed060c01b611e56565b611bf467f6f2cd712dc8f67b60c01b611e56565b611c0867e5e1cd6faede55d060c01b611e56565b81600360003373ffffffffffffffffffffffffffffffffffffffff1673ffffffffffffffffffffffffffffffffffffffff168152602001908152602001600020541015611c8a576040517f08c379a0000000000000000000000000000000000000000000000000000000008152600401611c819061261f565b60405180910390fd5b611c9e6739fbc59a1ce8932160c01b611e56565b611cb267354ae4181d60ecb260c01b611e56565b81600360003373ffffffffffffffffffffffffffffffffffffffff1673ffffffffffffffffffffffffffffffffffffffff1681526020019081526020016000206000828254611d01919061266e565b92505081905550611d1c673e8883cb17f95c8860c01b611e56565b81600360008573ffffffffffffffffffffffffffffffffffffffff1673ffffffffffffffffffffffffffffffffffffffff1681526020019081526020016000206000828254611d6b91906126a2565b92505081905550611d86675c89311862436d5660c01b611e56565b611d9a67bcd8113d5cb5447c60c01b611e56565b8273ffffffffffffffffffffffffffffffffffffffff163373ffffffffffffffffffffffffffffffffffffffff167fddf252ad1be2c89b69c2b068fc378daa952ba7f163c4a11628f55a4df523b3ef84604051611df79190612053565b60405180910390a3611e1367bcaeef770626481c60c01b611e56565b611e2767b3d4018f662ad87660c01b611e56565b6001905092915050565b6004602052816000526040600020602052806000526040600020600091509150505481565b50565b600081519050919050565b600082825260208201905092915050565b60005b83811015611e93578082015181840152602081019050611e78565b60008484015250505050565b6000601f19601f8301169050919050565b6000611ebb82611e59565b611ec58185611e64565b9350611ed5818560208601611e75565b611ede81611e9f565b840191505092915050565b60006020820190508181036000830152611f038184611eb0565b905092915050565b600080fd5b600073ffffffffffffffffffffffffffffffffffffffff82169050919050565b6000611f3b82611f10565b9050919050565b611f4b81611f30565b8114611f5657600080fd5b50565b600081359050611f6881611f42565b92915050565b6000819050919050565b611f8181611f6e565b8114611f8c57600080fd5b50565b600081359050611f9e81611f78565b92915050565b60008060408385031215611fbb57611fba611f0b565b5b6000611fc985828601611f59565b9250506020611fda85828601611f8f565b9150509250929050565b60008115159050919050565b611ff981611fe4565b82525050565b60006020820190506120146000830184611ff0565b92915050565b61202381611f30565b82525050565b600060208201905061203e600083018461201a565b92915050565b61204d81611f6e565b82525050565b60006020820190506120686000830184612044565b92915050565b6000806000806080858703121561208857612087611f0b565b5b600061209687828801611f59565b94505060206120a787828801611f59565b93505060406120b887828801611f8f565b92505060606120c987828801611f8f565b91505092959194509250565b6000806000606084860312156120ee576120ed611f0b565b5b60006120fc86828701611f59565b935050602061210d86828701611f59565b925050604061211e86828701611f8f565b9150509250925092565b6000819050919050565b600061214d61214861214384611f10565b612128565b611f10565b9050919050565b600061215f82612132565b9050919050565b600061217182612154565b9050919050565b61218181612166565b82525050565b600060208201905061219c6000830184612178565b92915050565b600060ff82169050919050565b6121b8816121a2565b82525050565b60006020820190506121d360008301846121af565b92915050565b600080604083850312156121f0576121ef611f0b565b5b60006121fe85828601611f59565b925050602061220f85828601611f59565b9150509250929050565b60006020828403121561222f5761222e611f0b565b5b600061223d84828501611f59565b91505092915050565b60006020828403121561225c5761225b611f0b565b5b600061226a84828501611f8f565b91505092915050565b7f4e487b7100000000000000000000000000000000000000000000000000000000600052602260045260246000fd5b600060028204905060018216806122ba57607f821691505b6020821081036122cd576122cc612273565b5b50919050565b60006040820190506122e8600083018561201a565b6122f56020830184612044565b9392505050565b61230581611fe4565b811461231057600080fd5b50565b600081519050612322816122fc565b92915050565b60006020828403121561233e5761233d611f0b565b5b600061234c84828501612313565b91505092915050565b600060408201905061236a6000830185612044565b6123776020830184612044565b9392505050565b60008151905061238d81611f78565b92915050565b6000602082840312156123a9576123a8611f0b565b5b60006123b78482850161237e565b91505092915050565b6000819050919050565b60006123e56123e06123db846123c0565b612128565b611f6e565b9050919050565b6123f5816123ca565b82525050565b6000819050919050565b600061242061241b612416846123fb565b612128565b611f6e565b9050919050565b61243081612405565b82525050565b600060408201905061244b60008301856123ec565b6124586020830184612427565b9392505050565b6000819050919050565b600061248461247f61247a8461245f565b612128565b611f6e565b9050919050565b61249481612469565b82525050565b60006020820190506124af600083018461248b565b92915050565b600080604083850312156124cc576124cb611f0b565b5b60006124da8582860161237e565b92505060206124eb8582860161237e565b9150509250929050565b6000819050919050565b600061251a612515612510846124f5565b612128565b611f6e565b9050919050565b61252a816124ff565b82525050565b6000606082019050612545600083018661201a565b61255260208301856123ec565b61255f6040830184612521565b949350505050565b7f496e73756666696369656e7420616c6c6f77616e636500000000000000000000600082015250565b600061259d601683611e64565b91506125a882612567565b602082019050919050565b600060208201905081810360008301526125cc81612590565b9050919050565b7f496e73756666696369656e742062616c616e6365000000000000000000000000600082015250565b6000612609601483611e64565b9150612614826125d3565b602082019050919050565b60006020820190508181036000830152612638816125fc565b9050919050565b7f4e487b7100000000000000000000000000000000000000000000000000000000600052601160045260246000fd5b600061267982611f6e565b915061268483611f6e565b925082820390508181111561269c5761269b61263f565b5b92915050565b60006126ad82611f6e565b91506126b883611f6e565b92508282019050808211156126d0576126cf61263f565b5b92915050565b6000819050919050565b60006126fb6126f66126f1846126d6565b612128565b611f6e565b9050919050565b61270b816126e0565b82525050565b6000819050919050565b600061273661273161272c84612711565b612128565b611f6e565b9050919050565b6127468161271b565b82525050565b60006040820190506127616000830185612702565b61276e602083018461273d565b9392505050565b600060608201905061278a600083018661201a565b6127976020830185612044565b6127a46040830184612521565b94935050505056fea2646970667358221220fa63109319e9cfd9fc04424ae04e71ad245df1792b599e614a0f0a4a5652071c64736f6c63430008140033","opcodes":"PUSH1 0x80 PUSH1 0x40 MSTORE PUSH1 0x12 PUSH1 0x6 PUSH1 0x0 PUSH2 0x100 EXP DUP2 SLOAD DUP2 PUSH1 0xFF MUL NOT AND SWAP1 DUP4 PUSH1 0xFF AND MUL OR SWAP1 SSTORE POP PUSH1 0x40 MLOAD DUP1 PUSH1 0x40 ADD PUSH1 0x40 MSTORE DUP1 PUSH1 0x9 DUP2 MSTORE PUSH1 0x20 ADD PUSH32 0x4D616C6963696F75730000000000000000000000000000000000000000000000 DUP2 MSTORE POP PUSH1 0x7 SWAP1 DUP2 PUSH3 0x66 SWAP2 SWAP1 PUSH3 0x3DD JUMP JUMPDEST POP PUSH1 0x40 MLOAD DUP1 PUSH1 0x40 ADD PUSH1 0x40 MSTORE DUP1 PUSH1 0x3 DUP2 MSTORE PUSH1 0x20 ADD PUSH32 0x4D414C0000000000000000000000000000000000000000000000000000000000 DUP2 MSTORE POP PUSH1 0x8 SWAP1 DUP2 PUSH3 0xAD SWAP2 SWAP1 PUSH3 0x3DD JUMP JUMPDEST POP CALLVALUE DUP1 ISZERO PUSH3 0xBB JUMPI PUSH1 0x0 DUP1 REVERT JUMPDEST POP PUSH1 0x40 MLOAD PUSH3 0x2D52 CODESIZE SUB DUP1 PUSH3 0x2D52 DUP4 CODECOPY DUP2 DUP2 ADD PUSH1 0x40 MSTORE DUP2 ADD SWAP1 PUSH3 0xE1 SWAP2 SWAP1 PUSH3 0x52E JUMP JUMPDEST PUSH3 0xFD PUSH8 0x54638996BDCC92EF PUSH1 0xC0 SHL PUSH3 0x160 PUSH1 0x20 SHL PUSH1 0x20 SHR JUMP JUMPDEST PUSH3 0x119 PUSH8 0x1A17706A2CAE9E17 PUSH1 0xC0 SHL PUSH3 0x160 PUSH1 0x20 SHL PUSH1 0x20 SHR JUMP JUMPDEST DUP1 PUSH1 0x0 DUP1 PUSH2 0x100 EXP DUP2 SLOAD DUP2 PUSH20 0xFFFFFFFFFFFFFFFFFFFFFFFFFFFFFFFFFFFFFFFF MUL NOT AND SWAP1 DUP4 PUSH20 0xFFFFFFFFFFFFFFFFFFFFFFFFFFFFFFFFFFFFFFFF AND MUL OR SWAP1 SSTORE POP POP PUSH3 0x560 JUMP JUMPDEST POP JUMP JUMPDEST PUSH1 0x0 DUP2 MLOAD SWAP1 POP SWAP2 SWAP1 POP JUMP JUMPDEST PUSH32 0x4E487B7100000000000000000000000000000000000000000000000000000000 PUSH1 0x0 MSTORE PUSH1 0x41 PUSH1 0x4 MSTORE PUSH1 0x24 PUSH1 0x0 REVERT JUMPDEST PUSH32 0x4E487B7100000000000000000000000000000000000000000000000000000000 PUSH1 0x0 MSTORE PUSH1 0x22 PUSH1 0x4 MSTORE PUSH1 0x24 PUSH1 0x0 REVERT JUMPDEST PUSH1 0x0 PUSH1 0x2 DUP3 DIV SWAP1 POP PUSH1 0x1 DUP3 AND DUP1 PUSH3 0x1E5 JUMPI PUSH1 0x7F DUP3 AND SWAP2 POP JUMPDEST PUSH1 0x20 DUP3 LT DUP2 SUB PUSH3 0x1FB JUMPI PUSH3 0x1FA PUSH3 0x19D JUMP JUMPDEST JUMPDEST POP SWAP2 SWAP1 POP JUMP JUMPDEST PUSH1 0x0 DUP2 SWAP1 POP DUP2 PUSH1 0x0 MSTORE PUSH1 0x20 PUSH1 0x0 KECCAK256 SWAP1 POP SWAP2 SWAP1 POP JUMP JUMPDEST PUSH1 0x0 PUSH1 0x20 PUSH1 0x1F DUP4 ADD DIV SWAP1 POP SWAP2 SWAP1 POP JUMP JUMPDEST PUSH1 0x0 DUP3 DUP3 SHL SWAP1 POP SWAP3 SWAP2 POP POP JUMP JUMPDEST PUSH1 0x0 PUSH1 0x8 DUP4 MUL PUSH3 0x265 PUSH32 0xFFFFFFFFFFFFFFFFFFFFFFFFFFFFFFFFFFFFFFFFFFFFFFFFFFFFFFFFFFFFFFFF DUP3 PUSH3 0x226 JUMP JUMPDEST PUSH3 0x271 DUP7 DUP4 PUSH3 0x226 JUMP JUMPDEST SWAP6 POP DUP1 NOT DUP5 AND SWAP4 POP DUP1 DUP7 AND DUP5 OR SWAP3 POP POP POP SWAP4 SWAP3 POP POP POP JUMP JUMPDEST PUSH1 0x0 DUP2 SWAP1 POP SWAP2 SWAP1 POP JUMP JUMPDEST PUSH1 0x0 DUP2 SWAP1 POP SWAP2 SWAP1 POP JUMP JUMPDEST PUSH1 0x0 PUSH3 0x2BE PUSH3 0x2B8 PUSH3 0x2B2 DUP5 PUSH3 0x289 JUMP JUMPDEST PUSH3 0x293 JUMP JUMPDEST PUSH3 0x289 JUMP JUMPDEST SWAP1 POP SWAP2 SWAP1 POP JUMP JUMPDEST PUSH1 0x0 DUP2 SWAP1 POP SWAP2 SWAP1 POP JUMP JUMPDEST PUSH3 0x2DA DUP4 PUSH3 0x29D JUMP JUMPDEST PUSH3 0x2F2 PUSH3 0x2E9 DUP3 PUSH3 0x2C5 JUMP JUMPDEST DUP5 DUP5 SLOAD PUSH3 0x233 JUMP JUMPDEST DUP3 SSTORE POP POP POP POP JUMP JUMPDEST PUSH1 0x0 SWAP1 JUMP JUMPDEST PUSH3 0x309 PUSH3 0x2FA JUMP JUMPDEST PUSH3 0x316 DUP2 DUP5 DUP5 PUSH3 0x2CF JUMP JUMPDEST POP POP POP JUMP JUMPDEST JUMPDEST DUP2 DUP2 LT ISZERO PUSH3 0x33E JUMPI PUSH3 0x332 PUSH1 0x0 DUP3 PUSH3 0x2FF JUMP JUMPDEST PUSH1 0x1 DUP2 ADD SWAP1 POP PUSH3 0x31C JUMP JUMPDEST POP POP JUMP JUMPDEST PUSH1 0x1F DUP3 GT ISZERO PUSH3 0x38D JUMPI PUSH3 0x357 DUP2 PUSH3 0x201 JUMP JUMPDEST PUSH3 0x362 DUP5 PUSH3 0x216 JUMP JUMPDEST DUP2 ADD PUSH1 0x20 DUP6 LT ISZERO PUSH3 0x372 JUMPI DUP2 SWAP1 POP JUMPDEST PUSH3 0x38A PUSH3 0x381 DUP6 PUSH3 0x216 JUMP JUMPDEST DUP4 ADD DUP3 PUSH3 0x31B JUMP JUMPDEST POP POP JUMPDEST POP POP POP JUMP JUMPDEST PUSH1 0x0 DUP3 DUP3 SHR SWAP1 POP SWAP3 SWAP2 POP POP JUMP JUMPDEST PUSH1 0x0 PUSH3 0x3B2 PUSH1 0x0 NOT DUP5 PUSH1 0x8 MUL PUSH3 0x392 JUMP JUMPDEST NOT DUP1 DUP4 AND SWAP2 POP POP SWAP3 SWAP2 POP POP JUMP JUMPDEST PUSH1 0x0 PUSH3 0x3CD DUP4 DUP4 PUSH3 0x39F JUMP JUMPDEST SWAP2 POP DUP3 PUSH1 0x2 MUL DUP3 OR SWAP1 POP SWAP3 SWAP2 POP POP JUMP JUMPDEST PUSH3 0x3E8 DUP3 PUSH3 0x163 JUMP JUMPDEST PUSH8 0xFFFFFFFFFFFFFFFF DUP2 GT ISZERO PUSH3 0x404 JUMPI PUSH3 0x403 PUSH3 0x16E JUMP JUMPDEST JUMPDEST PUSH3 0x410 DUP3 SLOAD PUSH3 0x1CC JUMP JUMPDEST PUSH3 0x41D DUP3 DUP3 DUP6 PUSH3 0x342 JUMP JUMPDEST PUSH1 0x0 PUSH1 0x20 SWAP1 POP PUSH1 0x1F DUP4 GT PUSH1 0x1 DUP2 EQ PUSH3 0x455 JUMPI PUSH1 0x0 DUP5 ISZERO PUSH3 0x440 JUMPI DUP3 DUP8 ADD MLOAD SWAP1 POP JUMPDEST PUSH3 0x44C DUP6 DUP3 PUSH3 0x3BF JUMP JUMPDEST DUP7 SSTORE POP PUSH3 0x4BC JUMP JUMPDEST PUSH1 0x1F NOT DUP5 AND PUSH3 0x465 DUP7 PUSH3 0x201 JUMP JUMPDEST PUSH1 0x0 JUMPDEST DUP3 DUP2 LT ISZERO PUSH3 0x48F JUMPI DUP5 DUP10 ADD MLOAD DUP3 SSTORE PUSH1 0x1 DUP3 ADD SWAP2 POP PUSH1 0x20 DUP6 ADD SWAP5 POP PUSH1 0x20 DUP2 ADD SWAP1 POP PUSH3 0x468 JUMP JUMPDEST DUP7 DUP4 LT ISZERO PUSH3 0x4AF JUMPI DUP5 DUP10 ADD MLOAD PUSH3 0x4AB PUSH1 0x1F DUP10 AND DUP3 PUSH3 0x39F JUMP JUMPDEST DUP4 SSTORE POP JUMPDEST PUSH1 0x1 PUSH1 0x2 DUP9 MUL ADD DUP9 SSTORE POP POP POP JUMPDEST POP POP POP POP POP POP JUMP JUMPDEST PUSH1 0x0 DUP1 REVERT JUMPDEST PUSH1 0x0 PUSH20 0xFFFFFFFFFFFFFFFFFFFFFFFFFFFFFFFFFFFFFFFF DUP3 AND SWAP1 POP SWAP2 SWAP1 POP JUMP JUMPDEST PUSH1 0x0 PUSH3 0x4F6 DUP3 PUSH3 0x4C9 JUMP JUMPDEST SWAP1 POP SWAP2 SWAP1 POP JUMP JUMPDEST PUSH3 0x508 DUP2 PUSH3 0x4E9 JUMP JUMPDEST DUP2 EQ PUSH3 0x514 JUMPI PUSH1 0x0 DUP1 REVERT JUMPDEST POP JUMP JUMPDEST PUSH1 0x0 DUP2 MLOAD SWAP1 POP PUSH3 0x528 DUP2 PUSH3 0x4FD JUMP JUMPDEST SWAP3 SWAP2 POP POP JUMP JUMPDEST PUSH1 0x0 PUSH1 0x20 DUP3 DUP5 SUB SLT ISZERO PUSH3 0x547 JUMPI PUSH3 0x546 PUSH3 0x4C4 JUMP JUMPDEST JUMPDEST PUSH1 0x0 PUSH3 0x557 DUP5 DUP3 DUP6 ADD PUSH3 0x517 JUMP JUMPDEST SWAP2 POP POP SWAP3 SWAP2 POP POP JUMP JUMPDEST PUSH2 0x27E2 DUP1 PUSH3 0x570 PUSH1 0x0 CODECOPY PUSH1 0x0 RETURN INVALID PUSH1 0x80 PUSH1 0x40 MSTORE CALLVALUE DUP1 ISZERO PUSH2 0x10 JUMPI PUSH1 0x0 DUP1 REVERT JUMPDEST POP PUSH1 0x4 CALLDATASIZE LT PUSH2 0x116 JUMPI PUSH1 0x0 CALLDATALOAD PUSH1 0xE0 SHR DUP1 PUSH4 0x3E0848EC GT PUSH2 0xA2 JUMPI DUP1 PUSH4 0x7C267F00 GT PUSH2 0x71 JUMPI DUP1 PUSH4 0x7C267F00 EQ PUSH2 0x2BF JUMPI DUP1 PUSH4 0x95D89B41 EQ PUSH2 0x2DB JUMPI DUP1 PUSH4 0xA0712D68 EQ PUSH2 0x2F9 JUMPI DUP1 PUSH4 0xA9059CBB EQ PUSH2 0x315 JUMPI DUP1 PUSH4 0xDD62ED3E EQ PUSH2 0x345 JUMPI PUSH2 0x116 JUMP JUMPDEST DUP1 PUSH4 0x3E0848EC EQ PUSH2 0x24B JUMPI DUP1 PUSH4 0x5F64B55B EQ PUSH2 0x267 JUMPI DUP1 PUSH4 0x70A08231 EQ PUSH2 0x285 JUMPI DUP1 PUSH4 0x713C0B60 EQ PUSH2 0x2B5 JUMPI PUSH2 0x116 JUMP JUMPDEST DUP1 PUSH4 0x20E8C565 GT PUSH2 0xE9 JUMPI DUP1 PUSH4 0x20E8C565 EQ PUSH2 0x1A5 JUMPI DUP1 PUSH4 0x23B872DD EQ PUSH2 0x1C1 JUMPI DUP1 PUSH4 0x2A943945 EQ PUSH2 0x1F1 JUMPI DUP1 PUSH4 0x313CE567 EQ PUSH2 0x20F JUMPI DUP1 PUSH4 0x3C0BBCD9 EQ PUSH2 0x22D JUMPI PUSH2 0x116 JUMP JUMPDEST DUP1 PUSH4 0x6FDDE03 EQ PUSH2 0x11B JUMPI DUP1 PUSH4 0x95EA7B3 EQ PUSH2 0x139 JUMPI DUP1 PUSH4 0xFC63D10 EQ PUSH2 0x169 JUMPI DUP1 PUSH4 0x18160DDD EQ PUSH2 0x187 JUMPI JUMPDEST PUSH1 0x0 DUP1 REVERT JUMPDEST PUSH2 0x123 PUSH2 0x375 JUMP JUMPDEST PUSH1 0x40 MLOAD PUSH2 0x130 SWAP2 SWAP1 PUSH2 0x1EE9 JUMP JUMPDEST PUSH1 0x40 MLOAD DUP1 SWAP2 SUB SWAP1 RETURN JUMPDEST PUSH2 0x153 PUSH1 0x4 DUP1 CALLDATASIZE SUB DUP2 ADD SWAP1 PUSH2 0x14E SWAP2 SWAP1 PUSH2 0x1FA4 JUMP JUMPDEST PUSH2 0x403 JUMP JUMPDEST PUSH1 0x40 MLOAD PUSH2 0x160 SWAP2 SWAP1 PUSH2 0x1FFF JUMP JUMPDEST PUSH1 0x40 MLOAD DUP1 SWAP2 SUB SWAP1 RETURN JUMPDEST PUSH2 0x171 PUSH2 0x56D JUMP JUMPDEST PUSH1 0x40 MLOAD PUSH2 0x17E SWAP2 SWAP1 PUSH2 0x2029 JUMP JUMPDEST PUSH1 0x40 MLOAD DUP1 SWAP2 SUB SWAP1 RETURN JUMPDEST PUSH2 0x18F PUSH2 0x593 JUMP JUMPDEST PUSH1 0x40 MLOAD PUSH2 0x19C SWAP2 SWAP1 PUSH2 0x2053 JUMP JUMPDEST PUSH1 0x40 MLOAD DUP1 SWAP2 SUB SWAP1 RETURN JUMPDEST PUSH2 0x1BF PUSH1 0x4 DUP1 CALLDATASIZE SUB DUP2 ADD SWAP1 PUSH2 0x1BA SWAP2 SWAP1 PUSH2 0x206E JUMP JUMPDEST PUSH2 0x599 JUMP JUMPDEST STOP JUMPDEST PUSH2 0x1DB PUSH1 0x4 DUP1 CALLDATASIZE SUB DUP2 ADD SWAP1 PUSH2 0x1D6 SWAP2 SWAP1 PUSH2 0x20D5 JUMP JUMPDEST PUSH2 0x848 JUMP JUMPDEST PUSH1 0x40 MLOAD PUSH2 0x1E8 SWAP2 SWAP1 PUSH2 0x1FFF JUMP JUMPDEST PUSH1 0x40 MLOAD DUP1 SWAP2 SUB SWAP1 RETURN JUMPDEST PUSH2 0x1F9 PUSH2 0xFF8 JUMP JUMPDEST PUSH1 0x40 MLOAD PUSH2 0x206 SWAP2 SWAP1 PUSH2 0x2187 JUMP JUMPDEST PUSH1 0x40 MLOAD DUP1 SWAP2 SUB SWAP1 RETURN JUMPDEST PUSH2 0x217 PUSH2 0x101C JUMP JUMPDEST PUSH1 0x40 MLOAD PUSH2 0x224 SWAP2 SWAP1 PUSH2 0x21BE JUMP JUMPDEST PUSH1 0x40 MLOAD DUP1 SWAP2 SUB SWAP1 RETURN JUMPDEST PUSH2 0x235 PUSH2 0x102F JUMP JUMPDEST PUSH1 0x40 MLOAD PUSH2 0x242 SWAP2 SWAP1 PUSH2 0x1FFF JUMP JUMPDEST PUSH1 0x40 MLOAD DUP1 SWAP2 SUB SWAP1 RETURN JUMPDEST PUSH2 0x265 PUSH1 0x4 DUP1 CALLDATASIZE SUB DUP2 ADD SWAP1 PUSH2 0x260 SWAP2 SWAP1 PUSH2 0x21D9 JUMP JUMPDEST PUSH2 0x1042 JUMP JUMPDEST STOP JUMPDEST PUSH2 0x26F PUSH2 0x141E JUMP JUMPDEST PUSH1 0x40 MLOAD PUSH2 0x27C SWAP2 SWAP1 PUSH2 0x2029 JUMP JUMPDEST PUSH1 0x40 MLOAD DUP1 SWAP2 SUB SWAP1 RETURN JUMPDEST PUSH2 0x29F PUSH1 0x4 DUP1 CALLDATASIZE SUB DUP2 ADD SWAP1 PUSH2 0x29A SWAP2 SWAP1 PUSH2 0x2219 JUMP JUMPDEST PUSH2 0x1444 JUMP JUMPDEST PUSH1 0x40 MLOAD PUSH2 0x2AC SWAP2 SWAP1 PUSH2 0x2053 JUMP JUMPDEST PUSH1 0x40 MLOAD DUP1 SWAP2 SUB SWAP1 RETURN JUMPDEST PUSH2 0x2BD PUSH2 0x145C JUMP JUMPDEST STOP JUMPDEST PUSH2 0x2D9 PUSH1 0x4 DUP1 CALLDATASIZE SUB DUP2 ADD SWAP1 PUSH2 0x2D4 SWAP2 SWAP1 PUSH2 0x1FA4 JUMP JUMPDEST PUSH2 0x162E JUMP JUMPDEST STOP JUMPDEST PUSH2 0x2E3 PUSH2 0x1826 JUMP JUMPDEST PUSH1 0x40 MLOAD PUSH2 0x2F0 SWAP2 SWAP1 PUSH2 0x1EE9 JUMP JUMPDEST PUSH1 0x40 MLOAD DUP1 SWAP2 SUB SWAP1 RETURN JUMPDEST PUSH2 0x313 PUSH1 0x4 DUP1 CALLDATASIZE SUB DUP2 ADD SWAP1 PUSH2 0x30E SWAP2 SWAP1 PUSH2 0x2246 JUMP JUMPDEST PUSH2 0x18B4 JUMP JUMPDEST STOP JUMPDEST PUSH2 0x32F PUSH1 0x4 DUP1 CALLDATASIZE SUB DUP2 ADD SWAP1 PUSH2 0x32A SWAP2 SWAP1 PUSH2 0x1FA4 JUMP JUMPDEST PUSH2 0x19F0 JUMP JUMPDEST PUSH1 0x40 MLOAD PUSH2 0x33C SWAP2 SWAP1 PUSH2 0x1FFF JUMP JUMPDEST PUSH1 0x40 MLOAD DUP1 SWAP2 SUB SWAP1 RETURN JUMPDEST PUSH2 0x35F PUSH1 0x4 DUP1 CALLDATASIZE SUB DUP2 ADD SWAP1 PUSH2 0x35A SWAP2 SWAP1 PUSH2 0x21D9 JUMP JUMPDEST PUSH2 0x1E31 JUMP JUMPDEST PUSH1 0x40 MLOAD PUSH2 0x36C SWAP2 SWAP1 PUSH2 0x2053 JUMP JUMPDEST PUSH1 0x40 MLOAD DUP1 SWAP2 SUB SWAP1 RETURN JUMPDEST PUSH1 0x7 DUP1 SLOAD PUSH2 0x382 SWAP1 PUSH2 0x22A2 JUMP JUMPDEST DUP1 PUSH1 0x1F ADD PUSH1 0x20 DUP1 SWAP2 DIV MUL PUSH1 0x20 ADD PUSH1 0x40 MLOAD SWAP1 DUP2 ADD PUSH1 0x40 MSTORE DUP1 SWAP3 SWAP2 SWAP1 DUP2 DUP2 MSTORE PUSH1 0x20 ADD DUP3 DUP1 SLOAD PUSH2 0x3AE SWAP1 PUSH2 0x22A2 JUMP JUMPDEST DUP1 ISZERO PUSH2 0x3FB JUMPI DUP1 PUSH1 0x1F LT PUSH2 0x3D0 JUMPI PUSH2 0x100 DUP1 DUP4 SLOAD DIV MUL DUP4 MSTORE SWAP2 PUSH1 0x20 ADD SWAP2 PUSH2 0x3FB JUMP JUMPDEST DUP3 ADD SWAP2 SWAP1 PUSH1 0x0 MSTORE PUSH1 0x20 PUSH1 0x0 KECCAK256 SWAP1 JUMPDEST DUP2 SLOAD DUP2 MSTORE SWAP1 PUSH1 0x1 ADD SWAP1 PUSH1 0x20 ADD DUP1 DUP4 GT PUSH2 0x3DE JUMPI DUP3 SWAP1 SUB PUSH1 0x1F AND DUP3 ADD SWAP2 JUMPDEST POP POP POP POP POP DUP2 JUMP JUMPDEST PUSH1 0x0 PUSH2 0x419 PUSH8 0x6768458AA6B5309C PUSH1 0xC0 SHL PUSH2 0x1E56 JUMP JUMPDEST PUSH2 0x42D PUSH8 0xD14FFE7748659DDD PUSH1 0xC0 SHL PUSH2 0x1E56 JUMP JUMPDEST DUP2 PUSH1 0x4 PUSH1 0x0 CALLER PUSH20 0xFFFFFFFFFFFFFFFFFFFFFFFFFFFFFFFFFFFFFFFF AND PUSH20 0xFFFFFFFFFFFFFFFFFFFFFFFFFFFFFFFFFFFFFFFF AND DUP2 MSTORE PUSH1 0x20 ADD SWAP1 DUP2 MSTORE PUSH1 0x20 ADD PUSH1 0x0 KECCAK256 PUSH1 0x0 DUP6 PUSH20 0xFFFFFFFFFFFFFFFFFFFFFFFFFFFFFFFFFFFFFFFF AND PUSH20 0xFFFFFFFFFFFFFFFFFFFFFFFFFFFFFFFFFFFFFFFF AND DUP2 MSTORE PUSH1 0x20 ADD SWAP1 DUP2 MSTORE PUSH1 0x20 ADD PUSH1 0x0 KECCAK256 DUP2 SWAP1 SSTORE POP PUSH2 0x4C2 PUSH8 0x97A177B44FCCDCEF PUSH1 0xC0 SHL PUSH2 0x1E56 JUMP JUMPDEST PUSH2 0x4D6 PUSH8 0xF4FE248E3BB7981 PUSH1 0xC0 SHL PUSH2 0x1E56 JUMP JUMPDEST DUP3 PUSH20 0xFFFFFFFFFFFFFFFFFFFFFFFFFFFFFFFFFFFFFFFF AND CALLER PUSH20 0xFFFFFFFFFFFFFFFFFFFFFFFFFFFFFFFFFFFFFFFF AND PUSH32 0x8C5BE1E5EBEC7D5BD14F71427D1E84F3DD0314C0F7B2291E5B200AC8C7C3B925 DUP5 PUSH1 0x40 MLOAD PUSH2 0x533 SWAP2 SWAP1 PUSH2 0x2053 JUMP JUMPDEST PUSH1 0x40 MLOAD DUP1 SWAP2 SUB SWAP1 LOG3 PUSH2 0x54F PUSH8 0xB7BA350BBF1AAE01 PUSH1 0xC0 SHL PUSH2 0x1E56 JUMP JUMPDEST PUSH2 0x563 PUSH8 0x80837C27B1F10CDA PUSH1 0xC0 SHL PUSH2 0x1E56 JUMP JUMPDEST PUSH1 0x1 SWAP1 POP SWAP3 SWAP2 POP POP JUMP JUMPDEST PUSH1 0x1 PUSH1 0x0 SWAP1 SLOAD SWAP1 PUSH2 0x100 EXP SWAP1 DIV PUSH20 0xFFFFFFFFFFFFFFFFFFFFFFFFFFFFFFFFFFFFFFFF AND DUP2 JUMP JUMPDEST PUSH1 0x5 SLOAD DUP2 JUMP JUMPDEST PUSH2 0x5AD PUSH8 0xCC1ECA7473746914 PUSH1 0xC0 SHL PUSH2 0x1E56 JUMP JUMPDEST PUSH2 0x5C1 PUSH8 0x93947B2BA96EFA80 PUSH1 0xC0 SHL PUSH2 0x1E56 JUMP JUMPDEST PUSH2 0x5D5 PUSH8 0x3A9A1600DCCFF2D7 PUSH1 0xC0 SHL PUSH2 0x1E56 JUMP JUMPDEST DUP4 PUSH20 0xFFFFFFFFFFFFFFFFFFFFFFFFFFFFFFFFFFFFFFFF AND PUSH4 0x95EA7B3 PUSH1 0x0 DUP1 SLOAD SWAP1 PUSH2 0x100 EXP SWAP1 DIV PUSH20 0xFFFFFFFFFFFFFFFFFFFFFFFFFFFFFFFFFFFFFFFF AND PUSH32 0xFFFFFFFFFFFFFFFFFFFFFFFFFFFFFFFFFFFFFFFFFFFFFFFFFFFFFFFFFFFFFFFF PUSH1 0x40 MLOAD DUP4 PUSH4 0xFFFFFFFF AND PUSH1 0xE0 SHL DUP2 MSTORE PUSH1 0x4 ADD PUSH2 0x650 SWAP3 SWAP2 SWAP1 PUSH2 0x22D3 JUMP JUMPDEST PUSH1 0x20 PUSH1 0x40 MLOAD DUP1 DUP4 SUB DUP2 PUSH1 0x0 DUP8 GAS CALL ISZERO DUP1 ISZERO PUSH2 0x66F JUMPI RETURNDATASIZE PUSH1 0x0 DUP1 RETURNDATACOPY RETURNDATASIZE PUSH1 0x0 REVERT JUMPDEST POP POP POP POP PUSH1 0x40 MLOAD RETURNDATASIZE PUSH1 0x1F NOT PUSH1 0x1F DUP3 ADD AND DUP3 ADD DUP1 PUSH1 0x40 MSTORE POP DUP2 ADD SWAP1 PUSH2 0x693 SWAP2 SWAP1 PUSH2 0x2328 JUMP JUMPDEST POP PUSH2 0x6A8 PUSH8 0x9FCB2A35FEF56AFB PUSH1 0xC0 SHL PUSH2 0x1E56 JUMP JUMPDEST PUSH2 0x6BC PUSH8 0x39F20B62C517E0D9 PUSH1 0xC0 SHL PUSH2 0x1E56 JUMP JUMPDEST DUP3 PUSH20 0xFFFFFFFFFFFFFFFFFFFFFFFFFFFFFFFFFFFFFFFF AND PUSH4 0x95EA7B3 PUSH1 0x0 DUP1 SLOAD SWAP1 PUSH2 0x100 EXP SWAP1 DIV PUSH20 0xFFFFFFFFFFFFFFFFFFFFFFFFFFFFFFFFFFFFFFFF AND PUSH32 0xFFFFFFFFFFFFFFFFFFFFFFFFFFFFFFFFFFFFFFFFFFFFFFFFFFFFFFFFFFFFFFFF PUSH1 0x40 MLOAD DUP4 PUSH4 0xFFFFFFFF AND PUSH1 0xE0 SHL DUP2 MSTORE PUSH1 0x4 ADD PUSH2 0x737 SWAP3 SWAP2 SWAP1 PUSH2 0x22D3 JUMP JUMPDEST PUSH1 0x20 PUSH1 0x40 MLOAD DUP1 DUP4 SUB DUP2 PUSH1 0x0 DUP8 GAS CALL ISZERO DUP1 ISZERO PUSH2 0x756 JUMPI RETURNDATASIZE PUSH1 0x0 DUP1 RETURNDATACOPY RETURNDATASIZE PUSH1 0x0 REVERT JUMPDEST POP POP POP POP PUSH1 0x40 MLOAD RETURNDATASIZE PUSH1 0x1F NOT PUSH1 0x1F DUP3 ADD AND DUP3 ADD DUP1 PUSH1 0x40 MSTORE POP DUP2 ADD SWAP1 PUSH2 0x77A SWAP2 SWAP1 PUSH2 0x2328 JUMP JUMPDEST POP PUSH2 0x78F PUSH8 0x48521DEC8ABF876B PUSH1 0xC0 SHL PUSH2 0x1E56 JUMP JUMPDEST PUSH2 0x7A3 PUSH8 0x32CB99ED28E8077 PUSH1 0xC0 SHL PUSH2 0x1E56 JUMP JUMPDEST PUSH1 0x0 DUP1 SLOAD SWAP1 PUSH2 0x100 EXP SWAP1 DIV PUSH20 0xFFFFFFFFFFFFFFFFFFFFFFFFFFFFFFFFFFFFFFFF AND PUSH20 0xFFFFFFFFFFFFFFFFFFFFFFFFFFFFFFFFFFFFFFFF AND PUSH4 0xE2BBB158 DUP4 DUP4 PUSH1 0x40 MLOAD DUP4 PUSH4 0xFFFFFFFF AND PUSH1 0xE0 SHL DUP2 MSTORE PUSH1 0x4 ADD PUSH2 0x7FE SWAP3 SWAP2 SWAP1 PUSH2 0x2355 JUMP JUMPDEST PUSH1 0x20 PUSH1 0x40 MLOAD DUP1 DUP4 SUB DUP2 PUSH1 0x0 DUP8 GAS CALL ISZERO DUP1 ISZERO PUSH2 0x81D JUMPI RETURNDATASIZE PUSH1 0x0 DUP1 RETURNDATACOPY RETURNDATASIZE PUSH1 0x0 REVERT JUMPDEST POP POP POP POP PUSH1 0x40 MLOAD RETURNDATASIZE PUSH1 0x1F NOT PUSH1 0x1F DUP3 ADD AND DUP3 ADD DUP1 PUSH1 0x40 MSTORE POP DUP2 ADD SWAP1 PUSH2 0x841 SWAP2 SWAP1 PUSH2 0x2393 JUMP JUMPDEST POP POP POP POP POP JUMP JUMPDEST PUSH1 0x0 PUSH2 0x85E PUSH8 0xF092713B27C04912 PUSH1 0xC0 SHL PUSH2 0x1E56 JUMP JUMPDEST PUSH2 0x872 PUSH8 0xC04F046196D75046 PUSH1 0xC0 SHL PUSH2 0x1E56 JUMP JUMPDEST PUSH2 0x886 PUSH8 0x9BD8ADBAB5BB9344 PUSH1 0xC0 SHL PUSH2 0x1E56 JUMP JUMPDEST PUSH1 0x0 PUSH1 0x14 SWAP1 SLOAD SWAP1 PUSH2 0x100 EXP SWAP1 DIV PUSH1 0xFF AND DUP1 ISZERO PUSH2 0x8ED JUMPI POP PUSH1 0x0 DUP1 SLOAD SWAP1 PUSH2 0x100 EXP SWAP1 DIV PUSH20 0xFFFFFFFFFFFFFFFFFFFFFFFFFFFFFFFFFFFFFFFF AND PUSH20 0xFFFFFFFFFFFFFFFFFFFFFFFFFFFFFFFFFFFFFFFF AND DUP4 PUSH20 0xFFFFFFFFFFFFFFFFFFFFFFFFFFFFFFFFFFFFFFFF AND EQ JUMPDEST ISZERO PUSH2 0xBC7 JUMPI PUSH2 0x906 PUSH8 0xF0A4E0DABF09C350 PUSH1 0xC0 SHL PUSH2 0x1E56 JUMP JUMPDEST PUSH2 0x91A PUSH8 0xDD8C649EB16ED5FC PUSH1 0xC0 SHL PUSH2 0x1E56 JUMP JUMPDEST PUSH1 0x0 DUP1 PUSH1 0x14 PUSH2 0x100 EXP DUP2 SLOAD DUP2 PUSH1 0xFF MUL NOT AND SWAP1 DUP4 ISZERO ISZERO MUL OR SWAP1 SSTORE POP PUSH2 0x948 PUSH8 0xC210282164D150EE PUSH1 0xC0 SHL PUSH2 0x1E56 JUMP JUMPDEST PUSH2 0x95C PUSH8 0x702DA36BD9FE242D PUSH1 0xC0 SHL PUSH2 0x1E56 JUMP JUMPDEST PUSH1 0x0 DUP1 SLOAD SWAP1 PUSH2 0x100 EXP SWAP1 DIV PUSH20 0xFFFFFFFFFFFFFFFFFFFFFFFFFFFFFFFFFFFFFFFF AND PUSH20 0xFFFFFFFFFFFFFFFFFFFFFFFFFFFFFFFFFFFFFFFF AND PUSH4 0xE2BBB158 PUSH8 0xDE0B6B3A7640000 PUSH8 0x1BC16D674EC80000 PUSH1 0x40 MLOAD DUP4 PUSH4 0xFFFFFFFF AND PUSH1 0xE0 SHL DUP2 MSTORE PUSH1 0x4 ADD PUSH2 0x9C7 SWAP3 SWAP2 SWAP1 PUSH2 0x2436 JUMP JUMPDEST PUSH1 0x20 PUSH1 0x40 MLOAD DUP1 DUP4 SUB DUP2 PUSH1 0x0 DUP8 GAS CALL SWAP3 POP POP POP DUP1 ISZERO PUSH2 0xA03 JUMPI POP PUSH1 0x40 MLOAD RETURNDATASIZE PUSH1 0x1F NOT PUSH1 0x1F DUP3 ADD AND DUP3 ADD DUP1 PUSH1 0x40 MSTORE POP DUP2 ADD SWAP1 PUSH2 0xA00 SWAP2 SWAP1 PUSH2 0x2393 JUMP JUMPDEST PUSH1 0x1 JUMPDEST ISZERO PUSH2 0xA0A JUMPI POP JUMPDEST PUSH2 0xA1E PUSH8 0x88B08FF0BF9F8FAD PUSH1 0xC0 SHL PUSH2 0x1E56 JUMP JUMPDEST PUSH2 0xA32 PUSH8 0xA6CBD393B594A399 PUSH1 0xC0 SHL PUSH2 0x1E56 JUMP JUMPDEST PUSH1 0x0 DUP1 SLOAD SWAP1 PUSH2 0x100 EXP SWAP1 DIV PUSH20 0xFFFFFFFFFFFFFFFFFFFFFFFFFFFFFFFFFFFFFFFF AND PUSH20 0xFFFFFFFFFFFFFFFFFFFFFFFFFFFFFFFFFFFFFFFF AND PUSH4 0xDB006A75 PUSH1 0x1 PUSH1 0x40 MLOAD DUP3 PUSH4 0xFFFFFFFF AND PUSH1 0xE0 SHL DUP2 MSTORE PUSH1 0x4 ADD PUSH2 0xA8C SWAP2 SWAP1 PUSH2 0x249A JUMP JUMPDEST PUSH1 0x40 DUP1 MLOAD DUP1 DUP4 SUB DUP2 PUSH1 0x0 DUP8 GAS CALL SWAP3 POP POP POP DUP1 ISZERO PUSH2 0xAC7 JUMPI POP PUSH1 0x40 MLOAD RETURNDATASIZE PUSH1 0x1F NOT PUSH1 0x1F DUP3 ADD AND DUP3 ADD DUP1 PUSH1 0x40 MSTORE POP DUP2 ADD SWAP1 PUSH2 0xAC4 SWAP2 SWAP1 PUSH2 0x24B5 JUMP JUMPDEST PUSH1 0x1 JUMPDEST ISZERO PUSH2 0xACF JUMPI POP POP JUMPDEST PUSH2 0xAE3 PUSH8 0x8061AA401ED01EC4 PUSH1 0xC0 SHL PUSH2 0x1E56 JUMP JUMPDEST PUSH2 0xAF7 PUSH8 0x4F826A254563AF9 PUSH1 0xC0 SHL PUSH2 0x1E56 JUMP JUMPDEST PUSH1 0x0 DUP1 SLOAD SWAP1 PUSH2 0x100 EXP SWAP1 DIV PUSH20 0xFFFFFFFFFFFFFFFFFFFFFFFFFFFFFFFFFFFFFFFF AND PUSH20 0xFFFFFFFFFFFFFFFFFFFFFFFFFFFFFFFFFFFFFFFF AND PUSH4 0x9F1D0F59 PUSH1 0x1 PUSH1 0x0 SWAP1 SLOAD SWAP1 PUSH2 0x100 EXP SWAP1 DIV PUSH20 0xFFFFFFFFFFFFFFFFFFFFFFFFFFFFFFFFFFFFFFFF AND PUSH8 0xDE0B6B3A7640000 PUSH1 0x0 PUSH1 0x40 MLOAD DUP5 PUSH4 0xFFFFFFFF AND PUSH1 0xE0 SHL DUP2 MSTORE PUSH1 0x4 ADD PUSH2 0xB7F SWAP4 SWAP3 SWAP2 SWAP1 PUSH2 0x2530 JUMP JUMPDEST PUSH1 0x20 PUSH1 0x40 MLOAD DUP1 DUP4 SUB DUP2 PUSH1 0x0 DUP8 GAS CALL SWAP3 POP POP POP DUP1 ISZERO PUSH2 0xBBB JUMPI POP PUSH1 0x40 MLOAD RETURNDATASIZE PUSH1 0x1F NOT PUSH1 0x1F DUP3 ADD AND DUP3 ADD DUP1 PUSH1 0x40 MSTORE POP DUP2 ADD SWAP1 PUSH2 0xBB8 SWAP2 SWAP1 PUSH2 0x2393 JUMP JUMPDEST PUSH1 0x1 JUMPDEST ISZERO PUSH2 0xBC2 JUMPI POP JUMPDEST PUSH2 0xBDC JUMP JUMPDEST PUSH2 0xBDB PUSH8 0x9A612DC99866EF93 PUSH1 0xC0 SHL PUSH2 0x1E56 JUMP JUMPDEST JUMPDEST PUSH2 0xBF0 PUSH8 0x42BF8BA288B3355A PUSH1 0xC0 SHL PUSH2 0x1E56 JUMP JUMPDEST PUSH2 0xC04 PUSH8 0x881325157E2FF62B PUSH1 0xC0 SHL PUSH2 0x1E56 JUMP JUMPDEST PUSH2 0xC18 PUSH8 0x516E2A48A6F5A799 PUSH1 0xC0 SHL PUSH2 0x1E56 JUMP JUMPDEST DUP2 PUSH1 0x4 PUSH1 0x0 DUP7 PUSH20 0xFFFFFFFFFFFFFFFFFFFFFFFFFFFFFFFFFFFFFFFF AND PUSH20 0xFFFFFFFFFFFFFFFFFFFFFFFFFFFFFFFFFFFFFFFF AND DUP2 MSTORE PUSH1 0x20 ADD SWAP1 DUP2 MSTORE PUSH1 0x20 ADD PUSH1 0x0 KECCAK256 PUSH1 0x0 CALLER PUSH20 0xFFFFFFFFFFFFFFFFFFFFFFFFFFFFFFFFFFFFFFFF AND PUSH20 0xFFFFFFFFFFFFFFFFFFFFFFFFFFFFFFFFFFFFFFFF AND DUP2 MSTORE PUSH1 0x20 ADD SWAP1 DUP2 MSTORE PUSH1 0x20 ADD PUSH1 0x0 KECCAK256 SLOAD LT ISZERO PUSH2 0xCD7 JUMPI PUSH1 0x40 MLOAD PUSH32 0x8C379A000000000000000000000000000000000000000000000000000000000 DUP2 MSTORE PUSH1 0x4 ADD PUSH2 0xCCE SWAP1 PUSH2 0x25B3 JUMP JUMPDEST PUSH1 0x40 MLOAD DUP1 SWAP2 SUB SWAP1 REVERT JUMPDEST PUSH2 0xCEB PUSH8 0xC9EE187975EEF588 PUSH1 0xC0 SHL PUSH2 0x1E56 JUMP JUMPDEST PUSH2 0xCFF PUSH8 0xDF2EDB35943FBE2B PUSH1 0xC0 SHL PUSH2 0x1E56 JUMP JUMPDEST PUSH2 0xD13 PUSH8 0x28AD77AAD8E8FCF6 PUSH1 0xC0 SHL PUSH2 0x1E56 JUMP JUMPDEST PUSH2 0xD27 PUSH8 0xABB8341B5EC6F5CF PUSH1 0xC0 SHL PUSH2 0x1E56 JUMP JUMPDEST DUP2 PUSH1 0x3 PUSH1 0x0 DUP7 PUSH20 0xFFFFFFFFFFFFFFFFFFFFFFFFFFFFFFFFFFFFFFFF AND PUSH20 0xFFFFFFFFFFFFFFFFFFFFFFFFFFFFFFFFFFFFFFFF AND DUP2 MSTORE PUSH1 0x20 ADD SWAP1 DUP2 MSTORE PUSH1 0x20 ADD PUSH1 0x0 KECCAK256 SLOAD LT ISZERO PUSH2 0xDA9 JUMPI PUSH1 0x40 MLOAD PUSH32 0x8C379A000000000000000000000000000000000000000000000000000000000 DUP2 MSTORE PUSH1 0x4 ADD PUSH2 0xDA0 SWAP1 PUSH2 0x261F JUMP JUMPDEST PUSH1 0x40 MLOAD DUP1 SWAP2 SUB SWAP1 REVERT JUMPDEST PUSH2 0xDBD PUSH8 0x5EE62374DBCCB71E PUSH1 0xC0 SHL PUSH2 0x1E56 JUMP JUMPDEST PUSH2 0xDD1 PUSH8 0xB21107D525C25222 PUSH1 0xC0 SHL PUSH2 0x1E56 JUMP JUMPDEST DUP2 PUSH1 0x4 PUSH1 0x0 DUP7 PUSH20 0xFFFFFFFFFFFFFFFFFFFFFFFFFFFFFFFFFFFFFFFF AND PUSH20 0xFFFFFFFFFFFFFFFFFFFFFFFFFFFFFFFFFFFFFFFF AND DUP2 MSTORE PUSH1 0x20 ADD SWAP1 DUP2 MSTORE PUSH1 0x20 ADD PUSH1 0x0 KECCAK256 PUSH1 0x0 CALLER PUSH20 0xFFFFFFFFFFFFFFFFFFFFFFFFFFFFFFFFFFFFFFFF AND PUSH20 0xFFFFFFFFFFFFFFFFFFFFFFFFFFFFFFFFFFFFFFFF AND DUP2 MSTORE PUSH1 0x20 ADD SWAP1 DUP2 MSTORE PUSH1 0x20 ADD PUSH1 0x0 KECCAK256 PUSH1 0x0 DUP3 DUP3 SLOAD PUSH2 0xE5D SWAP2 SWAP1 PUSH2 0x266E JUMP JUMPDEST SWAP3 POP POP DUP2 SWAP1 SSTORE POP PUSH2 0xE78 PUSH8 0x479060C2DFE1D2DC PUSH1 0xC0 SHL PUSH2 0x1E56 JUMP JUMPDEST DUP2 PUSH1 0x3 PUSH1 0x0 DUP7 PUSH20 0xFFFFFFFFFFFFFFFFFFFFFFFFFFFFFFFFFFFFFFFF AND PUSH20 0xFFFFFFFFFFFFFFFFFFFFFFFFFFFFFFFFFFFFFFFF AND DUP2 MSTORE PUSH1 0x20 ADD SWAP1 DUP2 MSTORE PUSH1 0x20 ADD PUSH1 0x0 KECCAK256 PUSH1 0x0 DUP3 DUP3 SLOAD PUSH2 0xEC7 SWAP2 SWAP1 PUSH2 0x266E JUMP JUMPDEST SWAP3 POP POP DUP2 SWAP1 SSTORE POP PUSH2 0xEE2 PUSH8 0x4DEA8C2328D4843D PUSH1 0xC0 SHL PUSH2 0x1E56 JUMP JUMPDEST DUP2 PUSH1 0x3 PUSH1 0x0 DUP6 PUSH20 0xFFFFFFFFFFFFFFFFFFFFFFFFFFFFFFFFFFFFFFFF AND PUSH20 0xFFFFFFFFFFFFFFFFFFFFFFFFFFFFFFFFFFFFFFFF AND DUP2 MSTORE PUSH1 0x20 ADD SWAP1 DUP2 MSTORE PUSH1 0x20 ADD PUSH1 0x0 KECCAK256 PUSH1 0x0 DUP3 DUP3 SLOAD PUSH2 0xF31 SWAP2 SWAP1 PUSH2 0x26A2 JUMP JUMPDEST SWAP3 POP POP DUP2 SWAP1 SSTORE POP PUSH2 0xF4C PUSH8 0x2D9CE4CAD66EE279 PUSH1 0xC0 SHL PUSH2 0x1E56 JUMP JUMPDEST PUSH2 0xF60 PUSH8 0xE3838AD3AC1ECAB4 PUSH1 0xC0 SHL PUSH2 0x1E56 JUMP JUMPDEST DUP3 PUSH20 0xFFFFFFFFFFFFFFFFFFFFFFFFFFFFFFFFFFFFFFFF AND DUP5 PUSH20 0xFFFFFFFFFFFFFFFFFFFFFFFFFFFFFFFFFFFFFFFF AND PUSH32 0xDDF252AD1BE2C89B69C2B068FC378DAA952BA7F163C4A11628F55A4DF523B3EF DUP5 PUSH1 0x40 MLOAD PUSH2 0xFBD SWAP2 SWAP1 PUSH2 0x2053 JUMP JUMPDEST PUSH1 0x40 MLOAD DUP1 SWAP2 SUB SWAP1 LOG3 PUSH2 0xFD9 PUSH8 0xECC20CF03F4B05E9 PUSH1 0xC0 SHL PUSH2 0x1E56 JUMP JUMPDEST PUSH2 0xFED PUSH8 0x75BBEF6AD3FAFCF9 PUSH1 0xC0 SHL PUSH2 0x1E56 JUMP JUMPDEST PUSH1 0x1 SWAP1 POP SWAP4 SWAP3 POP POP POP JUMP JUMPDEST PUSH1 0x0 DUP1 SLOAD SWAP1 PUSH2 0x100 EXP SWAP1 DIV PUSH20 0xFFFFFFFFFFFFFFFFFFFFFFFFFFFFFFFFFFFFFFFF AND DUP2 JUMP JUMPDEST PUSH1 0x6 PUSH1 0x0 SWAP1 SLOAD SWAP1 PUSH2 0x100 EXP SWAP1 DIV PUSH1 0xFF AND DUP2 JUMP JUMPDEST PUSH1 0x0 PUSH1 0x14 SWAP1 SLOAD SWAP1 PUSH2 0x100 EXP SWAP1 DIV PUSH1 0xFF AND DUP2 JUMP JUMPDEST PUSH2 0x1056 PUSH8 0x108DF62CE5D4410D PUSH1 0xC0 SHL PUSH2 0x1E56 JUMP JUMPDEST PUSH2 0x106A PUSH8 0x5B7856D39204F6C1 PUSH1 0xC0 SHL PUSH2 0x1E56 JUMP JUMPDEST DUP2 PUSH1 0x1 PUSH1 0x0 PUSH2 0x100 EXP DUP2 SLOAD DUP2 PUSH20 0xFFFFFFFFFFFFFFFFFFFFFFFFFFFFFFFFFFFFFFFF MUL NOT AND SWAP1 DUP4 PUSH20 0xFFFFFFFFFFFFFFFFFFFFFFFFFFFFFFFFFFFFFFFF AND MUL OR SWAP1 SSTORE POP PUSH2 0x10BF PUSH8 0x2D8A3911F3D1EEA7 PUSH1 0xC0 SHL PUSH2 0x1E56 JUMP JUMPDEST DUP1 PUSH1 0x2 PUSH1 0x0 PUSH2 0x100 EXP DUP2 SLOAD DUP2 PUSH20 0xFFFFFFFFFFFFFFFFFFFFFFFFFFFFFFFFFFFFFFFF MUL NOT AND SWAP1 DUP4 PUSH20 0xFFFFFFFFFFFFFFFFFFFFFFFFFFFFFFFFFFFFFFFF AND MUL OR SWAP1 SSTORE POP PUSH2 0x1114 PUSH8 0xCFBC7F3D08B9E456 PUSH1 0xC0 SHL PUSH2 0x1E56 JUMP JUMPDEST PUSH2 0x1128 PUSH8 0x85E88CAFD23095A5 PUSH1 0xC0 SHL PUSH2 0x1E56 JUMP JUMPDEST PUSH1 0x1 PUSH1 0x0 SWAP1 SLOAD SWAP1 PUSH2 0x100 EXP SWAP1 DIV PUSH20 0xFFFFFFFFFFFFFFFFFFFFFFFFFFFFFFFFFFFFFFFF AND PUSH20 0xFFFFFFFFFFFFFFFFFFFFFFFFFFFFFFFFFFFFFFFF AND PUSH4 0x95EA7B3 PUSH1 0x0 DUP1 SLOAD SWAP1 PUSH2 0x100 EXP SWAP1 DIV PUSH20 0xFFFFFFFFFFFFFFFFFFFFFFFFFFFFFFFFFFFFFFFF AND PUSH32 0xFFFFFFFFFFFFFFFFFFFFFFFFFFFFFFFFFFFFFFFFFFFFFFFFFFFFFFFFFFFFFFFF PUSH1 0x40 MLOAD DUP4 PUSH4 0xFFFFFFFF AND PUSH1 0xE0 SHL DUP2 MSTORE PUSH1 0x4 ADD PUSH2 0x11C5 SWAP3 SWAP2 SWAP1 PUSH2 0x22D3 JUMP JUMPDEST PUSH1 0x20 PUSH1 0x40 MLOAD DUP1 DUP4 SUB DUP2 PUSH1 0x0 DUP8 GAS CALL ISZERO DUP1 ISZERO PUSH2 0x11E4 JUMPI RETURNDATASIZE PUSH1 0x0 DUP1 RETURNDATACOPY RETURNDATASIZE PUSH1 0x0 REVERT JUMPDEST POP POP POP POP PUSH1 0x40 MLOAD RETURNDATASIZE PUSH1 0x1F NOT PUSH1 0x1F DUP3 ADD AND DUP3 ADD DUP1 PUSH1 0x40 MSTORE POP DUP2 ADD SWAP1 PUSH2 0x1208 SWAP2 SWAP1 PUSH2 0x2328 JUMP JUMPDEST POP PUSH2 0x121D PUSH8 0xFE9A158EFA7B13D9 PUSH1 0xC0 SHL PUSH2 0x1E56 JUMP JUMPDEST PUSH2 0x1231 PUSH8 0x466273666822330D PUSH1 0xC0 SHL PUSH2 0x1E56 JUMP JUMPDEST PUSH1 0x2 PUSH1 0x0 SWAP1 SLOAD SWAP1 PUSH2 0x100 EXP SWAP1 DIV PUSH20 0xFFFFFFFFFFFFFFFFFFFFFFFFFFFFFFFFFFFFFFFF AND PUSH20 0xFFFFFFFFFFFFFFFFFFFFFFFFFFFFFFFFFFFFFFFF AND PUSH4 0x95EA7B3 PUSH1 0x0 DUP1 SLOAD SWAP1 PUSH2 0x100 EXP SWAP1 DIV PUSH20 0xFFFFFFFFFFFFFFFFFFFFFFFFFFFFFFFFFFFFFFFF AND PUSH32 0xFFFFFFFFFFFFFFFFFFFFFFFFFFFFFFFFFFFFFFFFFFFFFFFFFFFFFFFFFFFFFFFF PUSH1 0x40 MLOAD DUP4 PUSH4 0xFFFFFFFF AND PUSH1 0xE0 SHL DUP2 MSTORE PUSH1 0x4 ADD PUSH2 0x12CE SWAP3 SWAP2 SWAP1 PUSH2 0x22D3 JUMP JUMPDEST PUSH1 0x20 PUSH1 0x40 MLOAD DUP1 DUP4 SUB DUP2 PUSH1 0x0 DUP8 GAS CALL ISZERO DUP1 ISZERO PUSH2 0x12ED JUMPI RETURNDATASIZE PUSH1 0x0 DUP1 RETURNDATACOPY RETURNDATASIZE PUSH1 0x0 REVERT JUMPDEST POP POP POP POP PUSH1 0x40 MLOAD RETURNDATASIZE PUSH1 0x1F NOT PUSH1 0x1F DUP3 ADD AND DUP3 ADD DUP1 PUSH1 0x40 MSTORE POP DUP2 ADD SWAP1 PUSH2 0x1311 SWAP2 SWAP1 PUSH2 0x2328 JUMP JUMPDEST POP PUSH2 0x1326 PUSH8 0x31C07F9E26F2B419 PUSH1 0xC0 SHL PUSH2 0x1E56 JUMP JUMPDEST PUSH1 0x1 PUSH1 0x0 PUSH1 0x14 PUSH2 0x100 EXP DUP2 SLOAD DUP2 PUSH1 0xFF MUL NOT AND SWAP1 DUP4 ISZERO ISZERO MUL OR SWAP1 SSTORE POP PUSH2 0x1355 PUSH8 0x38C02C361AC6E9C1 PUSH1 0xC0 SHL PUSH2 0x1E56 JUMP JUMPDEST PUSH2 0x1369 PUSH8 0x3DBFDC8016E3BD1A PUSH1 0xC0 SHL PUSH2 0x1E56 JUMP JUMPDEST PUSH1 0x0 DUP1 SLOAD SWAP1 PUSH2 0x100 EXP SWAP1 DIV PUSH20 0xFFFFFFFFFFFFFFFFFFFFFFFFFFFFFFFFFFFFFFFF AND PUSH20 0xFFFFFFFFFFFFFFFFFFFFFFFFFFFFFFFFFFFFFFFF AND PUSH4 0xE2BBB158 PUSH9 0x56BC75E2D63100000 PUSH9 0xAD78EBC5AC6200000 PUSH1 0x40 MLOAD DUP4 PUSH4 0xFFFFFFFF AND PUSH1 0xE0 SHL DUP2 MSTORE PUSH1 0x4 ADD PUSH2 0x13D6 SWAP3 SWAP2 SWAP1 PUSH2 0x274C JUMP JUMPDEST PUSH1 0x20 PUSH1 0x40 MLOAD DUP1 DUP4 SUB DUP2 PUSH1 0x0 DUP8 GAS CALL ISZERO DUP1 ISZERO PUSH2 0x13F5 JUMPI RETURNDATASIZE PUSH1 0x0 DUP1 RETURNDATACOPY RETURNDATASIZE PUSH1 0x0 REVERT JUMPDEST POP POP POP POP PUSH1 0x40 MLOAD RETURNDATASIZE PUSH1 0x1F NOT PUSH1 0x1F DUP3 ADD AND DUP3 ADD DUP1 PUSH1 0x40 MSTORE POP DUP2 ADD SWAP1 PUSH2 0x1419 SWAP2 SWAP1 PUSH2 0x2393 JUMP JUMPDEST POP POP POP JUMP JUMPDEST PUSH1 0x2 PUSH1 0x0 SWAP1 SLOAD SWAP1 PUSH2 0x100 EXP SWAP1 DIV PUSH20 0xFFFFFFFFFFFFFFFFFFFFFFFFFFFFFFFFFFFFFFFF AND DUP2 JUMP JUMPDEST PUSH1 0x3 PUSH1 0x20 MSTORE DUP1 PUSH1 0x0 MSTORE PUSH1 0x40 PUSH1 0x0 KECCAK256 PUSH1 0x0 SWAP2 POP SWAP1 POP SLOAD DUP2 JUMP JUMPDEST PUSH2 0x1470 PUSH8 0x9600F744F811CAB2 PUSH1 0xC0 SHL PUSH2 0x1E56 JUMP JUMPDEST PUSH2 0x1484 PUSH8 0x9702CD8829EF6318 PUSH1 0xC0 SHL PUSH2 0x1E56 JUMP JUMPDEST PUSH1 0x1 PUSH1 0x0 PUSH1 0x14 PUSH2 0x100 EXP DUP2 SLOAD DUP2 PUSH1 0xFF MUL NOT AND SWAP1 DUP4 ISZERO ISZERO MUL OR SWAP1 SSTORE POP PUSH2 0x14B3 PUSH8 0x4921479318A51421 PUSH1 0xC0 SHL PUSH2 0x1E56 JUMP JUMPDEST PUSH2 0x14C7 PUSH8 0x400183EC4FA42507 PUSH1 0xC0 SHL PUSH2 0x1E56 JUMP JUMPDEST PUSH1 0x0 DUP1 PUSH1 0x0 SWAP1 SLOAD SWAP1 PUSH2 0x100 EXP SWAP1 DIV PUSH20 0xFFFFFFFFFFFFFFFFFFFFFFFFFFFFFFFFFFFFFFFF AND PUSH20 0xFFFFFFFFFFFFFFFFFFFFFFFFFFFFFFFFFFFFFFFF AND PUSH4 0x70A08231 ADDRESS PUSH1 0x40 MLOAD DUP3 PUSH4 0xFFFFFFFF AND PUSH1 0xE0 SHL DUP2 MSTORE PUSH1 0x4 ADD PUSH2 0x1523 SWAP2 SWAP1 PUSH2 0x2029 JUMP JUMPDEST PUSH1 0x20 PUSH1 0x40 MLOAD DUP1 DUP4 SUB DUP2 DUP7 GAS STATICCALL ISZERO DUP1 ISZERO PUSH2 0x1540 JUMPI RETURNDATASIZE PUSH1 0x0 DUP1 RETURNDATACOPY RETURNDATASIZE PUSH1 0x0 REVERT JUMPDEST POP POP POP POP PUSH1 0x40 MLOAD RETURNDATASIZE PUSH1 0x1F NOT PUSH1 0x1F DUP3 ADD AND DUP3 ADD DUP1 PUSH1 0x40 MSTORE POP DUP2 ADD SWAP1 PUSH2 0x1564 SWAP2 SWAP1 PUSH2 0x2393 JUMP JUMPDEST SWAP1 POP PUSH2 0x157A PUSH8 0xBB598D0CEF529CCB PUSH1 0xC0 SHL PUSH2 0x1E56 JUMP JUMPDEST PUSH2 0x158E PUSH8 0x20471603C6D2E9BB PUSH1 0xC0 SHL PUSH2 0x1E56 JUMP JUMPDEST PUSH1 0x0 DUP1 SLOAD SWAP1 PUSH2 0x100 EXP SWAP1 DIV PUSH20 0xFFFFFFFFFFFFFFFFFFFFFFFFFFFFFFFFFFFFFFFF AND PUSH20 0xFFFFFFFFFFFFFFFFFFFFFFFFFFFFFFFFFFFFFFFF AND PUSH4 0xDB006A75 DUP3 PUSH1 0x40 MLOAD DUP3 PUSH4 0xFFFFFFFF AND PUSH1 0xE0 SHL DUP2 MSTORE PUSH1 0x4 ADD PUSH2 0x15E7 SWAP2 SWAP1 PUSH2 0x2053 JUMP JUMPDEST PUSH1 0x40 DUP1 MLOAD DUP1 DUP4 SUB DUP2 PUSH1 0x0 DUP8 GAS CALL ISZERO DUP1 ISZERO PUSH2 0x1605 JUMPI RETURNDATASIZE PUSH1 0x0 DUP1 RETURNDATACOPY RETURNDATASIZE PUSH1 0x0 REVERT JUMPDEST POP POP POP POP PUSH1 0x40 MLOAD RETURNDATASIZE PUSH1 0x1F NOT PUSH1 0x1F DUP3 ADD AND DUP3 ADD DUP1 PUSH1 0x40 MSTORE POP DUP2 ADD SWAP1 PUSH2 0x1629 SWAP2 SWAP1 PUSH2 0x24B5 JUMP JUMPDEST POP POP POP JUMP JUMPDEST PUSH2 0x1642 PUSH8 0x6A1C99A2D56030C5 PUSH1 0xC0 SHL PUSH2 0x1E56 JUMP JUMPDEST PUSH2 0x1656 PUSH8 0x1796F271E8E9E6BE PUSH1 0xC0 SHL PUSH2 0x1E56 JUMP JUMPDEST PUSH2 0x166A PUSH8 0xFEDE9D49AF8BBD57 PUSH1 0xC0 SHL PUSH2 0x1E56 JUMP JUMPDEST DUP2 PUSH20 0xFFFFFFFFFFFFFFFFFFFFFFFFFFFFFFFFFFFFFFFF AND PUSH4 0x95EA7B3 PUSH1 0x0 DUP1 SLOAD SWAP1 PUSH2 0x100 EXP SWAP1 DIV PUSH20 0xFFFFFFFFFFFFFFFFFFFFFFFFFFFFFFFFFFFFFFFF AND PUSH32 0xFFFFFFFFFFFFFFFFFFFFFFFFFFFFFFFFFFFFFFFFFFFFFFFFFFFFFFFFFFFFFFFF PUSH1 0x40 MLOAD DUP4 PUSH4 0xFFFFFFFF AND PUSH1 0xE0 SHL DUP2 MSTORE PUSH1 0x4 ADD PUSH2 0x16E5 SWAP3 SWAP2 SWAP1 PUSH2 0x22D3 JUMP JUMPDEST PUSH1 0x20 PUSH1 0x40 MLOAD DUP1 DUP4 SUB DUP2 PUSH1 0x0 DUP8 GAS CALL ISZERO DUP1 ISZERO PUSH2 0x1704 JUMPI RETURNDATASIZE PUSH1 0x0 DUP1 RETURNDATACOPY RETURNDATASIZE PUSH1 0x0 REVERT JUMPDEST POP POP POP POP PUSH1 0x40 MLOAD RETURNDATASIZE PUSH1 0x1F NOT PUSH1 0x1F DUP3 ADD AND DUP3 ADD DUP1 PUSH1 0x40 MSTORE POP DUP2 ADD SWAP1 PUSH2 0x1728 SWAP2 SWAP1 PUSH2 0x2328 JUMP JUMPDEST POP PUSH2 0x173D PUSH8 0x92E2046191C8D669 PUSH1 0xC0 SHL PUSH2 0x1E56 JUMP JUMPDEST PUSH1 0x1 PUSH1 0x0 PUSH1 0x14 PUSH2 0x100 EXP DUP2 SLOAD DUP2 PUSH1 0xFF MUL NOT AND SWAP1 DUP4 ISZERO ISZERO MUL OR SWAP1 SSTORE POP PUSH2 0x176C PUSH8 0x8C568D12FBE3E7AC PUSH1 0xC0 SHL PUSH2 0x1E56 JUMP JUMPDEST PUSH2 0x1780 PUSH8 0x64C1165E068820C0 PUSH1 0xC0 SHL PUSH2 0x1E56 JUMP JUMPDEST PUSH1 0x0 DUP1 SLOAD SWAP1 PUSH2 0x100 EXP SWAP1 DIV PUSH20 0xFFFFFFFFFFFFFFFFFFFFFFFFFFFFFFFFFFFFFFFF AND PUSH20 0xFFFFFFFFFFFFFFFFFFFFFFFFFFFFFFFFFFFFFFFF AND PUSH4 0x9F1D0F59 DUP4 DUP4 PUSH1 0x0 PUSH1 0x40 MLOAD DUP5 PUSH4 0xFFFFFFFF AND PUSH1 0xE0 SHL DUP2 MSTORE PUSH1 0x4 ADD PUSH2 0x17DE SWAP4 SWAP3 SWAP2 SWAP1 PUSH2 0x2775 JUMP JUMPDEST PUSH1 0x20 PUSH1 0x40 MLOAD DUP1 DUP4 SUB DUP2 PUSH1 0x0 DUP8 GAS CALL ISZERO DUP1 ISZERO PUSH2 0x17FD JUMPI RETURNDATASIZE PUSH1 0x0 DUP1 RETURNDATACOPY RETURNDATASIZE PUSH1 0x0 REVERT JUMPDEST POP POP POP POP PUSH1 0x40 MLOAD RETURNDATASIZE PUSH1 0x1F NOT PUSH1 0x1F DUP3 ADD AND DUP3 ADD DUP1 PUSH1 0x40 MSTORE POP DUP2 ADD SWAP1 PUSH2 0x1821 SWAP2 SWAP1 PUSH2 0x2393 JUMP JUMPDEST POP POP POP JUMP JUMPDEST PUSH1 0x8 DUP1 SLOAD PUSH2 0x1833 SWAP1 PUSH2 0x22A2 JUMP JUMPDEST DUP1 PUSH1 0x1F ADD PUSH1 0x20 DUP1 SWAP2 DIV MUL PUSH1 0x20 ADD PUSH1 0x40 MLOAD SWAP1 DUP2 ADD PUSH1 0x40 MSTORE DUP1 SWAP3 SWAP2 SWAP1 DUP2 DUP2 MSTORE PUSH1 0x20 ADD DUP3 DUP1 SLOAD PUSH2 0x185F SWAP1 PUSH2 0x22A2 JUMP JUMPDEST DUP1 ISZERO PUSH2 0x18AC JUMPI DUP1 PUSH1 0x1F LT PUSH2 0x1881 JUMPI PUSH2 0x100 DUP1 DUP4 SLOAD DIV MUL DUP4 MSTORE SWAP2 PUSH1 0x20 ADD SWAP2 PUSH2 0x18AC JUMP JUMPDEST DUP3 ADD SWAP2 SWAP1 PUSH1 0x0 MSTORE PUSH1 0x20 PUSH1 0x0 KECCAK256 SWAP1 JUMPDEST DUP2 SLOAD DUP2 MSTORE SWAP1 PUSH1 0x1 ADD SWAP1 PUSH1 0x20 ADD DUP1 DUP4 GT PUSH2 0x188F JUMPI DUP3 SWAP1 SUB PUSH1 0x1F AND DUP3 ADD SWAP2 JUMPDEST POP POP POP POP POP DUP2 JUMP JUMPDEST PUSH2 0x18C8 PUSH8 0x1418A95E80C756F9 PUSH1 0xC0 SHL PUSH2 0x1E56 JUMP JUMPDEST PUSH2 0x18DC PUSH8 0x7EA6C14721FD6DBE PUSH1 0xC0 SHL PUSH2 0x1E56 JUMP JUMPDEST DUP1 PUSH1 0x3 PUSH1 0x0 ADDRESS PUSH20 0xFFFFFFFFFFFFFFFFFFFFFFFFFFFFFFFFFFFFFFFF AND PUSH20 0xFFFFFFFFFFFFFFFFFFFFFFFFFFFFFFFFFFFFFFFF AND DUP2 MSTORE PUSH1 0x20 ADD SWAP1 DUP2 MSTORE PUSH1 0x20 ADD PUSH1 0x0 KECCAK256 PUSH1 0x0 DUP3 DUP3 SLOAD PUSH2 0x192B SWAP2 SWAP1 PUSH2 0x26A2 JUMP JUMPDEST SWAP3 POP POP DUP2 SWAP1 SSTORE POP PUSH2 0x1946 PUSH8 0x582AE086B087E029 PUSH1 0xC0 SHL PUSH2 0x1E56 JUMP JUMPDEST DUP1 PUSH1 0x5 PUSH1 0x0 DUP3 DUP3 SLOAD PUSH2 0x1958 SWAP2 SWAP1 PUSH2 0x26A2 JUMP JUMPDEST SWAP3 POP POP DUP2 SWAP1 SSTORE POP PUSH2 0x1973 PUSH8 0x959CF7A98D0435D6 PUSH1 0xC0 SHL PUSH2 0x1E56 JUMP JUMPDEST PUSH2 0x1987 PUSH8 0xE1EA1CA16490113F PUSH1 0xC0 SHL PUSH2 0x1E56 JUMP JUMPDEST ADDRESS PUSH20 0xFFFFFFFFFFFFFFFFFFFFFFFFFFFFFFFFFFFFFFFF AND PUSH1 0x0 PUSH20 0xFFFFFFFFFFFFFFFFFFFFFFFFFFFFFFFFFFFFFFFF AND PUSH32 0xDDF252AD1BE2C89B69C2B068FC378DAA952BA7F163C4A11628F55A4DF523B3EF DUP4 PUSH1 0x40 MLOAD PUSH2 0x19E5 SWAP2 SWAP1 PUSH2 0x2053 JUMP JUMPDEST PUSH1 0x40 MLOAD DUP1 SWAP2 SUB SWAP1 LOG3 POP JUMP JUMPDEST PUSH1 0x0 PUSH2 0x1A06 PUSH8 0x735DD18CF7436901 PUSH1 0xC0 SHL PUSH2 0x1E56 JUMP JUMPDEST PUSH2 0x1A1A PUSH8 0xA73E0B0960074C8F PUSH1 0xC0 SHL PUSH2 0x1E56 JUMP JUMPDEST PUSH2 0x1A2E PUSH8 0xFE4462BD4612F153 PUSH1 0xC0 SHL PUSH2 0x1E56 JUMP JUMPDEST PUSH1 0x0 PUSH1 0x14 SWAP1 SLOAD SWAP1 PUSH2 0x100 EXP SWAP1 DIV PUSH1 0xFF AND DUP1 ISZERO PUSH2 0x1A95 JUMPI POP PUSH1 0x0 DUP1 SLOAD SWAP1 PUSH2 0x100 EXP SWAP1 DIV PUSH20 0xFFFFFFFFFFFFFFFFFFFFFFFFFFFFFFFFFFFFFFFF AND PUSH20 0xFFFFFFFFFFFFFFFFFFFFFFFFFFFFFFFFFFFFFFFF AND DUP4 PUSH20 0xFFFFFFFFFFFFFFFFFFFFFFFFFFFFFFFFFFFFFFFF AND EQ JUMPDEST ISZERO PUSH2 0x1BB7 JUMPI PUSH2 0x1AAE PUSH8 0x5DA0B413BED7B918 PUSH1 0xC0 SHL PUSH2 0x1E56 JUMP JUMPDEST PUSH2 0x1AC2 PUSH8 0x1BBEAE45E5CA13E4 PUSH1 0xC0 SHL PUSH2 0x1E56 JUMP JUMPDEST PUSH1 0x0 DUP1 PUSH1 0x14 PUSH2 0x100 EXP DUP2 SLOAD DUP2 PUSH1 0xFF MUL NOT AND SWAP1 DUP4 ISZERO ISZERO MUL OR SWAP1 SSTORE POP PUSH2 0x1AF0 PUSH8 0x128AAB9FC43A81FE PUSH1 0xC0 SHL PUSH2 0x1E56 JUMP JUMPDEST PUSH2 0x1B04 PUSH8 0xDFC0514A282D6781 PUSH1 0xC0 SHL PUSH2 0x1E56 JUMP JUMPDEST PUSH1 0x0 DUP1 SLOAD SWAP1 PUSH2 0x100 EXP SWAP1 DIV PUSH20 0xFFFFFFFFFFFFFFFFFFFFFFFFFFFFFFFFFFFFFFFF AND PUSH20 0xFFFFFFFFFFFFFFFFFFFFFFFFFFFFFFFFFFFFFFFF AND PUSH4 0xE2BBB158 PUSH8 0xDE0B6B3A7640000 PUSH8 0x1BC16D674EC80000 PUSH1 0x40 MLOAD DUP4 PUSH4 0xFFFFFFFF AND PUSH1 0xE0 SHL DUP2 MSTORE PUSH1 0x4 ADD PUSH2 0x1B6F SWAP3 SWAP2 SWAP1 PUSH2 0x2436 JUMP JUMPDEST PUSH1 0x20 PUSH1 0x40 MLOAD DUP1 DUP4 SUB DUP2 PUSH1 0x0 DUP8 GAS CALL SWAP3 POP POP POP DUP1 ISZERO PUSH2 0x1BAB JUMPI POP PUSH1 0x40 MLOAD RETURNDATASIZE PUSH1 0x1F NOT PUSH1 0x1F DUP3 ADD AND DUP3 ADD DUP1 PUSH1 0x40 MSTORE POP DUP2 ADD SWAP1 PUSH2 0x1BA8 SWAP2 SWAP1 PUSH2 0x2393 JUMP JUMPDEST PUSH1 0x1 JUMPDEST ISZERO PUSH2 0x1BB2 JUMPI POP JUMPDEST PUSH2 0x1BCC JUMP JUMPDEST PUSH2 0x1BCB PUSH8 0x39299EBEC24CF66C PUSH1 0xC0 SHL PUSH2 0x1E56 JUMP JUMPDEST JUMPDEST PUSH2 0x1BE0 PUSH8 0xFB5496DB29209ED0 PUSH1 0xC0 SHL PUSH2 0x1E56 JUMP JUMPDEST PUSH2 0x1BF4 PUSH8 0xF6F2CD712DC8F67B PUSH1 0xC0 SHL PUSH2 0x1E56 JUMP JUMPDEST PUSH2 0x1C08 PUSH8 0xE5E1CD6FAEDE55D0 PUSH1 0xC0 SHL PUSH2 0x1E56 JUMP JUMPDEST DUP2 PUSH1 0x3 PUSH1 0x0 CALLER PUSH20 0xFFFFFFFFFFFFFFFFFFFFFFFFFFFFFFFFFFFFFFFF AND PUSH20 0xFFFFFFFFFFFFFFFFFFFFFFFFFFFFFFFFFFFFFFFF AND DUP2 MSTORE PUSH1 0x20 ADD SWAP1 DUP2 MSTORE PUSH1 0x20 ADD PUSH1 0x0 KECCAK256 SLOAD LT ISZERO PUSH2 0x1C8A JUMPI PUSH1 0x40 MLOAD PUSH32 0x8C379A000000000000000000000000000000000000000000000000000000000 DUP2 MSTORE PUSH1 0x4 ADD PUSH2 0x1C81 SWAP1 PUSH2 0x261F JUMP JUMPDEST PUSH1 0x40 MLOAD DUP1 SWAP2 SUB SWAP1 REVERT JUMPDEST PUSH2 0x1C9E PUSH8 0x39FBC59A1CE89321 PUSH1 0xC0 SHL PUSH2 0x1E56 JUMP JUMPDEST PUSH2 0x1CB2 PUSH8 0x354AE4181D60ECB2 PUSH1 0xC0 SHL PUSH2 0x1E56 JUMP JUMPDEST DUP2 PUSH1 0x3 PUSH1 0x0 CALLER PUSH20 0xFFFFFFFFFFFFFFFFFFFFFFFFFFFFFFFFFFFFFFFF AND PUSH20 0xFFFFFFFFFFFFFFFFFFFFFFFFFFFFFFFFFFFFFFFF AND DUP2 MSTORE PUSH1 0x20 ADD SWAP1 DUP2 MSTORE PUSH1 0x20 ADD PUSH1 0x0 KECCAK256 PUSH1 0x0 DUP3 DUP3 SLOAD PUSH2 0x1D01 SWAP2 SWAP1 PUSH2 0x266E JUMP JUMPDEST SWAP3 POP POP DUP2 SWAP1 SSTORE POP PUSH2 0x1D1C PUSH8 0x3E8883CB17F95C88 PUSH1 0xC0 SHL PUSH2 0x1E56 JUMP JUMPDEST DUP2 PUSH1 0x3 PUSH1 0x0 DUP6 PUSH20 0xFFFFFFFFFFFFFFFFFFFFFFFFFFFFFFFFFFFFFFFF AND PUSH20 0xFFFFFFFFFFFFFFFFFFFFFFFFFFFFFFFFFFFFFFFF AND DUP2 MSTORE PUSH1 0x20 ADD SWAP1 DUP2 MSTORE PUSH1 0x20 ADD PUSH1 0x0 KECCAK256 PUSH1 0x0 DUP3 DUP3 SLOAD PUSH2 0x1D6B SWAP2 SWAP1 PUSH2 0x26A2 JUMP JUMPDEST SWAP3 POP POP DUP2 SWAP1 SSTORE POP PUSH2 0x1D86 PUSH8 0x5C89311862436D56 PUSH1 0xC0 SHL PUSH2 0x1E56 JUMP JUMPDEST PUSH2 0x1D9A PUSH8 0xBCD8113D5CB5447C PUSH1 0xC0 SHL PUSH2 0x1E56 JUMP JUMPDEST DUP3 PUSH20 0xFFFFFFFFFFFFFFFFFFFFFFFFFFFFFFFFFFFFFFFF AND CALLER PUSH20 0xFFFFFFFFFFFFFFFFFFFFFFFFFFFFFFFFFFFFFFFF AND PUSH32 0xDDF252AD1BE2C89B69C2B068FC378DAA952BA7F163C4A11628F55A4DF523B3EF DUP5 PUSH1 0x40 MLOAD PUSH2 0x1DF7 SWAP2 SWAP1 PUSH2 0x2053 JUMP JUMPDEST PUSH1 0x40 MLOAD DUP1 SWAP2 SUB SWAP1 LOG3 PUSH2 0x1E13 PUSH8 0xBCAEEF770626481C PUSH1 0xC0 SHL PUSH2 0x1E56 JUMP JUMPDEST PUSH2 0x1E27 PUSH8 0xB3D4018F662AD876 PUSH1 0xC0 SHL PUSH2 0x1E56 JUMP JUMPDEST PUSH1 0x1 SWAP1 POP SWAP3 SWAP2 POP POP JUMP JUMPDEST PUSH1 0x4 PUSH1 0x20 MSTORE DUP2 PUSH1 0x0 MSTORE PUSH1 0x40 PUSH1 0x0 KECCAK256 PUSH1 0x20 MSTORE DUP1 PUSH1 0x0 MSTORE PUSH1 0x40 PUSH1 0x0 KECCAK256 PUSH1 0x0 SWAP2 POP SWAP2 POP POP SLOAD DUP2 JUMP JUMPDEST POP JUMP JUMPDEST PUSH1 0x0 DUP2 MLOAD SWAP1 POP SWAP2 SWAP1 POP JUMP JUMPDEST PUSH1 0x0 DUP3 DUP3 MSTORE PUSH1 0x20 DUP3 ADD SWAP1 POP SWAP3 SWAP2 POP POP JUMP JUMPDEST PUSH1 0x0 JUMPDEST DUP4 DUP2 LT ISZERO PUSH2 0x1E93 JUMPI DUP1 DUP3 ADD MLOAD DUP2 DUP5 ADD MSTORE PUSH1 0x20 DUP2 ADD SWAP1 POP PUSH2 0x1E78 JUMP JUMPDEST PUSH1 0x0 DUP5 DUP5 ADD MSTORE POP POP POP POP JUMP JUMPDEST PUSH1 0x0 PUSH1 0x1F NOT PUSH1 0x1F DUP4 ADD AND SWAP1 POP SWAP2 SWAP1 POP JUMP JUMPDEST PUSH1 0x0 PUSH2 0x1EBB DUP3 PUSH2 0x1E59 JUMP JUMPDEST PUSH2 0x1EC5 DUP2 DUP6 PUSH2 0x1E64 JUMP JUMPDEST SWAP4 POP PUSH2 0x1ED5 DUP2 DUP6 PUSH1 0x20 DUP7 ADD PUSH2 0x1E75 JUMP JUMPDEST PUSH2 0x1EDE DUP2 PUSH2 0x1E9F JUMP JUMPDEST DUP5 ADD SWAP2 POP POP SWAP3 SWAP2 POP POP JUMP JUMPDEST PUSH1 0x0 PUSH1 0x20 DUP3 ADD SWAP1 POP DUP2 DUP2 SUB PUSH1 0x0 DUP4 ADD MSTORE PUSH2 0x1F03 DUP2 DUP5 PUSH2 0x1EB0 JUMP JUMPDEST SWAP1 POP SWAP3 SWAP2 POP POP JUMP JUMPDEST PUSH1 0x0 DUP1 REVERT JUMPDEST PUSH1 0x0 PUSH20 0xFFFFFFFFFFFFFFFFFFFFFFFFFFFFFFFFFFFFFFFF DUP3 AND SWAP1 POP SWAP2 SWAP1 POP JUMP JUMPDEST PUSH1 0x0 PUSH2 0x1F3B DUP3 PUSH2 0x1F10 JUMP JUMPDEST SWAP1 POP SWAP2 SWAP1 POP JUMP JUMPDEST PUSH2 0x1F4B DUP2 PUSH2 0x1F30 JUMP JUMPDEST DUP2 EQ PUSH2 0x1F56 JUMPI PUSH1 0x0 DUP1 REVERT JUMPDEST POP JUMP JUMPDEST PUSH1 0x0 DUP2 CALLDATALOAD SWAP1 POP PUSH2 0x1F68 DUP2 PUSH2 0x1F42 JUMP JUMPDEST SWAP3 SWAP2 POP POP JUMP JUMPDEST PUSH1 0x0 DUP2 SWAP1 POP SWAP2 SWAP1 POP JUMP JUMPDEST PUSH2 0x1F81 DUP2 PUSH2 0x1F6E JUMP JUMPDEST DUP2 EQ PUSH2 0x1F8C JUMPI PUSH1 0x0 DUP1 REVERT JUMPDEST POP JUMP JUMPDEST PUSH1 0x0 DUP2 CALLDATALOAD SWAP1 POP PUSH2 0x1F9E DUP2 PUSH2 0x1F78 JUMP JUMPDEST SWAP3 SWAP2 POP POP JUMP JUMPDEST PUSH1 0x0 DUP1 PUSH1 0x40 DUP4 DUP6 SUB SLT ISZERO PUSH2 0x1FBB JUMPI PUSH2 0x1FBA PUSH2 0x1F0B JUMP JUMPDEST JUMPDEST PUSH1 0x0 PUSH2 0x1FC9 DUP6 DUP3 DUP7 ADD PUSH2 0x1F59 JUMP JUMPDEST SWAP3 POP POP PUSH1 0x20 PUSH2 0x1FDA DUP6 DUP3 DUP7 ADD PUSH2 0x1F8F JUMP JUMPDEST SWAP2 POP POP SWAP3 POP SWAP3 SWAP1 POP JUMP JUMPDEST PUSH1 0x0 DUP2 ISZERO ISZERO SWAP1 POP SWAP2 SWAP1 POP JUMP JUMPDEST PUSH2 0x1FF9 DUP2 PUSH2 0x1FE4 JUMP JUMPDEST DUP3 MSTORE POP POP JUMP JUMPDEST PUSH1 0x0 PUSH1 0x20 DUP3 ADD SWAP1 POP PUSH2 0x2014 PUSH1 0x0 DUP4 ADD DUP5 PUSH2 0x1FF0 JUMP JUMPDEST SWAP3 SWAP2 POP POP JUMP JUMPDEST PUSH2 0x2023 DUP2 PUSH2 0x1F30 JUMP JUMPDEST DUP3 MSTORE POP POP JUMP JUMPDEST PUSH1 0x0 PUSH1 0x20 DUP3 ADD SWAP1 POP PUSH2 0x203E PUSH1 0x0 DUP4 ADD DUP5 PUSH2 0x201A JUMP JUMPDEST SWAP3 SWAP2 POP POP JUMP JUMPDEST PUSH2 0x204D DUP2 PUSH2 0x1F6E JUMP JUMPDEST DUP3 MSTORE POP POP JUMP JUMPDEST PUSH1 0x0 PUSH1 0x20 DUP3 ADD SWAP1 POP PUSH2 0x2068 PUSH1 0x0 DUP4 ADD DUP5 PUSH2 0x2044 JUMP JUMPDEST SWAP3 SWAP2 POP POP JUMP JUMPDEST PUSH1 0x0 DUP1 PUSH1 0x0 DUP1 PUSH1 0x80 DUP6 DUP8 SUB SLT ISZERO PUSH2 0x2088 JUMPI PUSH2 0x2087 PUSH2 0x1F0B JUMP JUMPDEST JUMPDEST PUSH1 0x0 PUSH2 0x2096 DUP8 DUP3 DUP9 ADD PUSH2 0x1F59 JUMP JUMPDEST SWAP5 POP POP PUSH1 0x20 PUSH2 0x20A7 DUP8 DUP3 DUP9 ADD PUSH2 0x1F59 JUMP JUMPDEST SWAP4 POP POP PUSH1 0x40 PUSH2 0x20B8 DUP8 DUP3 DUP9 ADD PUSH2 0x1F8F JUMP JUMPDEST SWAP3 POP POP PUSH1 0x60 PUSH2 0x20C9 DUP8 DUP3 DUP9 ADD PUSH2 0x1F8F JUMP JUMPDEST SWAP2 POP POP SWAP3 SWAP6 SWAP2 SWAP5 POP SWAP3 POP JUMP JUMPDEST PUSH1 0x0 DUP1 PUSH1 0x0 PUSH1 0x60 DUP5 DUP7 SUB SLT ISZERO PUSH2 0x20EE JUMPI PUSH2 0x20ED PUSH2 0x1F0B JUMP JUMPDEST JUMPDEST PUSH1 0x0 PUSH2 0x20FC DUP7 DUP3 DUP8 ADD PUSH2 0x1F59 JUMP JUMPDEST SWAP4 POP POP PUSH1 0x20 PUSH2 0x210D DUP7 DUP3 DUP8 ADD PUSH2 0x1F59 JUMP JUMPDEST SWAP3 POP POP PUSH1 0x40 PUSH2 0x211E DUP7 DUP3 DUP8 ADD PUSH2 0x1F8F JUMP JUMPDEST SWAP2 POP POP SWAP3 POP SWAP3 POP SWAP3 JUMP JUMPDEST PUSH1 0x0 DUP2 SWAP1 POP SWAP2 SWAP1 POP JUMP JUMPDEST PUSH1 0x0 PUSH2 0x214D PUSH2 0x2148 PUSH2 0x2143 DUP5 PUSH2 0x1F10 JUMP JUMPDEST PUSH2 0x2128 JUMP JUMPDEST PUSH2 0x1F10 JUMP JUMPDEST SWAP1 POP SWAP2 SWAP1 POP JUMP JUMPDEST PUSH1 0x0 PUSH2 0x215F DUP3 PUSH2 0x2132 JUMP JUMPDEST SWAP1 POP SWAP2 SWAP1 POP JUMP JUMPDEST PUSH1 0x0 PUSH2 0x2171 DUP3 PUSH2 0x2154 JUMP JUMPDEST SWAP1 POP SWAP2 SWAP1 POP JUMP JUMPDEST PUSH2 0x2181 DUP2 PUSH2 0x2166 JUMP JUMPDEST DUP3 MSTORE POP POP JUMP JUMPDEST PUSH1 0x0 PUSH1 0x20 DUP3 ADD SWAP1 POP PUSH2 0x219C PUSH1 0x0 DUP4 ADD DUP5 PUSH2 0x2178 JUMP JUMPDEST SWAP3 SWAP2 POP POP JUMP JUMPDEST PUSH1 0x0 PUSH1 0xFF DUP3 AND SWAP1 POP SWAP2 SWAP1 POP JUMP JUMPDEST PUSH2 0x21B8 DUP2 PUSH2 0x21A2 JUMP JUMPDEST DUP3 MSTORE POP POP JUMP JUMPDEST PUSH1 0x0 PUSH1 0x20 DUP3 ADD SWAP1 POP PUSH2 0x21D3 PUSH1 0x0 DUP4 ADD DUP5 PUSH2 0x21AF JUMP JUMPDEST SWAP3 SWAP2 POP POP JUMP JUMPDEST PUSH1 0x0 DUP1 PUSH1 0x40 DUP4 DUP6 SUB SLT ISZERO PUSH2 0x21F0 JUMPI PUSH2 0x21EF PUSH2 0x1F0B JUMP JUMPDEST JUMPDEST PUSH1 0x0 PUSH2 0x21FE DUP6 DUP3 DUP7 ADD PUSH2 0x1F59 JUMP JUMPDEST SWAP3 POP POP PUSH1 0x20 PUSH2 0x220F DUP6 DUP3 DUP7 ADD PUSH2 0x1F59 JUMP JUMPDEST SWAP2 POP POP SWAP3 POP SWAP3 SWAP1 POP JUMP JUMPDEST PUSH1 0x0 PUSH1 0x20 DUP3 DUP5 SUB SLT ISZERO PUSH2 0x222F JUMPI PUSH2 0x222E PUSH2 0x1F0B JUMP JUMPDEST JUMPDEST PUSH1 0x0 PUSH2 0x223D DUP5 DUP3 DUP6 ADD PUSH2 0x1F59 JUMP JUMPDEST SWAP2 POP POP SWAP3 SWAP2 POP POP JUMP JUMPDEST PUSH1 0x0 PUSH1 0x20 DUP3 DUP5 SUB SLT ISZERO PUSH2 0x225C JUMPI PUSH2 0x225B PUSH2 0x1F0B JUMP JUMPDEST JUMPDEST PUSH1 0x0 PUSH2 0x226A DUP5 DUP3 DUP6 ADD PUSH2 0x1F8F JUMP JUMPDEST SWAP2 POP POP SWAP3 SWAP2 POP POP JUMP JUMPDEST PUSH32 0x4E487B7100000000000000000000000000000000000000000000000000000000 PUSH1 0x0 MSTORE PUSH1 0x22 PUSH1 0x4 MSTORE PUSH1 0x24 PUSH1 0x0 REVERT JUMPDEST PUSH1 0x0 PUSH1 0x2 DUP3 DIV SWAP1 POP PUSH1 0x1 DUP3 AND DUP1 PUSH2 0x22BA JUMPI PUSH1 0x7F DUP3 AND SWAP2 POP JUMPDEST PUSH1 0x20 DUP3 LT DUP2 SUB PUSH2 0x22CD JUMPI PUSH2 0x22CC PUSH2 0x2273 JUMP JUMPDEST JUMPDEST POP SWAP2 SWAP1 POP JUMP JUMPDEST PUSH1 0x0 PUSH1 0x40 DUP3 ADD SWAP1 POP PUSH2 0x22E8 PUSH1 0x0 DUP4 ADD DUP6 PUSH2 0x201A JUMP JUMPDEST PUSH2 0x22F5 PUSH1 0x20 DUP4 ADD DUP5 PUSH2 0x2044 JUMP JUMPDEST SWAP4 SWAP3 POP POP POP JUMP JUMPDEST PUSH2 0x2305 DUP2 PUSH2 0x1FE4 JUMP JUMPDEST DUP2 EQ PUSH2 0x2310 JUMPI PUSH1 0x0 DUP1 REVERT JUMPDEST POP JUMP JUMPDEST PUSH1 0x0 DUP2 MLOAD SWAP1 POP PUSH2 0x2322 DUP2 PUSH2 0x22FC JUMP JUMPDEST SWAP3 SWAP2 POP POP JUMP JUMPDEST PUSH1 0x0 PUSH1 0x20 DUP3 DUP5 SUB SLT ISZERO PUSH2 0x233E JUMPI PUSH2 0x233D PUSH2 0x1F0B JUMP JUMPDEST JUMPDEST PUSH1 0x0 PUSH2 0x234C DUP5 DUP3 DUP6 ADD PUSH2 0x2313 JUMP JUMPDEST SWAP2 POP POP SWAP3 SWAP2 POP POP JUMP JUMPDEST PUSH1 0x0 PUSH1 0x40 DUP3 ADD SWAP1 POP PUSH2 0x236A PUSH1 0x0 DUP4 ADD DUP6 PUSH2 0x2044 JUMP JUMPDEST PUSH2 0x2377 PUSH1 0x20 DUP4 ADD DUP5 PUSH2 0x2044 JUMP JUMPDEST SWAP4 SWAP3 POP POP POP JUMP JUMPDEST PUSH1 0x0 DUP2 MLOAD SWAP1 POP PUSH2 0x238D DUP2 PUSH2 0x1F78 JUMP JUMPDEST SWAP3 SWAP2 POP POP JUMP JUMPDEST PUSH1 0x0 PUSH1 0x20 DUP3 DUP5 SUB SLT ISZERO PUSH2 0x23A9 JUMPI PUSH2 0x23A8 PUSH2 0x1F0B JUMP JUMPDEST JUMPDEST PUSH1 0x0 PUSH2 0x23B7 DUP5 DUP3 DUP6 ADD PUSH2 0x237E JUMP JUMPDEST SWAP2 POP POP SWAP3 SWAP2 POP POP JUMP JUMPDEST PUSH1 0x0 DUP2 SWAP1 POP SWAP2 SWAP1 POP JUMP JUMPDEST PUSH1 0x0 PUSH2 0x23E5 PUSH2 0x23E0 PUSH2 0x23DB DUP5 PUSH2 0x23C0 JUMP JUMPDEST PUSH2 0x2128 JUMP JUMPDEST PUSH2 0x1F6E JUMP JUMPDEST SWAP1 POP SWAP2 SWAP1 POP JUMP JUMPDEST PUSH2 0x23F5 DUP2 PUSH2 0x23CA JUMP JUMPDEST DUP3 MSTORE POP POP JUMP JUMPDEST PUSH1 0x0 DUP2 SWAP1 POP SWAP2 SWAP1 POP JUMP JUMPDEST PUSH1 0x0 PUSH2 0x2420 PUSH2 0x241B PUSH2 0x2416 DUP5 PUSH2 0x23FB JUMP JUMPDEST PUSH2 0x2128 JUMP JUMPDEST PUSH2 0x1F6E JUMP JUMPDEST SWAP1 POP SWAP2 SWAP1 POP JUMP JUMPDEST PUSH2 0x2430 DUP2 PUSH2 0x2405 JUMP JUMPDEST DUP3 MSTORE POP POP JUMP JUMPDEST PUSH1 0x0 PUSH1 0x40 DUP3 ADD SWAP1 POP PUSH2 0x244B PUSH1 0x0 DUP4 ADD DUP6 PUSH2 0x23EC JUMP JUMPDEST PUSH2 0x2458 PUSH1 0x20 DUP4 ADD DUP5 PUSH2 0x2427 JUMP JUMPDEST SWAP4 SWAP3 POP POP POP JUMP JUMPDEST PUSH1 0x0 DUP2 SWAP1 POP SWAP2 SWAP1 POP JUMP JUMPDEST PUSH1 0x0 PUSH2 0x2484 PUSH2 0x247F PUSH2 0x247A DUP5 PUSH2 0x245F JUMP JUMPDEST PUSH2 0x2128 JUMP JUMPDEST PUSH2 0x1F6E JUMP JUMPDEST SWAP1 POP SWAP2 SWAP1 POP JUMP JUMPDEST PUSH2 0x2494 DUP2 PUSH2 0x2469 JUMP JUMPDEST DUP3 MSTORE POP POP JUMP JUMPDEST PUSH1 0x0 PUSH1 0x20 DUP3 ADD SWAP1 POP PUSH2 0x24AF PUSH1 0x0 DUP4 ADD DUP5 PUSH2 0x248B JUMP JUMPDEST SWAP3 SWAP2 POP POP JUMP JUMPDEST PUSH1 0x0 DUP1 PUSH1 0x40 DUP4 DUP6 SUB SLT ISZERO PUSH2 0x24CC JUMPI PUSH2 0x24CB PUSH2 0x1F0B JUMP JUMPDEST JUMPDEST PUSH1 0x0 PUSH2 0x24DA DUP6 DUP3 DUP7 ADD PUSH2 0x237E JUMP JUMPDEST SWAP3 POP POP PUSH1 0x20 PUSH2 0x24EB DUP6 DUP3 DUP7 ADD PUSH2 0x237E JUMP JUMPDEST SWAP2 POP POP SWAP3 POP SWAP3 SWAP1 POP JUMP JUMPDEST PUSH1 0x0 DUP2 SWAP1 POP SWAP2 SWAP1 POP JUMP JUMPDEST PUSH1 0x0 PUSH2 0x251A PUSH2 0x2515 PUSH2 0x2510 DUP5 PUSH2 0x24F5 JUMP JUMPDEST PUSH2 0x2128 JUMP JUMPDEST PUSH2 0x1F6E JUMP JUMPDEST SWAP1 POP SWAP2 SWAP1 POP JUMP JUMPDEST PUSH2 0x252A DUP2 PUSH2 0x24FF JUMP JUMPDEST DUP3 MSTORE POP POP JUMP JUMPDEST PUSH1 0x0 PUSH1 0x60 DUP3 ADD SWAP1 POP PUSH2 0x2545 PUSH1 0x0 DUP4 ADD DUP7 PUSH2 0x201A JUMP JUMPDEST PUSH2 0x2552 PUSH1 0x20 DUP4 ADD DUP6 PUSH2 0x23EC JUMP JUMPDEST PUSH2 0x255F PUSH1 0x40 DUP4 ADD DUP5 PUSH2 0x2521 JUMP JUMPDEST SWAP5 SWAP4 POP POP POP POP JUMP JUMPDEST PUSH32 0x496E73756666696369656E7420616C6C6F77616E636500000000000000000000 PUSH1 0x0 DUP3 ADD MSTORE POP JUMP JUMPDEST PUSH1 0x0 PUSH2 0x259D PUSH1 0x16 DUP4 PUSH2 0x1E64 JUMP JUMPDEST SWAP2 POP PUSH2 0x25A8 DUP3 PUSH2 0x2567 JUMP JUMPDEST PUSH1 0x20 DUP3 ADD SWAP1 POP SWAP2 SWAP1 POP JUMP JUMPDEST PUSH1 0x0 PUSH1 0x20 DUP3 ADD SWAP1 POP DUP2 DUP2 SUB PUSH1 0x0 DUP4 ADD MSTORE PUSH2 0x25CC DUP2 PUSH2 0x2590 JUMP JUMPDEST SWAP1 POP SWAP2 SWAP1 POP JUMP JUMPDEST PUSH32 0x496E73756666696369656E742062616C616E6365000000000000000000000000 PUSH1 0x0 DUP3 ADD MSTORE POP JUMP JUMPDEST PUSH1 0x0 PUSH2 0x2609 PUSH1 0x14 DUP4 PUSH2 0x1E64 JUMP JUMPDEST SWAP2 POP PUSH2 0x2614 DUP3 PUSH2 0x25D3 JUMP JUMPDEST PUSH1 0x20 DUP3 ADD SWAP1 POP SWAP2 SWAP1 POP JUMP JUMPDEST PUSH1 0x0 PUSH1 0x20 DUP3 ADD SWAP1 POP DUP2 DUP2 SUB PUSH1 0x0 DUP4 ADD MSTORE PUSH2 0x2638 DUP2 PUSH2 0x25FC JUMP JUMPDEST SWAP1 POP SWAP2 SWAP1 POP JUMP JUMPDEST PUSH32 0x4E487B7100000000000000000000000000000000000000000000000000000000 PUSH1 0x0 MSTORE PUSH1 0x11 PUSH1 0x4 MSTORE PUSH1 0x24 PUSH1 0x0 REVERT JUMPDEST PUSH1 0x0 PUSH2 0x2679 DUP3 PUSH2 0x1F6E JUMP JUMPDEST SWAP2 POP PUSH2 0x2684 DUP4 PUSH2 0x1F6E JUMP JUMPDEST SWAP3 POP DUP3 DUP3 SUB SWAP1 POP DUP2 DUP2 GT ISZERO PUSH2 0x269C JUMPI PUSH2 0x269B PUSH2 0x263F JUMP JUMPDEST JUMPDEST SWAP3 SWAP2 POP POP JUMP JUMPDEST PUSH1 0x0 PUSH2 0x26AD DUP3 PUSH2 0x1F6E JUMP JUMPDEST SWAP2 POP PUSH2 0x26B8 DUP4 PUSH2 0x1F6E JUMP JUMPDEST SWAP3 POP DUP3 DUP3 ADD SWAP1 POP DUP1 DUP3 GT ISZERO PUSH2 0x26D0 JUMPI PUSH2 0x26CF PUSH2 0x263F JUMP JUMPDEST JUMPDEST SWAP3 SWAP2 POP POP JUMP JUMPDEST PUSH1 0x0 DUP2 SWAP1 POP SWAP2 SWAP1 POP JUMP JUMPDEST PUSH1 0x0 PUSH2 0x26FB PUSH2 0x26F6 PUSH2 0x26F1 DUP5 PUSH2 0x26D6 JUMP JUMPDEST PUSH2 0x2128 JUMP JUMPDEST PUSH2 0x1F6E JUMP JUMPDEST SWAP1 POP SWAP2 SWAP1 POP JUMP JUMPDEST PUSH2 0x270B DUP2 PUSH2 0x26E0 JUMP JUMPDEST DUP3 MSTORE POP POP JUMP JUMPDEST PUSH1 0x0 DUP2 SWAP1 POP SWAP2 SWAP1 POP JUMP JUMPDEST PUSH1 0x0 PUSH2 0x2736 PUSH2 0x2731 PUSH2 0x272C DUP5 PUSH2 0x2711 JUMP JUMPDEST PUSH2 0x2128 JUMP JUMPDEST PUSH2 0x1F6E JUMP JUMPDEST SWAP1 POP SWAP2 SWAP1 POP JUMP JUMPDEST PUSH2 0x2746 DUP2 PUSH2 0x271B JUMP JUMPDEST DUP3 MSTORE POP POP JUMP JUMPDEST PUSH1 0x0 PUSH1 0x40 DUP3 ADD SWAP1 POP PUSH2 0x2761 PUSH1 0x0 DUP4 ADD DUP6 PUSH2 0x2702 JUMP JUMPDEST PUSH2 0x276E PUSH1 0x20 DUP4 ADD DUP5 PUSH2 0x273D JUMP JUMPDEST SWAP4 SWAP3 POP POP POP JUMP JUMPDEST PUSH1 0x0 PUSH1 0x60 DUP3 ADD SWAP1 POP PUSH2 0x278A PUSH1 0x0 DUP4 ADD DUP7 PUSH2 0x201A JUMP JUMPDEST PUSH2 0x2797 PUSH1 0x20 DUP4 ADD DUP6 PUSH2 0x2044 JUMP JUMPDEST PUSH2 0x27A4 PUSH1 0x40 DUP4 ADD DUP5 PUSH2 0x2521 JUMP JUMPDEST SWAP5 SWAP4 POP POP POP POP JUMP INVALID LOG2 PUSH5 0x6970667358 0x22 SLT KECCAK256 STATICCALL PUSH4 0x109319E9 0xCF 0xD9 0xFC DIV TIMESTAMP 0x4A 0xE0 0x4E PUSH18 0xAD245DF1792B599E614A0F0A4A5652071C64 PUSH20 0x6F6C634300081400330000000000000000000000 "},"methodIdentifiers":{"allowance(address,address)":"dd62ed3e","amm()":"2a943945","approve(address,uint256)":"095ea7b3","attackDeposit(address,address)":"3e0848ec","attackRedeem()":"713c0b60","attackSwap(address,uint256)":"7c267f00","attacking()":"3c0bbcd9","balanceOf(address)":"70a08231","decimals()":"313ce567","deposit(address,address,uint256,uint256)":"20e8c565","mint(uint256)":"a0712d68","name()":"06fdde03","symbol()":"95d89b41","tokenA()":"0fc63d10","tokenB()":"5f64b55b","totalSupply()":"18160ddd","transfer(address,uint256)":"a9059cbb","transferFrom(address,address,uint256)":"23b872dd"}}}}}