{"contracts/SimpleAMM.sol":{"SimpleAMM":{"abi":[{"inputs":[{"internalType":"address","name":"_tokenA","type":"address"},{"internalType":"address","name":"_tokenB","type":"address"}],"stateMutability":"nonpayable","type":"constructor"},{"anonymous":false,"inputs":[{"indexed":true,"internalType":"address","name":"owner","type":"address"},{"indexed":true,"internalType":"address","name":"spender","type":"address"},{"indexed":false,"internalType":"uint256","name":"value","type":"uint256"}],"name":"Approval","type":"event"},{"anonymous":false,"inputs":[{"indexed":true,"internalType":"address","name":"provider","type":"address"},{"indexed":false,"internalType":"uint256","name":"amountA","type":"uint256"},{"indexed":false,"internalType":"uint256","name":"amountB","type":"uint256"},{"indexed":false,"internalType":"uint256","name":"liquidity","type":"uint256"}],"name":"Deposit","type":"event"},{"anonymous":false,"inputs":[{"indexed":true,"internalType":"address","name":"provider","type":"address"},{"indexed":false,"internalType":"uint256","name":"amountA","type":"uint256"},{"indexed":false,"internalType":"uint256","name":"amountB","type":"uint256"},{"indexed":false,"internalType":"uint256","name":"liquidity","type":"uint256"}],"name":"Redeem","type":"event"},{"anonymous":false,"inputs":[{"indexed":true,"internalType":"address","name":"user","type":"address"},{"indexed":true,"internalType":"address","name":"tokenIn","type":"address"},{"indexed":false,"internalType":"uint256","name":"amountIn","type":"uint256"},{"indexed":false,"internalType":"uint256","name":"amountOut","type":"uint256"}],"name":"Swap","type":"event"},{"anonymous":false,"inputs":[{"indexed":false,"internalType":"uint256","name":"reserveA","type":"uint256"},{"indexed":false,"internalType":"uint256","name":"reserveB","type":"uint256"}],"name":"Sync","type":"event"},{"anonymous":false,"inputs":[{"indexed":true,"internalType":"address","name":"from","type":"address"},{"indexed":true,"internalType":"address","name":"to","type":"address"},{"indexed":false,"internalType":"uint256","name":"value","type":"uint256"}],"name":"Transfer","type":"event"},{"inputs":[{"internalType":"address","name":"owner","type":"address"},{"internalType":"address","name":"spender","type":"address"}],"name":"allowance","outputs":[{"internalType":"uint256","name":"","type":"uint256"}],"stateMutability":"view","type":"function"},{"inputs":[{"internalType":"address","name":"spender","type":"address"},{"internalType":"uint256","name":"amount","type":"uint256"}],"name":"approve","outputs":[{"internalType":"bool","name":"","type":"bool"}],"stateMutability":"nonpayable","type":"function"},{"inputs":[{"internalType":"address","name":"account","type":"address"}],"name":"balanceOf","outputs":[{"internalType":"uint256","name":"","type":"uint256"}],"stateMutability":"view","type":"function"},{"inputs":[],"name":"decimals","outputs":[{"internalType":"uint8","name":"","type":"uint8"}],"stateMutability":"view","type":"function"},{"inputs":[{"internalType":"address","name":"spender","type":"address"},{"internalType":"uint256","name":"subtractedValue","type":"uint256"}],"name":"decreaseAllowance","outputs":[{"internalType":"bool","name":"","type":"bool"}],"stateMutability":"nonpayable","type":"function"},{"inputs":[{"internalType":"uint256","name":"amountA","type":"uint256"},{"internalType":"uint256","name":"amountB","type":"uint256"}],"name":"deposit","outputs":[{"internalType":"uint256","name":"liquidity","type":"uint256"}],"stateMutability":"nonpayable","type":"function"},{"inputs":[{"internalType":"uint256","name":"amountOut","type":"uint256"},{"internalType":"uint256","name":"reserveIn","type":"uint256"},{"internalType":"uint256","name":"reserveOut","type":"uint256"}],"name":"getAmountIn","outputs":[{"internalType":"uint256","name":"amountIn","type":"uint256"}],"stateMutability":"pure","type":"function"},{"inputs":[{"internalType":"uint256","name":"amountIn","type":"uint256"},{"internalType":"uint256","name":"reserveIn","type":"uint256"},{"internalType":"uint256","name":"reserveOut","type":"uint256"}],"name":"getAmountOut","outputs":[{"internalType":"uint256","name":"amountOut","type":"uint256"}],"stateMutability":"pure","type":"function"},{"inputs":[],"name":"getReserves","outputs":[{"internalType":"uint256","name":"_reserveA","type":"uint256"},{"internalType":"uint256","name":"_reserveB","type":"uint256"}],"stateMutability":"view","type":"function"},{"inputs":[{"internalType":"address","name":"spender","type":"address"},{"internalType":"uint256","name":"addedValue","type":"uint256"}],"name":"increaseAllowance","outputs":[{"internalType":"bool","name":"","type":"bool"}],"stateMutability":"nonpayable","type":"function"},{"inputs":[],"name":"name","outputs":[{"internalType":"string","name":"","type":"string"}],"stateMutability":"view","type":"function"},{"inputs":[{"internalType":"uint256","name":"liquidity","type":"uint256"}],"name":"redeem","outputs":[{"internalType":"uint256","name":"amountA","type":"uint256"},{"internalType":"uint256","name":"amountB","type":"uint256"}],"stateMutability":"nonpayable","type":"function"},{"inputs":[],"name":"reserveA","outputs":[{"internalType":"uint256","name":"","type":"uint256"}],"stateMutability":"view","type":"function"},{"inputs":[],"name":"reserveB","outputs":[{"internalType":"uint256","name":"","type":"uint256"}],"stateMutability":"view","type":"function"},{"inputs":[{"internalType":"address","name":"tokenIn","type":"address"},{"internalType":"uint256","name":"amountIn","type":"uint256"},{"internalType":"uint256","name":"minAmountOut","type":"uint256"}],"name":"swap","outputs":[{"internalType":"uint256","name":"amountOut","type":"uint256"}],"stateMutability":"nonpayable","type":"function"},{"inputs":[],"name":"symbol","outputs":[{"internalType":"string","name":"","type":"string"}],"stateMutability":"view","type":"function"},{"inputs":[],"name":"tokenA","outputs":[{"internalType":"contract IERC20","name":"","type":"address"}],"stateMutability":"view","type":"function"},{"inputs":[],"name":"tokenB","outputs":[{"internalType":"contract IERC20","name":"","type":"address"}],"stateMutability":"view","type":"function"},{"inputs":[],"name":"totalSupply","outputs":[{"internalType":"uint256","name":"","type":"uint256"}],"stateMutability":"view","type":"function"},{"inputs":[{"internalType":"address","name":"to","type":"address"},{"internalType":"uint256","name":"amount","type":"uint256"}],"name":"transfer","outputs":[{"internalType":"bool","name":"","type":"bool"}],"stateMutability":"nonpayable","type":"function"},{"inputs":[{"internalType":"address","name":"from","type":"address"},{"internalType":"address","name":"to","type":"address"},{"internalType":"uint256","name":"amount","type":"uint256"}],"name":"transferFrom","outputs":[{"internalType":"bool","name":"","type":"bool"}],"stateMutability":"nonpayable","type":"function"}],"evm":{"bytecode":{"linkReferences":{},"object":"60c06040523480156200001157600080fd5b5060405162004844380380620048448339818101604052810190620000379190620004a7565b6040518060400160405280601281526020017f53696d706c65414d4d204c5020546f6b656e00000000000000000000000000008152506040518060400160405280600781526020017f53414d4d2d4c50000000000000000000000000000000000000000000000000008152508160039081620000b4919062000768565b508060049081620000c6919062000768565b5050506001600581905550620000ed6715cab6cf9ecd2a0b60c01b6200043a60201b60201c565b6200010967dbc06ebd16964a8360c01b6200043a60201b60201c565b6200012567946b39b4afbcc50860c01b6200043a60201b60201c565b6200014167b826fcff8ebb591c60c01b6200043a60201b60201c565b600073ffffffffffffffffffffffffffffffffffffffff168273ffffffffffffffffffffffffffffffffffffffff1603620001b3576040517f08c379a0000000000000000000000000000000000000000000000000000000008152600401620001aa90620008b0565b60405180910390fd5b620001cf6796d5073eaa592f5c60c01b6200043a60201b60201c565b620001eb6715a11c673ad53fcf60c01b6200043a60201b60201c565b620002076762bcb96409d69a4b60c01b6200043a60201b60201c565b620002236783c5202b83dfc8f860c01b6200043a60201b60201c565b600073ffffffffffffffffffffffffffffffffffffffff168173ffffffffffffffffffffffffffffffffffffffff160362000295576040517f08c379a00000000000000000000000000000000000000000000000000000000081526004016200028c9062000922565b60405180910390fd5b620002b16775aec4473c25e2e360c01b6200043a60201b60201c565b620002cd67144dc58d9443261060c01b6200043a60201b60201c565b620002e96761ea3cb1049cb58d60c01b6200043a60201b60201c565b620003056701c0df4e4759d46d60c01b6200043a60201b60201c565b8073ffffffffffffffffffffffffffffffffffffffff168273ffffffffffffffffffffffffffffffffffffffff160362000376576040517f08c379a00000000000000000000000000000000000000000000000000000000081526004016200036d9062000994565b60405180910390fd5b62000392677d292d469145d83060c01b6200043a60201b60201c565b620003ae67d83540ceef8ed6e960c01b6200043a60201b60201c565b8173ffffffffffffffffffffffffffffffffffffffff1660808173ffffffffffffffffffffffffffffffffffffffff1681525050620003fe67abe80f8d449ab55560c01b6200043a60201b60201c565b8073ffffffffffffffffffffffffffffffffffffffff1660a08173ffffffffffffffffffffffffffffffffffffffff16815250505050620009b6565b50565b600080fd5b600073ffffffffffffffffffffffffffffffffffffffff82169050919050565b60006200046f8262000442565b9050919050565b620004818162000462565b81146200048d57600080fd5b50565b600081519050620004a18162000476565b92915050565b60008060408385031215620004c157620004c06200043d565b5b6000620004d18582860162000490565b9250506020620004e48582860162000490565b9150509250929050565b600081519050919050565b7f4e487b7100000000000000000000000000000000000000000000000000000000600052604160045260246000fd5b7f4e487b7100000000000000000000000000000000000000000000000000000000600052602260045260246000fd5b600060028204905060018216806200057057607f821691505b60208210810362000586576200058562000528565b5b50919050565b60008190508160005260206000209050919050565b60006020601f8301049050919050565b600082821b905092915050565b600060088302620005f07fffffffffffffffffffffffffffffffffffffffffffffffffffffffffffffffff82620005b1565b620005fc8683620005b1565b95508019841693508086168417925050509392505050565b6000819050919050565b6000819050919050565b600062000649620006436200063d8462000614565b6200061e565b62000614565b9050919050565b6000819050919050565b620006658362000628565b6200067d620006748262000650565b848454620005be565b825550505050565b600090565b6200069462000685565b620006a18184846200065a565b505050565b5b81811015620006c957620006bd6000826200068a565b600181019050620006a7565b5050565b601f8211156200071857620006e2816200058c565b620006ed84620005a1565b81016020851015620006fd578190505b620007156200070c85620005a1565b830182620006a6565b50505b505050565b600082821c905092915050565b60006200073d600019846008026200071d565b1980831691505092915050565b60006200075883836200072a565b9150826002028217905092915050565b6200077382620004ee565b67ffffffffffffffff8111156200078f576200078e620004f9565b5b6200079b825462000557565b620007a8828285620006cd565b600060209050601f831160018114620007e05760008415620007cb578287015190505b620007d785826200074a565b86555062000847565b601f198416620007f0866200058c565b60005b828110156200081a57848901518255600182019150602085019450602081019050620007f3565b868310156200083a578489015162000836601f8916826200072a565b8355505b6001600288020188555050505b505050505050565b600082825260208201905092915050565b7f496e76616c696420746f6b656e20412061646472657373000000000000000000600082015250565b6000620008986017836200084f565b9150620008a58262000860565b602082019050919050565b60006020820190508181036000830152620008cb8162000889565b9050919050565b7f496e76616c696420746f6b656e20422061646472657373000000000000000000600082015250565b60006200090a6017836200084f565b91506200091782620008d2565b602082019050919050565b600060208201905081810360008301526200093d81620008fb565b9050919050565b7f4964656e746963616c2061646472657373657300000000000000000000000000600082015250565b60006200097c6013836200084f565b9150620009898262000944565b602082019050919050565b60006020820190508181036000830152620009af816200096d565b9050919050565b60805160a051613e1b62000a296000396000818161085e01528181610d7c015281816111ea0152818161189d01528181611c5701526126f50152600081816107bb01528181610d0b01528181610e65015281816112ca015281816117d601528181611b8e01526126410152613e1b6000f3fe608060405234801561001057600080fd5b50600436106101375760003560e01c80635f64b55b116100b8578063a457c2d71161007c578063a457c2d71461037d578063a9059cbb146103ad578063db006a75146103dd578063dc5fa6c51461040e578063dd62ed3e1461042c578063e2bbb1581461045c57610137565b80635f64b55b146102b157806370a08231146102cf57806385f8c259146102ff57806395d89b411461032f5780639f1d0f591461034d57610137565b806318160ddd116100ff57806318160ddd146101f757806319e36f3b1461021557806323b872dd14610233578063313ce56714610263578063395093511461028157610137565b8063054d50d41461013c57806306fdde031461016c5780630902f1ac1461018a578063095ea7b3146101a95780630fc63d10146101d9575b600080fd5b61015660048036038101906101519190612d5f565b61048c565b6040516101639190612dc1565b60405180910390f35b6101746106b7565b6040516101819190612e6c565b60405180910390f35b610192610749565b6040516101a0929190612e8e565b60405180910390f35b6101c360048036038101906101be9190612f15565b610796565b6040516101d09190612f70565b60405180910390f35b6101e16107b9565b6040516101ee9190612fea565b60405180910390f35b6101ff6107dd565b60405161020c9190612dc1565b60405180910390f35b61021d6107e7565b60405161022a9190612dc1565b60405180910390f35b61024d60048036038101906102489190613005565b6107ed565b60405161025a9190612f70565b60405180910390f35b61026b61081c565b6040516102789190613074565b60405180910390f35b61029b60048036038101906102969190612f15565b610825565b6040516102a89190612f70565b60405180910390f35b6102b961085c565b6040516102c69190612fea565b60405180910390f35b6102e960048036038101906102e4919061308f565b610880565b6040516102f69190612dc1565b60405180910390f35b61031960048036038101906103149190612d5f565b6108c8565b6040516103269190612dc1565b60405180910390f35b610337610b63565b6040516103449190612e6c565b60405180910390f35b610367600480360381019061036291906130bc565b610bf5565b6040516103749190612dc1565b60405180910390f35b61039760048036038101906103929190612f15565b61143a565b6040516103a49190612f70565b60405180910390f35b6103c760048036038101906103c29190612f15565b6114b1565b6040516103d49190612f70565b60405180910390f35b6103f760048036038101906103f2919061310f565b6114d4565b604051610405929190612e8e565b60405180910390f35b6104166119f2565b6040516104239190612dc1565b60405180910390f35b6104466004803603810190610441919061313c565b6119f8565b6040516104539190612dc1565b60405180910390f35b6104766004803603810190610471919061317c565b611a7f565b6040516104839190612dc1565b60405180910390f35b60006104a267969366b48275dfbc60c01b6120e0565b6104b66794c707b9e8f2523f60c01b6120e0565b6104ca677afec39f045fcb7960c01b6120e0565b6104de6770d324de3282987e60c01b6120e0565b60008411610521576040517f08c379a000000000000000000000000000000000000000000000000000000000815260040161051890613208565b60405180910390fd5b610535673fd1ec74ea770d6b60c01b6120e0565b6105496795b30a8db5844ba860c01b6120e0565b61055d67d1ea6dc3b42166ec60c01b6120e0565b61057167e193066bc402007c60c01b6120e0565b6000831180156105815750600082115b6105c0576040517f08c379a00000000000000000000000000000000000000000000000000000000081526004016105b790613274565b60405180910390fd5b6105d46771bd8da18663a08660c01b6120e0565b6105e867b96ccea7e2e2feab60c01b6120e0565b6105fc678a57f8f9b7064c5960c01b6120e0565b60006103e58561060c91906132c3565b905061062267bc0bf9a1a09a013b60c01b6120e0565b61063667991e0c9777c3190c60c01b6120e0565b6000838261064491906132c3565b905061065a677469a91a3ac5491a60c01b6120e0565b61066e67291f449cd4abab2860c01b6120e0565b6000826103e88761067f91906132c3565b6106899190613305565b905061069f67f3edf7acc9b462ee60c01b6120e0565b80826106ab9190613368565b93505050509392505050565b6060600380546106c6906133c8565b80601f01602080910402602001604051908101604052809291908181526020018280546106f2906133c8565b801561073f5780601f106107145761010080835404028352916020019161073f565b820191906000526020600020905b81548152906001019060200180831161072257829003601f168201915b5050505050905090565b600080610760671cb77d6baf2dc96860c01b6120e0565b61077467ee7c5a190b0a5d7660c01b6120e0565b600654915061078d67c3d8b02f515c43e460c01b6120e0565b60075490509091565b6000806107a16120e3565b90506107ae8185856120eb565b600191505092915050565b7f000000000000000000000000000000000000000000000000000000000000000081565b6000600254905090565b60075481565b6000806107f86120e3565b90506108058582856122b4565b610810858585612340565b60019150509392505050565b60006012905090565b6000806108306120e3565b905061085181858561084285896119f8565b61084c9190613305565b6120eb565b600191505092915050565b7f000000000000000000000000000000000000000000000000000000000000000081565b60008060008373ffffffffffffffffffffffffffffffffffffffff1673ffffffffffffffffffffffffffffffffffffffff168152602001908152602001600020549050919050565b60006108de676bd4006f66c45a9a60c01b6120e0565b6108f267b011c24cea0ebc9d60c01b6120e0565b61090667324877a4778f0b8460c01b6120e0565b61091a6735108e0511e16a3060c01b6120e0565b6000841161095d576040517f08c379a000000000000000000000000000000000000000000000000000000000815260040161095490613445565b60405180910390fd5b61097167ce13f15fed5a4cea60c01b6120e0565b610985674bbc78c4160a2a8d60c01b6120e0565b6109996723619aa40676d50060c01b6120e0565b6109ad6716eb87a2c7ef1c3760c01b6120e0565b6000831180156109bd5750600082115b6109fc576040517f08c379a00000000000000000000000000000000000000000000000000000000081526004016109f390613274565b60405180910390fd5b610a106716c81fa862b09b7b60c01b6120e0565b610a24678549b218904d0cea60c01b6120e0565b610a3867961588937628421660c01b6120e0565b610a4c676f9740f7ead7066b60c01b6120e0565b818410610a8e576040517f08c379a0000000000000000000000000000000000000000000000000000000008152600401610a8590613274565b60405180910390fd5b610aa267f56b40ba43c339c660c01b6120e0565b610ab6677d14b8fe30b767f760c01b6120e0565b610aca673163876a20b427a760c01b6120e0565b60006103e88585610adb91906132c3565b610ae591906132c3565b9050610afb67279778b3073fe85560c01b6120e0565b610b0f67ba7601c8ff3bff1d60c01b6120e0565b60006103e58685610b209190613465565b610b2a91906132c3565b9050610b4067882bc68dafe2447160c01b6120e0565b60018183610b4e9190613368565b610b589190613305565b925050509392505050565b606060048054610b72906133c8565b80601f0160208091040260200160405190810160405280929190818152602001828054610b9e906133c8565b8015610beb5780601f10610bc057610100808354040283529160200191610beb565b820191906000526020600020905b815481529060010190602001808311610bce57829003601f168201915b5050505050905090565b6000610c0b676e3f5486df4a6f5660c01b6120e0565b610c136125b6565b610c2767d81342384811315c60c01b6120e0565b610c3b67b0700509ea1c3f7c60c01b6120e0565b610c4f678911b16b73ec0cab60c01b6120e0565b610c6367b38d4b23d988a0e060c01b6120e0565b610c7767f030b15b90e3271d60c01b6120e0565b60008311610cba576040517f08c379a0000000000000000000000000000000000000000000000000000000008152600401610cb190613208565b60405180910390fd5b610cce67b7fccc3c751e176760c01b6120e0565b610ce267c7140082d8ff690760c01b6120e0565b610cf56694c5f865208ec660c01b6120e0565b610d0967e79f71262600e09460c01b6120e0565b7f000000000000000000000000000000000000000000000000000000000000000073ffffffffffffffffffffffffffffffffffffffff168473ffffffffffffffffffffffffffffffffffffffff16148015610d745750610d73675375d89352c4d94f60c01b612605565b5b80610de657507f000000000000000000000000000000000000000000000000000000000000000073ffffffffffffffffffffffffffffffffffffffff168473ffffffffffffffffffffffffffffffffffffffff16148015610de55750610de467951b7743c2bf58e060c01b612605565b5b5b610e25576040517f08c379a0000000000000000000000000000000000000000000000000000000008152600401610e1c906134e5565b60405180910390fd5b610e39679ef3c96ee7047c3d60c01b6120e0565b610e4d67ba2ddd289765220760c01b6120e0565b610e6167448febfbff4eb43960c01b6120e0565b60007f000000000000000000000000000000000000000000000000000000000000000073ffffffffffffffffffffffffffffffffffffffff168573ffffffffffffffffffffffffffffffffffffffff16149050610ec867484316b5c3d97e3360c01b6120e0565b610edc676c8bafcfce406e4a60c01b6120e0565b6000808280610efb5750610efa6769284e1e5aa9de9260c01b612610565b5b8015610f175750610f16676f8464b3c065cbae60c01b612605565b5b610f2657600754600654610f2d565b6006546007545b91509150610f456782d3bc91772452cb60c01b6120e0565b610f5967f380ec063097c68560c01b6120e0565b8673ffffffffffffffffffffffffffffffffffffffff166323b872dd3330896040518463ffffffff1660e01b8152600401610f9693929190613514565b6020604051808303816000875af1158015610fb5573d6000803e3d6000fd5b505050506040513d601f19601f82011682018060405250810190610fd99190613577565b50610fee671a1e1f1cd5a8be3160c01b6120e0565b61100267aace455d81e6ebf360c01b6120e0565b60006103e58761101291906132c3565b905061102867be43a052d8914b3160c01b6120e0565b806103e88461103791906132c3565b6110419190613305565b828261104d91906132c3565b6110579190613368565b945061106d67e3cc7400ba077ec660c01b6120e0565b611081672fcf5836087d04ed60c01b6120e0565b611095670305d58952145acb60c01b6120e0565b858510156110d8576040517f08c379a00000000000000000000000000000000000000000000000000000000081526004016110cf90613445565b60405180910390fd5b6110ec67bfb045821298fafa60c01b6120e0565b61110067e162ddaf80c2292a60c01b6120e0565b61111467a7b0e6996be6d24d60c01b6120e0565b61112867805d2c4d119c69e060c01b6120e0565b6000851161116b576040517f08c379a000000000000000000000000000000000000000000000000000000000815260040161116290613274565b60405180910390fd5b61117f675912e8bc9284ffa960c01b6120e0565b61119266d88c9fe5b1483360c01b6120e0565b6111a667e629ae5f117b52ef60c01b6120e0565b831561128c576111c0672ad2c90888a582ba60c01b6120e0565b6111d46735363a6f293a0d5360c01b6120e0565b6111e867c2e5fd677d44386a60c01b6120e0565b7f000000000000000000000000000000000000000000000000000000000000000073ffffffffffffffffffffffffffffffffffffffff1663a9059cbb33876040518363ffffffff1660e01b81526004016112439291906135a4565b6020604051808303816000875af1158015611262573d6000803e3d6000fd5b505050506040513d601f19601f820116820180604052508101906112869190613577565b50611368565b6112a0670567a4b8c0e7472960c01b6120e0565b6112b46708d250891f2b873b60c01b6120e0565b6112c867ea3309b9bacb87f460c01b6120e0565b7f000000000000000000000000000000000000000000000000000000000000000073ffffffffffffffffffffffffffffffffffffffff1663a9059cbb33876040518363ffffffff1660e01b81526004016113239291906135a4565b6020604051808303816000875af1158015611342573d6000803e3d6000fd5b505050506040513d601f19601f820116820180604052508101906113669190613577565b505b61137c67727b914563d7e05e60c01b6120e0565b611390678067afa8a679ca2d60c01b6120e0565b611398612617565b6113ac67b262fc16280b50be60c01b6120e0565b6113c067d99dbb51e2aa3cb660c01b6120e0565b8773ffffffffffffffffffffffffffffffffffffffff163373ffffffffffffffffffffffffffffffffffffffff167ffa2dda1cc1b86e41239702756b13effbc1a092b5c57e3ad320fbe4f3b13fe235898860405161141f929190612e8e565b60405180910390a3505050506114336127fa565b9392505050565b6000806114456120e3565b9050600061145382866119f8565b905083811015611498576040517f08c379a000000000000000000000000000000000000000000000000000000000815260040161148f9061363f565b60405180910390fd5b6114a582868684036120eb565b60019250505092915050565b6000806114bc6120e3565b90506114c9818585612340565b600191505092915050565b6000806114eb67ac7463a5cff2896760c01b6120e0565b6114f36125b6565b61150767e644c72a2568053360c01b6120e0565b61151b676e89575359e9f13160c01b6120e0565b61152f6767c0bef6cb00b6ab60c01b6120e0565b611543673a74d13d0e33704c60c01b6120e0565b61155767aa6bdef7c989b7f760c01b6120e0565b6000831161159a576040517f08c379a0000000000000000000000000000000000000000000000000000000008152600401611591906136ab565b60405180910390fd5b6115ae675ecd6b78d2fe69a460c01b6120e0565b6115c267d25149ecd364b29660c01b6120e0565b6115d667a8f509fcb43b8ea960c01b6120e0565b6115ea67d2e11363b6ae34e660c01b6120e0565b826115f433610880565b1015611635576040517f08c379a000000000000000000000000000000000000000000000000000000000815260040161162c90613717565b60405180910390fd5b61164967f5e0fd0e40aba88960c01b6120e0565b61165d67e271aeb2443981e360c01b6120e0565b61167167ceb4a91c1f227a3e60c01b6120e0565b600061167b6107dd565b905061169167a1c8214e9008dee660c01b6120e0565b80600654856116a091906132c3565b6116aa9190613368565b92506116c067230a4bf4d41ccf2860c01b6120e0565b80600754856116cf91906132c3565b6116d99190613368565b91506116ef67b3c2fff631f8c08c60c01b6120e0565b6117036715930456fe188d1b60c01b6120e0565b6117176787208d77a3d3e80c60c01b6120e0565b6000831180156117275750600082115b611766576040517f08c379a000000000000000000000000000000000000000000000000000000000815260040161175d906136ab565b60405180910390fd5b61177a67346c16b5748f9ef560c01b6120e0565b61178e67100295fec969f60660c01b6120e0565b6117a2675dc11c2539624c7260c01b6120e0565b6117ac3385612804565b6117c067fec424fda93527ac60c01b6120e0565b6117d467fbc5a9762424ca7960c01b6120e0565b7f000000000000000000000000000000000000000000000000000000000000000073ffffffffffffffffffffffffffffffffffffffff1663a9059cbb33856040518363ffffffff1660e01b815260040161182f9291906135a4565b6020604051808303816000875af115801561184e573d6000803e3d6000fd5b505050506040513d601f19601f820116820180604052508101906118729190613577565b50611887679b58d95c5269a96960c01b6120e0565b61189b672313b9361a15db0d60c01b6120e0565b7f000000000000000000000000000000000000000000000000000000000000000073ffffffffffffffffffffffffffffffffffffffff1663a9059cbb33846040518363ffffffff1660e01b81526004016118f69291906135a4565b6020604051808303816000875af1158015611915573d6000803e3d6000fd5b505050506040513d601f19601f820116820180604052508101906119399190613577565b5061194e67d409c01c2b84e02760c01b6120e0565b6119626768b24ee940b0264b60c01b6120e0565b61196a612617565b61197e67ed4e3241147067e860c01b6120e0565b61199267fe53b99e6958a34760c01b6120e0565b3373ffffffffffffffffffffffffffffffffffffffff167fbd5034ffbd47e4e72a94baa2cdb74c6fad73cb3bcdc13036b72ec8306f5a76468484876040516119dc93929190613737565b60405180910390a2506119ed6127fa565b915091565b60065481565b6000600160008473ffffffffffffffffffffffffffffffffffffffff1673ffffffffffffffffffffffffffffffffffffffff16815260200190815260200160002060008373ffffffffffffffffffffffffffffffffffffffff1673ffffffffffffffffffffffffffffffffffffffff16815260200190815260200160002054905092915050565b6000611a956781f0ed6ea50def2b60c01b6120e0565b611a9d6125b6565b611ab16779f2e1dc62885e4260c01b6120e0565b611ac567915773609d1541de60c01b6120e0565b611ad967183c7d5f7fb6f65060c01b6120e0565b611aed67213daf20bf6ee41f60c01b6120e0565b611b01677e02464b0f0c35ed60c01b6120e0565b600083118015611b115750600082115b611b50576040517f08c379a0000000000000000000000000000000000000000000000000000000008152600401611b47906137ba565b60405180910390fd5b611b646786c323c1f6ef2b6660c01b6120e0565b611b78674b4202ab4816b10460c01b6120e0565b611b8c677f196028cd4bd7c360c01b6120e0565b7f000000000000000000000000000000000000000000000000000000000000000073ffffffffffffffffffffffffffffffffffffffff166323b872dd3330866040518463ffffffff1660e01b8152600401611be993929190613514565b6020604051808303816000875af1158015611c08573d6000803e3d6000fd5b505050506040513d601f19601f82011682018060405250810190611c2c9190613577565b50611c416782964b5f2ebba54460c01b6120e0565b611c55677ca4a5a1eff92c8360c01b6120e0565b7f000000000000000000000000000000000000000000000000000000000000000073ffffffffffffffffffffffffffffffffffffffff166323b872dd3330856040518463ffffffff1660e01b8152600401611cb293929190613514565b6020604051808303816000875af1158015611cd1573d6000803e3d6000fd5b505050506040513d601f19601f82011682018060405250810190611cf59190613577565b50611d0a6748ec4b79ea61075860c01b6120e0565b611d1e67f8a12903decb450e60c01b6120e0565b6000611d286107dd565b9050611d3e674a2fff5f9422254060c01b6120e0565b611d5267c7fcdfb456b47c5f60c01b6120e0565b60008103611ea157611d6e67fdd1f9b19c5a4e2960c01b6120e0565b611d82677e5e13432ad3061d60c01b6120e0565b611d966770f6864364ffe40560c01b6120e0565b6000611dac8486611da791906132c3565b6129d1565b9050611dc267f4c394cddb971f9160c01b6120e0565b611dd66730c95db0dfd26e0660c01b6120e0565b611dea67c7f3e623c12d522d60c01b6120e0565b6103e88111611e2e576040517f08c379a0000000000000000000000000000000000000000000000000000000008152600401611e2590613826565b60405180910390fd5b611e426790ed278674cf30ba60c01b6120e0565b611e56675d4aeb9bbf2aa72a60c01b6120e0565b6103e881611e649190613465565b9250611e7a670e92ca1b9a87044160c01b6120e0565b611e8e676c216496b8ec884460c01b6120e0565b611e9b60016103e8612aca565b50611ff5565b611eb56731e68b9c7d27db9360c01b6120e0565b611ec9677655f911840a27c160c01b6120e0565b611edd67aee2d0a54659fd5660c01b6120e0565b60006006548286611eee91906132c3565b611ef89190613368565b9050611f0e672704b6fccc77c4b360c01b6120e0565b611f2267e7c12f5ef946c1e960c01b6120e0565b60006007548386611f3391906132c3565b611f3d9190613368565b9050611f5367574f039b17836c0860c01b6120e0565b611f5d8282612c20565b9350611f73672ee972ec1d5af7d760c01b6120e0565b611f876704ae998ffeb4336160c01b6120e0565b611f9b67eabaeed1325ed41760c01b6120e0565b60008411611fde576040517f08c379a0000000000000000000000000000000000000000000000000000000008152600401611fd590613826565b60405180910390fd5b611ff2674c873b762dbec4fb60c01b6120e0565b50505b61200967fdb5735b2126fbd560c01b6120e0565b61201d672ce92dbbaa11225b60c01b6120e0565b6120273383612aca565b61203b67856536bf02c184ca60c01b6120e0565b61204f6787b53ebca99db1dc60c01b6120e0565b612057612617565b61206b676cdaffbeb239616e60c01b6120e0565b61207f67b867976df439d48560c01b6120e0565b3373ffffffffffffffffffffffffffffffffffffffff167f36af321ec8d3c75236829c5317affd40ddb308863a1236d2d277a4025cccee1e8585856040516120c993929190613737565b60405180910390a2506120da6127fa565b92915050565b50565b600033905090565b600073ffffffffffffffffffffffffffffffffffffffff168373ffffffffffffffffffffffffffffffffffffffff160361215a576040517f08c379a0000000000000000000000000000000000000000000000000000000008152600401612151906138b8565b60405180910390fd5b600073ffffffffffffffffffffffffffffffffffffffff168273ffffffffffffffffffffffffffffffffffffffff16036121c9576040517f08c379a00000000000000000000000000000000000000000000000000000000081526004016121c09061394a565b60405180910390fd5b80600160008573ffffffffffffffffffffffffffffffffffffffff1673ffffffffffffffffffffffffffffffffffffffff16815260200190815260200160002060008473ffffffffffffffffffffffffffffffffffffffff1673ffffffffffffffffffffffffffffffffffffffff168152602001908152602001600020819055508173ffffffffffffffffffffffffffffffffffffffff168373ffffffffffffffffffffffffffffffffffffffff167f8c5be1e5ebec7d5bd14f71427d1e84f3dd0314c0f7b2291e5b200ac8c7c3b925836040516122a79190612dc1565b60405180910390a3505050565b60006122c084846119f8565b90507fffffffffffffffffffffffffffffffffffffffffffffffffffffffffffffffff811461233a578181101561232c576040517f08c379a0000000000000000000000000000000000000000000000000000000008152600401612323906139b6565b60405180910390fd5b61233984848484036120eb565b5b50505050565b600073ffffffffffffffffffffffffffffffffffffffff168373ffffffffffffffffffffffffffffffffffffffff16036123af576040517f08c379a00000000000000000000000000000000000000000000000000000000081526004016123a690613a48565b60405180910390fd5b600073ffffffffffffffffffffffffffffffffffffffff168273ffffffffffffffffffffffffffffffffffffffff160361241e576040517f08c379a000000000000000000000000000000000000000000000000000000000815260040161241590613ada565b60405180910390fd5b612429838383612c39565b60008060008573ffffffffffffffffffffffffffffffffffffffff1673ffffffffffffffffffffffffffffffffffffffff168152602001908152602001600020549050818110156124af576040517f08c379a00000000000000000000000000000000000000000000000000000000081526004016124a690613b6c565b60405180910390fd5b8181036000808673ffffffffffffffffffffffffffffffffffffffff1673ffffffffffffffffffffffffffffffffffffffff16815260200190815260200160002081905550816000808573ffffffffffffffffffffffffffffffffffffffff1673ffffffffffffffffffffffffffffffffffffffff168152602001908152602001600020600082825401925050819055508273ffffffffffffffffffffffffffffffffffffffff168473ffffffffffffffffffffffffffffffffffffffff167fddf252ad1be2c89b69c2b068fc378daa952ba7f163c4a11628f55a4df523b3ef8460405161259d9190612dc1565b60405180910390a36125b0848484612c3e565b50505050565b6002600554036125fb576040517f08c379a00000000000000000000000000000000000000000000000000000000081526004016125f290613bd8565b60405180910390fd5b6002600581905550565b600060019050919050565b6000919050565b61262b67eaf9c3f544ab129f60c01b6120e0565b61263f6778f07e231b96072a60c01b6120e0565b7f000000000000000000000000000000000000000000000000000000000000000073ffffffffffffffffffffffffffffffffffffffff166370a08231306040518263ffffffff1660e01b81526004016126989190613bf8565b602060405180830381865afa1580156126b5573d6000803e3d6000fd5b505050506040513d601f19601f820116820180604052508101906126d99190613c28565b6006819055506126f367b23ee8e8617b051460c01b6120e0565b7f000000000000000000000000000000000000000000000000000000000000000073ffffffffffffffffffffffffffffffffffffffff166370a08231306040518263ffffffff1660e01b815260040161274c9190613bf8565b602060405180830381865afa158015612769573d6000803e3d6000fd5b505050506040513d601f19601f8201168201806040525081019061278d9190613c28565b6007819055506127a767f5933985a6b0909a60c01b6120e0565b6127bb675d86c44d66a640cd60c01b6120e0565b7fcf2aa50876cdfbb541206f89af0ee78d44a2abf8d328e37fa4917f982149848a6006546007546040516127f0929190612e8e565b60405180910390a1565b6001600581905550565b600073ffffffffffffffffffffffffffffffffffffffff168273ffffffffffffffffffffffffffffffffffffffff1603612873576040517f08c379a000000000000000000000000000000000000000000000000000000000815260040161286a90613cc7565b60405180910390fd5b61287f82600083612c39565b60008060008473ffffffffffffffffffffffffffffffffffffffff1673ffffffffffffffffffffffffffffffffffffffff16815260200190815260200160002054905081811015612905576040517f08c379a00000000000000000000000000000000000000000000000000000000081526004016128fc90613d59565b60405180910390fd5b8181036000808573ffffffffffffffffffffffffffffffffffffffff1673ffffffffffffffffffffffffffffffffffffffff1681526020019081526020016000208190555081600260008282540392505081905550600073ffffffffffffffffffffffffffffffffffffffff168373ffffffffffffffffffffffffffffffffffffffff167fddf252ad1be2c89b69c2b068fc378daa952ba7f163c4a11628f55a4df523b3ef846040516129b89190612dc1565b60405180910390a36129cc83600084612c3e565b505050565b60008082036129e35760009050612ac5565b600060016129f084612c43565b901c6001901b90506001818481612a0a57612a09613339565b5b048201901c90506001818481612a2357612a22613339565b5b048201901c90506001818481612a3c57612a3b613339565b5b048201901c90506001818481612a5557612a54613339565b5b048201901c90506001818481612a6e57612a6d613339565b5b048201901c90506001818481612a8757612a86613339565b5b048201901c90506001818481612aa057612a9f613339565b5b048201901c9050612ac181828581612abb57612aba613339565b5b04612c20565b9150505b919050565b600073ffffffffffffffffffffffffffffffffffffffff168273ffffffffffffffffffffffffffffffffffffffff1603612b39576040517f08c379a0000000000000000000000000000000000000000000000000000000008152600401612b3090613dc5565b60405180910390fd5b612b4560008383612c39565b8060026000828254612b579190613305565b92505081905550806000808473ffffffffffffffffffffffffffffffffffffffff1673ffffffffffffffffffffffffffffffffffffffff168152602001908152602001600020600082825401925050819055508173ffffffffffffffffffffffffffffffffffffffff16600073ffffffffffffffffffffffffffffffffffffffff167fddf252ad1be2c89b69c2b068fc378daa952ba7f163c4a11628f55a4df523b3ef83604051612c089190612dc1565b60405180910390a3612c1c60008383612c3e565b5050565b6000818310612c2f5781612c31565b825b905092915050565b505050565b505050565b600080600090506000608084901c1115612c6557608083901c92506080810190505b6000604084901c1115612c8057604083901c92506040810190505b6000602084901c1115612c9b57602083901c92506020810190505b6000601084901c1115612cb657601083901c92506010810190505b6000600884901c1115612cd157600883901c92506008810190505b6000600484901c1115612cec57600483901c92506004810190505b6000600284901c1115612d0757600283901c92506002810190505b6000600184901c1115612d1b576001810190505b80915050919050565b600080fd5b6000819050919050565b612d3c81612d29565b8114612d4757600080fd5b50565b600081359050612d5981612d33565b92915050565b600080600060608486031215612d7857612d77612d24565b5b6000612d8686828701612d4a565b9350506020612d9786828701612d4a565b9250506040612da886828701612d4a565b9150509250925092565b612dbb81612d29565b82525050565b6000602082019050612dd66000830184612db2565b92915050565b600081519050919050565b600082825260208201905092915050565b60005b83811015612e16578082015181840152602081019050612dfb565b60008484015250505050565b6000601f19601f8301169050919050565b6000612e3e82612ddc565b612e488185612de7565b9350612e58818560208601612df8565b612e6181612e22565b840191505092915050565b60006020820190508181036000830152612e868184612e33565b905092915050565b6000604082019050612ea36000830185612db2565b612eb06020830184612db2565b9392505050565b600073ffffffffffffffffffffffffffffffffffffffff82169050919050565b6000612ee282612eb7565b9050919050565b612ef281612ed7565b8114612efd57600080fd5b50565b600081359050612f0f81612ee9565b92915050565b60008060408385031215612f2c57612f2b612d24565b5b6000612f3a85828601612f00565b9250506020612f4b85828601612d4a565b9150509250929050565b60008115159050919050565b612f6a81612f55565b82525050565b6000602082019050612f856000830184612f61565b92915050565b6000819050919050565b6000612fb0612fab612fa684612eb7565b612f8b565b612eb7565b9050919050565b6000612fc282612f95565b9050919050565b6000612fd482612fb7565b9050919050565b612fe481612fc9565b82525050565b6000602082019050612fff6000830184612fdb565b92915050565b60008060006060848603121561301e5761301d612d24565b5b600061302c86828701612f00565b935050602061303d86828701612f00565b925050604061304e86828701612d4a565b9150509250925092565b600060ff82169050919050565b61306e81613058565b82525050565b60006020820190506130896000830184613065565b92915050565b6000602082840312156130a5576130a4612d24565b5b60006130b384828501612f00565b91505092915050565b6000806000606084860312156130d5576130d4612d24565b5b60006130e386828701612f00565b93505060206130f486828701612d4a565b925050604061310586828701612d4a565b9150509250925092565b60006020828403121561312557613124612d24565b5b600061313384828501612d4a565b91505092915050565b6000806040838503121561315357613152612d24565b5b600061316185828601612f00565b925050602061317285828601612f00565b9150509250929050565b6000806040838503121561319357613192612d24565b5b60006131a185828601612d4a565b92505060206131b285828601612d4a565b9150509250929050565b7f496e73756666696369656e7420696e70757420616d6f756e7400000000000000600082015250565b60006131f2601983612de7565b91506131fd826131bc565b602082019050919050565b60006020820190508181036000830152613221816131e5565b9050919050565b7f496e73756666696369656e74206c697175696469747900000000000000000000600082015250565b600061325e601683612de7565b915061326982613228565b602082019050919050565b6000602082019050818103600083015261328d81613251565b9050919050565b7f4e487b7100000000000000000000000000000000000000000000000000000000600052601160045260246000fd5b60006132ce82612d29565b91506132d983612d29565b92508282026132e781612d29565b915082820484148315176132fe576132fd613294565b5b5092915050565b600061331082612d29565b915061331b83612d29565b925082820190508082111561333357613332613294565b5b92915050565b7f4e487b7100000000000000000000000000000000000000000000000000000000600052601260045260246000fd5b600061337382612d29565b915061337e83612d29565b92508261338e5761338d613339565b5b828204905092915050565b7f4e487b7100000000000000000000000000000000000000000000000000000000600052602260045260246000fd5b600060028204905060018216806133e057607f821691505b6020821081036133f3576133f2613399565b5b50919050565b7f496e73756666696369656e74206f757470757420616d6f756e74000000000000600082015250565b600061342f601a83612de7565b915061343a826133f9565b602082019050919050565b6000602082019050818103600083015261345e81613422565b9050919050565b600061347082612d29565b915061347b83612d29565b925082820390508181111561349357613492613294565b5b92915050565b7f496e76616c696420746f6b656e00000000000000000000000000000000000000600082015250565b60006134cf600d83612de7565b91506134da82613499565b602082019050919050565b600060208201905081810360008301526134fe816134c2565b9050919050565b61350e81612ed7565b82525050565b60006060820190506135296000830186613505565b6135366020830185613505565b6135436040830184612db2565b949350505050565b61355481612f55565b811461355f57600080fd5b50565b6000815190506135718161354b565b92915050565b60006020828403121561358d5761358c612d24565b5b600061359b84828501613562565b91505092915050565b60006040820190506135b96000830185613505565b6135c66020830184612db2565b9392505050565b7f45524332303a2064656372656173656420616c6c6f77616e63652062656c6f7760008201527f207a65726f000000000000000000000000000000000000000000000000000000602082015250565b6000613629602583612de7565b9150613634826135cd565b604082019050919050565b600060208201905081810360008301526136588161361c565b9050919050565b7f496e73756666696369656e74206c6971756964697479206275726e6564000000600082015250565b6000613695601d83612de7565b91506136a08261365f565b602082019050919050565b600060208201905081810360008301526136c481613688565b9050919050565b7f496e73756666696369656e742062616c616e6365000000000000000000000000600082015250565b6000613701601483612de7565b915061370c826136cb565b602082019050919050565b60006020820190508181036000830152613730816136f4565b9050919050565b600060608201905061374c6000830186612db2565b6137596020830185612db2565b6137666040830184612db2565b949350505050565b7f496e73756666696369656e7420696e70757420616d6f756e7473000000000000600082015250565b60006137a4601a83612de7565b91506137af8261376e565b602082019050919050565b600060208201905081810360008301526137d381613797565b9050919050565b7f496e73756666696369656e74206c6971756964697479206d696e746564000000600082015250565b6000613810601d83612de7565b915061381b826137da565b602082019050919050565b6000602082019050818103600083015261383f81613803565b9050919050565b7f45524332303a20617070726f76652066726f6d20746865207a65726f2061646460008201527f7265737300000000000000000000000000000000000000000000000000000000602082015250565b60006138a2602483612de7565b91506138ad82613846565b604082019050919050565b600060208201905081810360008301526138d181613895565b9050919050565b7f45524332303a20617070726f766520746f20746865207a65726f20616464726560008201527f7373000000000000000000000000000000000000000000000000000000000000602082015250565b6000613934602283612de7565b915061393f826138d8565b604082019050919050565b6000602082019050818103600083015261396381613927565b9050919050565b7f45524332303a20696e73756666696369656e7420616c6c6f77616e6365000000600082015250565b60006139a0601d83612de7565b91506139ab8261396a565b602082019050919050565b600060208201905081810360008301526139cf81613993565b9050919050565b7f45524332303a207472616e736665722066726f6d20746865207a65726f20616460008201527f6472657373000000000000000000000000000000000000000000000000000000602082015250565b6000613a32602583612de7565b9150613a3d826139d6565b604082019050919050565b60006020820190508181036000830152613a6181613a25565b9050919050565b7f45524332303a207472616e7366657220746f20746865207a65726f206164647260008201527f6573730000000000000000000000000000000000000000000000000000000000602082015250565b6000613ac4602383612de7565b9150613acf82613a68565b604082019050919050565b60006020820190508181036000830152613af381613ab7565b9050919050565b7f45524332303a207472616e7366657220616d6f756e742065786365656473206260008201527f616c616e63650000000000000000000000000000000000000000000000000000602082015250565b6000613b56602683612de7565b9150613b6182613afa565b604082019050919050565b60006020820190508181036000830152613b8581613b49565b9050919050565b7f5265656e7472616e637947756172643a207265656e7472616e742063616c6c00600082015250565b6000613bc2601f83612de7565b9150613bcd82613b8c565b602082019050919050565b60006020820190508181036000830152613bf181613bb5565b9050919050565b6000602082019050613c0d6000830184613505565b92915050565b600081519050613c2281612d33565b92915050565b600060208284031215613c3e57613c3d612d24565b5b6000613c4c84828501613c13565b91505092915050565b7f45524332303a206275726e2066726f6d20746865207a65726f2061646472657360008201527f7300000000000000000000000000000000000000000000000000000000000000602082015250565b6000613cb1602183612de7565b9150613cbc82613c55565b604082019050919050565b60006020820190508181036000830152613ce081613ca4565b9050919050565b7f45524332303a206275726e20616d6f756e7420657863656564732062616c616e60008201527f6365000000000000000000000000000000000000000000000000000000000000602082015250565b6000613d43602283612de7565b9150613d4e82613ce7565b604082019050919050565b60006020820190508181036000830152613d7281613d36565b9050919050565b7f45524332303a206d696e7420746f20746865207a65726f206164647265737300600082015250565b6000613daf601f83612de7565b9150613dba82613d79565b602082019050919050565b60006020820190508181036000830152613dde81613da2565b905091905056fea26469706673582212204b1e5db938361f866bbdd886ca231315dd0138590709bd2fff39fcbbd931177364736f6c63430008140033","opcodes":"PUSH1 0xC0 PUSH1 0x40 MSTORE CALLVALUE DUP1 ISZERO PUSH3 0x11 JUMPI PUSH1 0x0 DUP1 REVERT JUMPDEST POP PUSH1 0x40 MLOAD PUSH3 0x4844 CODESIZE SUB DUP1 PUSH3 0x4844 DUP4 CODECOPY DUP2 DUP2 ADD PUSH1 0x40 MSTORE DUP2 ADD SWAP1 PUSH3 0x37 SWAP2 SWAP1 PUSH3 0x4A7 JUMP JUMPDEST PUSH1 0x40 MLOAD DUP1 PUSH1 0x40 ADD PUSH1 0x40 MSTORE DUP1 PUSH1 0x12 DUP2 MSTORE PUSH1 0x20 ADD PUSH32 0x53696D706C65414D4D204C5020546F6B656E0000000000000000000000000000 DUP2 MSTORE POP PUSH1 0x40 MLOAD DUP1 PUSH1 0x40 ADD PUSH1 0x40 MSTORE DUP1 PUSH1 0x7 DUP2 MSTORE PUSH1 0x20 ADD PUSH32 0x53414D4D2D4C5000000000000000000000000000000000000000000000000000 DUP2 MSTORE POP DUP2 PUSH1 0x3 SWAP1 DUP2 PUSH3 0xB4 SWAP2 SWAP1 PUSH3 0x768 JUMP JUMPDEST POP DUP1 PUSH1 0x4 SWAP1 DUP2 PUSH3 0xC6 SWAP2 SWAP1 PUSH3 0x768 JUMP JUMPDEST POP POP POP PUSH1 0x1 PUSH1 0x5 DUP2 SWAP1 SSTORE POP PUSH3 0xED PUSH8 0x15CAB6CF9ECD2A0B PUSH1 0xC0 SHL PUSH3 0x43A PUSH1 0x20 SHL PUSH1 0x20 SHR JUMP JUMPDEST PUSH3 0x109 PUSH8 0xDBC06EBD16964A83 PUSH1 0xC0 SHL PUSH3 0x43A PUSH1 0x20 SHL PUSH1 0x20 SHR JUMP JUMPDEST PUSH3 0x125 PUSH8 0x946B39B4AFBCC508 PUSH1 0xC0 SHL PUSH3 0x43A PUSH1 0x20 SHL PUSH1 0x20 SHR JUMP JUMPDEST PUSH3 0x141 PUSH8 0xB826FCFF8EBB591C PUSH1 0xC0 SHL PUSH3 0x43A PUSH1 0x20 SHL PUSH1 0x20 SHR JUMP JUMPDEST PUSH1 0x0 PUSH20 0xFFFFFFFFFFFFFFFFFFFFFFFFFFFFFFFFFFFFFFFF AND DUP3 PUSH20 0xFFFFFFFFFFFFFFFFFFFFFFFFFFFFFFFFFFFFFFFF AND SUB PUSH3 0x1B3 JUMPI PUSH1 0x40 MLOAD PUSH32 0x8C379A000000000000000000000000000000000000000000000000000000000 DUP2 MSTORE PUSH1 0x4 ADD PUSH3 0x1AA SWAP1 PUSH3 0x8B0 JUMP JUMPDEST PUSH1 0x40 MLOAD DUP1 SWAP2 SUB SWAP1 REVERT JUMPDEST PUSH3 0x1CF PUSH8 0x96D5073EAA592F5C PUSH1 0xC0 SHL PUSH3 0x43A PUSH1 0x20 SHL PUSH1 0x20 SHR JUMP JUMPDEST PUSH3 0x1EB PUSH8 0x15A11C673AD53FCF PUSH1 0xC0 SHL PUSH3 0x43A PUSH1 0x20 SHL PUSH1 0x20 SHR JUMP JUMPDEST PUSH3 0x207 PUSH8 0x62BCB96409D69A4B PUSH1 0xC0 SHL PUSH3 0x43A PUSH1 0x20 SHL PUSH1 0x20 SHR JUMP JUMPDEST PUSH3 0x223 PUSH8 0x83C5202B83DFC8F8 PUSH1 0xC0 SHL PUSH3 0x43A PUSH1 0x20 SHL PUSH1 0x20 SHR JUMP JUMPDEST PUSH1 0x0 PUSH20 0xFFFFFFFFFFFFFFFFFFFFFFFFFFFFFFFFFFFFFFFF AND DUP2 PUSH20 0xFFFFFFFFFFFFFFFFFFFFFFFFFFFFFFFFFFFFFFFF AND SUB PUSH3 0x295 JUMPI PUSH1 0x40 MLOAD PUSH32 0x8C379A000000000000000000000000000000000000000000000000000000000 DUP2 MSTORE PUSH1 0x4 ADD PUSH3 0x28C SWAP1 PUSH3 0x922 JUMP JUMPDEST PUSH1 0x40 MLOAD DUP1 SWAP2 SUB SWAP1 REVERT JUMPDEST PUSH3 0x2B1 PUSH8 0x75AEC4473C25E2E3 PUSH1 0xC0 SHL PUSH3 0x43A PUSH1 0x20 SHL PUSH1 0x20 SHR JUMP JUMPDEST PUSH3 0x2CD PUSH8 0x144DC58D94432610 PUSH1 0xC0 SHL PUSH3 0x43A PUSH1 0x20 SHL PUSH1 0x20 SHR JUMP JUMPDEST PUSH3 0x2E9 PUSH8 0x61EA3CB1049CB58D PUSH1 0xC0 SHL PUSH3 0x43A PUSH1 0x20 SHL PUSH1 0x20 SHR JUMP JUMPDEST PUSH3 0x305 PUSH8 0x1C0DF4E4759D46D PUSH1 0xC0 SHL PUSH3 0x43A PUSH1 0x20 SHL PUSH1 0x20 SHR JUMP JUMPDEST DUP1 PUSH20 0xFFFFFFFFFFFFFFFFFFFFFFFFFFFFFFFFFFFFFFFF AND DUP3 PUSH20 0xFFFFFFFFFFFFFFFFFFFFFFFFFFFFFFFFFFFFFFFF AND SUB PUSH3 0x376 JUMPI PUSH1 0x40 MLOAD PUSH32 0x8C379A000000000000000000000000000000000000000000000000000000000 DUP2 MSTORE PUSH1 0x4 ADD PUSH3 0x36D SWAP1 PUSH3 0x994 JUMP JUMPDEST PUSH1 0x40 MLOAD DUP1 SWAP2 SUB SWAP1 REVERT JUMPDEST PUSH3 0x392 PUSH8 0x7D292D469145D830 PUSH1 0xC0 SHL PUSH3 0x43A PUSH1 0x20 SHL PUSH1 0x20 SHR JUMP JUMPDEST PUSH3 0x3AE PUSH8 0xD83540CEEF8ED6E9 PUSH1 0xC0 SHL PUSH3 0x43A PUSH1 0x20 SHL PUSH1 0x20 SHR JUMP JUMPDEST DUP2 PUSH20 0xFFFFFFFFFFFFFFFFFFFFFFFFFFFFFFFFFFFFFFFF AND PUSH1 0x80 DUP2 PUSH20 0xFFFFFFFFFFFFFFFFFFFFFFFFFFFFFFFFFFFFFFFF AND DUP2 MSTORE POP POP PUSH3 0x3FE PUSH8 0xABE80F8D449AB555 PUSH1 0xC0 SHL PUSH3 0x43A PUSH1 0x20 SHL PUSH1 0x20 SHR JUMP JUMPDEST DUP1 PUSH20 0xFFFFFFFFFFFFFFFFFFFFFFFFFFFFFFFFFFFFFFFF AND PUSH1 0xA0 DUP2 PUSH20 0xFFFFFFFFFFFFFFFFFFFFFFFFFFFFFFFFFFFFFFFF AND DUP2 MSTORE POP POP POP POP PUSH3 0x9B6 JUMP JUMPDEST POP JUMP JUMPDEST PUSH1 0x0 DUP1 REVERT JUMPDEST PUSH1 0x0 PUSH20 0xFFFFFFFFFFFFFFFFFFFFFFFFFFFFFFFFFFFFFFFF DUP3 AND SWAP1 POP SWAP2 SWAP1 POP JUMP JUMPDEST PUSH1 0x0 PUSH3 0x46F DUP3 PUSH3 0x442 JUMP JUMPDEST SWAP1 POP SWAP2 SWAP1 POP JUMP JUMPDEST PUSH3 0x481 DUP2 PUSH3 0x462 JUMP JUMPDEST DUP2 EQ PUSH3 0x48D JUMPI PUSH1 0x0 DUP1 REVERT JUMPDEST POP JUMP JUMPDEST PUSH1 0x0 DUP2 MLOAD SWAP1 POP PUSH3 0x4A1 DUP2 PUSH3 0x476 JUMP JUMPDEST SWAP3 SWAP2 POP POP JUMP JUMPDEST PUSH1 0x0 DUP1 PUSH1 0x40 DUP4 DUP6 SUB SLT ISZERO PUSH3 0x4C1 JUMPI PUSH3 0x4C0 PUSH3 0x43D JUMP JUMPDEST JUMPDEST PUSH1 0x0 PUSH3 0x4D1 DUP6 DUP3 DUP7 ADD PUSH3 0x490 JUMP JUMPDEST SWAP3 POP POP PUSH1 0x20 PUSH3 0x4E4 DUP6 DUP3 DUP7 ADD PUSH3 0x490 JUMP JUMPDEST SWAP2 POP POP SWAP3 POP SWAP3 SWAP1 POP JUMP JUMPDEST PUSH1 0x0 DUP2 MLOAD SWAP1 POP SWAP2 SWAP1 POP JUMP JUMPDEST PUSH32 0x4E487B7100000000000000000000000000000000000000000000000000000000 PUSH1 0x0 MSTORE PUSH1 0x41 PUSH1 0x4 MSTORE PUSH1 0x24 PUSH1 0x0 REVERT JUMPDEST PUSH32 0x4E487B7100000000000000000000000000000000000000000000000000000000 PUSH1 0x0 MSTORE PUSH1 0x22 PUSH1 0x4 MSTORE PUSH1 0x24 PUSH1 0x0 REVERT JUMPDEST PUSH1 0x0 PUSH1 0x2 DUP3 DIV SWAP1 POP PUSH1 0x1 DUP3 AND DUP1 PUSH3 0x570 JUMPI PUSH1 0x7F DUP3 AND SWAP2 POP JUMPDEST PUSH1 0x20 DUP3 LT DUP2 SUB PUSH3 0x586 JUMPI PUSH3 0x585 PUSH3 0x528 JUMP JUMPDEST JUMPDEST POP SWAP2 SWAP1 POP JUMP JUMPDEST PUSH1 0x0 DUP2 SWAP1 POP DUP2 PUSH1 0x0 MSTORE PUSH1 0x20 PUSH1 0x0 KECCAK256 SWAP1 POP SWAP2 SWAP1 POP JUMP JUMPDEST PUSH1 0x0 PUSH1 0x20 PUSH1 0x1F DUP4 ADD DIV SWAP1 POP SWAP2 SWAP1 POP JUMP JUMPDEST PUSH1 0x0 DUP3 DUP3 SHL SWAP1 POP SWAP3 SWAP2 POP POP JUMP JUMPDEST PUSH1 0x0 PUSH1 0x8 DUP4 MUL PUSH3 0x5F0 PUSH32 0xFFFFFFFFFFFFFFFFFFFFFFFFFFFFFFFFFFFFFFFFFFFFFFFFFFFFFFFFFFFFFFFF DUP3 PUSH3 0x5B1 JUMP JUMPDEST PUSH3 0x5FC DUP7 DUP4 PUSH3 0x5B1 JUMP JUMPDEST SWAP6 POP DUP1 NOT DUP5 AND SWAP4 POP DUP1 DUP7 AND DUP5 OR SWAP3 POP POP POP SWAP4 SWAP3 POP POP POP JUMP JUMPDEST PUSH1 0x0 DUP2 SWAP1 POP SWAP2 SWAP1 POP JUMP JUMPDEST PUSH1 0x0 DUP2 SWAP1 POP SWAP2 SWAP1 POP JUMP JUMPDEST PUSH1 0x0 PUSH3 0x649 PUSH3 0x643 PUSH3 0x63D DUP5 PUSH3 0x614 JUMP JUMPDEST PUSH3 0x61E JUMP JUMPDEST PUSH3 0x614 JUMP JUMPDEST SWAP1 POP SWAP2 SWAP1 POP JUMP JUMPDEST PUSH1 0x0 DUP2 SWAP1 POP SWAP2 SWAP1 POP JUMP JUMPDEST PUSH3 0x665 DUP4 PUSH3 0x628 JUMP JUMPDEST PUSH3 0x67D PUSH3 0x674 DUP3 PUSH3 0x650 JUMP JUMPDEST DUP5 DUP5 SLOAD PUSH3 0x5BE JUMP JUMPDEST DUP3 SSTORE POP POP POP POP JUMP JUMPDEST PUSH1 0x0 SWAP1 JUMP JUMPDEST PUSH3 0x694 PUSH3 0x685 JUMP JUMPDEST PUSH3 0x6A1 DUP2 DUP5 DUP5 PUSH3 0x65A JUMP JUMPDEST POP POP POP JUMP JUMPDEST JUMPDEST DUP2 DUP2 LT ISZERO PUSH3 0x6C9 JUMPI PUSH3 0x6BD PUSH1 0x0 DUP3 PUSH3 0x68A JUMP JUMPDEST PUSH1 0x1 DUP2 ADD SWAP1 POP PUSH3 0x6A7 JUMP JUMPDEST POP POP JUMP JUMPDEST PUSH1 0x1F DUP3 GT ISZERO PUSH3 0x718 JUMPI PUSH3 0x6E2 DUP2 PUSH3 0x58C JUMP JUMPDEST PUSH3 0x6ED DUP5 PUSH3 0x5A1 JUMP JUMPDEST DUP2 ADD PUSH1 0x20 DUP6 LT ISZERO PUSH3 0x6FD JUMPI DUP2 SWAP1 POP JUMPDEST PUSH3 0x715 PUSH3 0x70C DUP6 PUSH3 0x5A1 JUMP JUMPDEST DUP4 ADD DUP3 PUSH3 0x6A6 JUMP JUMPDEST POP POP JUMPDEST POP POP POP JUMP JUMPDEST PUSH1 0x0 DUP3 DUP3 SHR SWAP1 POP SWAP3 SWAP2 POP POP JUMP JUMPDEST PUSH1 0x0 PUSH3 0x73D PUSH1 0x0 NOT DUP5 PUSH1 0x8 MUL PUSH3 0x71D JUMP JUMPDEST NOT DUP1 DUP4 AND SWAP2 POP POP SWAP3 SWAP2 POP POP JUMP JUMPDEST PUSH1 0x0 PUSH3 0x758 DUP4 DUP4 PUSH3 0x72A JUMP JUMPDEST SWAP2 POP DUP3 PUSH1 0x2 MUL DUP3 OR SWAP1 POP SWAP3 SWAP2 POP POP JUMP JUMPDEST PUSH3 0x773 DUP3 PUSH3 0x4EE JUMP JUMPDEST PUSH8 0xFFFFFFFFFFFFFFFF DUP2 GT ISZERO PUSH3 0x78F JUMPI PUSH3 0x78E PUSH3 0x4F9 JUMP JUMPDEST JUMPDEST PUSH3 0x79B DUP3 SLOAD PUSH3 0x557 JUMP JUMPDEST PUSH3 0x7A8 DUP3 DUP3 DUP6 PUSH3 0x6CD JUMP JUMPDEST PUSH1 0x0 PUSH1 0x20 SWAP1 POP PUSH1 0x1F DUP4 GT PUSH1 0x1 DUP2 EQ PUSH3 0x7E0 JUMPI PUSH1 0x0 DUP5 ISZERO PUSH3 0x7CB JUMPI DUP3 DUP8 ADD MLOAD SWAP1 POP JUMPDEST PUSH3 0x7D7 DUP6 DUP3 PUSH3 0x74A JUMP JUMPDEST DUP7 SSTORE POP PUSH3 0x847 JUMP JUMPDEST PUSH1 0x1F NOT DUP5 AND PUSH3 0x7F0 DUP7 PUSH3 0x58C JUMP JUMPDEST PUSH1 0x0 JUMPDEST DUP3 DUP2 LT ISZERO PUSH3 0x81A JUMPI DUP5 DUP10 ADD MLOAD DUP3 SSTORE PUSH1 0x1 DUP3 ADD SWAP2 POP PUSH1 0x20 DUP6 ADD SWAP5 POP PUSH1 0x20 DUP2 ADD SWAP1 POP PUSH3 0x7F3 JUMP JUMPDEST DUP7 DUP4 LT ISZERO PUSH3 0x83A JUMPI DUP5 DUP10 ADD MLOAD PUSH3 0x836 PUSH1 0x1F DUP10 AND DUP3 PUSH3 0x72A JUMP JUMPDEST DUP4 SSTORE POP JUMPDEST PUSH1 0x1 PUSH1 0x2 DUP9 MUL ADD DUP9 SSTORE POP POP POP JUMPDEST POP POP POP POP POP POP JUMP JUMPDEST PUSH1 0x0 DUP3 DUP3 MSTORE PUSH1 0x20 DUP3 ADD SWAP1 POP SWAP3 SWAP2 POP POP JUMP JUMPDEST PUSH32 0x496E76616C696420746F6B656E20412061646472657373000000000000000000 PUSH1 0x0 DUP3 ADD MSTORE POP JUMP JUMPDEST PUSH1 0x0 PUSH3 0x898 PUSH1 0x17 DUP4 PUSH3 0x84F JUMP JUMPDEST SWAP2 POP PUSH3 0x8A5 DUP3 PUSH3 0x860 JUMP JUMPDEST PUSH1 0x20 DUP3 ADD SWAP1 POP SWAP2 SWAP1 POP JUMP JUMPDEST PUSH1 0x0 PUSH1 0x20 DUP3 ADD SWAP1 POP DUP2 DUP2 SUB PUSH1 0x0 DUP4 ADD MSTORE PUSH3 0x8CB DUP2 PUSH3 0x889 JUMP JUMPDEST SWAP1 POP SWAP2 SWAP1 POP JUMP JUMPDEST PUSH32 0x496E76616C696420746F6B656E20422061646472657373000000000000000000 PUSH1 0x0 DUP3 ADD MSTORE POP JUMP JUMPDEST PUSH1 0x0 PUSH3 0x90A PUSH1 0x17 DUP4 PUSH3 0x84F JUMP JUMPDEST SWAP2 POP PUSH3 0x917 DUP3 PUSH3 0x8D2 JUMP JUMPDEST PUSH1 0x20 DUP3 ADD SWAP1 POP SWAP2 SWAP1 POP JUMP JUMPDEST PUSH1 0x0 PUSH1 0x20 DUP3 ADD SWAP1 POP DUP2 DUP2 SUB PUSH1 0x0 DUP4 ADD MSTORE PUSH3 0x93D DUP2 PUSH3 0x8FB JUMP JUMPDEST SWAP1 POP SWAP2 SWAP1 POP JUMP JUMPDEST PUSH32 0x4964656E746963616C2061646472657373657300000000000000000000000000 PUSH1 0x0 DUP3 ADD MSTORE POP JUMP JUMPDEST PUSH1 0x0 PUSH3 0x97C PUSH1 0x13 DUP4 PUSH3 0x84F JUMP JUMPDEST SWAP2 POP PUSH3 0x989 DUP3 PUSH3 0x944 JUMP JUMPDEST PUSH1 0x20 DUP3 ADD SWAP1 POP SWAP2 SWAP1 POP JUMP JUMPDEST PUSH1 0x0 PUSH1 0x20 DUP3 ADD SWAP1 POP DUP2 DUP2 SUB PUSH1 0x0 DUP4 ADD MSTORE PUSH3 0x9AF DUP2 PUSH3 0x96D JUMP JUMPDEST SWAP1 POP SWAP2 SWAP1 POP JUMP JUMPDEST PUSH1 0x80 MLOAD PUSH1 0xA0 MLOAD PUSH2 0x3E1B PUSH3 0xA29 PUSH1 0x0 CODECOPY PUSH1 0x0 DUP2 DUP2 PUSH2 0x85E ADD MSTORE DUP2 DUP2 PUSH2 0xD7C ADD MSTORE DUP2 DUP2 PUSH2 0x11EA ADD MSTORE DUP2 DUP2 PUSH2 0x189D ADD MSTORE DUP2 DUP2 PUSH2 0x1C57 ADD MSTORE PUSH2 0x26F5 ADD MSTORE PUSH1 0x0 DUP2 DUP2 PUSH2 0x7BB ADD MSTORE DUP2 DUP2 PUSH2 0xD0B ADD MSTORE DUP2 DUP2 PUSH2 0xE65 ADD MSTORE DUP2 DUP2 PUSH2 0x12CA ADD MSTORE DUP2 DUP2 PUSH2 0x17D6 ADD MSTORE DUP2 DUP2 PUSH2 0x1B8E ADD MSTORE PUSH2 0x2641 ADD MSTORE PUSH2 0x3E1B PUSH1 0x0 RETURN INVALID PUSH1 0x80 PUSH1 0x40 MSTORE CALLVALUE DUP1 ISZERO PUSH2 0x10 JUMPI PUSH1 0x0 DUP1 REVERT JUMPDEST POP PUSH1 0x4 CALLDATASIZE LT PUSH2 0x137 JUMPI PUSH1 0x0 CALLDATALOAD PUSH1 0xE0 SHR DUP1 PUSH4 0x5F64B55B GT PUSH2 0xB8 JUMPI DUP1 PUSH4 0xA457C2D7 GT PUSH2 0x7C JUMPI DUP1 PUSH4 0xA457C2D7 EQ PUSH2 0x37D JUMPI DUP1 PUSH4 0xA9059CBB EQ PUSH2 0x3AD JUMPI DUP1 PUSH4 0xDB006A75 EQ PUSH2 0x3DD JUMPI DUP1 PUSH4 0xDC5FA6C5 EQ PUSH2 0x40E JUMPI DUP1 PUSH4 0xDD62ED3E EQ PUSH2 0x42C JUMPI DUP1 PUSH4 0xE2BBB158 EQ PUSH2 0x45C JUMPI PUSH2 0x137 JUMP JUMPDEST DUP1 PUSH4 0x5F64B55B EQ PUSH2 0x2B1 JUMPI DUP1 PUSH4 0x70A08231 EQ PUSH2 0x2CF JUMPI DUP1 PUSH4 0x85F8C259 EQ PUSH2 0x2FF JUMPI DUP1 PUSH4 0x95D89B41 EQ PUSH2 0x32F JUMPI DUP1 PUSH4 0x9F1D0F59 EQ PUSH2 0x34D JUMPI PUSH2 0x137 JUMP JUMPDEST DUP1 PUSH4 0x18160DDD GT PUSH2 0xFF JUMPI DUP1 PUSH4 0x18160DDD EQ PUSH2 0x1F7 JUMPI DUP1 PUSH4 0x19E36F3B EQ PUSH2 0x215 JUMPI DUP1 PUSH4 0x23B872DD EQ PUSH2 0x233 JUMPI DUP1 PUSH4 0x313CE567 EQ PUSH2 0x263 JUMPI DUP1 PUSH4 0x39509351 EQ PUSH2 0x281 JUMPI PUSH2 0x137 JUMP JUMPDEST DUP1 PUSH4 0x54D50D4 EQ PUSH2 0x13C JUMPI DUP1 PUSH4 0x6FDDE03 EQ PUSH2 0x16C JUMPI DUP1 PUSH4 0x902F1AC EQ PUSH2 0x18A JUMPI DUP1 PUSH4 0x95EA7B3 EQ PUSH2 0x1A9 JUMPI DUP1 PUSH4 0xFC63D10 EQ PUSH2 0x1D9 JUMPI JUMPDEST PUSH1 0x0 DUP1 REVERT JUMPDEST PUSH2 0x156 PUSH1 0x4 DUP1 CALLDATASIZE SUB DUP2 ADD SWAP1 PUSH2 0x151 SWAP2 SWAP1 PUSH2 0x2D5F JUMP JUMPDEST PUSH2 0x48C JUMP JUMPDEST PUSH1 0x40 MLOAD PUSH2 0x163 SWAP2 SWAP1 PUSH2 0x2DC1 JUMP JUMPDEST PUSH1 0x40 MLOAD DUP1 SWAP2 SUB SWAP1 RETURN JUMPDEST PUSH2 0x174 PUSH2 0x6B7 JUMP JUMPDEST PUSH1 0x40 MLOAD PUSH2 0x181 SWAP2 SWAP1 PUSH2 0x2E6C JUMP JUMPDEST PUSH1 0x40 MLOAD DUP1 SWAP2 SUB SWAP1 RETURN JUMPDEST PUSH2 0x192 PUSH2 0x749 JUMP JUMPDEST PUSH1 0x40 MLOAD PUSH2 0x1A0 SWAP3 SWAP2 SWAP1 PUSH2 0x2E8E JUMP JUMPDEST PUSH1 0x40 MLOAD DUP1 SWAP2 SUB SWAP1 RETURN JUMPDEST PUSH2 0x1C3 PUSH1 0x4 DUP1 CALLDATASIZE SUB DUP2 ADD SWAP1 PUSH2 0x1BE SWAP2 SWAP1 PUSH2 0x2F15 JUMP JUMPDEST PUSH2 0x796 JUMP JUMPDEST PUSH1 0x40 MLOAD PUSH2 0x1D0 SWAP2 SWAP1 PUSH2 0x2F70 JUMP JUMPDEST PUSH1 0x40 MLOAD DUP1 SWAP2 SUB SWAP1 RETURN JUMPDEST PUSH2 0x1E1 PUSH2 0x7B9 JUMP JUMPDEST PUSH1 0x40 MLOAD PUSH2 0x1EE SWAP2 SWAP1 PUSH2 0x2FEA JUMP JUMPDEST PUSH1 0x40 MLOAD DUP1 SWAP2 SUB SWAP1 RETURN JUMPDEST PUSH2 0x1FF PUSH2 0x7DD JUMP JUMPDEST PUSH1 0x40 MLOAD PUSH2 0x20C SWAP2 SWAP1 PUSH2 0x2DC1 JUMP JUMPDEST PUSH1 0x40 MLOAD DUP1 SWAP2 SUB SWAP1 RETURN JUMPDEST PUSH2 0x21D PUSH2 0x7E7 JUMP JUMPDEST PUSH1 0x40 MLOAD PUSH2 0x22A SWAP2 SWAP1 PUSH2 0x2DC1 JUMP JUMPDEST PUSH1 0x40 MLOAD DUP1 SWAP2 SUB SWAP1 RETURN JUMPDEST PUSH2 0x24D PUSH1 0x4 DUP1 CALLDATASIZE SUB DUP2 ADD SWAP1 PUSH2 0x248 SWAP2 SWAP1 PUSH2 0x3005 JUMP JUMPDEST PUSH2 0x7ED JUMP JUMPDEST PUSH1 0x40 MLOAD PUSH2 0x25A SWAP2 SWAP1 PUSH2 0x2F70 JUMP JUMPDEST PUSH1 0x40 MLOAD DUP1 SWAP2 SUB SWAP1 RETURN JUMPDEST PUSH2 0x26B PUSH2 0x81C JUMP JUMPDEST PUSH1 0x40 MLOAD PUSH2 0x278 SWAP2 SWAP1 PUSH2 0x3074 JUMP JUMPDEST PUSH1 0x40 MLOAD DUP1 SWAP2 SUB SWAP1 RETURN JUMPDEST PUSH2 0x29B PUSH1 0x4 DUP1 CALLDATASIZE SUB DUP2 ADD SWAP1 PUSH2 0x296 SWAP2 SWAP1 PUSH2 0x2F15 JUMP JUMPDEST PUSH2 0x825 JUMP JUMPDEST PUSH1 0x40 MLOAD PUSH2 0x2A8 SWAP2 SWAP1 PUSH2 0x2F70 JUMP JUMPDEST PUSH1 0x40 MLOAD DUP1 SWAP2 SUB SWAP1 RETURN JUMPDEST PUSH2 0x2B9 PUSH2 0x85C JUMP JUMPDEST PUSH1 0x40 MLOAD PUSH2 0x2C6 SWAP2 SWAP1 PUSH2 0x2FEA JUMP JUMPDEST PUSH1 0x40 MLOAD DUP1 SWAP2 SUB SWAP1 RETURN JUMPDEST PUSH2 0x2E9 PUSH1 0x4 DUP1 CALLDATASIZE SUB DUP2 ADD SWAP1 PUSH2 0x2E4 SWAP2 SWAP1 PUSH2 0x308F JUMP JUMPDEST PUSH2 0x880 JUMP JUMPDEST PUSH1 0x40 MLOAD PUSH2 0x2F6 SWAP2 SWAP1 PUSH2 0x2DC1 JUMP JUMPDEST PUSH1 0x40 MLOAD DUP1 SWAP2 SUB SWAP1 RETURN JUMPDEST PUSH2 0x319 PUSH1 0x4 DUP1 CALLDATASIZE SUB DUP2 ADD SWAP1 PUSH2 0x314 SWAP2 SWAP1 PUSH2 0x2D5F JUMP JUMPDEST PUSH2 0x8C8 JUMP JUMPDEST PUSH1 0x40 MLOAD PUSH2 0x326 SWAP2 SWAP1 PUSH2 0x2DC1 JUMP JUMPDEST PUSH1 0x40 MLOAD DUP1 SWAP2 SUB SWAP1 RETURN JUMPDEST PUSH2 0x337 PUSH2 0xB63 JUMP JUMPDEST PUSH1 0x40 MLOAD PUSH2 0x344 SWAP2 SWAP1 PUSH2 0x2E6C JUMP JUMPDEST PUSH1 0x40 MLOAD DUP1 SWAP2 SUB SWAP1 RETURN JUMPDEST PUSH2 0x367 PUSH1 0x4 DUP1 CALLDATASIZE SUB DUP2 ADD SWAP1 PUSH2 0x362 SWAP2 SWAP1 PUSH2 0x30BC JUMP JUMPDEST PUSH2 0xBF5 JUMP JUMPDEST PUSH1 0x40 MLOAD PUSH2 0x374 SWAP2 SWAP1 PUSH2 0x2DC1 JUMP JUMPDEST PUSH1 0x40 MLOAD DUP1 SWAP2 SUB SWAP1 RETURN JUMPDEST PUSH2 0x397 PUSH1 0x4 DUP1 CALLDATASIZE SUB DUP2 ADD SWAP1 PUSH2 0x392 SWAP2 SWAP1 PUSH2 0x2F15 JUMP JUMPDEST PUSH2 0x143A JUMP JUMPDEST PUSH1 0x40 MLOAD PUSH2 0x3A4 SWAP2 SWAP1 PUSH2 0x2F70 JUMP JUMPDEST PUSH1 0x40 MLOAD DUP1 SWAP2 SUB SWAP1 RETURN JUMPDEST PUSH2 0x3C7 PUSH1 0x4 DUP1 CALLDATASIZE SUB DUP2 ADD SWAP1 PUSH2 0x3C2 SWAP2 SWAP1 PUSH2 0x2F15 JUMP JUMPDEST PUSH2 0x14B1 JUMP JUMPDEST PUSH1 0x40 MLOAD PUSH2 0x3D4 SWAP2 SWAP1 PUSH2 0x2F70 JUMP JUMPDEST PUSH1 0x40 MLOAD DUP1 SWAP2 SUB SWAP1 RETURN JUMPDEST PUSH2 0x3F7 PUSH1 0x4 DUP1 CALLDATASIZE SUB DUP2 ADD SWAP1 PUSH2 0x3F2 SWAP2 SWAP1 PUSH2 0x310F JUMP JUMPDEST PUSH2 0x14D4 JUMP JUMPDEST PUSH1 0x40 MLOAD PUSH2 0x405 SWAP3 SWAP2 SWAP1 PUSH2 0x2E8E JUMP JUMPDEST PUSH1 0x40 MLOAD DUP1 SWAP2 SUB SWAP1 RETURN JUMPDEST PUSH2 0x416 PUSH2 0x19F2 JUMP JUMPDEST PUSH1 0x40 MLOAD PUSH2 0x423 SWAP2 SWAP1 PUSH2 0x2DC1 JUMP JUMPDEST PUSH1 0x40 MLOAD DUP1 SWAP2 SUB SWAP1 RETURN JUMPDEST PUSH2 0x446 PUSH1 0x4 DUP1 CALLDATASIZE SUB DUP2 ADD SWAP1 PUSH2 0x441 SWAP2 SWAP1 PUSH2 0x313C JUMP JUMPDEST PUSH2 0x19F8 JUMP JUMPDEST PUSH1 0x40 MLOAD PUSH2 0x453 SWAP2 SWAP1 PUSH2 0x2DC1 JUMP JUMPDEST PUSH1 0x40 MLOAD DUP1 SWAP2 SUB SWAP1 RETURN JUMPDEST PUSH2 0x476 PUSH1 0x4 DUP1 CALLDATASIZE SUB DUP2 ADD SWAP1 PUSH2 0x471 SWAP2 SWAP1 PUSH2 0x317C JUMP JUMPDEST PUSH2 0x1A7F JUMP JUMPDEST PUSH1 0x40 MLOAD PUSH2 0x483 SWAP2 SWAP1 PUSH2 0x2DC1 JUMP JUMPDEST PUSH1 0x40 MLOAD DUP1 SWAP2 SUB SWAP1 RETURN JUMPDEST PUSH1 0x0 PUSH2 0x4A2 PUSH8 0x969366B48275DFBC PUSH1 0xC0 SHL PUSH2 0x20E0 JUMP JUMPDEST PUSH2 0x4B6 PUSH8 0x94C707B9E8F2523F PUSH1 0xC0 SHL PUSH2 0x20E0 JUMP JUMPDEST PUSH2 0x4CA PUSH8 0x7AFEC39F045FCB79 PUSH1 0xC0 SHL PUSH2 0x20E0 JUMP JUMPDEST PUSH2 0x4DE PUSH8 0x70D324DE3282987E PUSH1 0xC0 SHL PUSH2 0x20E0 JUMP JUMPDEST PUSH1 0x0 DUP5 GT PUSH2 0x521 JUMPI PUSH1 0x40 MLOAD PUSH32 0x8C379A000000000000000000000000000000000000000000000000000000000 DUP2 MSTORE PUSH1 0x4 ADD PUSH2 0x518 SWAP1 PUSH2 0x3208 JUMP JUMPDEST PUSH1 0x40 MLOAD DUP1 SWAP2 SUB SWAP1 REVERT JUMPDEST PUSH2 0x535 PUSH8 0x3FD1EC74EA770D6B PUSH1 0xC0 SHL PUSH2 0x20E0 JUMP JUMPDEST PUSH2 0x549 PUSH8 0x95B30A8DB5844BA8 PUSH1 0xC0 SHL PUSH2 0x20E0 JUMP JUMPDEST PUSH2 0x55D PUSH8 0xD1EA6DC3B42166EC PUSH1 0xC0 SHL PUSH2 0x20E0 JUMP JUMPDEST PUSH2 0x571 PUSH8 0xE193066BC402007C PUSH1 0xC0 SHL PUSH2 0x20E0 JUMP JUMPDEST PUSH1 0x0 DUP4 GT DUP1 ISZERO PUSH2 0x581 JUMPI POP PUSH1 0x0 DUP3 GT JUMPDEST PUSH2 0x5C0 JUMPI PUSH1 0x40 MLOAD PUSH32 0x8C379A000000000000000000000000000000000000000000000000000000000 DUP2 MSTORE PUSH1 0x4 ADD PUSH2 0x5B7 SWAP1 PUSH2 0x3274 JUMP JUMPDEST PUSH1 0x40 MLOAD DUP1 SWAP2 SUB SWAP1 REVERT JUMPDEST PUSH2 0x5D4 PUSH8 0x71BD8DA18663A086 PUSH1 0xC0 SHL PUSH2 0x20E0 JUMP JUMPDEST PUSH2 0x5E8 PUSH8 0xB96CCEA7E2E2FEAB PUSH1 0xC0 SHL PUSH2 0x20E0 JUMP JUMPDEST PUSH2 0x5FC PUSH8 0x8A57F8F9B7064C59 PUSH1 0xC0 SHL PUSH2 0x20E0 JUMP JUMPDEST PUSH1 0x0 PUSH2 0x3E5 DUP6 PUSH2 0x60C SWAP2 SWAP1 PUSH2 0x32C3 JUMP JUMPDEST SWAP1 POP PUSH2 0x622 PUSH8 0xBC0BF9A1A09A013B PUSH1 0xC0 SHL PUSH2 0x20E0 JUMP JUMPDEST PUSH2 0x636 PUSH8 0x991E0C9777C3190C PUSH1 0xC0 SHL PUSH2 0x20E0 JUMP JUMPDEST PUSH1 0x0 DUP4 DUP3 PUSH2 0x644 SWAP2 SWAP1 PUSH2 0x32C3 JUMP JUMPDEST SWAP1 POP PUSH2 0x65A PUSH8 0x7469A91A3AC5491A PUSH1 0xC0 SHL PUSH2 0x20E0 JUMP JUMPDEST PUSH2 0x66E PUSH8 0x291F449CD4ABAB28 PUSH1 0xC0 SHL PUSH2 0x20E0 JUMP JUMPDEST PUSH1 0x0 DUP3 PUSH2 0x3E8 DUP8 PUSH2 0x67F SWAP2 SWAP1 PUSH2 0x32C3 JUMP JUMPDEST PUSH2 0x689 SWAP2 SWAP1 PUSH2 0x3305 JUMP JUMPDEST SWAP1 POP PUSH2 0x69F PUSH8 0xF3EDF7ACC9B462EE PUSH1 0xC0 SHL PUSH2 0x20E0 JUMP JUMPDEST DUP1 DUP3 PUSH2 0x6AB SWAP2 SWAP1 PUSH2 0x3368 JUMP JUMPDEST SWAP4 POP POP POP POP SWAP4 SWAP3 POP POP POP JUMP JUMPDEST PUSH1 0x60 PUSH1 0x3 DUP1 SLOAD PUSH2 0x6C6 SWAP1 PUSH2 0x33C8 JUMP JUMPDEST DUP1 PUSH1 0x1F ADD PUSH1 0x20 DUP1 SWAP2 DIV MUL PUSH1 0x20 ADD PUSH1 0x40 MLOAD SWAP1 DUP2 ADD PUSH1 0x40 MSTORE DUP1 SWAP3 SWAP2 SWAP1 DUP2 DUP2 MSTORE PUSH1 0x20 ADD DUP3 DUP1 SLOAD PUSH2 0x6F2 SWAP1 PUSH2 0x33C8 JUMP JUMPDEST DUP1 ISZERO PUSH2 0x73F JUMPI DUP1 PUSH1 0x1F LT PUSH2 0x714 JUMPI PUSH2 0x100 DUP1 DUP4 SLOAD DIV MUL DUP4 MSTORE SWAP2 PUSH1 0x20 ADD SWAP2 PUSH2 0x73F JUMP JUMPDEST DUP3 ADD SWAP2 SWAP1 PUSH1 0x0 MSTORE PUSH1 0x20 PUSH1 0x0 KECCAK256 SWAP1 JUMPDEST DUP2 SLOAD DUP2 MSTORE SWAP1 PUSH1 0x1 ADD SWAP1 PUSH1 0x20 ADD DUP1 DUP4 GT PUSH2 0x722 JUMPI DUP3 SWAP1 SUB PUSH1 0x1F AND DUP3 ADD SWAP2 JUMPDEST POP POP POP POP POP SWAP1 POP SWAP1 JUMP JUMPDEST PUSH1 0x0 DUP1 PUSH2 0x760 PUSH8 0x1CB77D6BAF2DC968 PUSH1 0xC0 SHL PUSH2 0x20E0 JUMP JUMPDEST PUSH2 0x774 PUSH8 0xEE7C5A190B0A5D76 PUSH1 0xC0 SHL PUSH2 0x20E0 JUMP JUMPDEST PUSH1 0x6 SLOAD SWAP2 POP PUSH2 0x78D PUSH8 0xC3D8B02F515C43E4 PUSH1 0xC0 SHL PUSH2 0x20E0 JUMP JUMPDEST PUSH1 0x7 SLOAD SWAP1 POP SWAP1 SWAP2 JUMP JUMPDEST PUSH1 0x0 DUP1 PUSH2 0x7A1 PUSH2 0x20E3 JUMP JUMPDEST SWAP1 POP PUSH2 0x7AE DUP2 DUP6 DUP6 PUSH2 0x20EB JUMP JUMPDEST PUSH1 0x1 SWAP2 POP POP SWAP3 SWAP2 POP POP JUMP JUMPDEST PUSH32 0x0 DUP2 JUMP JUMPDEST PUSH1 0x0 PUSH1 0x2 SLOAD SWAP1 POP SWAP1 JUMP JUMPDEST PUSH1 0x7 SLOAD DUP2 JUMP JUMPDEST PUSH1 0x0 DUP1 PUSH2 0x7F8 PUSH2 0x20E3 JUMP JUMPDEST SWAP1 POP PUSH2 0x805 DUP6 DUP3 DUP6 PUSH2 0x22B4 JUMP JUMPDEST PUSH2 0x810 DUP6 DUP6 DUP6 PUSH2 0x2340 JUMP JUMPDEST PUSH1 0x1 SWAP2 POP POP SWAP4 SWAP3 POP POP POP JUMP JUMPDEST PUSH1 0x0 PUSH1 0x12 SWAP1 POP SWAP1 JUMP JUMPDEST PUSH1 0x0 DUP1 PUSH2 0x830 PUSH2 0x20E3 JUMP JUMPDEST SWAP1 POP PUSH2 0x851 DUP2 DUP6 DUP6 PUSH2 0x842 DUP6 DUP10 PUSH2 0x19F8 JUMP JUMPDEST PUSH2 0x84C SWAP2 SWAP1 PUSH2 0x3305 JUMP JUMPDEST PUSH2 0x20EB JUMP JUMPDEST PUSH1 0x1 SWAP2 POP POP SWAP3 SWAP2 POP POP JUMP JUMPDEST PUSH32 0x0 DUP2 JUMP JUMPDEST PUSH1 0x0 DUP1 PUSH1 0x0 DUP4 PUSH20 0xFFFFFFFFFFFFFFFFFFFFFFFFFFFFFFFFFFFFFFFF AND PUSH20 0xFFFFFFFFFFFFFFFFFFFFFFFFFFFFFFFFFFFFFFFF AND DUP2 MSTORE PUSH1 0x20 ADD SWAP1 DUP2 MSTORE PUSH1 0x20 ADD PUSH1 0x0 KECCAK256 SLOAD SWAP1 POP SWAP2 SWAP1 POP JUMP JUMPDEST PUSH1 0x0 PUSH2 0x8DE PUSH8 0x6BD4006F66C45A9A PUSH1 0xC0 SHL PUSH2 0x20E0 JUMP JUMPDEST PUSH2 0x8F2 PUSH8 0xB011C24CEA0EBC9D PUSH1 0xC0 SHL PUSH2 0x20E0 JUMP JUMPDEST PUSH2 0x906 PUSH8 0x324877A4778F0B84 PUSH1 0xC0 SHL PUSH2 0x20E0 JUMP JUMPDEST PUSH2 0x91A PUSH8 0x35108E0511E16A30 PUSH1 0xC0 SHL PUSH2 0x20E0 JUMP JUMPDEST PUSH1 0x0 DUP5 GT PUSH2 0x95D JUMPI PUSH1 0x40 MLOAD PUSH32 0x8C379A000000000000000000000000000000000000000000000000000000000 DUP2 MSTORE PUSH1 0x4 ADD PUSH2 0x954 SWAP1 PUSH2 0x3445 JUMP JUMPDEST PUSH1 0x40 MLOAD DUP1 SWAP2 SUB SWAP1 REVERT JUMPDEST PUSH2 0x971 PUSH8 0xCE13F15FED5A4CEA PUSH1 0xC0 SHL PUSH2 0x20E0 JUMP JUMPDEST PUSH2 0x985 PUSH8 0x4BBC78C4160A2A8D PUSH1 0xC0 SHL PUSH2 0x20E0 JUMP JUMPDEST PUSH2 0x999 PUSH8 0x23619AA40676D500 PUSH1 0xC0 SHL PUSH2 0x20E0 JUMP JUMPDEST PUSH2 0x9AD PUSH8 0x16EB87A2C7EF1C37 PUSH1 0xC0 SHL PUSH2 0x20E0 JUMP JUMPDEST PUSH1 0x0 DUP4 GT DUP1 ISZERO PUSH2 0x9BD JUMPI POP PUSH1 0x0 DUP3 GT JUMPDEST PUSH2 0x9FC JUMPI PUSH1 0x40 MLOAD PUSH32 0x8C379A000000000000000000000000000000000000000000000000000000000 DUP2 MSTORE PUSH1 0x4 ADD PUSH2 0x9F3 SWAP1 PUSH2 0x3274 JUMP JUMPDEST PUSH1 0x40 MLOAD DUP1 SWAP2 SUB SWAP1 REVERT JUMPDEST PUSH2 0xA10 PUSH8 0x16C81FA862B09B7B PUSH1 0xC0 SHL PUSH2 0x20E0 JUMP JUMPDEST PUSH2 0xA24 PUSH8 0x8549B218904D0CEA PUSH1 0xC0 SHL PUSH2 0x20E0 JUMP JUMPDEST PUSH2 0xA38 PUSH8 0x9615889376284216 PUSH1 0xC0 SHL PUSH2 0x20E0 JUMP JUMPDEST PUSH2 0xA4C PUSH8 0x6F9740F7EAD7066B PUSH1 0xC0 SHL PUSH2 0x20E0 JUMP JUMPDEST DUP2 DUP5 LT PUSH2 0xA8E JUMPI PUSH1 0x40 MLOAD PUSH32 0x8C379A000000000000000000000000000000000000000000000000000000000 DUP2 MSTORE PUSH1 0x4 ADD PUSH2 0xA85 SWAP1 PUSH2 0x3274 JUMP JUMPDEST PUSH1 0x40 MLOAD DUP1 SWAP2 SUB SWAP1 REVERT JUMPDEST PUSH2 0xAA2 PUSH8 0xF56B40BA43C339C6 PUSH1 0xC0 SHL PUSH2 0x20E0 JUMP JUMPDEST PUSH2 0xAB6 PUSH8 0x7D14B8FE30B767F7 PUSH1 0xC0 SHL PUSH2 0x20E0 JUMP JUMPDEST PUSH2 0xACA PUSH8 0x3163876A20B427A7 PUSH1 0xC0 SHL PUSH2 0x20E0 JUMP JUMPDEST PUSH1 0x0 PUSH2 0x3E8 DUP6 DUP6 PUSH2 0xADB SWAP2 SWAP1 PUSH2 0x32C3 JUMP JUMPDEST PUSH2 0xAE5 SWAP2 SWAP1 PUSH2 0x32C3 JUMP JUMPDEST SWAP1 POP PUSH2 0xAFB PUSH8 0x279778B3073FE855 PUSH1 0xC0 SHL PUSH2 0x20E0 JUMP JUMPDEST PUSH2 0xB0F PUSH8 0xBA7601C8FF3BFF1D PUSH1 0xC0 SHL PUSH2 0x20E0 JUMP JUMPDEST PUSH1 0x0 PUSH2 0x3E5 DUP7 DUP6 PUSH2 0xB20 SWAP2 SWAP1 PUSH2 0x3465 JUMP JUMPDEST PUSH2 0xB2A SWAP2 SWAP1 PUSH2 0x32C3 JUMP JUMPDEST SWAP1 POP PUSH2 0xB40 PUSH8 0x882BC68DAFE24471 PUSH1 0xC0 SHL PUSH2 0x20E0 JUMP JUMPDEST PUSH1 0x1 DUP2 DUP4 PUSH2 0xB4E SWAP2 SWAP1 PUSH2 0x3368 JUMP JUMPDEST PUSH2 0xB58 SWAP2 SWAP1 PUSH2 0x3305 JUMP JUMPDEST SWAP3 POP POP POP SWAP4 SWAP3 POP POP POP JUMP JUMPDEST PUSH1 0x60 PUSH1 0x4 DUP1 SLOAD PUSH2 0xB72 SWAP1 PUSH2 0x33C8 JUMP JUMPDEST DUP1 PUSH1 0x1F ADD PUSH1 0x20 DUP1 SWAP2 DIV MUL PUSH1 0x20 ADD PUSH1 0x40 MLOAD SWAP1 DUP2 ADD PUSH1 0x40 MSTORE DUP1 SWAP3 SWAP2 SWAP1 DUP2 DUP2 MSTORE PUSH1 0x20 ADD DUP3 DUP1 SLOAD PUSH2 0xB9E SWAP1 PUSH2 0x33C8 JUMP JUMPDEST DUP1 ISZERO PUSH2 0xBEB JUMPI DUP1 PUSH1 0x1F LT PUSH2 0xBC0 JUMPI PUSH2 0x100 DUP1 DUP4 SLOAD DIV MUL DUP4 MSTORE SWAP2 PUSH1 0x20 ADD SWAP2 PUSH2 0xBEB JUMP JUMPDEST DUP3 ADD SWAP2 SWAP1 PUSH1 0x0 MSTORE PUSH1 0x20 PUSH1 0x0 KECCAK256 SWAP1 JUMPDEST DUP2 SLOAD DUP2 MSTORE SWAP1 PUSH1 0x1 ADD SWAP1 PUSH1 0x20 ADD DUP1 DUP4 GT PUSH2 0xBCE JUMPI DUP3 SWAP1 SUB PUSH1 0x1F AND DUP3 ADD SWAP2 JUMPDEST POP POP POP POP POP SWAP1 POP SWAP1 JUMP JUMPDEST PUSH1 0x0 PUSH2 0xC0B PUSH8 0x6E3F5486DF4A6F56 PUSH1 0xC0 SHL PUSH2 0x20E0 JUMP JUMPDEST PUSH2 0xC13 PUSH2 0x25B6 JUMP JUMPDEST PUSH2 0xC27 PUSH8 0xD81342384811315C PUSH1 0xC0 SHL PUSH2 0x20E0 JUMP JUMPDEST PUSH2 0xC3B PUSH8 0xB0700509EA1C3F7C PUSH1 0xC0 SHL PUSH2 0x20E0 JUMP JUMPDEST PUSH2 0xC4F PUSH8 0x8911B16B73EC0CAB PUSH1 0xC0 SHL PUSH2 0x20E0 JUMP JUMPDEST PUSH2 0xC63 PUSH8 0xB38D4B23D988A0E0 PUSH1 0xC0 SHL PUSH2 0x20E0 JUMP JUMPDEST PUSH2 0xC77 PUSH8 0xF030B15B90E3271D PUSH1 0xC0 SHL PUSH2 0x20E0 JUMP JUMPDEST PUSH1 0x0 DUP4 GT PUSH2 0xCBA JUMPI PUSH1 0x40 MLOAD PUSH32 0x8C379A000000000000000000000000000000000000000000000000000000000 DUP2 MSTORE PUSH1 0x4 ADD PUSH2 0xCB1 SWAP1 PUSH2 0x3208 JUMP JUMPDEST PUSH1 0x40 MLOAD DUP1 SWAP2 SUB SWAP1 REVERT JUMPDEST PUSH2 0xCCE PUSH8 0xB7FCCC3C751E1767 PUSH1 0xC0 SHL PUSH2 0x20E0 JUMP JUMPDEST PUSH2 0xCE2 PUSH8 0xC7140082D8FF6907 PUSH1 0xC0 SHL PUSH2 0x20E0 JUMP JUMPDEST PUSH2 0xCF5 PUSH7 0x94C5F865208EC6 PUSH1 0xC0 SHL PUSH2 0x20E0 JUMP JUMPDEST PUSH2 0xD09 PUSH8 0xE79F71262600E094 PUSH1 0xC0 SHL PUSH2 0x20E0 JUMP JUMPDEST PUSH32 0x0 PUSH20 0xFFFFFFFFFFFFFFFFFFFFFFFFFFFFFFFFFFFFFFFF AND DUP5 PUSH20 0xFFFFFFFFFFFFFFFFFFFFFFFFFFFFFFFFFFFFFFFF AND EQ DUP1 ISZERO PUSH2 0xD74 JUMPI POP PUSH2 0xD73 PUSH8 0x5375D89352C4D94F PUSH1 0xC0 SHL PUSH2 0x2605 JUMP JUMPDEST JUMPDEST DUP1 PUSH2 0xDE6 JUMPI POP PUSH32 0x0 PUSH20 0xFFFFFFFFFFFFFFFFFFFFFFFFFFFFFFFFFFFFFFFF AND DUP5 PUSH20 0xFFFFFFFFFFFFFFFFFFFFFFFFFFFFFFFFFFFFFFFF AND EQ DUP1 ISZERO PUSH2 0xDE5 JUMPI POP PUSH2 0xDE4 PUSH8 0x951B7743C2BF58E0 PUSH1 0xC0 SHL PUSH2 0x2605 JUMP JUMPDEST JUMPDEST JUMPDEST PUSH2 0xE25 JUMPI PUSH1 0x40 MLOAD PUSH32 0x8C379A000000000000000000000000000000000000000000000000000000000 DUP2 MSTORE PUSH1 0x4 ADD PUSH2 0xE1C SWAP1 PUSH2 0x34E5 JUMP JUMPDEST PUSH1 0x40 MLOAD DUP1 SWAP2 SUB SWAP1 REVERT JUMPDEST PUSH2 0xE39 PUSH8 0x9EF3C96EE7047C3D PUSH1 0xC0 SHL PUSH2 0x20E0 JUMP JUMPDEST PUSH2 0xE4D PUSH8 0xBA2DDD2897652207 PUSH1 0xC0 SHL PUSH2 0x20E0 JUMP JUMPDEST PUSH2 0xE61 PUSH8 0x448FEBFBFF4EB439 PUSH1 0xC0 SHL PUSH2 0x20E0 JUMP JUMPDEST PUSH1 0x0 PUSH32 0x0 PUSH20 0xFFFFFFFFFFFFFFFFFFFFFFFFFFFFFFFFFFFFFFFF AND DUP6 PUSH20 0xFFFFFFFFFFFFFFFFFFFFFFFFFFFFFFFFFFFFFFFF AND EQ SWAP1 POP PUSH2 0xEC8 PUSH8 0x484316B5C3D97E33 PUSH1 0xC0 SHL PUSH2 0x20E0 JUMP JUMPDEST PUSH2 0xEDC PUSH8 0x6C8BAFCFCE406E4A PUSH1 0xC0 SHL PUSH2 0x20E0 JUMP JUMPDEST PUSH1 0x0 DUP1 DUP3 DUP1 PUSH2 0xEFB JUMPI POP PUSH2 0xEFA PUSH8 0x69284E1E5AA9DE92 PUSH1 0xC0 SHL PUSH2 0x2610 JUMP JUMPDEST JUMPDEST DUP1 ISZERO PUSH2 0xF17 JUMPI POP PUSH2 0xF16 PUSH8 0x6F8464B3C065CBAE PUSH1 0xC0 SHL PUSH2 0x2605 JUMP JUMPDEST JUMPDEST PUSH2 0xF26 JUMPI PUSH1 0x7 SLOAD PUSH1 0x6 SLOAD PUSH2 0xF2D JUMP JUMPDEST PUSH1 0x6 SLOAD PUSH1 0x7 SLOAD JUMPDEST SWAP2 POP SWAP2 POP PUSH2 0xF45 PUSH8 0x82D3BC91772452CB PUSH1 0xC0 SHL PUSH2 0x20E0 JUMP JUMPDEST PUSH2 0xF59 PUSH8 0xF380EC063097C685 PUSH1 0xC0 SHL PUSH2 0x20E0 JUMP JUMPDEST DUP7 PUSH20 0xFFFFFFFFFFFFFFFFFFFFFFFFFFFFFFFFFFFFFFFF AND PUSH4 0x23B872DD CALLER ADDRESS DUP10 PUSH1 0x40 MLOAD DUP5 PUSH4 0xFFFFFFFF AND PUSH1 0xE0 SHL DUP2 MSTORE PUSH1 0x4 ADD PUSH2 0xF96 SWAP4 SWAP3 SWAP2 SWAP1 PUSH2 0x3514 JUMP JUMPDEST PUSH1 0x20 PUSH1 0x40 MLOAD DUP1 DUP4 SUB DUP2 PUSH1 0x0 DUP8 GAS CALL ISZERO DUP1 ISZERO PUSH2 0xFB5 JUMPI RETURNDATASIZE PUSH1 0x0 DUP1 RETURNDATACOPY RETURNDATASIZE PUSH1 0x0 REVERT JUMPDEST POP POP POP POP PUSH1 0x40 MLOAD RETURNDATASIZE PUSH1 0x1F NOT PUSH1 0x1F DUP3 ADD AND DUP3 ADD DUP1 PUSH1 0x40 MSTORE POP DUP2 ADD SWAP1 PUSH2 0xFD9 SWAP2 SWAP1 PUSH2 0x3577 JUMP JUMPDEST POP PUSH2 0xFEE PUSH8 0x1A1E1F1CD5A8BE31 PUSH1 0xC0 SHL PUSH2 0x20E0 JUMP JUMPDEST PUSH2 0x1002 PUSH8 0xAACE455D81E6EBF3 PUSH1 0xC0 SHL PUSH2 0x20E0 JUMP JUMPDEST PUSH1 0x0 PUSH2 0x3E5 DUP8 PUSH2 0x1012 SWAP2 SWAP1 PUSH2 0x32C3 JUMP JUMPDEST SWAP1 POP PUSH2 0x1028 PUSH8 0xBE43A052D8914B31 PUSH1 0xC0 SHL PUSH2 0x20E0 JUMP JUMPDEST DUP1 PUSH2 0x3E8 DUP5 PUSH2 0x1037 SWAP2 SWAP1 PUSH2 0x32C3 JUMP JUMPDEST PUSH2 0x1041 SWAP2 SWAP1 PUSH2 0x3305 JUMP JUMPDEST DUP3 DUP3 PUSH2 0x104D SWAP2 SWAP1 PUSH2 0x32C3 JUMP JUMPDEST PUSH2 0x1057 SWAP2 SWAP1 PUSH2 0x3368 JUMP JUMPDEST SWAP5 POP PUSH2 0x106D PUSH8 0xE3CC7400BA077EC6 PUSH1 0xC0 SHL PUSH2 0x20E0 JUMP JUMPDEST PUSH2 0x1081 PUSH8 0x2FCF5836087D04ED PUSH1 0xC0 SHL PUSH2 0x20E0 JUMP JUMPDEST PUSH2 0x1095 PUSH8 0x305D58952145ACB PUSH1 0xC0 SHL PUSH2 0x20E0 JUMP JUMPDEST DUP6 DUP6 LT ISZERO PUSH2 0x10D8 JUMPI PUSH1 0x40 MLOAD PUSH32 0x8C379A000000000000000000000000000000000000000000000000000000000 DUP2 MSTORE PUSH1 0x4 ADD PUSH2 0x10CF SWAP1 PUSH2 0x3445 JUMP JUMPDEST PUSH1 0x40 MLOAD DUP1 SWAP2 SUB SWAP1 REVERT JUMPDEST PUSH2 0x10EC PUSH8 0xBFB045821298FAFA PUSH1 0xC0 SHL PUSH2 0x20E0 JUMP JUMPDEST PUSH2 0x1100 PUSH8 0xE162DDAF80C2292A PUSH1 0xC0 SHL PUSH2 0x20E0 JUMP JUMPDEST PUSH2 0x1114 PUSH8 0xA7B0E6996BE6D24D PUSH1 0xC0 SHL PUSH2 0x20E0 JUMP JUMPDEST PUSH2 0x1128 PUSH8 0x805D2C4D119C69E0 PUSH1 0xC0 SHL PUSH2 0x20E0 JUMP JUMPDEST PUSH1 0x0 DUP6 GT PUSH2 0x116B JUMPI PUSH1 0x40 MLOAD PUSH32 0x8C379A000000000000000000000000000000000000000000000000000000000 DUP2 MSTORE PUSH1 0x4 ADD PUSH2 0x1162 SWAP1 PUSH2 0x3274 JUMP JUMPDEST PUSH1 0x40 MLOAD DUP1 SWAP2 SUB SWAP1 REVERT JUMPDEST PUSH2 0x117F PUSH8 0x5912E8BC9284FFA9 PUSH1 0xC0 SHL PUSH2 0x20E0 JUMP JUMPDEST PUSH2 0x1192 PUSH7 0xD88C9FE5B14833 PUSH1 0xC0 SHL PUSH2 0x20E0 JUMP JUMPDEST PUSH2 0x11A6 PUSH8 0xE629AE5F117B52EF PUSH1 0xC0 SHL PUSH2 0x20E0 JUMP JUMPDEST DUP4 ISZERO PUSH2 0x128C JUMPI PUSH2 0x11C0 PUSH8 0x2AD2C90888A582BA PUSH1 0xC0 SHL PUSH2 0x20E0 JUMP JUMPDEST PUSH2 0x11D4 PUSH8 0x35363A6F293A0D53 PUSH1 0xC0 SHL PUSH2 0x20E0 JUMP JUMPDEST PUSH2 0x11E8 PUSH8 0xC2E5FD677D44386A PUSH1 0xC0 SHL PUSH2 0x20E0 JUMP JUMPDEST PUSH32 0x0 PUSH20 0xFFFFFFFFFFFFFFFFFFFFFFFFFFFFFFFFFFFFFFFF AND PUSH4 0xA9059CBB CALLER DUP8 PUSH1 0x40 MLOAD DUP4 PUSH4 0xFFFFFFFF AND PUSH1 0xE0 SHL DUP2 MSTORE PUSH1 0x4 ADD PUSH2 0x1243 SWAP3 SWAP2 SWAP1 PUSH2 0x35A4 JUMP JUMPDEST PUSH1 0x20 PUSH1 0x40 MLOAD DUP1 DUP4 SUB DUP2 PUSH1 0x0 DUP8 GAS CALL ISZERO DUP1 ISZERO PUSH2 0x1262 JUMPI RETURNDATASIZE PUSH1 0x0 DUP1 RETURNDATACOPY RETURNDATASIZE PUSH1 0x0 REVERT JUMPDEST POP POP POP POP PUSH1 0x40 MLOAD RETURNDATASIZE PUSH1 0x1F NOT PUSH1 0x1F DUP3 ADD AND DUP3 ADD DUP1 PUSH1 0x40 MSTORE POP DUP2 ADD SWAP1 PUSH2 0x1286 SWAP2 SWAP1 PUSH2 0x3577 JUMP JUMPDEST POP PUSH2 0x1368 JUMP JUMPDEST PUSH2 0x12A0 PUSH8 0x567A4B8C0E74729 PUSH1 0xC0 SHL PUSH2 0x20E0 JUMP JUMPDEST PUSH2 0x12B4 PUSH8 0x8D250891F2B873B PUSH1 0xC0 SHL PUSH2 0x20E0 JUMP JUMPDEST PUSH2 0x12C8 PUSH8 0xEA3309B9BACB87F4 PUSH1 0xC0 SHL PUSH2 0x20E0 JUMP JUMPDEST PUSH32 0x0 PUSH20 0xFFFFFFFFFFFFFFFFFFFFFFFFFFFFFFFFFFFFFFFF AND PUSH4 0xA9059CBB CALLER DUP8 PUSH1 0x40 MLOAD DUP4 PUSH4 0xFFFFFFFF AND PUSH1 0xE0 SHL DUP2 MSTORE PUSH1 0x4 ADD PUSH2 0x1323 SWAP3 SWAP2 SWAP1 PUSH2 0x35A4 JUMP JUMPDEST PUSH1 0x20 PUSH1 0x40 MLOAD DUP1 DUP4 SUB DUP2 PUSH1 0x0 DUP8 GAS CALL ISZERO DUP1 ISZERO PUSH2 0x1342 JUMPI RETURNDATASIZE PUSH1 0x0 DUP1 RETURNDATACOPY RETURNDATASIZE PUSH1 0x0 REVERT JUMPDEST POP POP POP POP PUSH1 0x40 MLOAD RETURNDATASIZE PUSH1 0x1F NOT PUSH1 0x1F DUP3 ADD AND DUP3 ADD DUP1 PUSH1 0x40 MSTORE POP DUP2 ADD SWAP1 PUSH2 0x1366 SWAP2 SWAP1 PUSH2 0x3577 JUMP JUMPDEST POP JUMPDEST PUSH2 0x137C PUSH8 0x727B914563D7E05E PUSH1 0xC0 SHL PUSH2 0x20E0 JUMP JUMPDEST PUSH2 0x1390 PUSH8 0x8067AFA8A679CA2D PUSH1 0xC0 SHL PUSH2 0x20E0 JUMP JUMPDEST PUSH2 0x1398 PUSH2 0x2617 JUMP JUMPDEST PUSH2 0x13AC PUSH8 0xB262FC16280B50BE PUSH1 0xC0 SHL PUSH2 0x20E0 JUMP JUMPDEST PUSH2 0x13C0 PUSH8 0xD99DBB51E2AA3CB6 PUSH1 0xC0 SHL PUSH2 0x20E0 JUMP JUMPDEST DUP8 PUSH20 0xFFFFFFFFFFFFFFFFFFFFFFFFFFFFFFFFFFFFFFFF AND CALLER PUSH20 0xFFFFFFFFFFFFFFFFFFFFFFFFFFFFFFFFFFFFFFFF AND PUSH32 0xFA2DDA1CC1B86E41239702756B13EFFBC1A092B5C57E3AD320FBE4F3B13FE235 DUP10 DUP9 PUSH1 0x40 MLOAD PUSH2 0x141F SWAP3 SWAP2 SWAP1 PUSH2 0x2E8E JUMP JUMPDEST PUSH1 0x40 MLOAD DUP1 SWAP2 SUB SWAP1 LOG3 POP POP POP POP PUSH2 0x1433 PUSH2 0x27FA JUMP JUMPDEST SWAP4 SWAP3 POP POP POP JUMP JUMPDEST PUSH1 0x0 DUP1 PUSH2 0x1445 PUSH2 0x20E3 JUMP JUMPDEST SWAP1 POP PUSH1 0x0 PUSH2 0x1453 DUP3 DUP7 PUSH2 0x19F8 JUMP JUMPDEST SWAP1 POP DUP4 DUP2 LT ISZERO PUSH2 0x1498 JUMPI PUSH1 0x40 MLOAD PUSH32 0x8C379A000000000000000000000000000000000000000000000000000000000 DUP2 MSTORE PUSH1 0x4 ADD PUSH2 0x148F SWAP1 PUSH2 0x363F JUMP JUMPDEST PUSH1 0x40 MLOAD DUP1 SWAP2 SUB SWAP1 REVERT JUMPDEST PUSH2 0x14A5 DUP3 DUP7 DUP7 DUP5 SUB PUSH2 0x20EB JUMP JUMPDEST PUSH1 0x1 SWAP3 POP POP POP SWAP3 SWAP2 POP POP JUMP JUMPDEST PUSH1 0x0 DUP1 PUSH2 0x14BC PUSH2 0x20E3 JUMP JUMPDEST SWAP1 POP PUSH2 0x14C9 DUP2 DUP6 DUP6 PUSH2 0x2340 JUMP JUMPDEST PUSH1 0x1 SWAP2 POP POP SWAP3 SWAP2 POP POP JUMP JUMPDEST PUSH1 0x0 DUP1 PUSH2 0x14EB PUSH8 0xAC7463A5CFF28967 PUSH1 0xC0 SHL PUSH2 0x20E0 JUMP JUMPDEST PUSH2 0x14F3 PUSH2 0x25B6 JUMP JUMPDEST PUSH2 0x1507 PUSH8 0xE644C72A25680533 PUSH1 0xC0 SHL PUSH2 0x20E0 JUMP JUMPDEST PUSH2 0x151B PUSH8 0x6E89575359E9F131 PUSH1 0xC0 SHL PUSH2 0x20E0 JUMP JUMPDEST PUSH2 0x152F PUSH8 0x67C0BEF6CB00B6AB PUSH1 0xC0 SHL PUSH2 0x20E0 JUMP JUMPDEST PUSH2 0x1543 PUSH8 0x3A74D13D0E33704C PUSH1 0xC0 SHL PUSH2 0x20E0 JUMP JUMPDEST PUSH2 0x1557 PUSH8 0xAA6BDEF7C989B7F7 PUSH1 0xC0 SHL PUSH2 0x20E0 JUMP JUMPDEST PUSH1 0x0 DUP4 GT PUSH2 0x159A JUMPI PUSH1 0x40 MLOAD PUSH32 0x8C379A000000000000000000000000000000000000000000000000000000000 DUP2 MSTORE PUSH1 0x4 ADD PUSH2 0x1591 SWAP1 PUSH2 0x36AB JUMP JUMPDEST PUSH1 0x40 MLOAD DUP1 SWAP2 SUB SWAP1 REVERT JUMPDEST PUSH2 0x15AE PUSH8 0x5ECD6B78D2FE69A4 PUSH1 0xC0 SHL PUSH2 0x20E0 JUMP JUMPDEST PUSH2 0x15C2 PUSH8 0xD25149ECD364B296 PUSH1 0xC0 SHL PUSH2 0x20E0 JUMP JUMPDEST PUSH2 0x15D6 PUSH8 0xA8F509FCB43B8EA9 PUSH1 0xC0 SHL PUSH2 0x20E0 JUMP JUMPDEST PUSH2 0x15EA PUSH8 0xD2E11363B6AE34E6 PUSH1 0xC0 SHL PUSH2 0x20E0 JUMP JUMPDEST DUP3 PUSH2 0x15F4 CALLER PUSH2 0x880 JUMP JUMPDEST LT ISZERO PUSH2 0x1635 JUMPI PUSH1 0x40 MLOAD PUSH32 0x8C379A000000000000000000000000000000000000000000000000000000000 DUP2 MSTORE PUSH1 0x4 ADD PUSH2 0x162C SWAP1 PUSH2 0x3717 JUMP JUMPDEST PUSH1 0x40 MLOAD DUP1 SWAP2 SUB SWAP1 REVERT JUMPDEST PUSH2 0x1649 PUSH8 0xF5E0FD0E40ABA889 PUSH1 0xC0 SHL PUSH2 0x20E0 JUMP JUMPDEST PUSH2 0x165D PUSH8 0xE271AEB2443981E3 PUSH1 0xC0 SHL PUSH2 0x20E0 JUMP JUMPDEST PUSH2 0x1671 PUSH8 0xCEB4A91C1F227A3E PUSH1 0xC0 SHL PUSH2 0x20E0 JUMP JUMPDEST PUSH1 0x0 PUSH2 0x167B PUSH2 0x7DD JUMP JUMPDEST SWAP1 POP PUSH2 0x1691 PUSH8 0xA1C8214E9008DEE6 PUSH1 0xC0 SHL PUSH2 0x20E0 JUMP JUMPDEST DUP1 PUSH1 0x6 SLOAD DUP6 PUSH2 0x16A0 SWAP2 SWAP1 PUSH2 0x32C3 JUMP JUMPDEST PUSH2 0x16AA SWAP2 SWAP1 PUSH2 0x3368 JUMP JUMPDEST SWAP3 POP PUSH2 0x16C0 PUSH8 0x230A4BF4D41CCF28 PUSH1 0xC0 SHL PUSH2 0x20E0 JUMP JUMPDEST DUP1 PUSH1 0x7 SLOAD DUP6 PUSH2 0x16CF SWAP2 SWAP1 PUSH2 0x32C3 JUMP JUMPDEST PUSH2 0x16D9 SWAP2 SWAP1 PUSH2 0x3368 JUMP JUMPDEST SWAP2 POP PUSH2 0x16EF PUSH8 0xB3C2FFF631F8C08C PUSH1 0xC0 SHL PUSH2 0x20E0 JUMP JUMPDEST PUSH2 0x1703 PUSH8 0x15930456FE188D1B PUSH1 0xC0 SHL PUSH2 0x20E0 JUMP JUMPDEST PUSH2 0x1717 PUSH8 0x87208D77A3D3E80C PUSH1 0xC0 SHL PUSH2 0x20E0 JUMP JUMPDEST PUSH1 0x0 DUP4 GT DUP1 ISZERO PUSH2 0x1727 JUMPI POP PUSH1 0x0 DUP3 GT JUMPDEST PUSH2 0x1766 JUMPI PUSH1 0x40 MLOAD PUSH32 0x8C379A000000000000000000000000000000000000000000000000000000000 DUP2 MSTORE PUSH1 0x4 ADD PUSH2 0x175D SWAP1 PUSH2 0x36AB JUMP JUMPDEST PUSH1 0x40 MLOAD DUP1 SWAP2 SUB SWAP1 REVERT JUMPDEST PUSH2 0x177A PUSH8 0x346C16B5748F9EF5 PUSH1 0xC0 SHL PUSH2 0x20E0 JUMP JUMPDEST PUSH2 0x178E PUSH8 0x100295FEC969F606 PUSH1 0xC0 SHL PUSH2 0x20E0 JUMP JUMPDEST PUSH2 0x17A2 PUSH8 0x5DC11C2539624C72 PUSH1 0xC0 SHL PUSH2 0x20E0 JUMP JUMPDEST PUSH2 0x17AC CALLER DUP6 PUSH2 0x2804 JUMP JUMPDEST PUSH2 0x17C0 PUSH8 0xFEC424FDA93527AC PUSH1 0xC0 SHL PUSH2 0x20E0 JUMP JUMPDEST PUSH2 0x17D4 PUSH8 0xFBC5A9762424CA79 PUSH1 0xC0 SHL PUSH2 0x20E0 JUMP JUMPDEST PUSH32 0x0 PUSH20 0xFFFFFFFFFFFFFFFFFFFFFFFFFFFFFFFFFFFFFFFF AND PUSH4 0xA9059CBB CALLER DUP6 PUSH1 0x40 MLOAD DUP4 PUSH4 0xFFFFFFFF AND PUSH1 0xE0 SHL DUP2 MSTORE PUSH1 0x4 ADD PUSH2 0x182F SWAP3 SWAP2 SWAP1 PUSH2 0x35A4 JUMP JUMPDEST PUSH1 0x20 PUSH1 0x40 MLOAD DUP1 DUP4 SUB DUP2 PUSH1 0x0 DUP8 GAS CALL ISZERO DUP1 ISZERO PUSH2 0x184E JUMPI RETURNDATASIZE PUSH1 0x0 DUP1 RETURNDATACOPY RETURNDATASIZE PUSH1 0x0 REVERT JUMPDEST POP POP POP POP PUSH1 0x40 MLOAD RETURNDATASIZE PUSH1 0x1F NOT PUSH1 0x1F DUP3 ADD AND DUP3 ADD DUP1 PUSH1 0x40 MSTORE POP DUP2 ADD SWAP1 PUSH2 0x1872 SWAP2 SWAP1 PUSH2 0x3577 JUMP JUMPDEST POP PUSH2 0x1887 PUSH8 0x9B58D95C5269A969 PUSH1 0xC0 SHL PUSH2 0x20E0 JUMP JUMPDEST PUSH2 0x189B PUSH8 0x2313B9361A15DB0D PUSH1 0xC0 SHL PUSH2 0x20E0 JUMP JUMPDEST PUSH32 0x0 PUSH20 0xFFFFFFFFFFFFFFFFFFFFFFFFFFFFFFFFFFFFFFFF AND PUSH4 0xA9059CBB CALLER DUP5 PUSH1 0x40 MLOAD DUP4 PUSH4 0xFFFFFFFF AND PUSH1 0xE0 SHL DUP2 MSTORE PUSH1 0x4 ADD PUSH2 0x18F6 SWAP3 SWAP2 SWAP1 PUSH2 0x35A4 JUMP JUMPDEST PUSH1 0x20 PUSH1 0x40 MLOAD DUP1 DUP4 SUB DUP2 PUSH1 0x0 DUP8 GAS CALL ISZERO DUP1 ISZERO PUSH2 0x1915 JUMPI RETURNDATASIZE PUSH1 0x0 DUP1 RETURNDATACOPY RETURNDATASIZE PUSH1 0x0 REVERT JUMPDEST POP POP POP POP PUSH1 0x40 MLOAD RETURNDATASIZE PUSH1 0x1F NOT PUSH1 0x1F DUP3 ADD AND DUP3 ADD DUP1 PUSH1 0x40 MSTORE POP DUP2 ADD SWAP1 PUSH2 0x1939 SWAP2 SWAP1 PUSH2 0x3577 JUMP JUMPDEST POP PUSH2 0x194E PUSH8 0xD409C01C2B84E027 PUSH1 0xC0 SHL PUSH2 0x20E0 JUMP JUMPDEST PUSH2 0x1962 PUSH8 0x68B24EE940B0264B PUSH1 0xC0 SHL PUSH2 0x20E0 JUMP JUMPDEST PUSH2 0x196A PUSH2 0x2617 JUMP JUMPDEST PUSH2 0x197E PUSH8 0xED4E3241147067E8 PUSH1 0xC0 SHL PUSH2 0x20E0 JUMP JUMPDEST PUSH2 0x1992 PUSH8 0xFE53B99E6958A347 PUSH1 0xC0 SHL PUSH2 0x20E0 JUMP JUMPDEST CALLER PUSH20 0xFFFFFFFFFFFFFFFFFFFFFFFFFFFFFFFFFFFFFFFF AND PUSH32 0xBD5034FFBD47E4E72A94BAA2CDB74C6FAD73CB3BCDC13036B72EC8306F5A7646 DUP5 DUP5 DUP8 PUSH1 0x40 MLOAD PUSH2 0x19DC SWAP4 SWAP3 SWAP2 SWAP1 PUSH2 0x3737 JUMP JUMPDEST PUSH1 0x40 MLOAD DUP1 SWAP2 SUB SWAP1 LOG2 POP PUSH2 0x19ED PUSH2 0x27FA JUMP JUMPDEST SWAP2 POP SWAP2 JUMP JUMPDEST PUSH1 0x6 SLOAD DUP2 JUMP JUMPDEST PUSH1 0x0 PUSH1 0x1 PUSH1 0x0 DUP5 PUSH20 0xFFFFFFFFFFFFFFFFFFFFFFFFFFFFFFFFFFFFFFFF AND PUSH20 0xFFFFFFFFFFFFFFFFFFFFFFFFFFFFFFFFFFFFFFFF AND DUP2 MSTORE PUSH1 0x20 ADD SWAP1 DUP2 MSTORE PUSH1 0x20 ADD PUSH1 0x0 KECCAK256 PUSH1 0x0 DUP4 PUSH20 0xFFFFFFFFFFFFFFFFFFFFFFFFFFFFFFFFFFFFFFFF AND PUSH20 0xFFFFFFFFFFFFFFFFFFFFFFFFFFFFFFFFFFFFFFFF AND DUP2 MSTORE PUSH1 0x20 ADD SWAP1 DUP2 MSTORE PUSH1 0x20 ADD PUSH1 0x0 KECCAK256 SLOAD SWAP1 POP SWAP3 SWAP2 POP POP JUMP JUMPDEST PUSH1 0x0 PUSH2 0x1A95 PUSH8 0x81F0ED6EA50DEF2B PUSH1 0xC0 SHL PUSH2 0x20E0 JUMP JUMPDEST PUSH2 0x1A9D PUSH2 0x25B6 JUMP JUMPDEST PUSH2 0x1AB1 PUSH8 0x79F2E1DC62885E42 PUSH1 0xC0 SHL PUSH2 0x20E0 JUMP JUMPDEST PUSH2 0x1AC5 PUSH8 0x915773609D1541DE PUSH1 0xC0 SHL PUSH2 0x20E0 JUMP JUMPDEST PUSH2 0x1AD9 PUSH8 0x183C7D5F7FB6F650 PUSH1 0xC0 SHL PUSH2 0x20E0 JUMP JUMPDEST PUSH2 0x1AED PUSH8 0x213DAF20BF6EE41F PUSH1 0xC0 SHL PUSH2 0x20E0 JUMP JUMPDEST PUSH2 0x1B01 PUSH8 0x7E02464B0F0C35ED PUSH1 0xC0 SHL PUSH2 0x20E0 JUMP JUMPDEST PUSH1 0x0 DUP4 GT DUP1 ISZERO PUSH2 0x1B11 JUMPI POP PUSH1 0x0 DUP3 GT JUMPDEST PUSH2 0x1B50 JUMPI PUSH1 0x40 MLOAD PUSH32 0x8C379A000000000000000000000000000000000000000000000000000000000 DUP2 MSTORE PUSH1 0x4 ADD PUSH2 0x1B47 SWAP1 PUSH2 0x37BA JUMP JUMPDEST PUSH1 0x40 MLOAD DUP1 SWAP2 SUB SWAP1 REVERT JUMPDEST PUSH2 0x1B64 PUSH8 0x86C323C1F6EF2B66 PUSH1 0xC0 SHL PUSH2 0x20E0 JUMP JUMPDEST PUSH2 0x1B78 PUSH8 0x4B4202AB4816B104 PUSH1 0xC0 SHL PUSH2 0x20E0 JUMP JUMPDEST PUSH2 0x1B8C PUSH8 0x7F196028CD4BD7C3 PUSH1 0xC0 SHL PUSH2 0x20E0 JUMP JUMPDEST PUSH32 0x0 PUSH20 0xFFFFFFFFFFFFFFFFFFFFFFFFFFFFFFFFFFFFFFFF AND PUSH4 0x23B872DD CALLER ADDRESS DUP7 PUSH1 0x40 MLOAD DUP5 PUSH4 0xFFFFFFFF AND PUSH1 0xE0 SHL DUP2 MSTORE PUSH1 0x4 ADD PUSH2 0x1BE9 SWAP4 SWAP3 SWAP2 SWAP1 PUSH2 0x3514 JUMP JUMPDEST PUSH1 0x20 PUSH1 0x40 MLOAD DUP1 DUP4 SUB DUP2 PUSH1 0x0 DUP8 GAS CALL ISZERO DUP1 ISZERO PUSH2 0x1C08 JUMPI RETURNDATASIZE PUSH1 0x0 DUP1 RETURNDATACOPY RETURNDATASIZE PUSH1 0x0 REVERT JUMPDEST POP POP POP POP PUSH1 0x40 MLOAD RETURNDATASIZE PUSH1 0x1F NOT PUSH1 0x1F DUP3 ADD AND DUP3 ADD DUP1 PUSH1 0x40 MSTORE POP DUP2 ADD SWAP1 PUSH2 0x1C2C SWAP2 SWAP1 PUSH2 0x3577 JUMP JUMPDEST POP PUSH2 0x1C41 PUSH8 0x82964B5F2EBBA544 PUSH1 0xC0 SHL PUSH2 0x20E0 JUMP JUMPDEST PUSH2 0x1C55 PUSH8 0x7CA4A5A1EFF92C83 PUSH1 0xC0 SHL PUSH2 0x20E0 JUMP JUMPDEST PUSH32 0x0 PUSH20 0xFFFFFFFFFFFFFFFFFFFFFFFFFFFFFFFFFFFFFFFF AND PUSH4 0x23B872DD CALLER ADDRESS DUP6 PUSH1 0x40 MLOAD DUP5 PUSH4 0xFFFFFFFF AND PUSH1 0xE0 SHL DUP2 MSTORE PUSH1 0x4 ADD PUSH2 0x1CB2 SWAP4 SWAP3 SWAP2 SWAP1 PUSH2 0x3514 JUMP JUMPDEST PUSH1 0x20 PUSH1 0x40 MLOAD DUP1 DUP4 SUB DUP2 PUSH1 0x0 DUP8 GAS CALL ISZERO DUP1 ISZERO PUSH2 0x1CD1 JUMPI RETURNDATASIZE PUSH1 0x0 DUP1 RETURNDATACOPY RETURNDATASIZE PUSH1 0x0 REVERT JUMPDEST POP POP POP POP PUSH1 0x40 MLOAD RETURNDATASIZE PUSH1 0x1F NOT PUSH1 0x1F DUP3 ADD AND DUP3 ADD DUP1 PUSH1 0x40 MSTORE POP DUP2 ADD SWAP1 PUSH2 0x1CF5 SWAP2 SWAP1 PUSH2 0x3577 JUMP JUMPDEST POP PUSH2 0x1D0A PUSH8 0x48EC4B79EA610758 PUSH1 0xC0 SHL PUSH2 0x20E0 JUMP JUMPDEST PUSH2 0x1D1E PUSH8 0xF8A12903DECB450E PUSH1 0xC0 SHL PUSH2 0x20E0 JUMP JUMPDEST PUSH1 0x0 PUSH2 0x1D28 PUSH2 0x7DD JUMP JUMPDEST SWAP1 POP PUSH2 0x1D3E PUSH8 0x4A2FFF5F94222540 PUSH1 0xC0 SHL PUSH2 0x20E0 JUMP JUMPDEST PUSH2 0x1D52 PUSH8 0xC7FCDFB456B47C5F PUSH1 0xC0 SHL PUSH2 0x20E0 JUMP JUMPDEST PUSH1 0x0 DUP2 SUB PUSH2 0x1EA1 JUMPI PUSH2 0x1D6E PUSH8 0xFDD1F9B19C5A4E29 PUSH1 0xC0 SHL PUSH2 0x20E0 JUMP JUMPDEST PUSH2 0x1D82 PUSH8 0x7E5E13432AD3061D PUSH1 0xC0 SHL PUSH2 0x20E0 JUMP JUMPDEST PUSH2 0x1D96 PUSH8 0x70F6864364FFE405 PUSH1 0xC0 SHL PUSH2 0x20E0 JUMP JUMPDEST PUSH1 0x0 PUSH2 0x1DAC DUP5 DUP7 PUSH2 0x1DA7 SWAP2 SWAP1 PUSH2 0x32C3 JUMP JUMPDEST PUSH2 0x29D1 JUMP JUMPDEST SWAP1 POP PUSH2 0x1DC2 PUSH8 0xF4C394CDDB971F91 PUSH1 0xC0 SHL PUSH2 0x20E0 JUMP JUMPDEST PUSH2 0x1DD6 PUSH8 0x30C95DB0DFD26E06 PUSH1 0xC0 SHL PUSH2 0x20E0 JUMP JUMPDEST PUSH2 0x1DEA PUSH8 0xC7F3E623C12D522D PUSH1 0xC0 SHL PUSH2 0x20E0 JUMP JUMPDEST PUSH2 0x3E8 DUP2 GT PUSH2 0x1E2E JUMPI PUSH1 0x40 MLOAD PUSH32 0x8C379A000000000000000000000000000000000000000000000000000000000 DUP2 MSTORE PUSH1 0x4 ADD PUSH2 0x1E25 SWAP1 PUSH2 0x3826 JUMP JUMPDEST PUSH1 0x40 MLOAD DUP1 SWAP2 SUB SWAP1 REVERT JUMPDEST PUSH2 0x1E42 PUSH8 0x90ED278674CF30BA PUSH1 0xC0 SHL PUSH2 0x20E0 JUMP JUMPDEST PUSH2 0x1E56 PUSH8 0x5D4AEB9BBF2AA72A PUSH1 0xC0 SHL PUSH2 0x20E0 JUMP JUMPDEST PUSH2 0x3E8 DUP2 PUSH2 0x1E64 SWAP2 SWAP1 PUSH2 0x3465 JUMP JUMPDEST SWAP3 POP PUSH2 0x1E7A PUSH8 0xE92CA1B9A870441 PUSH1 0xC0 SHL PUSH2 0x20E0 JUMP JUMPDEST PUSH2 0x1E8E PUSH8 0x6C216496B8EC8844 PUSH1 0xC0 SHL PUSH2 0x20E0 JUMP JUMPDEST PUSH2 0x1E9B PUSH1 0x1 PUSH2 0x3E8 PUSH2 0x2ACA JUMP JUMPDEST POP PUSH2 0x1FF5 JUMP JUMPDEST PUSH2 0x1EB5 PUSH8 0x31E68B9C7D27DB93 PUSH1 0xC0 SHL PUSH2 0x20E0 JUMP JUMPDEST PUSH2 0x1EC9 PUSH8 0x7655F911840A27C1 PUSH1 0xC0 SHL PUSH2 0x20E0 JUMP JUMPDEST PUSH2 0x1EDD PUSH8 0xAEE2D0A54659FD56 PUSH1 0xC0 SHL PUSH2 0x20E0 JUMP JUMPDEST PUSH1 0x0 PUSH1 0x6 SLOAD DUP3 DUP7 PUSH2 0x1EEE SWAP2 SWAP1 PUSH2 0x32C3 JUMP JUMPDEST PUSH2 0x1EF8 SWAP2 SWAP1 PUSH2 0x3368 JUMP JUMPDEST SWAP1 POP PUSH2 0x1F0E PUSH8 0x2704B6FCCC77C4B3 PUSH1 0xC0 SHL PUSH2 0x20E0 JUMP JUMPDEST PUSH2 0x1F22 PUSH8 0xE7C12F5EF946C1E9 PUSH1 0xC0 SHL PUSH2 0x20E0 JUMP JUMPDEST PUSH1 0x0 PUSH1 0x7 SLOAD DUP4 DUP7 PUSH2 0x1F33 SWAP2 SWAP1 PUSH2 0x32C3 JUMP JUMPDEST PUSH2 0x1F3D SWAP2 SWAP1 PUSH2 0x3368 JUMP JUMPDEST SWAP1 POP PUSH2 0x1F53 PUSH8 0x574F039B17836C08 PUSH1 0xC0 SHL PUSH2 0x20E0 JUMP JUMPDEST PUSH2 0x1F5D DUP3 DUP3 PUSH2 0x2C20 JUMP JUMPDEST SWAP4 POP PUSH2 0x1F73 PUSH8 0x2EE972EC1D5AF7D7 PUSH1 0xC0 SHL PUSH2 0x20E0 JUMP JUMPDEST PUSH2 0x1F87 PUSH8 0x4AE998FFEB43361 PUSH1 0xC0 SHL PUSH2 0x20E0 JUMP JUMPDEST PUSH2 0x1F9B PUSH8 0xEABAEED1325ED417 PUSH1 0xC0 SHL PUSH2 0x20E0 JUMP JUMPDEST PUSH1 0x0 DUP5 GT PUSH2 0x1FDE JUMPI PUSH1 0x40 MLOAD PUSH32 0x8C379A000000000000000000000000000000000000000000000000000000000 DUP2 MSTORE PUSH1 0x4 ADD PUSH2 0x1FD5 SWAP1 PUSH2 0x3826 JUMP JUMPDEST PUSH1 0x40 MLOAD DUP1 SWAP2 SUB SWAP1 REVERT JUMPDEST PUSH2 0x1FF2 PUSH8 0x4C873B762DBEC4FB PUSH1 0xC0 SHL PUSH2 0x20E0 JUMP JUMPDEST POP POP JUMPDEST PUSH2 0x2009 PUSH8 0xFDB5735B2126FBD5 PUSH1 0xC0 SHL PUSH2 0x20E0 JUMP JUMPDEST PUSH2 0x201D PUSH8 0x2CE92DBBAA11225B PUSH1 0xC0 SHL PUSH2 0x20E0 JUMP JUMPDEST PUSH2 0x2027 CALLER DUP4 PUSH2 0x2ACA JUMP JUMPDEST PUSH2 0x203B PUSH8 0x856536BF02C184CA PUSH1 0xC0 SHL PUSH2 0x20E0 JUMP JUMPDEST PUSH2 0x204F PUSH8 0x87B53EBCA99DB1DC PUSH1 0xC0 SHL PUSH2 0x20E0 JUMP JUMPDEST PUSH2 0x2057 PUSH2 0x2617 JUMP JUMPDEST PUSH2 0x206B PUSH8 0x6CDAFFBEB239616E PUSH1 0xC0 SHL PUSH2 0x20E0 JUMP JUMPDEST PUSH2 0x207F PUSH8 0xB867976DF439D485 PUSH1 0xC0 SHL PUSH2 0x20E0 JUMP JUMPDEST CALLER PUSH20 0xFFFFFFFFFFFFFFFFFFFFFFFFFFFFFFFFFFFFFFFF AND PUSH32 0x36AF321EC8D3C75236829C5317AFFD40DDB308863A1236D2D277A4025CCCEE1E DUP6 DUP6 DUP6 PUSH1 0x40 MLOAD PUSH2 0x20C9 SWAP4 SWAP3 SWAP2 SWAP1 PUSH2 0x3737 JUMP JUMPDEST PUSH1 0x40 MLOAD DUP1 SWAP2 SUB SWAP1 LOG2 POP PUSH2 0x20DA PUSH2 0x27FA JUMP JUMPDEST SWAP3 SWAP2 POP POP JUMP JUMPDEST POP JUMP JUMPDEST PUSH1 0x0 CALLER SWAP1 POP SWAP1 JUMP JUMPDEST PUSH1 0x0 PUSH20 0xFFFFFFFFFFFFFFFFFFFFFFFFFFFFFFFFFFFFFFFF AND DUP4 PUSH20 0xFFFFFFFFFFFFFFFFFFFFFFFFFFFFFFFFFFFFFFFF AND SUB PUSH2 0x215A JUMPI PUSH1 0x40 MLOAD PUSH32 0x8C379A000000000000000000000000000000000000000000000000000000000 DUP2 MSTORE PUSH1 0x4 ADD PUSH2 0x2151 SWAP1 PUSH2 0x38B8 JUMP JUMPDEST PUSH1 0x40 MLOAD DUP1 SWAP2 SUB SWAP1 REVERT JUMPDEST PUSH1 0x0 PUSH20 0xFFFFFFFFFFFFFFFFFFFFFFFFFFFFFFFFFFFFFFFF AND DUP3 PUSH20 0xFFFFFFFFFFFFFFFFFFFFFFFFFFFFFFFFFFFFFFFF AND SUB PUSH2 0x21C9 JUMPI PUSH1 0x40 MLOAD PUSH32 0x8C379A000000000000000000000000000000000000000000000000000000000 DUP2 MSTORE PUSH1 0x4 ADD PUSH2 0x21C0 SWAP1 PUSH2 0x394A JUMP JUMPDEST PUSH1 0x40 MLOAD DUP1 SWAP2 SUB SWAP1 REVERT JUMPDEST DUP1 PUSH1 0x1 PUSH1 0x0 DUP6 PUSH20 0xFFFFFFFFFFFFFFFFFFFFFFFFFFFFFFFFFFFFFFFF AND PUSH20 0xFFFFFFFFFFFFFFFFFFFFFFFFFFFFFFFFFFFFFFFF AND DUP2 MSTORE PUSH1 0x20 ADD SWAP1 DUP2 MSTORE PUSH1 0x20 ADD PUSH1 0x0 KECCAK256 PUSH1 0x0 DUP5 PUSH20 0xFFFFFFFFFFFFFFFFFFFFFFFFFFFFFFFFFFFFFFFF AND PUSH20 0xFFFFFFFFFFFFFFFFFFFFFFFFFFFFFFFFFFFFFFFF AND DUP2 MSTORE PUSH1 0x20 ADD SWAP1 DUP2 MSTORE PUSH1 0x20 ADD PUSH1 0x0 KECCAK256 DUP2 SWAP1 SSTORE POP DUP2 PUSH20 0xFFFFFFFFFFFFFFFFFFFFFFFFFFFFFFFFFFFFFFFF AND DUP4 PUSH20 0xFFFFFFFFFFFFFFFFFFFFFFFFFFFFFFFFFFFFFFFF AND PUSH32 0x8C5BE1E5EBEC7D5BD14F71427D1E84F3DD0314C0F7B2291E5B200AC8C7C3B925 DUP4 PUSH1 0x40 MLOAD PUSH2 0x22A7 SWAP2 SWAP1 PUSH2 0x2DC1 JUMP JUMPDEST PUSH1 0x40 MLOAD DUP1 SWAP2 SUB SWAP1 LOG3 POP POP POP JUMP JUMPDEST PUSH1 0x0 PUSH2 0x22C0 DUP5 DUP5 PUSH2 0x19F8 JUMP JUMPDEST SWAP1 POP PUSH32 0xFFFFFFFFFFFFFFFFFFFFFFFFFFFFFFFFFFFFFFFFFFFFFFFFFFFFFFFFFFFFFFFF DUP2 EQ PUSH2 0x233A JUMPI DUP2 DUP2 LT ISZERO PUSH2 0x232C JUMPI PUSH1 0x40 MLOAD PUSH32 0x8C379A000000000000000000000000000000000000000000000000000000000 DUP2 MSTORE PUSH1 0x4 ADD PUSH2 0x2323 SWAP1 PUSH2 0x39B6 JUMP JUMPDEST PUSH1 0x40 MLOAD DUP1 SWAP2 SUB SWAP1 REVERT JUMPDEST PUSH2 0x2339 DUP5 DUP5 DUP5 DUP5 SUB PUSH2 0x20EB JUMP JUMPDEST JUMPDEST POP POP POP POP JUMP JUMPDEST PUSH1 0x0 PUSH20 0xFFFFFFFFFFFFFFFFFFFFFFFFFFFFFFFFFFFFFFFF AND DUP4 PUSH20 0xFFFFFFFFFFFFFFFFFFFFFFFFFFFFFFFFFFFFFFFF AND SUB PUSH2 0x23AF JUMPI PUSH1 0x40 MLOAD PUSH32 0x8C379A000000000000000000000000000000000000000000000000000000000 DUP2 MSTORE PUSH1 0x4 ADD PUSH2 0x23A6 SWAP1 PUSH2 0x3A48 JUMP JUMPDEST PUSH1 0x40 MLOAD DUP1 SWAP2 SUB SWAP1 REVERT JUMPDEST PUSH1 0x0 PUSH20 0xFFFFFFFFFFFFFFFFFFFFFFFFFFFFFFFFFFFFFFFF AND DUP3 PUSH20 0xFFFFFFFFFFFFFFFFFFFFFFFFFFFFFFFFFFFFFFFF AND SUB PUSH2 0x241E JUMPI PUSH1 0x40 MLOAD PUSH32 0x8C379A000000000000000000000000000000000000000000000000000000000 DUP2 MSTORE PUSH1 0x4 ADD PUSH2 0x2415 SWAP1 PUSH2 0x3ADA JUMP JUMPDEST PUSH1 0x40 MLOAD DUP1 SWAP2 SUB SWAP1 REVERT JUMPDEST PUSH2 0x2429 DUP4 DUP4 DUP4 PUSH2 0x2C39 JUMP JUMPDEST PUSH1 0x0 DUP1 PUSH1 0x0 DUP6 PUSH20 0xFFFFFFFFFFFFFFFFFFFFFFFFFFFFFFFFFFFFFFFF AND PUSH20 0xFFFFFFFFFFFFFFFFFFFFFFFFFFFFFFFFFFFFFFFF AND DUP2 MSTORE PUSH1 0x20 ADD SWAP1 DUP2 MSTORE PUSH1 0x20 ADD PUSH1 0x0 KECCAK256 SLOAD SWAP1 POP DUP2 DUP2 LT ISZERO PUSH2 0x24AF JUMPI PUSH1 0x40 MLOAD PUSH32 0x8C379A000000000000000000000000000000000000000000000000000000000 DUP2 MSTORE PUSH1 0x4 ADD PUSH2 0x24A6 SWAP1 PUSH2 0x3B6C JUMP JUMPDEST PUSH1 0x40 MLOAD DUP1 SWAP2 SUB SWAP1 REVERT JUMPDEST DUP2 DUP2 SUB PUSH1 0x0 DUP1 DUP7 PUSH20 0xFFFFFFFFFFFFFFFFFFFFFFFFFFFFFFFFFFFFFFFF AND PUSH20 0xFFFFFFFFFFFFFFFFFFFFFFFFFFFFFFFFFFFFFFFF AND DUP2 MSTORE PUSH1 0x20 ADD SWAP1 DUP2 MSTORE PUSH1 0x20 ADD PUSH1 0x0 KECCAK256 DUP2 SWAP1 SSTORE POP DUP2 PUSH1 0x0 DUP1 DUP6 PUSH20 0xFFFFFFFFFFFFFFFFFFFFFFFFFFFFFFFFFFFFFFFF AND PUSH20 0xFFFFFFFFFFFFFFFFFFFFFFFFFFFFFFFFFFFFFFFF AND DUP2 MSTORE PUSH1 0x20 ADD SWAP1 DUP2 MSTORE PUSH1 0x20 ADD PUSH1 0x0 KECCAK256 PUSH1 0x0 DUP3 DUP3 SLOAD ADD SWAP3 POP POP DUP2 SWAP1 SSTORE POP DUP3 PUSH20 0xFFFFFFFFFFFFFFFFFFFFFFFFFFFFFFFFFFFFFFFF AND DUP5 PUSH20 0xFFFFFFFFFFFFFFFFFFFFFFFFFFFFFFFFFFFFFFFF AND PUSH32 0xDDF252AD1BE2C89B69C2B068FC378DAA952BA7F163C4A11628F55A4DF523B3EF DUP5 PUSH1 0x40 MLOAD PUSH2 0x259D SWAP2 SWAP1 PUSH2 0x2DC1 JUMP JUMPDEST PUSH1 0x40 MLOAD DUP1 SWAP2 SUB SWAP1 LOG3 PUSH2 0x25B0 DUP5 DUP5 DUP5 PUSH2 0x2C3E JUMP JUMPDEST POP POP POP POP JUMP JUMPDEST PUSH1 0x2 PUSH1 0x5 SLOAD SUB PUSH2 0x25FB JUMPI PUSH1 0x40 MLOAD PUSH32 0x8C379A000000000000000000000000000000000000000000000000000000000 DUP2 MSTORE PUSH1 0x4 ADD PUSH2 0x25F2 SWAP1 PUSH2 0x3BD8 JUMP JUMPDEST PUSH1 0x40 MLOAD DUP1 SWAP2 SUB SWAP1 REVERT JUMPDEST PUSH1 0x2 PUSH1 0x5 DUP2 SWAP1 SSTORE POP JUMP JUMPDEST PUSH1 0x0 PUSH1 0x1 SWAP1 POP SWAP2 SWAP1 POP JUMP JUMPDEST PUSH1 0x0 SWAP2 SWAP1 POP JUMP JUMPDEST PUSH2 0x262B PUSH8 0xEAF9C3F544AB129F PUSH1 0xC0 SHL PUSH2 0x20E0 JUMP JUMPDEST PUSH2 0x263F PUSH8 0x78F07E231B96072A PUSH1 0xC0 SHL PUSH2 0x20E0 JUMP JUMPDEST PUSH32 0x0 PUSH20 0xFFFFFFFFFFFFFFFFFFFFFFFFFFFFFFFFFFFFFFFF AND PUSH4 0x70A08231 ADDRESS PUSH1 0x40 MLOAD DUP3 PUSH4 0xFFFFFFFF AND PUSH1 0xE0 SHL DUP2 MSTORE PUSH1 0x4 ADD PUSH2 0x2698 SWAP2 SWAP1 PUSH2 0x3BF8 JUMP JUMPDEST PUSH1 0x20 PUSH1 0x40 MLOAD DUP1 DUP4 SUB DUP2 DUP7 GAS STATICCALL ISZERO DUP1 ISZERO PUSH2 0x26B5 JUMPI RETURNDATASIZE PUSH1 0x0 DUP1 RETURNDATACOPY RETURNDATASIZE PUSH1 0x0 REVERT JUMPDEST POP POP POP POP PUSH1 0x40 MLOAD RETURNDATASIZE PUSH1 0x1F NOT PUSH1 0x1F DUP3 ADD AND DUP3 ADD DUP1 PUSH1 0x40 MSTORE POP DUP2 ADD SWAP1 PUSH2 0x26D9 SWAP2 SWAP1 PUSH2 0x3C28 JUMP JUMPDEST PUSH1 0x6 DUP2 SWAP1 SSTORE POP PUSH2 0x26F3 PUSH8 0xB23EE8E8617B0514 PUSH1 0xC0 SHL PUSH2 0x20E0 JUMP JUMPDEST PUSH32 0x0 PUSH20 0xFFFFFFFFFFFFFFFFFFFFFFFFFFFFFFFFFFFFFFFF AND PUSH4 0x70A08231 ADDRESS PUSH1 0x40 MLOAD DUP3 PUSH4 0xFFFFFFFF AND PUSH1 0xE0 SHL DUP2 MSTORE PUSH1 0x4 ADD PUSH2 0x274C SWAP2 SWAP1 PUSH2 0x3BF8 JUMP JUMPDEST PUSH1 0x20 PUSH1 0x40 MLOAD DUP1 DUP4 SUB DUP2 DUP7 GAS STATICCALL ISZERO DUP1 ISZERO PUSH2 0x2769 JUMPI RETURNDATASIZE PUSH1 0x0 DUP1 RETURNDATACOPY RETURNDATASIZE PUSH1 0x0 REVERT JUMPDEST POP POP POP POP PUSH1 0x40 MLOAD RETURNDATASIZE PUSH1 0x1F NOT PUSH1 0x1F DUP3 ADD AND DUP3 ADD DUP1 PUSH1 0x40 MSTORE POP DUP2 ADD SWAP1 PUSH2 0x278D SWAP2 SWAP1 PUSH2 0x3C28 JUMP JUMPDEST PUSH1 0x7 DUP2 SWAP1 SSTORE POP PUSH2 0x27A7 PUSH8 0xF5933985A6B0909A PUSH1 0xC0 SHL PUSH2 0x20E0 JUMP JUMPDEST PUSH2 0x27BB PUSH8 0x5D86C44D66A640CD PUSH1 0xC0 SHL PUSH2 0x20E0 JUMP JUMPDEST PUSH32 0xCF2AA50876CDFBB541206F89AF0EE78D44A2ABF8D328E37FA4917F982149848A PUSH1 0x6 SLOAD PUSH1 0x7 SLOAD PUSH1 0x40 MLOAD PUSH2 0x27F0 SWAP3 SWAP2 SWAP1 PUSH2 0x2E8E JUMP JUMPDEST PUSH1 0x40 MLOAD DUP1 SWAP2 SUB SWAP1 LOG1 JUMP JUMPDEST PUSH1 0x1 PUSH1 0x5 DUP2 SWAP1 SSTORE POP JUMP JUMPDEST PUSH1 0x0 PUSH20 0xFFFFFFFFFFFFFFFFFFFFFFFFFFFFFFFFFFFFFFFF AND DUP3 PUSH20 0xFFFFFFFFFFFFFFFFFFFFFFFFFFFFFFFFFFFFFFFF AND SUB PUSH2 0x2873 JUMPI PUSH1 0x40 MLOAD PUSH32 0x8C379A000000000000000000000000000000000000000000000000000000000 DUP2 MSTORE PUSH1 0x4 ADD PUSH2 0x286A SWAP1 PUSH2 0x3CC7 JUMP JUMPDEST PUSH1 0x40 MLOAD DUP1 SWAP2 SUB SWAP1 REVERT JUMPDEST PUSH2 0x287F DUP3 PUSH1 0x0 DUP4 PUSH2 0x2C39 JUMP JUMPDEST PUSH1 0x0 DUP1 PUSH1 0x0 DUP5 PUSH20 0xFFFFFFFFFFFFFFFFFFFFFFFFFFFFFFFFFFFFFFFF AND PUSH20 0xFFFFFFFFFFFFFFFFFFFFFFFFFFFFFFFFFFFFFFFF AND DUP2 MSTORE PUSH1 0x20 ADD SWAP1 DUP2 MSTORE PUSH1 0x20 ADD PUSH1 0x0 KECCAK256 SLOAD SWAP1 POP DUP2 DUP2 LT ISZERO PUSH2 0x2905 JUMPI PUSH1 0x40 MLOAD PUSH32 0x8C379A000000000000000000000000000000000000000000000000000000000 DUP2 MSTORE PUSH1 0x4 ADD PUSH2 0x28FC SWAP1 PUSH2 0x3D59 JUMP JUMPDEST PUSH1 0x40 MLOAD DUP1 SWAP2 SUB SWAP1 REVERT JUMPDEST DUP2 DUP2 SUB PUSH1 0x0 DUP1 DUP6 PUSH20 0xFFFFFFFFFFFFFFFFFFFFFFFFFFFFFFFFFFFFFFFF AND PUSH20 0xFFFFFFFFFFFFFFFFFFFFFFFFFFFFFFFFFFFFFFFF AND DUP2 MSTORE PUSH1 0x20 ADD SWAP1 DUP2 MSTORE PUSH1 0x20 ADD PUSH1 0x0 KECCAK256 DUP2 SWAP1 SSTORE POP DUP2 PUSH1 0x2 PUSH1 0x0 DUP3 DUP3 SLOAD SUB SWAP3 POP POP DUP2 SWAP1 SSTORE POP PUSH1 0x0 PUSH20 0xFFFFFFFFFFFFFFFFFFFFFFFFFFFFFFFFFFFFFFFF AND DUP4 PUSH20 0xFFFFFFFFFFFFFFFFFFFFFFFFFFFFFFFFFFFFFFFF AND PUSH32 0xDDF252AD1BE2C89B69C2B068FC378DAA952BA7F163C4A11628F55A4DF523B3EF DUP5 PUSH1 0x40 MLOAD PUSH2 0x29B8 SWAP2 SWAP1 PUSH2 0x2DC1 JUMP JUMPDEST PUSH1 0x40 MLOAD DUP1 SWAP2 SUB SWAP1 LOG3 PUSH2 0x29CC DUP4 PUSH1 0x0 DUP5 PUSH2 0x2C3E JUMP JUMPDEST POP POP POP JUMP JUMPDEST PUSH1 0x0 DUP1 DUP3 SUB PUSH2 0x29E3 JUMPI PUSH1 0x0 SWAP1 POP PUSH2 0x2AC5 JUMP JUMPDEST PUSH1 0x0 PUSH1 0x1 PUSH2 0x29F0 DUP5 PUSH2 0x2C43 JUMP JUMPDEST SWAP1 SHR PUSH1 0x1 SWAP1 SHL SWAP1 POP PUSH1 0x1 DUP2 DUP5 DUP2 PUSH2 0x2A0A JUMPI PUSH2 0x2A09 PUSH2 0x3339 JUMP JUMPDEST JUMPDEST DIV DUP3 ADD SWAP1 SHR SWAP1 POP PUSH1 0x1 DUP2 DUP5 DUP2 PUSH2 0x2A23 JUMPI PUSH2 0x2A22 PUSH2 0x3339 JUMP JUMPDEST JUMPDEST DIV DUP3 ADD SWAP1 SHR SWAP1 POP PUSH1 0x1 DUP2 DUP5 DUP2 PUSH2 0x2A3C JUMPI PUSH2 0x2A3B PUSH2 0x3339 JUMP JUMPDEST JUMPDEST DIV DUP3 ADD SWAP1 SHR SWAP1 POP PUSH1 0x1 DUP2 DUP5 DUP2 PUSH2 0x2A55 JUMPI PUSH2 0x2A54 PUSH2 0x3339 JUMP JUMPDEST JUMPDEST DIV DUP3 ADD SWAP1 SHR SWAP1 POP PUSH1 0x1 DUP2 DUP5 DUP2 PUSH2 0x2A6E JUMPI PUSH2 0x2A6D PUSH2 0x3339 JUMP JUMPDEST JUMPDEST DIV DUP3 ADD SWAP1 SHR SWAP1 POP PUSH1 0x1 DUP2 DUP5 DUP2 PUSH2 0x2A87 JUMPI PUSH2 0x2A86 PUSH2 0x3339 JUMP JUMPDEST JUMPDEST DIV DUP3 ADD SWAP1 SHR SWAP1 POP PUSH1 0x1 DUP2 DUP5 DUP2 PUSH2 0x2AA0 JUMPI PUSH2 0x2A9F PUSH2 0x3339 JUMP JUMPDEST JUMPDEST DIV DUP3 ADD SWAP1 SHR SWAP1 POP PUSH2 0x2AC1 DUP2 DUP3 DUP6 DUP2 PUSH2 0x2ABB JUMPI PUSH2 0x2ABA PUSH2 0x3339 JUMP JUMPDEST JUMPDEST DIV PUSH2 0x2C20 JUMP JUMPDEST SWAP2 POP POP JUMPDEST SWAP2 SWAP1 POP JUMP JUMPDEST PUSH1 0x0 PUSH20 0xFFFFFFFFFFFFFFFFFFFFFFFFFFFFFFFFFFFFFFFF AND DUP3 PUSH20 0xFFFFFFFFFFFFFFFFFFFFFFFFFFFFFFFFFFFFFFFF AND SUB PUSH2 0x2B39 JUMPI PUSH1 0x40 MLOAD PUSH32 0x8C379A000000000000000000000000000000000000000000000000000000000 DUP2 MSTORE PUSH1 0x4 ADD PUSH2 0x2B30 SWAP1 PUSH2 0x3DC5 JUMP JUMPDEST PUSH1 0x40 MLOAD DUP1 SWAP2 SUB SWAP1 REVERT JUMPDEST PUSH2 0x2B45 PUSH1 0x0 DUP4 DUP4 PUSH2 0x2C39 JUMP JUMPDEST DUP1 PUSH1 0x2 PUSH1 0x0 DUP3 DUP3 SLOAD PUSH2 0x2B57 SWAP2 SWAP1 PUSH2 0x3305 JUMP JUMPDEST SWAP3 POP POP DUP2 SWAP1 SSTORE POP DUP1 PUSH1 0x0 DUP1 DUP5 PUSH20 0xFFFFFFFFFFFFFFFFFFFFFFFFFFFFFFFFFFFFFFFF AND PUSH20 0xFFFFFFFFFFFFFFFFFFFFFFFFFFFFFFFFFFFFFFFF AND DUP2 MSTORE PUSH1 0x20 ADD SWAP1 DUP2 MSTORE PUSH1 0x20 ADD PUSH1 0x0 KECCAK256 PUSH1 0x0 DUP3 DUP3 SLOAD ADD SWAP3 POP POP DUP2 SWAP1 SSTORE POP DUP2 PUSH20 0xFFFFFFFFFFFFFFFFFFFFFFFFFFFFFFFFFFFFFFFF AND PUSH1 0x0 PUSH20 0xFFFFFFFFFFFFFFFFFFFFFFFFFFFFFFFFFFFFFFFF AND PUSH32 0xDDF252AD1BE2C89B69C2B068FC378DAA952BA7F163C4A11628F55A4DF523B3EF DUP4 PUSH1 0x40 MLOAD PUSH2 0x2C08 SWAP2 SWAP1 PUSH2 0x2DC1 JUMP JUMPDEST PUSH1 0x40 MLOAD DUP1 SWAP2 SUB SWAP1 LOG3 PUSH2 0x2C1C PUSH1 0x0 DUP4 DUP4 PUSH2 0x2C3E JUMP JUMPDEST POP POP JUMP JUMPDEST PUSH1 0x0 DUP2 DUP4 LT PUSH2 0x2C2F JUMPI DUP2 PUSH2 0x2C31 JUMP JUMPDEST DUP3 JUMPDEST SWAP1 POP SWAP3 SWAP2 POP POP JUMP JUMPDEST POP POP POP JUMP JUMPDEST POP POP POP JUMP JUMPDEST PUSH1 0x0 DUP1 PUSH1 0x0 SWAP1 POP PUSH1 0x0 PUSH1 0x80 DUP5 SWAP1 SHR GT ISZERO PUSH2 0x2C65 JUMPI PUSH1 0x80 DUP4 SWAP1 SHR SWAP3 POP PUSH1 0x80 DUP2 ADD SWAP1 POP JUMPDEST PUSH1 0x0 PUSH1 0x40 DUP5 SWAP1 SHR GT ISZERO PUSH2 0x2C80 JUMPI PUSH1 0x40 DUP4 SWAP1 SHR SWAP3 POP PUSH1 0x40 DUP2 ADD SWAP1 POP JUMPDEST PUSH1 0x0 PUSH1 0x20 DUP5 SWAP1 SHR GT ISZERO PUSH2 0x2C9B JUMPI PUSH1 0x20 DUP4 SWAP1 SHR SWAP3 POP PUSH1 0x20 DUP2 ADD SWAP1 POP JUMPDEST PUSH1 0x0 PUSH1 0x10 DUP5 SWAP1 SHR GT ISZERO PUSH2 0x2CB6 JUMPI PUSH1 0x10 DUP4 SWAP1 SHR SWAP3 POP PUSH1 0x10 DUP2 ADD SWAP1 POP JUMPDEST PUSH1 0x0 PUSH1 0x8 DUP5 SWAP1 SHR GT ISZERO PUSH2 0x2CD1 JUMPI PUSH1 0x8 DUP4 SWAP1 SHR SWAP3 POP PUSH1 0x8 DUP2 ADD SWAP1 POP JUMPDEST PUSH1 0x0 PUSH1 0x4 DUP5 SWAP1 SHR GT ISZERO PUSH2 0x2CEC JUMPI PUSH1 0x4 DUP4 SWAP1 SHR SWAP3 POP PUSH1 0x4 DUP2 ADD SWAP1 POP JUMPDEST PUSH1 0x0 PUSH1 0x2 DUP5 SWAP1 SHR GT ISZERO PUSH2 0x2D07 JUMPI PUSH1 0x2 DUP4 SWAP1 SHR SWAP3 POP PUSH1 0x2 DUP2 ADD SWAP1 POP JUMPDEST PUSH1 0x0 PUSH1 0x1 DUP5 SWAP1 SHR GT ISZERO PUSH2 0x2D1B JUMPI PUSH1 0x1 DUP2 ADD SWAP1 POP JUMPDEST DUP1 SWAP2 POP POP SWAP2 SWAP1 POP JUMP JUMPDEST PUSH1 0x0 DUP1 REVERT JUMPDEST PUSH1 0x0 DUP2 SWAP1 POP SWAP2 SWAP1 POP JUMP JUMPDEST PUSH2 0x2D3C DUP2 PUSH2 0x2D29 JUMP JUMPDEST DUP2 EQ PUSH2 0x2D47 JUMPI PUSH1 0x0 DUP1 REVERT JUMPDEST POP JUMP JUMPDEST PUSH1 0x0 DUP2 CALLDATALOAD SWAP1 POP PUSH2 0x2D59 DUP2 PUSH2 0x2D33 JUMP JUMPDEST SWAP3 SWAP2 POP POP JUMP JUMPDEST PUSH1 0x0 DUP1 PUSH1 0x0 PUSH1 0x60 DUP5 DUP7 SUB SLT ISZERO PUSH2 0x2D78 JUMPI PUSH2 0x2D77 PUSH2 0x2D24 JUMP JUMPDEST JUMPDEST PUSH1 0x0 PUSH2 0x2D86 DUP7 DUP3 DUP8 ADD PUSH2 0x2D4A JUMP JUMPDEST SWAP4 POP POP PUSH1 0x20 PUSH2 0x2D97 DUP7 DUP3 DUP8 ADD PUSH2 0x2D4A JUMP JUMPDEST SWAP3 POP POP PUSH1 0x40 PUSH2 0x2DA8 DUP7 DUP3 DUP8 ADD PUSH2 0x2D4A JUMP JUMPDEST SWAP2 POP POP SWAP3 POP SWAP3 POP SWAP3 JUMP JUMPDEST PUSH2 0x2DBB DUP2 PUSH2 0x2D29 JUMP JUMPDEST DUP3 MSTORE POP POP JUMP JUMPDEST PUSH1 0x0 PUSH1 0x20 DUP3 ADD SWAP1 POP PUSH2 0x2DD6 PUSH1 0x0 DUP4 ADD DUP5 PUSH2 0x2DB2 JUMP JUMPDEST SWAP3 SWAP2 POP POP JUMP JUMPDEST PUSH1 0x0 DUP2 MLOAD SWAP1 POP SWAP2 SWAP1 POP JUMP JUMPDEST PUSH1 0x0 DUP3 DUP3 MSTORE PUSH1 0x20 DUP3 ADD SWAP1 POP SWAP3 SWAP2 POP POP JUMP JUMPDEST PUSH1 0x0 JUMPDEST DUP4 DUP2 LT ISZERO PUSH2 0x2E16 JUMPI DUP1 DUP3 ADD MLOAD DUP2 DUP5 ADD MSTORE PUSH1 0x20 DUP2 ADD SWAP1 POP PUSH2 0x2DFB JUMP JUMPDEST PUSH1 0x0 DUP5 DUP5 ADD MSTORE POP POP POP POP JUMP JUMPDEST PUSH1 0x0 PUSH1 0x1F NOT PUSH1 0x1F DUP4 ADD AND SWAP1 POP SWAP2 SWAP1 POP JUMP JUMPDEST PUSH1 0x0 PUSH2 0x2E3E DUP3 PUSH2 0x2DDC JUMP JUMPDEST PUSH2 0x2E48 DUP2 DUP6 PUSH2 0x2DE7 JUMP JUMPDEST SWAP4 POP PUSH2 0x2E58 DUP2 DUP6 PUSH1 0x20 DUP7 ADD PUSH2 0x2DF8 JUMP JUMPDEST PUSH2 0x2E61 DUP2 PUSH2 0x2E22 JUMP JUMPDEST DUP5 ADD SWAP2 POP POP SWAP3 SWAP2 POP POP JUMP JUMPDEST PUSH1 0x0 PUSH1 0x20 DUP3 ADD SWAP1 POP DUP2 DUP2 SUB PUSH1 0x0 DUP4 ADD MSTORE PUSH2 0x2E86 DUP2 DUP5 PUSH2 0x2E33 JUMP JUMPDEST SWAP1 POP SWAP3 SWAP2 POP POP JUMP JUMPDEST PUSH1 0x0 PUSH1 0x40 DUP3 ADD SWAP1 POP PUSH2 0x2EA3 PUSH1 0x0 DUP4 ADD DUP6 PUSH2 0x2DB2 JUMP JUMPDEST PUSH2 0x2EB0 PUSH1 0x20 DUP4 ADD DUP5 PUSH2 0x2DB2 JUMP JUMPDEST SWAP4 SWAP3 POP POP POP JUMP JUMPDEST PUSH1 0x0 PUSH20 0xFFFFFFFFFFFFFFFFFFFFFFFFFFFFFFFFFFFFFFFF DUP3 AND SWAP1 POP SWAP2 SWAP1 POP JUMP JUMPDEST PUSH1 0x0 PUSH2 0x2EE2 DUP3 PUSH2 0x2EB7 JUMP JUMPDEST SWAP1 POP SWAP2 SWAP1 POP JUMP JUMPDEST PUSH2 0x2EF2 DUP2 PUSH2 0x2ED7 JUMP JUMPDEST DUP2 EQ PUSH2 0x2EFD JUMPI PUSH1 0x0 DUP1 REVERT JUMPDEST POP JUMP JUMPDEST PUSH1 0x0 DUP2 CALLDATALOAD SWAP1 POP PUSH2 0x2F0F DUP2 PUSH2 0x2EE9 JUMP JUMPDEST SWAP3 SWAP2 POP POP JUMP JUMPDEST PUSH1 0x0 DUP1 PUSH1 0x40 DUP4 DUP6 SUB SLT ISZERO PUSH2 0x2F2C JUMPI PUSH2 0x2F2B PUSH2 0x2D24 JUMP JUMPDEST JUMPDEST PUSH1 0x0 PUSH2 0x2F3A DUP6 DUP3 DUP7 ADD PUSH2 0x2F00 JUMP JUMPDEST SWAP3 POP POP PUSH1 0x20 PUSH2 0x2F4B DUP6 DUP3 DUP7 ADD PUSH2 0x2D4A JUMP JUMPDEST SWAP2 POP POP SWAP3 POP SWAP3 SWAP1 POP JUMP JUMPDEST PUSH1 0x0 DUP2 ISZERO ISZERO SWAP1 POP SWAP2 SWAP1 POP JUMP JUMPDEST PUSH2 0x2F6A DUP2 PUSH2 0x2F55 JUMP JUMPDEST DUP3 MSTORE POP POP JUMP JUMPDEST PUSH1 0x0 PUSH1 0x20 DUP3 ADD SWAP1 POP PUSH2 0x2F85 PUSH1 0x0 DUP4 ADD DUP5 PUSH2 0x2F61 JUMP JUMPDEST SWAP3 SWAP2 POP POP JUMP JUMPDEST PUSH1 0x0 DUP2 SWAP1 POP SWAP2 SWAP1 POP JUMP JUMPDEST PUSH1 0x0 PUSH2 0x2FB0 PUSH2 0x2FAB PUSH2 0x2FA6 DUP5 PUSH2 0x2EB7 JUMP JUMPDEST PUSH2 0x2F8B JUMP JUMPDEST PUSH2 0x2EB7 JUMP JUMPDEST SWAP1 POP SWAP2 SWAP1 POP JUMP JUMPDEST PUSH1 0x0 PUSH2 0x2FC2 DUP3 PUSH2 0x2F95 JUMP JUMPDEST SWAP1 POP SWAP2 SWAP1 POP JUMP JUMPDEST PUSH1 0x0 PUSH2 0x2FD4 DUP3 PUSH2 0x2FB7 JUMP JUMPDEST SWAP1 POP SWAP2 SWAP1 POP JUMP JUMPDEST PUSH2 0x2FE4 DUP2 PUSH2 0x2FC9 JUMP JUMPDEST DUP3 MSTORE POP POP JUMP JUMPDEST PUSH1 0x0 PUSH1 0x20 DUP3 ADD SWAP1 POP PUSH2 0x2FFF PUSH1 0x0 DUP4 ADD DUP5 PUSH2 0x2FDB JUMP JUMPDEST SWAP3 SWAP2 POP POP JUMP JUMPDEST PUSH1 0x0 DUP1 PUSH1 0x0 PUSH1 0x60 DUP5 DUP7 SUB SLT ISZERO PUSH2 0x301E JUMPI PUSH2 0x301D PUSH2 0x2D24 JUMP JUMPDEST JUMPDEST PUSH1 0x0 PUSH2 0x302C DUP7 DUP3 DUP8 ADD PUSH2 0x2F00 JUMP JUMPDEST SWAP4 POP POP PUSH1 0x20 PUSH2 0x303D DUP7 DUP3 DUP8 ADD PUSH2 0x2F00 JUMP JUMPDEST SWAP3 POP POP PUSH1 0x40 PUSH2 0x304E DUP7 DUP3 DUP8 ADD PUSH2 0x2D4A JUMP JUMPDEST SWAP2 POP POP SWAP3 POP SWAP3 POP SWAP3 JUMP JUMPDEST PUSH1 0x0 PUSH1 0xFF DUP3 AND SWAP1 POP SWAP2 SWAP1 POP JUMP JUMPDEST PUSH2 0x306E DUP2 PUSH2 0x3058 JUMP JUMPDEST DUP3 MSTORE POP POP JUMP JUMPDEST PUSH1 0x0 PUSH1 0x20 DUP3 ADD SWAP1 POP PUSH2 0x3089 PUSH1 0x0 DUP4 ADD DUP5 PUSH2 0x3065 JUMP JUMPDEST SWAP3 SWAP2 POP POP JUMP JUMPDEST PUSH1 0x0 PUSH1 0x20 DUP3 DUP5 SUB SLT ISZERO PUSH2 0x30A5 JUMPI PUSH2 0x30A4 PUSH2 0x2D24 JUMP JUMPDEST JUMPDEST PUSH1 0x0 PUSH2 0x30B3 DUP5 DUP3 DUP6 ADD PUSH2 0x2F00 JUMP JUMPDEST SWAP2 POP POP SWAP3 SWAP2 POP POP JUMP JUMPDEST PUSH1 0x0 DUP1 PUSH1 0x0 PUSH1 0x60 DUP5 DUP7 SUB SLT ISZERO PUSH2 0x30D5 JUMPI PUSH2 0x30D4 PUSH2 0x2D24 JUMP JUMPDEST JUMPDEST PUSH1 0x0 PUSH2 0x30E3 DUP7 DUP3 DUP8 ADD PUSH2 0x2F00 JUMP JUMPDEST SWAP4 POP POP PUSH1 0x20 PUSH2 0x30F4 DUP7 DUP3 DUP8 ADD PUSH2 0x2D4A JUMP JUMPDEST SWAP3 POP POP PUSH1 0x40 PUSH2 0x3105 DUP7 DUP3 DUP8 ADD PUSH2 0x2D4A JUMP JUMPDEST SWAP2 POP POP SWAP3 POP SWAP3 POP SWAP3 JUMP JUMPDEST PUSH1 0x0 PUSH1 0x20 DUP3 DUP5 SUB SLT ISZERO PUSH2 0x3125 JUMPI PUSH2 0x3124 PUSH2 0x2D24 JUMP JUMPDEST JUMPDEST PUSH1 0x0 PUSH2 0x3133 DUP5 DUP3 DUP6 ADD PUSH2 0x2D4A JUMP JUMPDEST SWAP2 POP POP SWAP3 SWAP2 POP POP JUMP JUMPDEST PUSH1 0x0 DUP1 PUSH1 0x40 DUP4 DUP6 SUB SLT ISZERO PUSH2 0x3153 JUMPI PUSH2 0x3152 PUSH2 0x2D24 JUMP JUMPDEST JUMPDEST PUSH1 0x0 PUSH2 0x3161 DUP6 DUP3 DUP7 ADD PUSH2 0x2F00 JUMP JUMPDEST SWAP3 POP POP PUSH1 0x20 PUSH2 0x3172 DUP6 DUP3 DUP7 ADD PUSH2 0x2F00 JUMP JUMPDEST SWAP2 POP POP SWAP3 POP SWAP3 SWAP1 POP JUMP JUMPDEST PUSH1 0x0 DUP1 PUSH1 0x40 DUP4 DUP6 SUB SLT ISZERO PUSH2 0x3193 JUMPI PUSH2 0x3192 PUSH2 0x2D24 JUMP JUMPDEST JUMPDEST PUSH1 0x0 PUSH2 0x31A1 DUP6 DUP3 DUP7 ADD PUSH2 0x2D4A JUMP JUMPDEST SWAP3 POP POP PUSH1 0x20 PUSH2 0x31B2 DUP6 DUP3 DUP7 ADD PUSH2 0x2D4A JUMP JUMPDEST SWAP2 POP POP SWAP3 POP SWAP3 SWAP1 POP JUMP JUMPDEST PUSH32 0x496E73756666696369656E7420696E70757420616D6F756E7400000000000000 PUSH1 0x0 DUP3 ADD MSTORE POP JUMP JUMPDEST PUSH1 0x0 PUSH2 0x31F2 PUSH1 0x19 DUP4 PUSH2 0x2DE7 JUMP JUMPDEST SWAP2 POP PUSH2 0x31FD DUP3 PUSH2 0x31BC JUMP JUMPDEST PUSH1 0x20 DUP3 ADD SWAP1 POP SWAP2 SWAP1 POP JUMP JUMPDEST PUSH1 0x0 PUSH1 0x20 DUP3 ADD SWAP1 POP DUP2 DUP2 SUB PUSH1 0x0 DUP4 ADD MSTORE PUSH2 0x3221 DUP2 PUSH2 0x31E5 JUMP JUMPDEST SWAP1 POP SWAP2 SWAP1 POP JUMP JUMPDEST PUSH32 0x496E73756666696369656E74206C697175696469747900000000000000000000 PUSH1 0x0 DUP3 ADD MSTORE POP JUMP JUMPDEST PUSH1 0x0 PUSH2 0x325E PUSH1 0x16 DUP4 PUSH2 0x2DE7 JUMP JUMPDEST SWAP2 POP PUSH2 0x3269 DUP3 PUSH2 0x3228 JUMP JUMPDEST PUSH1 0x20 DUP3 ADD SWAP1 POP SWAP2 SWAP1 POP JUMP JUMPDEST PUSH1 0x0 PUSH1 0x20 DUP3 ADD SWAP1 POP DUP2 DUP2 SUB PUSH1 0x0 DUP4 ADD MSTORE PUSH2 0x328D DUP2 PUSH2 0x3251 JUMP JUMPDEST SWAP1 POP SWAP2 SWAP1 POP JUMP JUMPDEST PUSH32 0x4E487B7100000000000000000000000000000000000000000000000000000000 PUSH1 0x0 MSTORE PUSH1 0x11 PUSH1 0x4 MSTORE PUSH1 0x24 PUSH1 0x0 REVERT JUMPDEST PUSH1 0x0 PUSH2 0x32CE DUP3 PUSH2 0x2D29 JUMP JUMPDEST SWAP2 POP PUSH2 0x32D9 DUP4 PUSH2 0x2D29 JUMP JUMPDEST SWAP3 POP DUP3 DUP3 MUL PUSH2 0x32E7 DUP2 PUSH2 0x2D29 JUMP JUMPDEST SWAP2 POP DUP3 DUP3 DIV DUP5 EQ DUP4 ISZERO OR PUSH2 0x32FE JUMPI PUSH2 0x32FD PUSH2 0x3294 JUMP JUMPDEST JUMPDEST POP SWAP3 SWAP2 POP POP JUMP JUMPDEST PUSH1 0x0 PUSH2 0x3310 DUP3 PUSH2 0x2D29 JUMP JUMPDEST SWAP2 POP PUSH2 0x331B DUP4 PUSH2 0x2D29 JUMP JUMPDEST SWAP3 POP DUP3 DUP3 ADD SWAP1 POP DUP1 DUP3 GT ISZERO PUSH2 0x3333 JUMPI PUSH2 0x3332 PUSH2 0x3294 JUMP JUMPDEST JUMPDEST SWAP3 SWAP2 POP POP JUMP JUMPDEST PUSH32 0x4E487B7100000000000000000000000000000000000000000000000000000000 PUSH1 0x0 MSTORE PUSH1 0x12 PUSH1 0x4 MSTORE PUSH1 0x24 PUSH1 0x0 REVERT JUMPDEST PUSH1 0x0 PUSH2 0x3373 DUP3 PUSH2 0x2D29 JUMP JUMPDEST SWAP2 POP PUSH2 0x337E DUP4 PUSH2 0x2D29 JUMP JUMPDEST SWAP3 POP DUP3 PUSH2 0x338E JUMPI PUSH2 0x338D PUSH2 0x3339 JUMP JUMPDEST JUMPDEST DUP3 DUP3 DIV SWAP1 POP SWAP3 SWAP2 POP POP JUMP JUMPDEST PUSH32 0x4E487B7100000000000000000000000000000000000000000000000000000000 PUSH1 0x0 MSTORE PUSH1 0x22 PUSH1 0x4 MSTORE PUSH1 0x24 PUSH1 0x0 REVERT JUMPDEST PUSH1 0x0 PUSH1 0x2 DUP3 DIV SWAP1 POP PUSH1 0x1 DUP3 AND DUP1 PUSH2 0x33E0 JUMPI PUSH1 0x7F DUP3 AND SWAP2 POP JUMPDEST PUSH1 0x20 DUP3 LT DUP2 SUB PUSH2 0x33F3 JUMPI PUSH2 0x33F2 PUSH2 0x3399 JUMP JUMPDEST JUMPDEST POP SWAP2 SWAP1 POP JUMP JUMPDEST PUSH32 0x496E73756666696369656E74206F757470757420616D6F756E74000000000000 PUSH1 0x0 DUP3 ADD MSTORE POP JUMP JUMPDEST PUSH1 0x0 PUSH2 0x342F PUSH1 0x1A DUP4 PUSH2 0x2DE7 JUMP JUMPDEST SWAP2 POP PUSH2 0x343A DUP3 PUSH2 0x33F9 JUMP JUMPDEST PUSH1 0x20 DUP3 ADD SWAP1 POP SWAP2 SWAP1 POP JUMP JUMPDEST PUSH1 0x0 PUSH1 0x20 DUP3 ADD SWAP1 POP DUP2 DUP2 SUB PUSH1 0x0 DUP4 ADD MSTORE PUSH2 0x345E DUP2 PUSH2 0x3422 JUMP JUMPDEST SWAP1 POP SWAP2 SWAP1 POP JUMP JUMPDEST PUSH1 0x0 PUSH2 0x3470 DUP3 PUSH2 0x2D29 JUMP JUMPDEST SWAP2 POP PUSH2 0x347B DUP4 PUSH2 0x2D29 JUMP JUMPDEST SWAP3 POP DUP3 DUP3 SUB SWAP1 POP DUP2 DUP2 GT ISZERO PUSH2 0x3493 JUMPI PUSH2 0x3492 PUSH2 0x3294 JUMP JUMPDEST JUMPDEST SWAP3 SWAP2 POP POP JUMP JUMPDEST PUSH32 0x496E76616C696420746F6B656E00000000000000000000000000000000000000 PUSH1 0x0 DUP3 ADD MSTORE POP JUMP JUMPDEST PUSH1 0x0 PUSH2 0x34CF PUSH1 0xD DUP4 PUSH2 0x2DE7 JUMP JUMPDEST SWAP2 POP PUSH2 0x34DA DUP3 PUSH2 0x3499 JUMP JUMPDEST PUSH1 0x20 DUP3 ADD SWAP1 POP SWAP2 SWAP1 POP JUMP JUMPDEST PUSH1 0x0 PUSH1 0x20 DUP3 ADD SWAP1 POP DUP2 DUP2 SUB PUSH1 0x0 DUP4 ADD MSTORE PUSH2 0x34FE DUP2 PUSH2 0x34C2 JUMP JUMPDEST SWAP1 POP SWAP2 SWAP1 POP JUMP JUMPDEST PUSH2 0x350E DUP2 PUSH2 0x2ED7 JUMP JUMPDEST DUP3 MSTORE POP POP JUMP JUMPDEST PUSH1 0x0 PUSH1 0x60 DUP3 ADD SWAP1 POP PUSH2 0x3529 PUSH1 0x0 DUP4 ADD DUP7 PUSH2 0x3505 JUMP JUMPDEST PUSH2 0x3536 PUSH1 0x20 DUP4 ADD DUP6 PUSH2 0x3505 JUMP JUMPDEST PUSH2 0x3543 PUSH1 0x40 DUP4 ADD DUP5 PUSH2 0x2DB2 JUMP JUMPDEST SWAP5 SWAP4 POP POP POP POP JUMP JUMPDEST PUSH2 0x3554 DUP2 PUSH2 0x2F55 JUMP JUMPDEST DUP2 EQ PUSH2 0x355F JUMPI PUSH1 0x0 DUP1 REVERT JUMPDEST POP JUMP JUMPDEST PUSH1 0x0 DUP2 MLOAD SWAP1 POP PUSH2 0x3571 DUP2 PUSH2 0x354B JUMP JUMPDEST SWAP3 SWAP2 POP POP JUMP JUMPDEST PUSH1 0x0 PUSH1 0x20 DUP3 DUP5 SUB SLT ISZERO PUSH2 0x358D JUMPI PUSH2 0x358C PUSH2 0x2D24 JUMP JUMPDEST JUMPDEST PUSH1 0x0 PUSH2 0x359B DUP5 DUP3 DUP6 ADD PUSH2 0x3562 JUMP JUMPDEST SWAP2 POP POP SWAP3 SWAP2 POP POP JUMP JUMPDEST PUSH1 0x0 PUSH1 0x40 DUP3 ADD SWAP1 POP PUSH2 0x35B9 PUSH1 0x0 DUP4 ADD DUP6 PUSH2 0x3505 JUMP JUMPDEST PUSH2 0x35C6 PUSH1 0x20 DUP4 ADD DUP5 PUSH2 0x2DB2 JUMP JUMPDEST SWAP4 SWAP3 POP POP POP JUMP JUMPDEST PUSH32 0x45524332303A2064656372656173656420616C6C6F77616E63652062656C6F77 PUSH1 0x0 DUP3 ADD MSTORE PUSH32 0x207A65726F000000000000000000000000000000000000000000000000000000 PUSH1 0x20 DUP3 ADD MSTORE POP JUMP JUMPDEST PUSH1 0x0 PUSH2 0x3629 PUSH1 0x25 DUP4 PUSH2 0x2DE7 JUMP JUMPDEST SWAP2 POP PUSH2 0x3634 DUP3 PUSH2 0x35CD JUMP JUMPDEST PUSH1 0x40 DUP3 ADD SWAP1 POP SWAP2 SWAP1 POP JUMP JUMPDEST PUSH1 0x0 PUSH1 0x20 DUP3 ADD SWAP1 POP DUP2 DUP2 SUB PUSH1 0x0 DUP4 ADD MSTORE PUSH2 0x3658 DUP2 PUSH2 0x361C JUMP JUMPDEST SWAP1 POP SWAP2 SWAP1 POP JUMP JUMPDEST PUSH32 0x496E73756666696369656E74206C6971756964697479206275726E6564000000 PUSH1 0x0 DUP3 ADD MSTORE POP JUMP JUMPDEST PUSH1 0x0 PUSH2 0x3695 PUSH1 0x1D DUP4 PUSH2 0x2DE7 JUMP JUMPDEST SWAP2 POP PUSH2 0x36A0 DUP3 PUSH2 0x365F JUMP JUMPDEST PUSH1 0x20 DUP3 ADD SWAP1 POP SWAP2 SWAP1 POP JUMP JUMPDEST PUSH1 0x0 PUSH1 0x20 DUP3 ADD SWAP1 POP DUP2 DUP2 SUB PUSH1 0x0 DUP4 ADD MSTORE PUSH2 0x36C4 DUP2 PUSH2 0x3688 JUMP JUMPDEST SWAP1 POP SWAP2 SWAP1 POP JUMP JUMPDEST PUSH32 0x496E73756666696369656E742062616C616E6365000000000000000000000000 PUSH1 0x0 DUP3 ADD MSTORE POP JUMP JUMPDEST PUSH1 0x0 PUSH2 0x3701 PUSH1 0x14 DUP4 PUSH2 0x2DE7 JUMP JUMPDEST SWAP2 POP PUSH2 0x370C DUP3 PUSH2 0x36CB JUMP JUMPDEST PUSH1 0x20 DUP3 ADD SWAP1 POP SWAP2 SWAP1 POP JUMP JUMPDEST PUSH1 0x0 PUSH1 0x20 DUP3 ADD SWAP1 POP DUP2 DUP2 SUB PUSH1 0x0 DUP4 ADD MSTORE PUSH2 0x3730 DUP2 PUSH2 0x36F4 JUMP JUMPDEST SWAP1 POP SWAP2 SWAP1 POP JUMP JUMPDEST PUSH1 0x0 PUSH1 0x60 DUP3 ADD SWAP1 POP PUSH2 0x374C PUSH1 0x0 DUP4 ADD DUP7 PUSH2 0x2DB2 JUMP JUMPDEST PUSH2 0x3759 PUSH1 0x20 DUP4 ADD DUP6 PUSH2 0x2DB2 JUMP JUMPDEST PUSH2 0x3766 PUSH1 0x40 DUP4 ADD DUP5 PUSH2 0x2DB2 JUMP JUMPDEST SWAP5 SWAP4 POP POP POP POP JUMP JUMPDEST PUSH32 0x496E73756666696369656E7420696E70757420616D6F756E7473000000000000 PUSH1 0x0 DUP3 ADD MSTORE POP JUMP JUMPDEST PUSH1 0x0 PUSH2 0x37A4 PUSH1 0x1A DUP4 PUSH2 0x2DE7 JUMP JUMPDEST SWAP2 POP PUSH2 0x37AF DUP3 PUSH2 0x376E JUMP JUMPDEST PUSH1 0x20 DUP3 ADD SWAP1 POP SWAP2 SWAP1 POP JUMP JUMPDEST PUSH1 0x0 PUSH1 0x20 DUP3 ADD SWAP1 POP DUP2 DUP2 SUB PUSH1 0x0 DUP4 ADD MSTORE PUSH2 0x37D3 DUP2 PUSH2 0x3797 JUMP JUMPDEST SWAP1 POP SWAP2 SWAP1 POP JUMP JUMPDEST PUSH32 0x496E73756666696369656E74206C6971756964697479206D696E746564000000 PUSH1 0x0 DUP3 ADD MSTORE POP JUMP JUMPDEST PUSH1 0x0 PUSH2 0x3810 PUSH1 0x1D DUP4 PUSH2 0x2DE7 JUMP JUMPDEST SWAP2 POP PUSH2 0x381B DUP3 PUSH2 0x37DA JUMP JUMPDEST PUSH1 0x20 DUP3 ADD SWAP1 POP SWAP2 SWAP1 POP JUMP JUMPDEST PUSH1 0x0 PUSH1 0x20 DUP3 ADD SWAP1 POP DUP2 DUP2 SUB PUSH1 0x0 DUP4 ADD MSTORE PUSH2 0x383F DUP2 PUSH2 0x3803 JUMP JUMPDEST SWAP1 POP SWAP2 SWAP1 POP JUMP JUMPDEST PUSH32 0x45524332303A20617070726F76652066726F6D20746865207A65726F20616464 PUSH1 0x0 DUP3 ADD MSTORE PUSH32 0x7265737300000000000000000000000000000000000000000000000000000000 PUSH1 0x20 DUP3 ADD MSTORE POP JUMP JUMPDEST PUSH1 0x0 PUSH2 0x38A2 PUSH1 0x24 DUP4 PUSH2 0x2DE7 JUMP JUMPDEST SWAP2 POP PUSH2 0x38AD DUP3 PUSH2 0x3846 JUMP JUMPDEST PUSH1 0x40 DUP3 ADD SWAP1 POP SWAP2 SWAP1 POP JUMP JUMPDEST PUSH1 0x0 PUSH1 0x20 DUP3 ADD SWAP1 POP DUP2 DUP2 SUB PUSH1 0x0 DUP4 ADD MSTORE PUSH2 0x38D1 DUP2 PUSH2 0x3895 JUMP JUMPDEST SWAP1 POP SWAP2 SWAP1 POP JUMP JUMPDEST PUSH32 0x45524332303A20617070726F766520746F20746865207A65726F206164647265 PUSH1 0x0 DUP3 ADD MSTORE PUSH32 0x7373000000000000000000000000000000000000000000000000000000000000 PUSH1 0x20 DUP3 ADD MSTORE POP JUMP JUMPDEST PUSH1 0x0 PUSH2 0x3934 PUSH1 0x22 DUP4 PUSH2 0x2DE7 JUMP JUMPDEST SWAP2 POP PUSH2 0x393F DUP3 PUSH2 0x38D8 JUMP JUMPDEST PUSH1 0x40 DUP3 ADD SWAP1 POP SWAP2 SWAP1 POP JUMP JUMPDEST PUSH1 0x0 PUSH1 0x20 DUP3 ADD SWAP1 POP DUP2 DUP2 SUB PUSH1 0x0 DUP4 ADD MSTORE PUSH2 0x3963 DUP2 PUSH2 0x3927 JUMP JUMPDEST SWAP1 POP SWAP2 SWAP1 POP JUMP JUMPDEST PUSH32 0x45524332303A20696E73756666696369656E7420616C6C6F77616E6365000000 PUSH1 0x0 DUP3 ADD MSTORE POP JUMP JUMPDEST PUSH1 0x0 PUSH2 0x39A0 PUSH1 0x1D DUP4 PUSH2 0x2DE7 JUMP JUMPDEST SWAP2 POP PUSH2 0x39AB DUP3 PUSH2 0x396A JUMP JUMPDEST PUSH1 0x20 DUP3 ADD SWAP1 POP SWAP2 SWAP1 POP JUMP JUMPDEST PUSH1 0x0 PUSH1 0x20 DUP3 ADD SWAP1 POP DUP2 DUP2 SUB PUSH1 0x0 DUP4 ADD MSTORE PUSH2 0x39CF DUP2 PUSH2 0x3993 JUMP JUMPDEST SWAP1 POP SWAP2 SWAP1 POP JUMP JUMPDEST PUSH32 0x45524332303A207472616E736665722066726F6D20746865207A65726F206164 PUSH1 0x0 DUP3 ADD MSTORE PUSH32 0x6472657373000000000000000000000000000000000000000000000000000000 PUSH1 0x20 DUP3 ADD MSTORE POP JUMP JUMPDEST PUSH1 0x0 PUSH2 0x3A32 PUSH1 0x25 DUP4 PUSH2 0x2DE7 JUMP JUMPDEST SWAP2 POP PUSH2 0x3A3D DUP3 PUSH2 0x39D6 JUMP JUMPDEST PUSH1 0x40 DUP3 ADD SWAP1 POP SWAP2 SWAP1 POP JUMP JUMPDEST PUSH1 0x0 PUSH1 0x20 DUP3 ADD SWAP1 POP DUP2 DUP2 SUB PUSH1 0x0 DUP4 ADD MSTORE PUSH2 0x3A61 DUP2 PUSH2 0x3A25 JUMP JUMPDEST SWAP1 POP SWAP2 SWAP1 POP JUMP JUMPDEST PUSH32 0x45524332303A207472616E7366657220746F20746865207A65726F2061646472 PUSH1 0x0 DUP3 ADD MSTORE PUSH32 0x6573730000000000000000000000000000000000000000000000000000000000 PUSH1 0x20 DUP3 ADD MSTORE POP JUMP JUMPDEST PUSH1 0x0 PUSH2 0x3AC4 PUSH1 0x23 DUP4 PUSH2 0x2DE7 JUMP JUMPDEST SWAP2 POP PUSH2 0x3ACF DUP3 PUSH2 0x3A68 JUMP JUMPDEST PUSH1 0x40 DUP3 ADD SWAP1 POP SWAP2 SWAP1 POP JUMP JUMPDEST PUSH1 0x0 PUSH1 0x20 DUP3 ADD SWAP1 POP DUP2 DUP2 SUB PUSH1 0x0 DUP4 ADD MSTORE PUSH2 0x3AF3 DUP2 PUSH2 0x3AB7 JUMP JUMPDEST SWAP1 POP SWAP2 SWAP1 POP JUMP JUMPDEST PUSH32 0x45524332303A207472616E7366657220616D6F756E7420657863656564732062 PUSH1 0x0 DUP3 ADD MSTORE PUSH32 0x616C616E63650000000000000000000000000000000000000000000000000000 PUSH1 0x20 DUP3 ADD MSTORE POP JUMP JUMPDEST PUSH1 0x0 PUSH2 0x3B56 PUSH1 0x26 DUP4 PUSH2 0x2DE7 JUMP JUMPDEST SWAP2 POP PUSH2 0x3B61 DUP3 PUSH2 0x3AFA JUMP JUMPDEST PUSH1 0x40 DUP3 ADD SWAP1 POP SWAP2 SWAP1 POP JUMP JUMPDEST PUSH1 0x0 PUSH1 0x20 DUP3 ADD SWAP1 POP DUP2 DUP2 SUB PUSH1 0x0 DUP4 ADD MSTORE PUSH2 0x3B85 DUP2 PUSH2 0x3B49 JUMP JUMPDEST SWAP1 POP SWAP2 SWAP1 POP JUMP JUMPDEST PUSH32 0x5265656E7472616E637947756172643A207265656E7472616E742063616C6C00 PUSH1 0x0 DUP3 ADD MSTORE POP JUMP JUMPDEST PUSH1 0x0 PUSH2 0x3BC2 PUSH1 0x1F DUP4 PUSH2 0x2DE7 JUMP JUMPDEST SWAP2 POP PUSH2 0x3BCD DUP3 PUSH2 0x3B8C JUMP JUMPDEST PUSH1 0x20 DUP3 ADD SWAP1 POP SWAP2 SWAP1 POP JUMP JUMPDEST PUSH1 0x0 PUSH1 0x20 DUP3 ADD SWAP1 POP DUP2 DUP2 SUB PUSH1 0x0 DUP4 ADD MSTORE PUSH2 0x3BF1 DUP2 PUSH2 0x3BB5 JUMP JUMPDEST SWAP1 POP SWAP2 SWAP1 POP JUMP JUMPDEST PUSH1 0x0 PUSH1 0x20 DUP3 ADD SWAP1 POP PUSH2 0x3C0D PUSH1 0x0 DUP4 ADD DUP5 PUSH2 0x3505 JUMP JUMPDEST SWAP3 SWAP2 POP POP JUMP JUMPDEST PUSH1 0x0 DUP2 MLOAD SWAP1 POP PUSH2 0x3C22 DUP2 PUSH2 0x2D33 JUMP JUMPDEST SWAP3 SWAP2 POP POP JUMP JUMPDEST PUSH1 0x0 PUSH1 0x20 DUP3 DUP5 SUB SLT ISZERO PUSH2 0x3C3E JUMPI PUSH2 0x3C3D PUSH2 0x2D24 JUMP JUMPDEST JUMPDEST PUSH1 0x0 PUSH2 0x3C4C DUP5 DUP3 DUP6 ADD PUSH2 0x3C13 JUMP JUMPDEST SWAP2 POP POP SWAP3 SWAP2 POP POP JUMP JUMPDEST PUSH32 0x45524332303A206275726E2066726F6D20746865207A65726F20616464726573 PUSH1 0x0 DUP3 ADD MSTORE PUSH32 0x7300000000000000000000000000000000000000000000000000000000000000 PUSH1 0x20 DUP3 ADD MSTORE POP JUMP JUMPDEST PUSH1 0x0 PUSH2 0x3CB1 PUSH1 0x21 DUP4 PUSH2 0x2DE7 JUMP JUMPDEST SWAP2 POP PUSH2 0x3CBC DUP3 PUSH2 0x3C55 JUMP JUMPDEST PUSH1 0x40 DUP3 ADD SWAP1 POP SWAP2 SWAP1 POP JUMP JUMPDEST PUSH1 0x0 PUSH1 0x20 DUP3 ADD SWAP1 POP DUP2 DUP2 SUB PUSH1 0x0 DUP4 ADD MSTORE PUSH2 0x3CE0 DUP2 PUSH2 0x3CA4 JUMP JUMPDEST SWAP1 POP SWAP2 SWAP1 POP JUMP JUMPDEST PUSH32 0x45524332303A206275726E20616D6F756E7420657863656564732062616C616E PUSH1 0x0 DUP3 ADD MSTORE PUSH32 0x6365000000000000000000000000000000000000000000000000000000000000 PUSH1 0x20 DUP3 ADD MSTORE POP JUMP JUMPDEST PUSH1 0x0 PUSH2 0x3D43 PUSH1 0x22 DUP4 PUSH2 0x2DE7 JUMP JUMPDEST SWAP2 POP PUSH2 0x3D4E DUP3 PUSH2 0x3CE7 JUMP JUMPDEST PUSH1 0x40 DUP3 ADD SWAP1 POP SWAP2 SWAP1 POP JUMP JUMPDEST PUSH1 0x0 PUSH1 0x20 DUP3 ADD SWAP1 POP DUP2 DUP2 SUB PUSH1 0x0 DUP4 ADD MSTORE PUSH2 0x3D72 DUP2 PUSH2 0x3D36 JUMP JUMPDEST SWAP1 POP SWAP2 SWAP1 POP JUMP JUMPDEST PUSH32 0x45524332303A206D696E7420746F20746865207A65726F206164647265737300 PUSH1 0x0 DUP3 ADD MSTORE POP JUMP JUMPDEST PUSH1 0x0 PUSH2 0x3DAF PUSH1 0x1F DUP4 PUSH2 0x2DE7 JUMP JUMPDEST SWAP2 POP PUSH2 0x3DBA DUP3 PUSH2 0x3D79 JUMP JUMPDEST PUSH1 0x20 DUP3 ADD SWAP1 POP SWAP2 SWAP1 POP JUMP JUMPDEST PUSH1 0x0 PUSH1 0x20 DUP3 ADD SWAP1 POP DUP2 DUP2 SUB PUSH1 0x0 DUP4 ADD MSTORE PUSH2 0x3DDE DUP2 PUSH2 0x3DA2 JUMP JUMPDEST SWAP1 POP SWAP2 SWAP1 POP JUMP INVALID LOG2 PUSH5 0x6970667358 0x22 SLT KECCAK256 0x4B 0x1E 0x5D 0xB9 CODESIZE CALLDATASIZE 0x1F DUP7 PUSH12 0xBDD886CA231315DD01385907 MULMOD 0xBD 0x2F SELFDESTRUCT CODECOPY 0xFC 0xBB 0xD9 BALANCE OR PUSH20 0x64736F6C63430008140033000000000000000000 "},"methodIdentifiers":{"allowance(address,address)":"dd62ed3e","approve(address,uint256)":"095ea7b3","balanceOf(address)":"70a08231","decimals()":"313ce567","decreaseAllowance(address,uint256)":"a457c2d7","deposit(uint256,uint256)":"e2bbb158","getAmountIn(uint256,uint256,uint256)":"85f8c259","getAmountOut(uint256,uint256,uint256)":"054d50d4","getReserves()":"0902f1ac","increaseAllowance(address,uint256)":"39509351","name()":"06fdde03","redeem(uint256)":"db006a75","reserveA()":"dc5fa6c5","reserveB()":"19e36f3b","swap(address,uint256,uint256)":"9f1d0f59","symbol()":"95d89b41","tokenA()":"0fc63d10","tokenB()":"5f64b55b","totalSupply()":"18160ddd","transfer(address,uint256)":"a9059cbb","transferFrom(address,address,uint256)":"23b872dd"}}}}}