{
  "_format": "hh-sol-artifact-1",
  "contractName": "MaliciousReentrant",
  "sourceName": "contracts/MaliciousReentrant.sol",
  "abi": [
    {
      "inputs": [
        {
          "internalType": "address",
          "name": "_amm",
          "type": "address"
        }
      ],
      "stateMutability": "nonpayable",
      "type": "constructor"
    },
    {
      "anonymous": false,
      "inputs": [
        {
          "indexed": true,
          "internalType": "address",
          "name": "owner",
          "type": "address"
        },
        {
          "indexed": true,
          "internalType": "address",
          "name": "spender",
          "type": "address"
        },
        {
          "indexed": false,
          "internalType": "uint256",
          "name": "value",
          "type": "uint256"
        }
      ],
      "name": "Approval",
      "type": "event"
    },
    {
      "anonymous": false,
      "inputs": [
        {
          "indexed": true,
          "internalType": "address",
          "name": "from",
          "type": "address"
        },
        {
          "indexed": true,
          "internalType": "address",
          "name": "to",
          "type": "address"
        },
        {
          "indexed": false,
          "internalType": "uint256",
          "name": "value",
          "type": "uint256"
        }
      ],
      "name": "Transfer",
      "type": "event"
    },
    {
      "inputs": [
        {
          "internalType": "address",
          "name": "",
          "type": "address"
        },
        {
          "internalType": "address",
          "name": "",
          "type": "address"
        }
      ],
      "name": "allowance",
      "outputs": [
        {
          "internalType": "uint256",
          "name": "",
          "type": "uint256"
        }
      ],
      "stateMutability": "view",
      "type": "function"
    },
    {
      "inputs": [],
      "name": "amm",
      "outputs": [
        {
          "internalType": "contract ISimpleAMM",
          "name": "",
          "type": "address"
        }
      ],
      "stateMutability": "view",
      "type": "function"
    },
    {
      "inputs": [
        {
          "internalType": "address",
          "name": "spender",
          "type": "address"
        },
        {
          "internalType": "uint256",
          "name": "amount",
          "type": "uint256"
        }
      ],
      "name": "approve",
      "outputs": [
        {
          "internalType": "bool",
          "name": "",
          "type": "bool"
        }
      ],
      "stateMutability": "nonpayable",
      "type": "function"
    },
    {
      "inputs": [
        {
          "internalType": "address",
          "name": "_tokenA",
          "type": "address"
        },
        {
          "internalType": "address",
          "name": "_tokenB",
          "type": "address"
        }
      ],
      "name": "attackDeposit",
      "outputs": [],
      "stateMutability": "nonpayable",
      "type": "function"
    },
    {
      "inputs": [],
      "name": "attackRedeem",
      "outputs": [],
      "stateMutability": "nonpayable",
      "type": "function"
    },
    {
      "inputs": [
        {
          "internalType": "address",
          "name": "tokenIn",
          "type": "address"
        },
        {
          "internalType": "uint256",
          "name": "amountIn",
          "type": "uint256"
        }
      ],
      "name": "attackSwap",
      "outputs": [],
      "stateMutability": "nonpayable",
      "type": "function"
    },
    {
      "inputs": [],
      "name": "attacking",
      "outputs": [
        {
          "internalType": "bool",
          "name": "",
          "type": "bool"
        }
      ],
      "stateMutability": "view",
      "type": "function"
    },
    {
      "inputs": [
        {
          "internalType": "address",
          "name": "",
          "type": "address"
        }
      ],
      "name": "balanceOf",
      "outputs": [
        {
          "internalType": "uint256",
          "name": "",
          "type": "uint256"
        }
      ],
      "stateMutability": "view",
      "type": "function"
    },
    {
      "inputs": [],
      "name": "decimals",
      "outputs": [
        {
          "internalType": "uint8",
          "name": "",
          "type": "uint8"
        }
      ],
      "stateMutability": "view",
      "type": "function"
    },
    {
      "inputs": [
        {
          "internalType": "address",
          "name": "tokenA",
          "type": "address"
        },
        {
          "internalType": "address",
          "name": "tokenB",
          "type": "address"
        },
        {
          "internalType": "uint256",
          "name": "amountA",
          "type": "uint256"
        },
        {
          "internalType": "uint256",
          "name": "amountB",
          "type": "uint256"
        }
      ],
      "name": "deposit",
      "outputs": [],
      "stateMutability": "nonpayable",
      "type": "function"
    },
    {
      "inputs": [
        {
          "internalType": "uint256",
          "name": "amount",
          "type": "uint256"
        }
      ],
      "name": "mint",
      "outputs": [],
      "stateMutability": "nonpayable",
      "type": "function"
    },
    {
      "inputs": [],
      "name": "name",
      "outputs": [
        {
          "internalType": "string",
          "name": "",
          "type": "string"
        }
      ],
      "stateMutability": "view",
      "type": "function"
    },
    {
      "inputs": [],
      "name": "symbol",
      "outputs": [
        {
          "internalType": "string",
          "name": "",
          "type": "string"
        }
      ],
      "stateMutability": "view",
      "type": "function"
    },
    {
      "inputs": [],
      "name": "tokenA",
      "outputs": [
        {
          "internalType": "address",
          "name": "",
          "type": "address"
        }
      ],
      "stateMutability": "view",
      "type": "function"
    },
    {
      "inputs": [],
      "name": "tokenB",
      "outputs": [
        {
          "internalType": "address",
          "name": "",
          "type": "address"
        }
      ],
      "stateMutability": "view",
      "type": "function"
    },
    {
      "inputs": [],
      "name": "totalSupply",
      "outputs": [
        {
          "internalType": "uint256",
          "name": "",
          "type": "uint256"
        }
      ],
      "stateMutability": "view",
      "type": "function"
    },
    {
      "inputs": [
        {
          "internalType": "address",
          "name": "to",
          "type": "address"
        },
        {
          "internalType": "uint256",
          "name": "amount",
          "type": "uint256"
        }
      ],
      "name": "transfer",
      "outputs": [
        {
          "internalType": "bool",
          "name": "",
          "type": "bool"
        }
      ],
      "stateMutability": "nonpayable",
      "type": "function"
    },
    {
      "inputs": [
        {
          "internalType": "address",
          "name": "from",
          "type": "address"
        },
        {
          "internalType": "address",
          "name": "to",
          "type": "address"
        },
        {
          "internalType": "uint256",
          "name": "amount",
          "type": "uint256"
        }
      ],
      "name": "transferFrom",
      "outputs": [
        {
          "internalType": "bool",
          "name": "",
          "type": "bool"
        }
      ],
      "stateMutability": "nonpayable",
      "type": "function"
    }
  ],
  "bytecode": "0x60806040526012600660006101000a81548160ff021916908360ff1602179055506040518060400160405280600981526020017f4d616c6963696f7573000000000000000000000000000000000000000000000081525060079081620000669190620003dd565b506040518060400160405280600381526020017f4d414c000000000000000000000000000000000000000000000000000000000081525060089081620000ad9190620003dd565b50348015620000bb57600080fd5b5060405162002d5238038062002d528339818101604052810190620000e191906200052e565b620000fd6754638996bdcc92ef60c01b6200016060201b60201c565b62000119671a17706a2cae9e1760c01b6200016060201b60201c565b806000806101000a81548173ffffffffffffffffffffffffffffffffffffffff021916908373ffffffffffffffffffffffffffffffffffffffff1602179055505062000560565b50565b600081519050919050565b7f4e487b7100000000000000000000000000000000000000000000000000000000600052604160045260246000fd5b7f4e487b7100000000000000000000000000000000000000000000000000000000600052602260045260246000fd5b60006002820490506001821680620001e557607f821691505b602082108103620001fb57620001fa6200019d565b5b50919050565b60008190508160005260206000209050919050565b60006020601f8301049050919050565b600082821b905092915050565b600060088302620002657fffffffffffffffffffffffffffffffffffffffffffffffffffffffffffffffff8262000226565b62000271868362000226565b95508019841693508086168417925050509392505050565b6000819050919050565b6000819050919050565b6000620002be620002b8620002b28462000289565b62000293565b62000289565b9050919050565b6000819050919050565b620002da836200029d565b620002f2620002e982620002c5565b84845462000233565b825550505050565b600090565b62000309620002fa565b62000316818484620002cf565b505050565b5b818110156200033e5762000332600082620002ff565b6001810190506200031c565b5050565b601f8211156200038d57620003578162000201565b620003628462000216565b8101602085101562000372578190505b6200038a620003818562000216565b8301826200031b565b50505b505050565b600082821c905092915050565b6000620003b26000198460080262000392565b1980831691505092915050565b6000620003cd83836200039f565b9150826002028217905092915050565b620003e88262000163565b67ffffffffffffffff8111156200040457620004036200016e565b5b620004108254620001cc565b6200041d82828562000342565b600060209050601f83116001811462000455576000841562000440578287015190505b6200044c8582620003bf565b865550620004bc565b601f198416620004658662000201565b60005b828110156200048f5784890151825560018201915060208501945060208101905062000468565b86831015620004af5784890151620004ab601f8916826200039f565b8355505b6001600288020188555050505b505050505050565b600080fd5b600073ffffffffffffffffffffffffffffffffffffffff82169050919050565b6000620004f682620004c9565b9050919050565b6200050881620004e9565b81146200051457600080fd5b50565b6000815190506200052881620004fd565b92915050565b600060208284031215620005475762000546620004c4565b5b6000620005578482850162000517565b91505092915050565b6127e280620005706000396000f3fe608060405234801561001057600080fd5b50600436106101165760003560e01c80633e0848ec116100a25780637c267f00116100715780637c267f00146102bf57806395d89b41146102db578063a0712d68146102f9578063a9059cbb14610315578063dd62ed3e1461034557610116565b80633e0848ec1461024b5780635f64b55b1461026757806370a0823114610285578063713c0b60146102b557610116565b806320e8c565116100e957806320e8c565146101a557806323b872dd146101c15780632a943945146101f1578063313ce5671461020f5780633c0bbcd91461022d57610116565b806306fdde031461011b578063095ea7b3146101395780630fc63d101461016957806318160ddd14610187575b600080fd5b610123610375565b6040516101309190611ee9565b60405180910390f35b610153600480360381019061014e9190611fa4565b610403565b6040516101609190611fff565b60405180910390f35b61017161056d565b60405161017e9190612029565b60405180910390f35b61018f610593565b60405161019c9190612053565b60405180910390f35b6101bf60048036038101906101ba919061206e565b610599565b005b6101db60048036038101906101d691906120d5565b610848565b6040516101e89190611fff565b60405180910390f35b6101f9610ff8565b6040516102069190612187565b60405180910390f35b61021761101c565b60405161022491906121be565b60405180910390f35b61023561102f565b6040516102429190611fff565b60405180910390f35b610265600480360381019061026091906121d9565b611042565b005b61026f61141e565b60405161027c9190612029565b60405180910390f35b61029f600480360381019061029a9190612219565b611444565b6040516102ac9190612053565b60405180910390f35b6102bd61145c565b005b6102d960048036038101906102d49190611fa4565b61162e565b005b6102e3611826565b6040516102f09190611ee9565b60405180910390f35b610313600480360381019061030e9190612246565b6118b4565b005b61032f600480360381019061032a9190611fa4565b6119f0565b60405161033c9190611fff565b60405180910390f35b61035f600480360381019061035a91906121d9565b611e31565b60405161036c9190612053565b60405180910390f35b60078054610382906122a2565b80601f01602080910402602001604051908101604052809291908181526020018280546103ae906122a2565b80156103fb5780601f106103d0576101008083540402835291602001916103fb565b820191906000526020600020905b8154815290600101906020018083116103de57829003601f168201915b505050505081565b6000610419676768458aa6b5309c60c01b611e56565b61042d67d14ffe7748659ddd60c01b611e56565b81600460003373ffffffffffffffffffffffffffffffffffffffff1673ffffffffffffffffffffffffffffffffffffffff16815260200190815260200160002060008573ffffffffffffffffffffffffffffffffffffffff1673ffffffffffffffffffffffffffffffffffffffff168152602001908152602001600020819055506104c26797a177b44fccdcef60c01b611e56565b6104d6670f4fe248e3bb798160c01b611e56565b8273ffffffffffffffffffffffffffffffffffffffff163373ffffffffffffffffffffffffffffffffffffffff167f8c5be1e5ebec7d5bd14f71427d1e84f3dd0314c0f7b2291e5b200ac8c7c3b925846040516105339190612053565b60405180910390a361054f67b7ba350bbf1aae0160c01b611e56565b6105636780837c27b1f10cda60c01b611e56565b6001905092915050565b600160009054906101000a900473ffffffffffffffffffffffffffffffffffffffff1681565b60055481565b6105ad67cc1eca747374691460c01b611e56565b6105c16793947b2ba96efa8060c01b611e56565b6105d5673a9a1600dccff2d760c01b611e56565b8373ffffffffffffffffffffffffffffffffffffffff1663095ea7b360008054906101000a900473ffffffffffffffffffffffffffffffffffffffff167fffffffffffffffffffffffffffffffffffffffffffffffffffffffffffffffff6040518363ffffffff1660e01b81526004016106509291906122d3565b6020604051808303816000875af115801561066f573d6000803e3d6000fd5b505050506040513d601f19601f820116820180604052508101906106939190612328565b506106a8679fcb2a35fef56afb60c01b611e56565b6106bc6739f20b62c517e0d960c01b611e56565b8273ffffffffffffffffffffffffffffffffffffffff1663095ea7b360008054906101000a900473ffffffffffffffffffffffffffffffffffffffff167fffffffffffffffffffffffffffffffffffffffffffffffffffffffffffffffff6040518363ffffffff1660e01b81526004016107379291906122d3565b6020604051808303816000875af1158015610756573d6000803e3d6000fd5b505050506040513d601f19601f8201168201806040525081019061077a9190612328565b5061078f6748521dec8abf876b60c01b611e56565b6107a367032cb99ed28e807760c01b611e56565b60008054906101000a900473ffffffffffffffffffffffffffffffffffffffff1673ffffffffffffffffffffffffffffffffffffffff1663e2bbb15883836040518363ffffffff1660e01b81526004016107fe929190612355565b6020604051808303816000875af115801561081d573d6000803e3d6000fd5b505050506040513d601f19601f820116820180604052508101906108419190612393565b5050505050565b600061085e67f092713b27c0491260c01b611e56565b61087267c04f046196d7504660c01b611e56565b610886679bd8adbab5bb934460c01b611e56565b600060149054906101000a900460ff1680156108ed575060008054906101000a900473ffffffffffffffffffffffffffffffffffffffff1673ffffffffffffffffffffffffffffffffffffffff168373ffffffffffffffffffffffffffffffffffffffff16145b15610bc75761090667f0a4e0dabf09c35060c01b611e56565b61091a67dd8c649eb16ed5fc60c01b611e56565b60008060146101000a81548160ff02191690831515021790555061094867c210282164d150ee60c01b611e56565b61095c67702da36bd9fe242d60c01b611e56565b60008054906101000a900473ffffffffffffffffffffffffffffffffffffffff1673ffffffffffffffffffffffffffffffffffffffff1663e2bbb158670de0b6b3a7640000671bc16d674ec800006040518363ffffffff1660e01b81526004016109c7929190612436565b6020604051808303816000875af1925050508015610a0357506040513d601f19601f82011682018060405250810190610a009190612393565b60015b15610a0a57505b610a1e6788b08ff0bf9f8fad60c01b611e56565b610a3267a6cbd393b594a39960c01b611e56565b60008054906101000a900473ffffffffffffffffffffffffffffffffffffffff1673ffffffffffffffffffffffffffffffffffffffff1663db006a7560016040518263ffffffff1660e01b8152600401610a8c919061249a565b60408051808303816000875af1925050508015610ac757506040513d601f19601f82011682018060405250810190610ac491906124b5565b60015b15610acf5750505b610ae3678061aa401ed01ec460c01b611e56565b610af76704f826a254563af960c01b611e56565b60008054906101000a900473ffffffffffffffffffffffffffffffffffffffff1673ffffffffffffffffffffffffffffffffffffffff16639f1d0f59600160009054906101000a900473ffffffffffffffffffffffffffffffffffffffff16670de0b6b3a764000060006040518463ffffffff1660e01b8152600401610b7f93929190612530565b6020604051808303816000875af1925050508015610bbb57506040513d601f19601f82011682018060405250810190610bb89190612393565b60015b15610bc257505b610bdc565b610bdb679a612dc99866ef9360c01b611e56565b5b610bf06742bf8ba288b3355a60c01b611e56565b610c0467881325157e2ff62b60c01b611e56565b610c1867516e2a48a6f5a79960c01b611e56565b81600460008673ffffffffffffffffffffffffffffffffffffffff1673ffffffffffffffffffffffffffffffffffffffff16815260200190815260200160002060003373ffffffffffffffffffffffffffffffffffffffff1673ffffffffffffffffffffffffffffffffffffffff168152602001908152602001600020541015610cd7576040517f08c379a0000000000000000000000000000000000000000000000000000000008152600401610cce906125b3565b60405180910390fd5b610ceb67c9ee187975eef58860c01b611e56565b610cff67df2edb35943fbe2b60c01b611e56565b610d136728ad77aad8e8fcf660c01b611e56565b610d2767abb8341b5ec6f5cf60c01b611e56565b81600360008673ffffffffffffffffffffffffffffffffffffffff1673ffffffffffffffffffffffffffffffffffffffff168152602001908152602001600020541015610da9576040517f08c379a0000000000000000000000000000000000000000000000000000000008152600401610da09061261f565b60405180910390fd5b610dbd675ee62374dbccb71e60c01b611e56565b610dd167b21107d525c2522260c01b611e56565b81600460008673ffffffffffffffffffffffffffffffffffffffff1673ffffffffffffffffffffffffffffffffffffffff16815260200190815260200160002060003373ffffffffffffffffffffffffffffffffffffffff1673ffffffffffffffffffffffffffffffffffffffff1681526020019081526020016000206000828254610e5d919061266e565b92505081905550610e7867479060c2dfe1d2dc60c01b611e56565b81600360008673ffffffffffffffffffffffffffffffffffffffff1673ffffffffffffffffffffffffffffffffffffffff1681526020019081526020016000206000828254610ec7919061266e565b92505081905550610ee2674dea8c2328d4843d60c01b611e56565b81600360008573ffffffffffffffffffffffffffffffffffffffff1673ffffffffffffffffffffffffffffffffffffffff1681526020019081526020016000206000828254610f3191906126a2565b92505081905550610f4c672d9ce4cad66ee27960c01b611e56565b610f6067e3838ad3ac1ecab460c01b611e56565b8273ffffffffffffffffffffffffffffffffffffffff168473ffffffffffffffffffffffffffffffffffffffff167fddf252ad1be2c89b69c2b068fc378daa952ba7f163c4a11628f55a4df523b3ef84604051610fbd9190612053565b60405180910390a3610fd967ecc20cf03f4b05e960c01b611e56565b610fed6775bbef6ad3fafcf960c01b611e56565b600190509392505050565b60008054906101000a900473ffffffffffffffffffffffffffffffffffffffff1681565b600660009054906101000a900460ff1681565b600060149054906101000a900460ff1681565b61105667108df62ce5d4410d60c01b611e56565b61106a675b7856d39204f6c160c01b611e56565b81600160006101000a81548173ffffffffffffffffffffffffffffffffffffffff021916908373ffffffffffffffffffffffffffffffffffffffff1602179055506110bf672d8a3911f3d1eea760c01b611e56565b80600260006101000a81548173ffffffffffffffffffffffffffffffffffffffff021916908373ffffffffffffffffffffffffffffffffffffffff16021790555061111467cfbc7f3d08b9e45660c01b611e56565b6111286785e88cafd23095a560c01b611e56565b600160009054906101000a900473ffffffffffffffffffffffffffffffffffffffff1673ffffffffffffffffffffffffffffffffffffffff1663095ea7b360008054906101000a900473ffffffffffffffffffffffffffffffffffffffff167fffffffffffffffffffffffffffffffffffffffffffffffffffffffffffffffff6040518363ffffffff1660e01b81526004016111c59291906122d3565b6020604051808303816000875af11580156111e4573d6000803e3d6000fd5b505050506040513d601f19601f820116820180604052508101906112089190612328565b5061121d67fe9a158efa7b13d960c01b611e56565b61123167466273666822330d60c01b611e56565b600260009054906101000a900473ffffffffffffffffffffffffffffffffffffffff1673ffffffffffffffffffffffffffffffffffffffff1663095ea7b360008054906101000a900473ffffffffffffffffffffffffffffffffffffffff167fffffffffffffffffffffffffffffffffffffffffffffffffffffffffffffffff6040518363ffffffff1660e01b81526004016112ce9291906122d3565b6020604051808303816000875af11580156112ed573d6000803e3d6000fd5b505050506040513d601f19601f820116820180604052508101906113119190612328565b506113266731c07f9e26f2b41960c01b611e56565b6001600060146101000a81548160ff0219169083151502179055506113556738c02c361ac6e9c160c01b611e56565b611369673dbfdc8016e3bd1a60c01b611e56565b60008054906101000a900473ffffffffffffffffffffffffffffffffffffffff1673ffffffffffffffffffffffffffffffffffffffff1663e2bbb15868056bc75e2d63100000680ad78ebc5ac62000006040518363ffffffff1660e01b81526004016113d692919061274c565b6020604051808303816000875af11580156113f5573d6000803e3d6000fd5b505050506040513d601f19601f820116820180604052508101906114199190612393565b505050565b600260009054906101000a900473ffffffffffffffffffffffffffffffffffffffff1681565b60036020528060005260406000206000915090505481565b611470679600f744f811cab260c01b611e56565b611484679702cd8829ef631860c01b611e56565b6001600060146101000a81548160ff0219169083151502179055506114b3674921479318a5142160c01b611e56565b6114c767400183ec4fa4250760c01b611e56565b60008060009054906101000a900473ffffffffffffffffffffffffffffffffffffffff1673ffffffffffffffffffffffffffffffffffffffff166370a08231306040518263ffffffff1660e01b81526004016115239190612029565b602060405180830381865afa158015611540573d6000803e3d6000fd5b505050506040513d601f19601f820116820180604052508101906115649190612393565b905061157a67bb598d0cef529ccb60c01b611e56565b61158e6720471603c6d2e9bb60c01b611e56565b60008054906101000a900473ffffffffffffffffffffffffffffffffffffffff1673ffffffffffffffffffffffffffffffffffffffff1663db006a75826040518263ffffffff1660e01b81526004016115e79190612053565b60408051808303816000875af1158015611605573d6000803e3d6000fd5b505050506040513d601f19601f8201168201806040525081019061162991906124b5565b505050565b611642676a1c99a2d56030c560c01b611e56565b611656671796f271e8e9e6be60c01b611e56565b61166a67fede9d49af8bbd5760c01b611e56565b8173ffffffffffffffffffffffffffffffffffffffff1663095ea7b360008054906101000a900473ffffffffffffffffffffffffffffffffffffffff167fffffffffffffffffffffffffffffffffffffffffffffffffffffffffffffffff6040518363ffffffff1660e01b81526004016116e59291906122d3565b6020604051808303816000875af1158015611704573d6000803e3d6000fd5b505050506040513d601f19601f820116820180604052508101906117289190612328565b5061173d6792e2046191c8d66960c01b611e56565b6001600060146101000a81548160ff02191690831515021790555061176c678c568d12fbe3e7ac60c01b611e56565b6117806764c1165e068820c060c01b611e56565b60008054906101000a900473ffffffffffffffffffffffffffffffffffffffff1673ffffffffffffffffffffffffffffffffffffffff16639f1d0f59838360006040518463ffffffff1660e01b81526004016117de93929190612775565b6020604051808303816000875af11580156117fd573d6000803e3d6000fd5b505050506040513d601f19601f820116820180604052508101906118219190612393565b505050565b60088054611833906122a2565b80601f016020809104026020016040519081016040528092919081815260200182805461185f906122a2565b80156118ac5780601f10611881576101008083540402835291602001916118ac565b820191906000526020600020905b81548152906001019060200180831161188f57829003601f168201915b505050505081565b6118c8671418a95e80c756f960c01b611e56565b6118dc677ea6c14721fd6dbe60c01b611e56565b80600360003073ffffffffffffffffffffffffffffffffffffffff1673ffffffffffffffffffffffffffffffffffffffff168152602001908152602001600020600082825461192b91906126a2565b9250508190555061194667582ae086b087e02960c01b611e56565b806005600082825461195891906126a2565b9250508190555061197367959cf7a98d0435d660c01b611e56565b61198767e1ea1ca16490113f60c01b611e56565b3073ffffffffffffffffffffffffffffffffffffffff16600073ffffffffffffffffffffffffffffffffffffffff167fddf252ad1be2c89b69c2b068fc378daa952ba7f163c4a11628f55a4df523b3ef836040516119e59190612053565b60405180910390a350565b6000611a0667735dd18cf743690160c01b611e56565b611a1a67a73e0b0960074c8f60c01b611e56565b611a2e67fe4462bd4612f15360c01b611e56565b600060149054906101000a900460ff168015611a95575060008054906101000a900473ffffffffffffffffffffffffffffffffffffffff1673ffffffffffffffffffffffffffffffffffffffff168373ffffffffffffffffffffffffffffffffffffffff16145b15611bb757611aae675da0b413bed7b91860c01b611e56565b611ac2671bbeae45e5ca13e460c01b611e56565b60008060146101000a81548160ff021916908315150217905550611af067128aab9fc43a81fe60c01b611e56565b611b0467dfc0514a282d678160c01b611e56565b60008054906101000a900473ffffffffffffffffffffffffffffffffffffffff1673ffffffffffffffffffffffffffffffffffffffff1663e2bbb158670de0b6b3a7640000671bc16d674ec800006040518363ffffffff1660e01b8152600401611b6f929190612436565b6020604051808303816000875af1925050508015611bab57506040513d601f19601f82011682018060405250810190611ba89190612393565b60015b15611bb257505b611bcc565b611bcb6739299ebec24cf66c60c01b611e56565b5b611be067fb5496db29209ed060c01b611e56565b611bf467f6f2cd712dc8f67b60c01b611e56565b611c0867e5e1cd6faede55d060c01b611e56565b81600360003373ffffffffffffffffffffffffffffffffffffffff1673ffffffffffffffffffffffffffffffffffffffff168152602001908152602001600020541015611c8a576040517f08c379a0000000000000000000000000000000000000000000000000000000008152600401611c819061261f565b60405180910390fd5b611c9e6739fbc59a1ce8932160c01b611e56565b611cb267354ae4181d60ecb260c01b611e56565b81600360003373ffffffffffffffffffffffffffffffffffffffff1673ffffffffffffffffffffffffffffffffffffffff1681526020019081526020016000206000828254611d01919061266e565b92505081905550611d1c673e8883cb17f95c8860c01b611e56565b81600360008573ffffffffffffffffffffffffffffffffffffffff1673ffffffffffffffffffffffffffffffffffffffff1681526020019081526020016000206000828254611d6b91906126a2565b92505081905550611d86675c89311862436d5660c01b611e56565b611d9a67bcd8113d5cb5447c60c01b611e56565b8273ffffffffffffffffffffffffffffffffffffffff163373ffffffffffffffffffffffffffffffffffffffff167fddf252ad1be2c89b69c2b068fc378daa952ba7f163c4a11628f55a4df523b3ef84604051611df79190612053565b60405180910390a3611e1367bcaeef770626481c60c01b611e56565b611e2767b3d4018f662ad87660c01b611e56565b6001905092915050565b6004602052816000526040600020602052806000526040600020600091509150505481565b50565b600081519050919050565b600082825260208201905092915050565b60005b83811015611e93578082015181840152602081019050611e78565b60008484015250505050565b6000601f19601f8301169050919050565b6000611ebb82611e59565b611ec58185611e64565b9350611ed5818560208601611e75565b611ede81611e9f565b840191505092915050565b60006020820190508181036000830152611f038184611eb0565b905092915050565b600080fd5b600073ffffffffffffffffffffffffffffffffffffffff82169050919050565b6000611f3b82611f10565b9050919050565b611f4b81611f30565b8114611f5657600080fd5b50565b600081359050611f6881611f42565b92915050565b6000819050919050565b611f8181611f6e565b8114611f8c57600080fd5b50565b600081359050611f9e81611f78565b92915050565b60008060408385031215611fbb57611fba611f0b565b5b6000611fc985828601611f59565b9250506020611fda85828601611f8f565b9150509250929050565b60008115159050919050565b611ff981611fe4565b82525050565b60006020820190506120146000830184611ff0565b92915050565b61202381611f30565b82525050565b600060208201905061203e600083018461201a565b92915050565b61204d81611f6e565b82525050565b60006020820190506120686000830184612044565b92915050565b6000806000806080858703121561208857612087611f0b565b5b600061209687828801611f59565b94505060206120a787828801611f59565b93505060406120b887828801611f8f565b92505060606120c987828801611f8f565b91505092959194509250565b6000806000606084860312156120ee576120ed611f0b565b5b60006120fc86828701611f59565b935050602061210d86828701611f59565b925050604061211e86828701611f8f565b9150509250925092565b6000819050919050565b600061214d61214861214384611f10565b612128565b611f10565b9050919050565b600061215f82612132565b9050919050565b600061217182612154565b9050919050565b61218181612166565b82525050565b600060208201905061219c6000830184612178565b92915050565b600060ff82169050919050565b6121b8816121a2565b82525050565b60006020820190506121d360008301846121af565b92915050565b600080604083850312156121f0576121ef611f0b565b5b60006121fe85828601611f59565b925050602061220f85828601611f59565b9150509250929050565b60006020828403121561222f5761222e611f0b565b5b600061223d84828501611f59565b91505092915050565b60006020828403121561225c5761225b611f0b565b5b600061226a84828501611f8f565b91505092915050565b7f4e487b7100000000000000000000000000000000000000000000000000000000600052602260045260246000fd5b600060028204905060018216806122ba57607f821691505b6020821081036122cd576122cc612273565b5b50919050565b60006040820190506122e8600083018561201a565b6122f56020830184612044565b9392505050565b61230581611fe4565b811461231057600080fd5b50565b600081519050612322816122fc565b92915050565b60006020828403121561233e5761233d611f0b565b5b600061234c84828501612313565b91505092915050565b600060408201905061236a6000830185612044565b6123776020830184612044565b9392505050565b60008151905061238d81611f78565b92915050565b6000602082840312156123a9576123a8611f0b565b5b60006123b78482850161237e565b91505092915050565b6000819050919050565b60006123e56123e06123db846123c0565b612128565b611f6e565b9050919050565b6123f5816123ca565b82525050565b6000819050919050565b600061242061241b612416846123fb565b612128565b611f6e565b9050919050565b61243081612405565b82525050565b600060408201905061244b60008301856123ec565b6124586020830184612427565b9392505050565b6000819050919050565b600061248461247f61247a8461245f565b612128565b611f6e565b9050919050565b61249481612469565b82525050565b60006020820190506124af600083018461248b565b92915050565b600080604083850312156124cc576124cb611f0b565b5b60006124da8582860161237e565b92505060206124eb8582860161237e565b9150509250929050565b6000819050919050565b600061251a612515612510846124f5565b612128565b611f6e565b9050919050565b61252a816124ff565b82525050565b6000606082019050612545600083018661201a565b61255260208301856123ec565b61255f6040830184612521565b949350505050565b7f496e73756666696369656e7420616c6c6f77616e636500000000000000000000600082015250565b600061259d601683611e64565b91506125a882612567565b602082019050919050565b600060208201905081810360008301526125cc81612590565b9050919050565b7f496e73756666696369656e742062616c616e6365000000000000000000000000600082015250565b6000612609601483611e64565b9150612614826125d3565b602082019050919050565b60006020820190508181036000830152612638816125fc565b9050919050565b7f4e487b7100000000000000000000000000000000000000000000000000000000600052601160045260246000fd5b600061267982611f6e565b915061268483611f6e565b925082820390508181111561269c5761269b61263f565b5b92915050565b60006126ad82611f6e565b91506126b883611f6e565b92508282019050808211156126d0576126cf61263f565b5b92915050565b6000819050919050565b60006126fb6126f66126f1846126d6565b612128565b611f6e565b9050919050565b61270b816126e0565b82525050565b6000819050919050565b600061273661273161272c84612711565b612128565b611f6e565b9050919050565b6127468161271b565b82525050565b60006040820190506127616000830185612702565b61276e602083018461273d565b9392505050565b600060608201905061278a600083018661201a565b6127976020830185612044565b6127a46040830184612521565b94935050505056fea2646970667358221220fa63109319e9cfd9fc04424ae04e71ad245df1792b599e614a0f0a4a5652071c64736f6c63430008140033",
  "linkReferences": {},
  "deployedLinkReferences": {}
}